{
  "contractName": "Accounts",
  "abi": [
    {
      "constant": true,
      "inputs": [],
      "name": "userCount",
      "outputs": [
        {
          "name": "",
          "type": "uint256"
        }
      ],
      "payable": false,
      "stateMutability": "view",
      "type": "function"
    },
    {
      "constant": true,
      "inputs": [
        {
          "name": "",
          "type": "uint256"
        }
      ],
      "name": "userIDs",
      "outputs": [
        {
          "name": "",
          "type": "address"
        }
      ],
      "payable": false,
      "stateMutability": "view",
      "type": "function"
    },
    {
      "constant": false,
      "inputs": [
        {
          "name": "_name",
          "type": "string"
        },
        {
          "name": "_email",
          "type": "string"
        }
      ],
      "name": "registerAccount",
      "outputs": [],
      "payable": false,
      "stateMutability": "nonpayable",
      "type": "function"
    },
    {
      "constant": false,
      "inputs": [
        {
          "name": "_newName",
          "type": "string"
        },
        {
          "name": "_newEmail",
          "type": "string"
        }
      ],
      "name": "modifyAccount",
      "outputs": [],
      "payable": false,
      "stateMutability": "nonpayable",
      "type": "function"
    },
    {
      "constant": true,
      "inputs": [
        {
          "name": "_user",
          "type": "address"
        }
      ],
      "name": "isRegistered",
      "outputs": [
        {
          "name": "",
          "type": "bool"
        }
      ],
      "payable": false,
      "stateMutability": "view",
      "type": "function"
    }
  ],
  "bytecode": "0x608060405234801561001057600080fd5b506107f4806100206000396000f3fe60806040526004361061006d576000357c0100000000000000000000000000000000000000000000000000000000900463ffffffff16806307973ccf14610072578063c3c5a5471461009d578063ddc7b6a714610106578063edfec35e14610265578063f4769e86146102e0575b600080fd5b34801561007e57600080fd5b5061008761043f565b6040518082815260200191505060405180910390f35b3480156100a957600080fd5b506100ec600480360360208110156100c057600080fd5b81019080803573ffffffffffffffffffffffffffffffffffffffff169060200190929190505050610445565b604051808215151515815260200191505060405180910390f35b34801561011257600080fd5b506102636004803603604081101561012957600080fd5b810190808035906020019064010000000081111561014657600080fd5b82018360208201111561015857600080fd5b8035906020019184600183028401116401000000008311171561017a57600080fd5b91908080601f016020809104026020016040519081016040528093929190818152602001838380828437600081840152601f19601f820116905080830192505050505050509192919290803590602001906401000000008111156101dd57600080fd5b8201836020820111156101ef57600080fd5b8035906020019184600183028401116401000000008311171561021157600080fd5b91908080601f016020809104026020016040519081016040528093929190818152602001838380828437600081840152601f19601f820116905080830192505050505050509192919290505050610494565b005b34801561027157600080fd5b5061029e6004803603602081101561028857600080fd5b81019080803590602001909291905050506105d7565b604051808273ffffffffffffffffffffffffffffffffffffffff1673ffffffffffffffffffffffffffffffffffffffff16815260200191505060405180910390f35b3480156102ec57600080fd5b5061043d6004803603604081101561030357600080fd5b810190808035906020019064010000000081111561032057600080fd5b82018360208201111561033257600080fd5b8035906020019184600183028401116401000000008311171561035457600080fd5b91908080601f016020809104026020016040519081016040528093929190818152602001838380828437600081840152601f19601f820116905080830192505050505050509192919290803590602001906401000000008111156103b757600080fd5b8201836020820111156103c957600080fd5b803590602001918460018302840111640100000000831117156103eb57600080fd5b91908080601f016020809104026020016040519081016040528093929190818152602001838380828437600081840152601f19601f820116905080830192505050505050509192919290505050610615565b005b60005481565b600080600260008473ffffffffffffffffffffffffffffffffffffffff1673ffffffffffffffffffffffffffffffffffffffff1681526020019081526020016000206002015414159050919050565b61049d33610445565b1515156104a957600080fd5b6080604051908101604052808381526020018281526020014281526020016000815250600260003373ffffffffffffffffffffffffffffffffffffffff1673ffffffffffffffffffffffffffffffffffffffff16815260200190815260200160002060008201518160000190805190602001906105279291906106a3565b5060208201518160010190805190602001906105449291906106a3565b50604082015181600201556060820151816003015590505060013390806001815401808255809150509060018203906000526020600020016000909192909190916101000a81548173ffffffffffffffffffffffffffffffffffffffff021916908373ffffffffffffffffffffffffffffffffffffffff1602179055505060008081548092919060010191905055505050565b6001818154811015156105e657fe5b906000526020600020016000915054906101000a900473ffffffffffffffffffffffffffffffffffffffff1681565b61061e33610445565b151561062957600080fd5b6000600260003373ffffffffffffffffffffffffffffffffffffffff1673ffffffffffffffffffffffffffffffffffffffff168152602001908152602001600020905082816000019080519060200190610684929190610723565b508181600101908051906020019061069d929190610723565b50505050565b828054600181600116156101000203166002900490600052602060002090601f016020900481019282601f106106e457805160ff1916838001178555610712565b82800160010185558215610712579182015b828111156107115782518255916020019190600101906106f6565b5b50905061071f91906107a3565b5090565b828054600181600116156101000203166002900490600052602060002090601f016020900481019282601f1061076457805160ff1916838001178555610792565b82800160010185558215610792579182015b82811115610791578251825591602001919060010190610776565b5b50905061079f91906107a3565b5090565b6107c591905b808211156107c15760008160009055506001016107a9565b5090565b9056fea165627a7a723058204de08926b8127241fd8d7777b65d6e8c5b882eb51f1bc11cbbcdb15f956fcd630029",
  "source": "pragma solidity ^0.5.0;\n\ncontract Accounts {\n\n    uint public userCount;\n\n    struct User {\n        string name;\n        string email;\n        uint createdAt;\n        uint numPatents;\n        mapping(uint => string) patentIDs;\n    }\n\n    address[] public userIDs; // user addresses\n    mapping(address => User) private users; // user ID (address) to User\n\n    /* Function to register a new user\n    * {params} the user information\n    */\n    function registerAccount(string memory _name, string memory _email) public {\n        require(!isRegistered(msg.sender));\n        users[msg.sender] = User(_name, _email, now, 0);\n        userIDs.push(msg.sender);\n        userCount++;\n    }\n\n    /* Function to modify the user information */\n    function modifyAccount(string memory _newName, string memory _newEmail) public {\n        require(isRegistered(msg.sender));\n        User storage u = users[msg.sender];\n        u.name = _newName;\n        u.email = _newEmail;\n    }\n\n    /*Returns true if the given account has already been registered*/\n    function isRegistered(address _user) public view returns (bool) {\n        return users[_user].createdAt != 0;\n    }\n}\n",
  "sourcePath": "/Users/axel/Developer/DNAM/Web-Applications/react-app/contracts/Accounts.sol",
  "compiler": {
    "name": "solc",
    "version": "0.5.0+commit.1d4f565a.Emscripten.clang"
  },
  "schemaVersion": "3.0.2",
  "updatedAt": "2019-05-17T10:29:54.242Z",
  "devdoc": {
    "methods": {}
  },
  "userdoc": {
    "methods": {}
  }
}