{
  "contractName": "Account",
  "abi": [
    {
      "constant": false,
      "inputs": [
        {
          "name": "_newOwner",
          "type": "address"
        }
      ],
      "name": "changeOwner",
      "outputs": [],
      "payable": false,
      "stateMutability": "nonpayable",
      "type": "function",
      "signature": "0xa6f9dae1"
    },
    {
      "constant": true,
      "inputs": [
        {
          "name": "",
          "type": "uint256"
        }
      ],
      "name": "userIDs",
      "outputs": [
        {
          "name": "",
          "type": "address"
        }
      ],
      "payable": false,
      "stateMutability": "view",
      "type": "function",
      "signature": "0xedfec35e"
    },
    {
      "constant": false,
      "inputs": [
        {
          "name": "_name",
          "type": "string"
        },
        {
          "name": "_email",
          "type": "string"
        }
      ],
      "name": "registerAccount",
      "outputs": [],
      "payable": false,
      "stateMutability": "nonpayable",
      "type": "function",
      "signature": "0xddc7b6a7"
    },
    {
      "constant": false,
      "inputs": [
        {
          "name": "_newName",
          "type": "string"
        },
        {
          "name": "_newEmail",
          "type": "string"
        }
      ],
      "name": "modifyAccount",
      "outputs": [],
      "payable": false,
      "stateMutability": "nonpayable",
      "type": "function",
      "signature": "0xf4769e86"
    },
    {
      "constant": true,
      "inputs": [],
      "name": "userCount",
      "outputs": [
        {
          "name": "",
          "type": "uint256"
        }
      ],
      "payable": false,
      "stateMutability": "view",
      "type": "function",
      "signature": "0x07973ccf"
    },
    {
      "constant": true,
      "inputs": [
        {
          "name": "_user",
          "type": "address"
        }
      ],
      "name": "hasAccount",
      "outputs": [
        {
          "name": "",
          "type": "bool"
        }
      ],
      "payable": false,
      "stateMutability": "view",
      "type": "function",
      "signature": "0xc8e40fbf"
    },
    {
      "constant": true,
      "inputs": [
        {
          "name": "_user",
          "type": "address"
        }
      ],
      "name": "getNumPatents",
      "outputs": [
        {
          "name": "",
          "type": "uint256"
        }
      ],
      "payable": false,
      "stateMutability": "view",
      "type": "function",
      "signature": "0xb110660a"
    },
    {
      "constant": true,
      "inputs": [
        {
          "name": "_user",
          "type": "address"
        },
        {
          "name": "_index",
          "type": "uint256"
        }
      ],
      "name": "getOwnedPatentIDs",
      "outputs": [
        {
          "name": "",
          "type": "string"
        }
      ],
      "payable": false,
      "stateMutability": "view",
      "type": "function",
      "signature": "0xdcb06c59"
    }
  ],
  "bytecode": "0x6080604052336000806101000a81548173ffffffffffffffffffffffffffffffffffffffff021916908373ffffffffffffffffffffffffffffffffffffffff16021790555034801561005057600080fd5b50610c99806100606000396000f3fe60806040526004361061008e576000357c0100000000000000000000000000000000000000000000000000000000900463ffffffff16806307973ccf14610093578063a6f9dae1146100be578063b110660a1461010f578063c8e40fbf14610174578063dcb06c59146101dd578063ddc7b6a7146102b1578063edfec35e14610410578063f4769e861461048b575b600080fd5b34801561009f57600080fd5b506100a86105ea565b6040518082815260200191505060405180910390f35b3480156100ca57600080fd5b5061010d600480360360208110156100e157600080fd5b81019080803573ffffffffffffffffffffffffffffffffffffffff1690602001909291905050506105f7565b005b34801561011b57600080fd5b5061015e6004803603602081101561013257600080fd5b81019080803573ffffffffffffffffffffffffffffffffffffffff169060200190929190505050610695565b6040518082815260200191505060405180910390f35b34801561018057600080fd5b506101c36004803603602081101561019757600080fd5b81019080803573ffffffffffffffffffffffffffffffffffffffff1690602001909291905050506106e4565b604051808215151515815260200191505060405180910390f35b3480156101e957600080fd5b506102366004803603604081101561020057600080fd5b81019080803573ffffffffffffffffffffffffffffffffffffffff16906020019092919080359060200190929190505050610733565b6040518080602001828103825283818151815260200191508051906020019080838360005b8381101561027657808201518184015260208101905061025b565b50505050905090810190601f1680156102a35780820380516001836020036101000a031916815260200191505b509250505060405180910390f35b3480156102bd57600080fd5b5061040e600480360360408110156102d457600080fd5b81019080803590602001906401000000008111156102f157600080fd5b82018360208201111561030357600080fd5b8035906020019184600183028401116401000000008311171561032557600080fd5b91908080601f016020809104026020016040519081016040528093929190818152602001838380828437600081840152601f19601f8201169050808301925050505050505091929192908035906020019064010000000081111561038857600080fd5b82018360208201111561039a57600080fd5b803590602001918460018302840111640100000000831117156103bc57600080fd5b91908080601f016020809104026020016040519081016040528093929190818152602001838380828437600081840152601f19601f82011690508083019250505050505050919291929050505061082f565b005b34801561041c57600080fd5b506104496004803603602081101561043357600080fd5b81019080803590602001909291905050506109a8565b604051808273ffffffffffffffffffffffffffffffffffffffff1673ffffffffffffffffffffffffffffffffffffffff16815260200191505060405180910390f35b34801561049757600080fd5b506105e8600480360360408110156104ae57600080fd5b81019080803590602001906401000000008111156104cb57600080fd5b8201836020820111156104dd57600080fd5b803590602001918460018302840111640100000000831117156104ff57600080fd5b91908080601f016020809104026020016040519081016040528093929190818152602001838380828437600081840152601f19601f8201169050808301925050505050505091929192908035906020019064010000000081111561056257600080fd5b82018360208201111561057457600080fd5b8035906020019184600183028401116401000000008311171561059657600080fd5b91908080601f016020809104026020016040519081016040528093929190818152602001838380828437600081840152601f19601f8201169050808301925050505050505091929192905050506109e6565b005b6000600180549050905090565b6000809054906101000a900473ffffffffffffffffffffffffffffffffffffffff1673ffffffffffffffffffffffffffffffffffffffff163373ffffffffffffffffffffffffffffffffffffffff1614151561065257600080fd5b806000806101000a81548173ffffffffffffffffffffffffffffffffffffffff021916908373ffffffffffffffffffffffffffffffffffffffff16021790555050565b6000600260008373ffffffffffffffffffffffffffffffffffffffff1673ffffffffffffffffffffffffffffffffffffffff168152602001908152602001600020600301805490509050919050565b600080600260008473ffffffffffffffffffffffffffffffffffffffff1673ffffffffffffffffffffffffffffffffffffffff1681526020019081526020016000206002015414159050919050565b6060600260008473ffffffffffffffffffffffffffffffffffffffff1673ffffffffffffffffffffffffffffffffffffffff1681526020019081526020016000206003018281548110151561078457fe5b906000526020600020018054600181600116156101000203166002900480601f0160208091040260200160405190810160405280929190818152602001828054600181600116156101000203166002900480156108225780601f106107f757610100808354040283529160200191610822565b820191906000526020600020905b81548152906001019060200180831161080557829003601f168201915b5050505050905092915050565b610838336106e4565b15151561084457600080fd5b608060405190810160405280838152602001828152602001428152602001600060405190808252806020026020018201604052801561089757816020015b60608152602001906001900390816108825790505b50815250600260003373ffffffffffffffffffffffffffffffffffffffff1673ffffffffffffffffffffffffffffffffffffffff16815260200190815260200160002060008201518160000190805190602001906108f6929190610a74565b506020820151816001019080519060200190610913929190610a74565b5060408201518160020155606082015181600301908051906020019061093a929190610af4565b5090505060013390806001815401808255809150509060018203906000526020600020016000909192909190916101000a81548173ffffffffffffffffffffffffffffffffffffffff021916908373ffffffffffffffffffffffffffffffffffffffff160217905550505050565b6001818154811015156109b757fe5b906000526020600020016000915054906101000a900473ffffffffffffffffffffffffffffffffffffffff1681565b6109ef336106e4565b15156109fa57600080fd5b6000600260003373ffffffffffffffffffffffffffffffffffffffff1673ffffffffffffffffffffffffffffffffffffffff168152602001908152602001600020905082816000019080519060200190610a55929190610b54565b5081816001019080519060200190610a6e929190610b54565b50505050565b828054600181600116156101000203166002900490600052602060002090601f016020900481019282601f10610ab557805160ff1916838001178555610ae3565b82800160010185558215610ae3579182015b82811115610ae2578251825591602001919060010190610ac7565b5b509050610af09190610bd4565b5090565b828054828255906000526020600020908101928215610b43579160200282015b82811115610b42578251829080519060200190610b32929190610a74565b5091602001919060010190610b14565b5b509050610b509190610bf9565b5090565b828054600181600116156101000203166002900490600052602060002090601f016020900481019282601f10610b9557805160ff1916838001178555610bc3565b82800160010185558215610bc3579182015b82811115610bc2578251825591602001919060010190610ba7565b5b509050610bd09190610bd4565b5090565b610bf691905b80821115610bf2576000816000905550600101610bda565b5090565b90565b610c2291905b80821115610c1e5760008181610c159190610c25565b50600101610bff565b5090565b90565b50805460018160011615610100020316600290046000825580601f10610c4b5750610c6a565b601f016020900490600052602060002090810190610c699190610bd4565b5b5056fea165627a7a7230582022e67a71baf2340a260c6e0a831dc88647a70c286cf3c4d1f57974ec5a07c8ce0029",
  "source": "pragma solidity ^0.5.0;\n\nimport './AccessRestricted.sol';\n\ncontract Account is AccessRestricted {\n\n    /* Struct for user account */\n    struct User {\n        string name;\n        string email;\n        uint createdAt;\n        string[] ownedPatentIDs;\n    }\n\n    address[] public userIDs; // user addresses\n    mapping(address => User) internal users; // user ID (address) to User\n\n    /* ========================================= USER MANAGEMENT FUNCTIONS ======================================== */\n\n    /* Function to register a new user */\n    function registerAccount(string memory _name, string memory _email) public {\n        require(!hasAccount(msg.sender));\n        users[msg.sender] = User(_name, _email, now, new string[](0));\n        userIDs.push(msg.sender);\n        // emit newAccount\n    }\n\n    /* Function to modify the user information */\n    function modifyAccount(string memory _newName, string memory _newEmail) public {\n        require(hasAccount(msg.sender));\n        User storage u = users[msg.sender];\n        u.name = _newName;\n        u.email = _newEmail;\n    }\n\n    /* ============================== View functions that do not require transactions ============================== */\n\n    /*Returns number of registered users*/\n    function userCount() public view returns (uint){\n        return userIDs.length;\n    }\n\n    /*Returns true if the given account has already been registered*/\n    function hasAccount(address _user) public view returns (bool) {\n        return users[_user].createdAt != 0;\n    }\n\n    /*Returns the number of patents owned by the user*/\n    function getNumPatents(address _user) public view returns (uint){\n        return users[_user].ownedPatentIDs.length;\n    }\n\n    /*Returns the patent of the _user at index i (Used for iterating)*/\n    function getOwnedPatentIDs(address _user, uint _index) public view returns (string memory){\n        return users[_user].ownedPatentIDs[_index];\n    }\n}\n",
  "sourcePath": "/Users/axel/Developer/DNAM/Web-Applications/react-app/contracts/Account.sol",
  "compiler": {
    "name": "solc",
    "version": "0.5.0+commit.1d4f565a.Emscripten.clang"
  },
  "schemaVersion": "3.0.2",
  "updatedAt": "2019-05-20T11:35:29.176Z",
  "devdoc": {
    "methods": {}
  },
  "userdoc": {
    "methods": {}
  }
}