{
  "contractName": "Patenting",
  "abi": [
    {
      "constant": true,
      "inputs": [],
      "name": "patentPrice",
      "outputs": [
        {
          "name": "",
          "type": "uint256"
        }
      ],
      "payable": false,
      "stateMutability": "view",
      "type": "function",
      "signature": "0x0638c22c"
    },
    {
      "constant": true,
      "inputs": [
        {
          "name": "",
          "type": "uint256"
        }
      ],
      "name": "patentNames",
      "outputs": [
        {
          "name": "",
          "type": "string"
        }
      ],
      "payable": false,
      "stateMutability": "view",
      "type": "function",
      "signature": "0x41e14449"
    },
    {
      "constant": true,
      "inputs": [],
      "name": "owner",
      "outputs": [
        {
          "name": "",
          "type": "address"
        }
      ],
      "payable": false,
      "stateMutability": "view",
      "type": "function",
      "signature": "0x8da5cb5b"
    },
    {
      "constant": false,
      "inputs": [
        {
          "name": "_newOwner",
          "type": "address"
        }
      ],
      "name": "changeOwner",
      "outputs": [],
      "payable": false,
      "stateMutability": "nonpayable",
      "type": "function",
      "signature": "0xa6f9dae1"
    },
    {
      "constant": true,
      "inputs": [],
      "name": "patentCount",
      "outputs": [
        {
          "name": "",
          "type": "uint256"
        }
      ],
      "payable": false,
      "stateMutability": "view",
      "type": "function",
      "signature": "0xb084c841"
    },
    {
      "inputs": [
        {
          "name": "_patentPrice",
          "type": "uint256"
        },
        {
          "name": "_fiatContract",
          "type": "address"
        }
      ],
      "payable": false,
      "stateMutability": "nonpayable",
      "type": "constructor",
      "signature": "constructor"
    },
    {
      "anonymous": false,
      "inputs": [
        {
          "indexed": false,
          "name": "_ownerMail",
          "type": "string"
        },
        {
          "indexed": false,
          "name": "_patentName",
          "type": "string"
        },
        {
          "indexed": false,
          "name": "_rentee",
          "type": "address"
        }
      ],
      "name": "NewRequest",
      "type": "event",
      "signature": "0x7e558bb9898d8d17809158db6c967a8ea47d93a15a5d359a1186352a086cfb7c"
    },
    {
      "anonymous": false,
      "inputs": [
        {
          "indexed": false,
          "name": "_requesterEmail",
          "type": "string"
        },
        {
          "indexed": false,
          "name": "_patentName",
          "type": "string"
        },
        {
          "indexed": false,
          "name": "_accepted",
          "type": "bool"
        }
      ],
      "name": "RequestResponse",
      "type": "event",
      "signature": "0x87deb0bf3260371a3845769d523869b17a51dab5e82dd1d7db896b489fe42f57"
    },
    {
      "constant": true,
      "inputs": [
        {
          "name": "_dollars",
          "type": "uint256"
        }
      ],
      "name": "getEthPrice",
      "outputs": [
        {
          "name": "",
          "type": "uint256"
        }
      ],
      "payable": false,
      "stateMutability": "view",
      "type": "function",
      "signature": "0x870d365d"
    },
    {
      "constant": false,
      "inputs": [
        {
          "name": "_patentName",
          "type": "string"
        },
        {
          "name": "_patentHash",
          "type": "string"
        },
        {
          "name": "_price",
          "type": "uint256"
        },
        {
          "name": "_ipfs",
          "type": "string"
        },
        {
          "name": "_email",
          "type": "string"
        }
      ],
      "name": "depositPatent",
      "outputs": [],
      "payable": true,
      "stateMutability": "payable",
      "type": "function",
      "signature": "0xeb3e8bf8"
    },
    {
      "constant": false,
      "inputs": [
        {
          "name": "_patentName",
          "type": "string"
        },
        {
          "name": "_newIpfs",
          "type": "string"
        }
      ],
      "name": "setIpfs",
      "outputs": [],
      "payable": true,
      "stateMutability": "payable",
      "type": "function",
      "signature": "0xeb709ab0"
    },
    {
      "constant": false,
      "inputs": [
        {
          "name": "_patentName",
          "type": "string"
        },
        {
          "name": "_encryptionKey",
          "type": "string"
        },
        {
          "name": "_email",
          "type": "string"
        }
      ],
      "name": "requestAccess",
      "outputs": [],
      "payable": true,
      "stateMutability": "payable",
      "type": "function",
      "signature": "0xdb6a88ec"
    },
    {
      "constant": false,
      "inputs": [
        {
          "name": "_patentName",
          "type": "string"
        }
      ],
      "name": "resendRequest",
      "outputs": [],
      "payable": true,
      "stateMutability": "payable",
      "type": "function",
      "signature": "0xfd11ff49"
    },
    {
      "constant": false,
      "inputs": [
        {
          "name": "_patentName",
          "type": "string"
        },
        {
          "name": "_user",
          "type": "address"
        },
        {
          "name": "_encryptedIpfsKey",
          "type": "string"
        }
      ],
      "name": "grantAccess",
      "outputs": [],
      "payable": false,
      "stateMutability": "nonpayable",
      "type": "function",
      "signature": "0x5d98dde8"
    },
    {
      "constant": false,
      "inputs": [
        {
          "name": "_patentName",
          "type": "string"
        },
        {
          "name": "_user",
          "type": "address"
        }
      ],
      "name": "rejectAccess",
      "outputs": [],
      "payable": false,
      "stateMutability": "nonpayable",
      "type": "function",
      "signature": "0xa6966e25"
    },
    {
      "constant": false,
      "inputs": [
        {
          "name": "_patentName",
          "type": "string"
        }
      ],
      "name": "cancelRequest",
      "outputs": [],
      "payable": false,
      "stateMutability": "nonpayable",
      "type": "function",
      "signature": "0xe489445d"
    },
    {
      "constant": false,
      "inputs": [],
      "name": "withdrawFunds",
      "outputs": [],
      "payable": false,
      "stateMutability": "nonpayable",
      "type": "function",
      "signature": "0x24600fc3"
    },
    {
      "constant": true,
      "inputs": [
        {
          "name": "_patentName",
          "type": "string"
        },
        {
          "name": "_account",
          "type": "address"
        }
      ],
      "name": "canRequest",
      "outputs": [
        {
          "name": "",
          "type": "bool"
        }
      ],
      "payable": false,
      "stateMutability": "view",
      "type": "function",
      "signature": "0x2294de45"
    },
    {
      "constant": true,
      "inputs": [
        {
          "name": "_patentName",
          "type": "string"
        },
        {
          "name": "_account",
          "type": "address"
        }
      ],
      "name": "getRequestStatus",
      "outputs": [
        {
          "name": "",
          "type": "uint8"
        }
      ],
      "payable": false,
      "stateMutability": "view",
      "type": "function",
      "signature": "0xe2f99c7e"
    },
    {
      "constant": true,
      "inputs": [
        {
          "name": "_patentName",
          "type": "string"
        },
        {
          "name": "_account",
          "type": "address"
        }
      ],
      "name": "isNotRequested",
      "outputs": [
        {
          "name": "",
          "type": "bool"
        }
      ],
      "payable": false,
      "stateMutability": "view",
      "type": "function",
      "signature": "0x47ce3d6f"
    },
    {
      "constant": true,
      "inputs": [
        {
          "name": "_patentName",
          "type": "string"
        },
        {
          "name": "_account",
          "type": "address"
        }
      ],
      "name": "isPending",
      "outputs": [
        {
          "name": "",
          "type": "bool"
        }
      ],
      "payable": false,
      "stateMutability": "view",
      "type": "function",
      "signature": "0xbe3e0722"
    },
    {
      "constant": true,
      "inputs": [
        {
          "name": "_patentName",
          "type": "string"
        },
        {
          "name": "_account",
          "type": "address"
        }
      ],
      "name": "isAccepted",
      "outputs": [
        {
          "name": "",
          "type": "bool"
        }
      ],
      "payable": false,
      "stateMutability": "view",
      "type": "function",
      "signature": "0x65f8695e"
    },
    {
      "constant": true,
      "inputs": [
        {
          "name": "_patentName",
          "type": "string"
        },
        {
          "name": "_account",
          "type": "address"
        }
      ],
      "name": "isOwner",
      "outputs": [
        {
          "name": "",
          "type": "bool"
        }
      ],
      "payable": false,
      "stateMutability": "view",
      "type": "function",
      "signature": "0xbde1eee7"
    },
    {
      "constant": true,
      "inputs": [
        {
          "name": "_patentName",
          "type": "string"
        }
      ],
      "name": "getTimeStamp",
      "outputs": [
        {
          "name": "",
          "type": "uint256"
        }
      ],
      "payable": false,
      "stateMutability": "view",
      "type": "function",
      "signature": "0xfa52c7cc"
    },
    {
      "constant": true,
      "inputs": [
        {
          "name": "_patentName",
          "type": "string"
        }
      ],
      "name": "getPatentHash",
      "outputs": [
        {
          "name": "",
          "type": "string"
        }
      ],
      "payable": false,
      "stateMutability": "view",
      "type": "function",
      "signature": "0x16720cc2"
    },
    {
      "constant": true,
      "inputs": [
        {
          "name": "_patentName",
          "type": "string"
        }
      ],
      "name": "getPatentOwner",
      "outputs": [
        {
          "name": "",
          "type": "address"
        }
      ],
      "payable": false,
      "stateMutability": "view",
      "type": "function",
      "signature": "0x99d2618e"
    },
    {
      "constant": true,
      "inputs": [
        {
          "name": "_patentName",
          "type": "string"
        }
      ],
      "name": "getPrice",
      "outputs": [
        {
          "name": "",
          "type": "uint256"
        }
      ],
      "payable": false,
      "stateMutability": "view",
      "type": "function",
      "signature": "0x524f3889"
    },
    {
      "constant": true,
      "inputs": [
        {
          "name": "_patentName",
          "type": "string"
        }
      ],
      "name": "getNumRequests",
      "outputs": [
        {
          "name": "",
          "type": "uint256"
        }
      ],
      "payable": false,
      "stateMutability": "view",
      "type": "function",
      "signature": "0xe0cf4cc9"
    },
    {
      "constant": true,
      "inputs": [
        {
          "name": "_patentName",
          "type": "string"
        },
        {
          "name": "_index",
          "type": "uint256"
        }
      ],
      "name": "getBuyers",
      "outputs": [
        {
          "name": "",
          "type": "address"
        }
      ],
      "payable": false,
      "stateMutability": "view",
      "type": "function",
      "signature": "0x6038c638"
    },
    {
      "constant": true,
      "inputs": [
        {
          "name": "_patentName",
          "type": "string"
        },
        {
          "name": "_user",
          "type": "address"
        }
      ],
      "name": "getEncryptionKey",
      "outputs": [
        {
          "name": "",
          "type": "string"
        }
      ],
      "payable": false,
      "stateMutability": "view",
      "type": "function",
      "signature": "0xad8c9dd6"
    },
    {
      "constant": true,
      "inputs": [
        {
          "name": "_patentName",
          "type": "string"
        }
      ],
      "name": "getEncryptedIpfsKey",
      "outputs": [
        {
          "name": "",
          "type": "string"
        }
      ],
      "payable": false,
      "stateMutability": "view",
      "type": "function",
      "signature": "0xa302e8cd"
    },
    {
      "constant": true,
      "inputs": [
        {
          "name": "_patentName",
          "type": "string"
        }
      ],
      "name": "getOwnerEmail",
      "outputs": [
        {
          "name": "",
          "type": "string"
        }
      ],
      "payable": false,
      "stateMutability": "view",
      "type": "function",
      "signature": "0x68b2210d"
    },
    {
      "constant": true,
      "inputs": [
        {
          "name": "_patentName",
          "type": "string"
        }
      ],
      "name": "getPatentLocation",
      "outputs": [
        {
          "name": "",
          "type": "string"
        }
      ],
      "payable": false,
      "stateMutability": "view",
      "type": "function",
      "signature": "0x607f9e87"
    }
  ],
  "bytecode": "0x6080604052336000806101000a81548173ffffffffffffffffffffffffffffffffffffffff021916908373ffffffffffffffffffffffffffffffffffffffff16021790555034801561005057600080fd5b50604051604080620043028339810180604052604081101561007157600080fd5b81019080805190602001909291908051906020019092919050505081600181905550505061425d80620000a56000396000f3fe608060405260043610610180576000357c0100000000000000000000000000000000000000000000000000000000900463ffffffff1680630638c22c1461018557806316720cc2146101b05780632294de45146102f157806324600fc3146103f157806341e144491461040857806347ce3d6f146104bc578063524f3889146105bc5780635d98dde8146106985780636038c63814610817578063607f9e871461092957806365f8695e14610a6a57806368b2210d14610b6a578063870d365d14610cab5780638da5cb5b14610cfa57806399d2618e14610d51578063a302e8cd14610e59578063a6966e2514610f9a578063a6f9dae114611082578063ad8c9dd6146110d3578063b084c84114611234578063bde1eee71461125f578063be3e07221461135f578063db6a88ec1461145f578063e0cf4cc914611648578063e2f99c7e14611724578063e489445d1461182e578063eb3e8bf8146118f6578063eb709ab014611b80578063fa52c7cc14611cd2578063fd11ff4914611dae575b600080fd5b34801561019157600080fd5b5061019a611e69565b6040518082815260200191505060405180910390f35b3480156101bc57600080fd5b50610276600480360360208110156101d357600080fd5b81019080803590602001906401000000008111156101f057600080fd5b82018360208201111561020257600080fd5b8035906020019184600183028401116401000000008311171561022457600080fd5b91908080601f016020809104026020016040519081016040528093929190818152602001838380828437600081840152601f19601f820116905080830192505050505050509192919290505050611e6f565b6040518080602001828103825283818151815260200191508051906020019080838360005b838110156102b657808201518184015260208101905061029b565b50505050905090810190601f1680156102e35780820380516001836020036101000a031916815260200191505b509250505060405180910390f35b3480156102fd57600080fd5b506103d76004803603604081101561031457600080fd5b810190808035906020019064010000000081111561033157600080fd5b82018360208201111561034357600080fd5b8035906020019184600183028401116401000000008311171561036557600080fd5b91908080601f016020809104026020016040519081016040528093929190818152602001838380828437600081840152601f19601f820116905080830192505050505050509192919290803573ffffffffffffffffffffffffffffffffffffffff169060200190929190505050611f7f565b604051808215151515815260200191505060405180910390f35b3480156103fd57600080fd5b50610406611fb6565b005b34801561041457600080fd5b506104416004803603602081101561042b57600080fd5b8101908080359060200190929190505050612092565b6040518080602001828103825283818151815260200191508051906020019080838360005b83811015610481578082015181840152602081019050610466565b50505050905090810190601f1680156104ae5780820380516001836020036101000a031916815260200191505b509250505060405180910390f35b3480156104c857600080fd5b506105a2600480360360408110156104df57600080fd5b81019080803590602001906401000000008111156104fc57600080fd5b82018360208201111561050e57600080fd5b8035906020019184600183028401116401000000008311171561053057600080fd5b91908080601f016020809104026020016040519081016040528093929190818152602001838380828437600081840152601f19601f820116905080830192505050505050509192919290803573ffffffffffffffffffffffffffffffffffffffff16906020019092919050505061214d565b604051808215151515815260200191505060405180910390f35b3480156105c857600080fd5b50610682600480360360208110156105df57600080fd5b81019080803590602001906401000000008111156105fc57600080fd5b82018360208201111561060e57600080fd5b8035906020019184600183028401116401000000008311171561063057600080fd5b91908080601f016020809104026020016040519081016040528093929190818152602001838380828437600081840152601f19601f82011690508083019250505050505050919291929050505061222b565b6040518082815260200191505060405180910390f35b3480156106a457600080fd5b50610815600480360360608110156106bb57600080fd5b81019080803590602001906401000000008111156106d857600080fd5b8201836020820111156106ea57600080fd5b8035906020019184600183028401116401000000008311171561070c57600080fd5b91908080601f016020809104026020016040519081016040528093929190818152602001838380828437600081840152601f19601f820116905080830192505050505050509192919290803573ffffffffffffffffffffffffffffffffffffffff1690602001909291908035906020019064010000000081111561078f57600080fd5b8201836020820111156107a157600080fd5b803590602001918460018302840111640100000000831117156107c357600080fd5b91908080601f016020809104026020016040519081016040528093929190818152602001838380828437600081840152601f19601f8201169050808301925050505050505091929192905050506122a3565b005b34801561082357600080fd5b506108e76004803603604081101561083a57600080fd5b810190808035906020019064010000000081111561085757600080fd5b82018360208201111561086957600080fd5b8035906020019184600183028401116401000000008311171561088b57600080fd5b91908080601f016020809104026020016040519081016040528093929190818152602001838380828437600081840152601f19601f820116905080830192505050505050509192919290803590602001909291905050506125d8565b604051808273ffffffffffffffffffffffffffffffffffffffff1673ffffffffffffffffffffffffffffffffffffffff16815260200191505060405180910390f35b34801561093557600080fd5b506109ef6004803603602081101561094c57600080fd5b810190808035906020019064010000000081111561096957600080fd5b82018360208201111561097b57600080fd5b8035906020019184600183028401116401000000008311171561099d57600080fd5b91908080601f016020809104026020016040519081016040528093929190818152602001838380828437600081840152601f19601f820116905080830192505050505050509192919290505050612682565b6040518080602001828103825283818151815260200191508051906020019080838360005b83811015610a2f578082015181840152602081019050610a14565b50505050905090810190601f168015610a5c5780820380516001836020036101000a031916815260200191505b509250505060405180910390f35b348015610a7657600080fd5b50610b5060048036036040811015610a8d57600080fd5b8101908080359060200190640100000000811115610aaa57600080fd5b820183602082011115610abc57600080fd5b80359060200191846001830284011164010000000083111715610ade57600080fd5b91908080601f016020809104026020016040519081016040528093929190818152602001838380828437600081840152601f19601f820116905080830192505050505050509192919290803573ffffffffffffffffffffffffffffffffffffffff169060200190929190505050612792565b604051808215151515815260200191505060405180910390f35b348015610b7657600080fd5b50610c3060048036036020811015610b8d57600080fd5b8101908080359060200190640100000000811115610baa57600080fd5b820183602082011115610bbc57600080fd5b80359060200191846001830284011164010000000083111715610bde57600080fd5b91908080601f016020809104026020016040519081016040528093929190818152602001838380828437600081840152601f19601f820116905080830192505050505050509192919290505050612870565b6040518080602001828103825283818151815260200191508051906020019080838360005b83811015610c70578082015181840152602081019050610c55565b50505050905090810190601f168015610c9d5780820380516001836020036101000a031916815260200191505b509250505060405180910390f35b348015610cb757600080fd5b50610ce460048036036020811015610cce57600080fd5b8101908080359060200190929190505050612980565b6040518082815260200191505060405180910390f35b348015610d0657600080fd5b50610d0f612996565b604051808273ffffffffffffffffffffffffffffffffffffffff1673ffffffffffffffffffffffffffffffffffffffff16815260200191505060405180910390f35b348015610d5d57600080fd5b50610e1760048036036020811015610d7457600080fd5b8101908080359060200190640100000000811115610d9157600080fd5b820183602082011115610da357600080fd5b80359060200191846001830284011164010000000083111715610dc557600080fd5b91908080601f016020809104026020016040519081016040528093929190818152602001838380828437600081840152601f19601f8201169050808301925050505050505091929192905050506129bb565b604051808273ffffffffffffffffffffffffffffffffffffffff1673ffffffffffffffffffffffffffffffffffffffff16815260200191505060405180910390f35b348015610e6557600080fd5b50610f1f60048036036020811015610e7c57600080fd5b8101908080359060200190640100000000811115610e9957600080fd5b820183602082011115610eab57600080fd5b80359060200191846001830284011164010000000083111715610ecd57600080fd5b91908080601f016020809104026020016040519081016040528093929190818152602001838380828437600081840152601f19601f820116905080830192505050505050509192919290505050612a53565b6040518080602001828103825283818151815260200191508051906020019080838360005b83811015610f5f578082015181840152602081019050610f44565b50505050905090810190601f168015610f8c5780820380516001836020036101000a031916815260200191505b509250505060405180910390f35b348015610fa657600080fd5b5061108060048036036040811015610fbd57600080fd5b8101908080359060200190640100000000811115610fda57600080fd5b820183602082011115610fec57600080fd5b8035906020019184600183028401116401000000008311171561100e57600080fd5b91908080601f016020809104026020016040519081016040528093929190818152602001838380828437600081840152601f19601f820116905080830192505050505050509192919290803573ffffffffffffffffffffffffffffffffffffffff169060200190929190505050612bb8565b005b34801561108e57600080fd5b506110d1600480360360208110156110a557600080fd5b81019080803573ffffffffffffffffffffffffffffffffffffffff169060200190929190505050612ed3565b005b3480156110df57600080fd5b506111b9600480360360408110156110f657600080fd5b810190808035906020019064010000000081111561111357600080fd5b82018360208201111561112557600080fd5b8035906020019184600183028401116401000000008311171561114757600080fd5b91908080601f016020809104026020016040519081016040528093929190818152602001838380828437600081840152601f19601f820116905080830192505050505050509192919290803573ffffffffffffffffffffffffffffffffffffffff169060200190929190505050612f71565b6040518080602001828103825283818151815260200191508051906020019080838360005b838110156111f95780820151818401526020810190506111de565b50505050905090810190601f1680156112265780820380516001836020036101000a031916815260200191505b509250505060405180910390f35b34801561124057600080fd5b5061124961318a565b6040518082815260200191505060405180910390f35b34801561126b57600080fd5b506113456004803603604081101561128257600080fd5b810190808035906020019064010000000081111561129f57600080fd5b8201836020820111156112b157600080fd5b803590602001918460018302840111640100000000831117156112d357600080fd5b91908080601f016020809104026020016040519081016040528093929190818152602001838380828437600081840152601f19601f820116905080830192505050505050509192919290803573ffffffffffffffffffffffffffffffffffffffff169060200190929190505050613190565b604051808215151515815260200191505060405180910390f35b34801561136b57600080fd5b506114456004803603604081101561138257600080fd5b810190808035906020019064010000000081111561139f57600080fd5b8201836020820111156113b157600080fd5b803590602001918460018302840111640100000000831117156113d357600080fd5b91908080601f016020809104026020016040519081016040528093929190818152602001838380828437600081840152601f19601f820116905080830192505050505050509192919290803573ffffffffffffffffffffffffffffffffffffffff1690602001909291905050506131d1565b604051808215151515815260200191505060405180910390f35b6116466004803603606081101561147557600080fd5b810190808035906020019064010000000081111561149257600080fd5b8201836020820111156114a457600080fd5b803590602001918460018302840111640100000000831117156114c657600080fd5b91908080601f016020809104026020016040519081016040528093929190818152602001838380828437600081840152601f19601f8201169050808301925050505050505091929192908035906020019064010000000081111561152957600080fd5b82018360208201111561153b57600080fd5b8035906020019184600183028401116401000000008311171561155d57600080fd5b91908080601f016020809104026020016040519081016040528093929190818152602001838380828437600081840152601f19601f820116905080830192505050505050509192919290803590602001906401000000008111156115c057600080fd5b8201836020820111156115d257600080fd5b803590602001918460018302840111640100000000831117156115f457600080fd5b91908080601f016020809104026020016040519081016040528093929190818152602001838380828437600081840152601f19601f8201169050808301925050505050505091929192905050506132b0565b005b34801561165457600080fd5b5061170e6004803603602081101561166b57600080fd5b810190808035906020019064010000000081111561168857600080fd5b82018360208201111561169a57600080fd5b803590602001918460018302840111640100000000831117156116bc57600080fd5b91908080601f016020809104026020016040519081016040528093929190818152602001838380828437600081840152601f19601f8201169050808301925050505050505091929192905050506137ed565b6040518082815260200191505060405180910390f35b34801561173057600080fd5b5061180a6004803603604081101561174757600080fd5b810190808035906020019064010000000081111561176457600080fd5b82018360208201111561177657600080fd5b8035906020019184600183028401116401000000008311171561179857600080fd5b91908080601f016020809104026020016040519081016040528093929190818152602001838380828437600081840152601f19601f820116905080830192505050505050509192919290803573ffffffffffffffffffffffffffffffffffffffff169060200190929190505050613865565b6040518082600481111561181a57fe5b60ff16815260200191505060405180910390f35b34801561183a57600080fd5b506118f46004803603602081101561185157600080fd5b810190808035906020019064010000000081111561186e57600080fd5b82018360208201111561188057600080fd5b803590602001918460018302840111640100000000831117156118a257600080fd5b91908080601f016020809104026020016040519081016040528093929190818152602001838380828437600081840152601f19601f82011690508083019250505050505050919291929050505061392b565b005b611b7e600480360360a081101561190c57600080fd5b810190808035906020019064010000000081111561192957600080fd5b82018360208201111561193b57600080fd5b8035906020019184600183028401116401000000008311171561195d57600080fd5b91908080601f016020809104026020016040519081016040528093929190818152602001838380828437600081840152601f19601f820116905080830192505050505050509192919290803590602001906401000000008111156119c057600080fd5b8201836020820111156119d257600080fd5b803590602001918460018302840111640100000000831117156119f457600080fd5b91908080601f016020809104026020016040519081016040528093929190818152602001838380828437600081840152601f19601f8201169050808301925050505050505091929192908035906020019092919080359060200190640100000000811115611a6157600080fd5b820183602082011115611a7357600080fd5b80359060200191846001830284011164010000000083111715611a9557600080fd5b91908080601f016020809104026020016040519081016040528093929190818152602001838380828437600081840152601f19601f82011690508083019250505050505050919291929080359060200190640100000000811115611af857600080fd5b820183602082011115611b0a57600080fd5b80359060200191846001830284011164010000000083111715611b2c57600080fd5b91908080601f016020809104026020016040519081016040528093929190818152602001838380828437600081840152601f19601f820116905080830192505050505050509192919290505050613b10565b005b611cd060048036036040811015611b9657600080fd5b8101908080359060200190640100000000811115611bb357600080fd5b820183602082011115611bc557600080fd5b80359060200191846001830284011164010000000083111715611be757600080fd5b91908080601f016020809104026020016040519081016040528093929190818152602001838380828437600081840152601f19601f82011690508083019250505050505050919291929080359060200190640100000000811115611c4a57600080fd5b820183602082011115611c5c57600080fd5b80359060200191846001830284011164010000000083111715611c7e57600080fd5b91908080601f016020809104026020016040519081016040528093929190818152602001838380828437600081840152601f19601f820116905080830192505050505050509192919290505050613d70565b005b348015611cde57600080fd5b50611d9860048036036020811015611cf557600080fd5b8101908080359060200190640100000000811115611d1257600080fd5b820183602082011115611d2457600080fd5b80359060200191846001830284011164010000000083111715611d4657600080fd5b91908080601f016020809104026020016040519081016040528093929190818152602001838380828437600081840152601f19601f820116905080830192505050505050509192919290505050613e87565b6040518082815260200191505060405180910390f35b611e6760048036036020811015611dc457600080fd5b8101908080359060200190640100000000811115611de157600080fd5b820183602082011115611df357600080fd5b80359060200191846001830284011164010000000083111715611e1557600080fd5b91908080601f016020809104026020016040519081016040528093929190818152602001838380828437600081840152601f19601f820116905080830192505050505050509192919290505050613eff565b005b60015481565b60606004826040518082805190602001908083835b602083101515611ea95780518252602082019150602081019050602083039250611e84565b6001836020036101000a03801982511681845116808217855250505050505090500191505090815260200160405180910390206002018054600181600116156101000203166002900480601f016020809104026020016040519081016040528092919081815260200182805460018160011615610100020316600290048015611f735780601f10611f4857610100808354040283529160200191611f73565b820191906000526020600020905b815481529060010190602001808311611f5657829003601f168201915b50505050509050919050565b6000611f8b83836131d1565b80611f9c5750611f9b8383612792565b5b80611fad5750611fac8383613190565b5b15905092915050565b6000809054906101000a900473ffffffffffffffffffffffffffffffffffffffff1673ffffffffffffffffffffffffffffffffffffffff163373ffffffffffffffffffffffffffffffffffffffff1614151561201157600080fd5b6000809054906101000a900473ffffffffffffffffffffffffffffffffffffffff1673ffffffffffffffffffffffffffffffffffffffff166108fc3073ffffffffffffffffffffffffffffffffffffffff16319081150290604051600060405180830381858888f1935050505015801561208f573d6000803e3d6000fd5b50565b6003818154811015156120a157fe5b906000526020600020016000915090508054600181600116156101000203166002900480601f0160208091040260200160405190810160405280929190818152602001828054600181600116156101000203166002900480156121455780601f1061211a57610100808354040283529160200191612145565b820191906000526020600020905b81548152906001019060200180831161212857829003601f168201915b505050505081565b600080600481111561215b57fe5b6004846040518082805190602001908083835b602083101515612193578051825260208201915060208101905060208303925061216e565b6001836020036101000a038019825116818451168082178552505050505050905001915050908152602001604051809103902060080160008473ffffffffffffffffffffffffffffffffffffffff1673ffffffffffffffffffffffffffffffffffffffff16815260200190815260200160002060000160009054906101000a900460ff16600481111561222257fe5b14905092915050565b60006004826040518082805190602001908083835b6020831015156122655780518252602082019150602081019050602083039250612240565b6001836020036101000a0380198251168184511680821785525050505050509050019150509081526020016040518091039020600301549050919050565b60006004846040518082805190602001908083835b6020831015156122dd57805182526020820191506020810190506020830392506122b8565b6001836020036101000a0380198251168184511680821785525050505050509050019150509081526020016040518091039020600101541415801561232857506123278333613190565b5b801561233a575061233983836131d1565b5b151561234557600080fd5b60006004846040518082805190602001908083835b60208310151561237f578051825260208201915060208101905060208303925061235a565b6001836020036101000a038019825116818451168082178552505050505050905001915050908152602001604051809103902060080160008473ffffffffffffffffffffffffffffffffffffffff1673ffffffffffffffffffffffffffffffffffffffff1681526020019081526020016000209050600081600101541015151561240857600080fd5b3373ffffffffffffffffffffffffffffffffffffffff166108fc82600101549081150290604051600060405180830381858888f19350505050158015612452573d6000803e3d6000fd5b506000816001018190555060048160000160006101000a81548160ff0219169083600481111561247e57fe5b02179055508181600401908051906020019061249b92919061410c565b507f87deb0bf3260371a3845769d523869b17a51dab5e82dd1d7db896b489fe42f57816002018560016040518080602001806020018415151515815260200183810383528681815460018160011615610100020316600290048152602001915080546001816001161561010002031660029004801561255b5780601f106125305761010080835404028352916020019161255b565b820191906000526020600020905b81548152906001019060200180831161253e57829003601f168201915b5050838103825285818151815260200191508051906020019080838360005b8381101561259557808201518184015260208101905061257a565b50505050905090810190601f1680156125c25780820380516001836020036101000a031916815260200191505b509550505050505060405180910390a150505050565b60006004836040518082805190602001908083835b60208310151561261257805182526020820191506020810190506020830392506125ed565b6001836020036101000a0380198251168184511680821785525050505050509050019150509081526020016040518091039020600701600083815260200190815260200160002060009054906101000a900473ffffffffffffffffffffffffffffffffffffffff16905092915050565b60606004826040518082805190602001908083835b6020831015156126bc5780518252602082019150602081019050602083039250612697565b6001836020036101000a03801982511681845116808217855250505050505090500191505090815260200160405180910390206004018054600181600116156101000203166002900480601f0160208091040260200160405190810160405280929190818152602001828054600181600116156101000203166002900480156127865780601f1061275b57610100808354040283529160200191612786565b820191906000526020600020905b81548152906001019060200180831161276957829003601f168201915b50505050509050919050565b60006004808111156127a057fe5b6004846040518082805190602001908083835b6020831015156127d857805182526020820191506020810190506020830392506127b3565b6001836020036101000a038019825116818451168082178552505050505050905001915050908152602001604051809103902060080160008473ffffffffffffffffffffffffffffffffffffffff1673ffffffffffffffffffffffffffffffffffffffff16815260200190815260200160002060000160009054906101000a900460ff16600481111561286757fe5b14905092915050565b60606004826040518082805190602001908083835b6020831015156128aa5780518252602082019150602081019050602083039250612885565b6001836020036101000a03801982511681845116808217855250505050505090500191505090815260200160405180910390206005018054600181600116156101000203166002900480601f0160208091040260200160405190810160405280929190818152602001828054600181600116156101000203166002900480156129745780601f1061294957610100808354040283529160200191612974565b820191906000526020600020905b81548152906001019060200180831161295757829003601f168201915b50505050509050919050565b600060828281151561298e57fe5b049050919050565b6000809054906101000a900473ffffffffffffffffffffffffffffffffffffffff1681565b60006004826040518082805190602001908083835b6020831015156129f557805182526020820191506020810190506020830392506129d0565b6001836020036101000a038019825116818451168082178552505050505050905001915050908152602001604051809103902060000160009054906101000a900473ffffffffffffffffffffffffffffffffffffffff169050919050565b6060612a5f8233612792565b1515612a6a57600080fd5b6004826040518082805190602001908083835b602083101515612aa25780518252602082019150602081019050602083039250612a7d565b6001836020036101000a038019825116818451168082178552505050505050905001915050908152602001604051809103902060080160003373ffffffffffffffffffffffffffffffffffffffff1673ffffffffffffffffffffffffffffffffffffffff1681526020019081526020016000206004018054600181600116156101000203166002900480601f016020809104026020016040519081016040528092919081815260200182805460018160011615610100020316600290048015612bac5780601f10612b8157610100808354040283529160200191612bac565b820191906000526020600020905b815481529060010190602001808311612b8f57829003601f168201915b50505050509050919050565b60006004836040518082805190602001908083835b602083101515612bf25780518252602082019150602081019050602083039250612bcd565b6001836020036101000a03801982511681845116808217855250505050505090500191505090815260200160405180910390206001015414158015612c3d5750612c3c8233613190565b5b8015612c4f5750612c4e82826131d1565b5b1515612c5a57600080fd5b60006004836040518082805190602001908083835b602083101515612c945780518252602082019150602081019050602083039250612c6f565b6001836020036101000a038019825116818451168082178552505050505050905001915050908152602001604051809103902060080160008373ffffffffffffffffffffffffffffffffffffffff1673ffffffffffffffffffffffffffffffffffffffff16815260200190815260200160002090506000816001015410151515612d1d57600080fd5b8173ffffffffffffffffffffffffffffffffffffffff166108fc82600101549081150290604051600060405180830381858888f19350505050158015612d67573d6000803e3d6000fd5b506000816001018190555060028160000160006101000a81548160ff02191690836004811115612d9357fe5b02179055507f87deb0bf3260371a3845769d523869b17a51dab5e82dd1d7db896b489fe42f578160020184600060405180806020018060200184151515158152602001838103835286818154600181600116156101000203166002900481526020019150805460018160011615610100020316600290048015612e575780601f10612e2c57610100808354040283529160200191612e57565b820191906000526020600020905b815481529060010190602001808311612e3a57829003601f168201915b5050838103825285818151815260200191508051906020019080838360005b83811015612e91578082015181840152602081019050612e76565b50505050905090810190601f168015612ebe5780820380516001836020036101000a031916815260200191505b509550505050505060405180910390a1505050565b6000809054906101000a900473ffffffffffffffffffffffffffffffffffffffff1673ffffffffffffffffffffffffffffffffffffffff163373ffffffffffffffffffffffffffffffffffffffff16141515612f2e57600080fd5b806000806101000a81548173ffffffffffffffffffffffffffffffffffffffff021916908373ffffffffffffffffffffffffffffffffffffffff16021790555050565b60606004836040518082805190602001908083835b602083101515612fab5780518252602082019150602081019050602083039250612f86565b6001836020036101000a038019825116818451168082178552505050505050905001915050908152602001604051809103902060000160009054906101000a900473ffffffffffffffffffffffffffffffffffffffff1673ffffffffffffffffffffffffffffffffffffffff163373ffffffffffffffffffffffffffffffffffffffff1614151561303b57600080fd5b6004836040518082805190602001908083835b602083101515613073578051825260208201915060208101905060208303925061304e565b6001836020036101000a038019825116818451168082178552505050505050905001915050908152602001604051809103902060080160008373ffffffffffffffffffffffffffffffffffffffff1673ffffffffffffffffffffffffffffffffffffffff1681526020019081526020016000206003018054600181600116156101000203166002900480601f01602080910402602001604051908101604052809291908181526020018280546001816001161561010002031660029004801561317d5780601f106131525761010080835404028352916020019161317d565b820191906000526020600020905b81548152906001019060200180831161316057829003601f168201915b5050505050905092915050565b60025481565b60008173ffffffffffffffffffffffffffffffffffffffff166131b2846129bb565b73ffffffffffffffffffffffffffffffffffffffff1614905092915050565b6000600160048111156131e057fe5b6004846040518082805190602001908083835b60208310151561321857805182526020820191506020810190506020830392506131f3565b6001836020036101000a038019825116818451168082178552505050505050905001915050908152602001604051809103902060080160008473ffffffffffffffffffffffffffffffffffffffff1673ffffffffffffffffffffffffffffffffffffffff16815260200190815260200160002060000160009054906101000a900460ff1660048111156132a757fe5b14905092915050565b60006133296004856040518082805190602001908083835b6020831015156132ed57805182526020820191506020810190506020830392506132c8565b6001836020036101000a038019825116818451168082178552505050505050905001915050908152602001604051809103902060030154612980565b905060006004856040518082805190602001908083835b6020831015156133655780518252602082019150602081019050602083039250613340565b6001836020036101000a038019825116818451168082178552505050505050905001915050908152602001604051809103902060010154141580156133b057506133af8433611f7f565b5b80156133bc5750803410155b15156133c757600080fd5b60006004856040518082805190602001908083835b60208310151561340157805182526020820191506020810190506020830392506133dc565b6001836020036101000a038019825116818451168082178552505050505050905001915050908152602001604051809103902090506000600481111561344357fe5b8160080160003373ffffffffffffffffffffffffffffffffffffffff1673ffffffffffffffffffffffffffffffffffffffff16815260200190815260200160002060000160009054906101000a900460ff1660048111156134a057fe5b141561350d573381600701600083600601600081548092919060010191905055815260200190815260200160002060006101000a81548173ffffffffffffffffffffffffffffffffffffffff021916908373ffffffffffffffffffffffffffffffffffffffff1602179055505b60a0604051908101604052806001600481111561352657fe5b815260200183815260200184815260200185815260200160206040519081016040528060008152508152508160080160003373ffffffffffffffffffffffffffffffffffffffff1673ffffffffffffffffffffffffffffffffffffffff16815260200190815260200160002060008201518160000160006101000a81548160ff021916908360048111156135b657fe5b02179055506020820151816001015560408201518160020190805190602001906135e192919061418c565b5060608201518160030190805190602001906135fe92919061418c565b50608082015181600401908051906020019061361b92919061418c565b509050507f7e558bb9898d8d17809158db6c967a8ea47d93a15a5d359a1186352a086cfb7c6004866040518082805190602001908083835b6020831015156136785780518252602082019150602081019050602083039250613653565b6001836020036101000a038019825116818451168082178552505050505050905001915050908152602001604051809103902060050186336040518080602001806020018473ffffffffffffffffffffffffffffffffffffffff1673ffffffffffffffffffffffffffffffffffffffff16815260200183810383528681815460018160011615610100020316600290048152602001915080546001816001161561010002031660029004801561376f5780601f106137445761010080835404028352916020019161376f565b820191906000526020600020905b81548152906001019060200180831161375257829003601f168201915b5050838103825285818151815260200191508051906020019080838360005b838110156137a957808201518184015260208101905061378e565b50505050905090810190601f1680156137d65780820380516001836020036101000a031916815260200191505b509550505050505060405180910390a15050505050565b60006004826040518082805190602001908083835b6020831015156138275780518252602082019150602081019050602083039250613802565b6001836020036101000a0380198251168184511680821785525050505050509050019150509081526020016040518091039020600601549050919050565b60006004836040518082805190602001908083835b60208310151561389f578051825260208201915060208101905060208303925061387a565b6001836020036101000a038019825116818451168082178552505050505050905001915050908152602001604051809103902060080160008373ffffffffffffffffffffffffffffffffffffffff1673ffffffffffffffffffffffffffffffffffffffff16815260200190815260200160002060000160009054906101000a900460ff16905092915050565b60006004826040518082805190602001908083835b6020831015156139655780518252602082019150602081019050602083039250613940565b6001836020036101000a038019825116818451168082178552505050505050905001915050908152602001604051809103902060010154141580156139b157506139af8133613190565b155b80156139c357506139c281336131d1565b5b15156139ce57600080fd5b60006004826040518082805190602001908083835b602083101515613a0857805182526020820191506020810190506020830392506139e3565b6001836020036101000a038019825116818451168082178552505050505050905001915050908152602001604051809103902060080160003373ffffffffffffffffffffffffffffffffffffffff1673ffffffffffffffffffffffffffffffffffffffff16815260200190815260200160002090506000816001015410151515613a9157600080fd5b3373ffffffffffffffffffffffffffffffffffffffff166108fc82600101549081150290604051600060405180830381858888f19350505050158015613adb573d6000803e3d6000fd5b506000816001018190555060038160000160006101000a81548160ff02191690836004811115613b0757fe5b02179055505050565b60006004866040518082805190602001908083835b602083101515613b4a5780518252602082019150602081019050602083039250613b25565b6001836020036101000a038019825116818451168082178552505050505050905001915050908152602001604051809103902060010154148015613b985750613b94600154612980565b3410155b1515613ba357600080fd5b60e0604051908101604052803373ffffffffffffffffffffffffffffffffffffffff16815260200142815260200185815260200184815260200183815260200182815260200160008152506004866040518082805190602001908083835b602083101515613c265780518252602082019150602081019050602083039250613c01565b6001836020036101000a038019825116818451168082178552505050505050905001915050908152602001604051809103902060008201518160000160006101000a81548173ffffffffffffffffffffffffffffffffffffffff021916908373ffffffffffffffffffffffffffffffffffffffff160217905550602082015181600101556040820151816002019080519060200190613cc692919061418c565b50606082015181600301556080820151816004019080519060200190613ced92919061418c565b5060a0820151816005019080519060200190613d0a92919061418c565b5060c082015181600601559050506003859080600181540180825580915050906001820390600052602060002001600090919290919091509080519060200190613d5592919061410c565b50506002600081548092919060010191905055505050505050565b60006004836040518082805190602001908083835b602083101515613daa5780518252602082019150602081019050602083039250613d85565b6001836020036101000a03801982511681845116808217855250505050505090500191505090815260200160405180910390206001015414158015613df55750613df48233613190565b5b1515613e0057600080fd5b806004836040518082805190602001908083835b602083101515613e395780518252602082019150602081019050602083039250613e14565b6001836020036101000a03801982511681845116808217855250505050505090500191505090815260200160405180910390206004019080519060200190613e8292919061410c565b505050565b60006004826040518082805190602001908083835b602083101515613ec15780518252602082019150602081019050602083039250613e9c565b6001836020036101000a0380198251168184511680821785525050505050509050019150509081526020016040518091039020600101549050919050565b6000613f786004836040518082805190602001908083835b602083101515613f3c5780518252602082019150602081019050602083039250613f17565b6001836020036101000a038019825116818451168082178552505050505050905001915050908152602001604051809103902060030154612980565b905060006004836040518082805190602001908083835b602083101515613fb45780518252602082019150602081019050602083039250613f8f565b6001836020036101000a03801982511681845116808217855250505050505090500191505090815260200160405180910390206001015414158015613fff5750613ffe8233611f7f565b5b801561400b5750803410155b801561401e575061401c823361214d565b155b151561402957600080fd5b60006004836040518082805190602001908083835b602083101515614063578051825260208201915060208101905060208303925061403e565b6001836020036101000a038019825116818451168082178552505050505050905001915050908152602001604051809103902060080160003373ffffffffffffffffffffffffffffffffffffffff1673ffffffffffffffffffffffffffffffffffffffff168152602001908152602001600020905060018160000160006101000a81548160ff021916908360048111156140f957fe5b0217905550818160010181905550505050565b828054600181600116156101000203166002900490600052602060002090601f016020900481019282601f1061414d57805160ff191683800117855561417b565b8280016001018555821561417b579182015b8281111561417a57825182559160200191906001019061415f565b5b509050614188919061420c565b5090565b828054600181600116156101000203166002900490600052602060002090601f016020900481019282601f106141cd57805160ff19168380011785556141fb565b828001600101855582156141fb579182015b828111156141fa5782518255916020019190600101906141df565b5b509050614208919061420c565b5090565b61422e91905b8082111561422a576000816000905550600101614212565b5090565b9056fea165627a7a7230582041ce841693957e91dbcab20de2bffc6d7047717a052effde36678dcc7135c02a0029",
  "source": "pragma solidity ^0.5.0;\n\nimport './AccessRestricted.sol';\nimport './TimeStamping.sol';\nimport './FiatContract.sol';\n\ncontract Patenting is AccessRestricted {\n\n    uint public patentPrice;\n    uint public patentCount;\n\n    enum RequestStatus {Not_requested, Pending, Rejected, Cancelled, Accepted}\n\n    /* Struct for request */\n    struct Request {\n        RequestStatus status;\n        uint deposit;\n        string email;\n        string encryptionKey;\n        string encryptedIpfsKey;\n    }\n\n    /* Struct for patent*/\n    struct Patent {\n        address owner;\n        uint timestamp;\n        string patentHash;\n        uint price;\n        string ipfs;\n        string email;\n        uint numRequests;\n        mapping(uint => address) buyers;\n        mapping(address => Request) requests;\n    }\n\n    string[] public patentNames;\n    mapping(string => Patent) private patents; // PatentName to struct\n\n    event NewRequest(\n        string _ownerMail,\n        string _patentName,\n        address _rentee\n    );\n\n    event RequestResponse(\n        string _requesterEmail,\n        string _patentName,\n        bool _accepted\n    );\n\n    // FiatContract fiat;\n\n    /* Constructor of the contract\n    * {param} uint : The price for depositing a pattern in Wei\n    */\n    constructor(uint _patentPrice, address _fiatContract) public {\n        // fiat = FiatContract(_fiatContract);\n        patentPrice = _patentPrice;\n    }\n\n    function getEthPrice(uint _dollars) public view returns (uint) {\n        // return fiat.USD(0) * 100 * _dollars;\n        return _dollars / 130;\n    }\n\n    /* Function to deposit a pattern\n    * {params} the patent parameters\n    * {costs} the price of a patent\n    */\n    function depositPatent(string memory _patentName, string memory _patentHash, uint _price, string memory _ipfs, string memory _email) public payable {\n        require(patents[_patentName].timestamp == 0 && msg.value >= getEthPrice(patentPrice));\n        patents[_patentName] = Patent(msg.sender, now, _patentHash, _price, _ipfs, _email, 0);\n        patentNames.push(_patentName);\n        patentCount++;\n    }\n\n    /* Function called when a file is updated to set its IPFS location\n    * {params} the new IPFS location\n    */\n    function setIpfs(string memory _patentName, string memory _newIpfs) public payable {\n        require(patents[_patentName].timestamp != 0 && isOwner(_patentName, msg.sender));\n        patents[_patentName].ipfs = _newIpfs;\n    }\n\n    /* Function to request access to a patent\n    * {params} _patentName : name of patent\n    *          _encryptionKey : key to encrypt AES key with (key exchange protocol)\n    * {costs} price of the patent : will be frozen until request is accepted, rejected, or cancelled\n    */\n    function requestAccess(string memory _patentName, string memory _encryptionKey, string memory _email) public payable {\n        uint ethPrice = getEthPrice(patents[_patentName].price);\n        require(patents[_patentName].timestamp != 0 && canRequest(_patentName, msg.sender) && msg.value >= ethPrice);\n        Patent storage p = patents[_patentName];\n        if (p.requests[msg.sender].status == RequestStatus.Not_requested) {\n            p.buyers[p.numRequests++] = msg.sender;\n        }\n        p.requests[msg.sender] = Request(RequestStatus.Pending, ethPrice, _email, _encryptionKey, \"\");\n        emit NewRequest(patents[_patentName].email, _patentName, msg.sender);\n    }\n\n    function resendRequest(string memory _patentName) public payable {\n        uint ethPrice = getEthPrice(patents[_patentName].price);\n        require(patents[_patentName].timestamp != 0 && canRequest(_patentName, msg.sender) && msg.value >= ethPrice && !isNotRequested(_patentName, msg.sender));\n        Request storage r = patents[_patentName].requests[msg.sender];\n        r.status = RequestStatus.Pending;\n        r.deposit = ethPrice;\n    }\n\n    /* Function to grant access to a user\n    * {params} _patentName : name of patent\n    *          _user : user to give access to (must have requested)\n    *          _encryptedIpfsKey : encrypted AES key to decrypt file on ipfs\n    *   Transfers the amount to the patent owner\n    */\n    function grantAccess(string memory _patentName, address _user, string memory _encryptedIpfsKey) public {\n        require(patents[_patentName].timestamp != 0 && isOwner(_patentName, msg.sender) && isPending(_patentName, _user));\n        Request storage r = patents[_patentName].requests[_user];\n        require(r.deposit >= 0);\n        msg.sender.transfer(r.deposit);\n        r.deposit = 0;\n        r.status = RequestStatus.Accepted;\n        // Accept Request\n        r.encryptedIpfsKey = _encryptedIpfsKey;\n        emit RequestResponse(r.email, _patentName, true);\n    }\n\n    /* Function to reject access to a patent\n    * {params} : Same as above\n    * Refunds the amount to the user\n    */\n    function rejectAccess(string memory _patentName, address payable _user) public {\n        require(patents[_patentName].timestamp != 0 && isOwner(_patentName, msg.sender) && isPending(_patentName, _user));\n        Request storage r = patents[_patentName].requests[_user];\n        require(r.deposit >= 0);\n        _user.transfer(r.deposit);\n        // Refund back to user\n        r.deposit = 0;\n        r.status = RequestStatus.Rejected;\n        // Reject Request\n        emit RequestResponse(r.email, _patentName, false);\n    }\n\n    /* Function that cancels a request (can only be called by user)\n    * {params} : _patentName : name of patent\n    */\n    function cancelRequest(string memory _patentName) public {\n        require(patents[_patentName].timestamp != 0 && !isOwner(_patentName, msg.sender) && isPending(_patentName, msg.sender));\n        Request storage r = patents[_patentName].requests[msg.sender];\n        require(r.deposit >= 0);\n        msg.sender.transfer(r.deposit);\n        r.deposit = 0;\n        r.status = RequestStatus.Cancelled;\n        // Cancel request\n    }\n\n    /*Allows the owner to withdraw the remaining funds*/\n    function withdrawFunds() public onlyOwner {\n        owner.transfer(address(this).balance);\n    }\n\n    /*-----------------------------------View functions that do not require transactions-----------------------------------*/\n\n    /*Returns true if the given account can request the given patent : is either Not_requested, cancelled or rejected*/\n    function canRequest(string memory _patentName, address _account) public view returns (bool){\n        return !(isPending(_patentName, _account) || isAccepted(_patentName, _account) || isOwner(_patentName, _account));\n    }\n\n    /*Returns the RequestStatus of the given patent for the given account*/\n    function getRequestStatus(string memory _patentName, address _account) public view returns (RequestStatus){\n        return patents[_patentName].requests[_account].status;\n    }\n\n    /*Returns true of the given account hasn't requested the given patent*/\n    function isNotRequested(string memory _patentName, address _account) public view returns (bool){\n        return patents[_patentName].requests[_account].status == RequestStatus.Not_requested;\n    }\n\n    /*Returns true of the given account has a pending request on the given patent*/\n    function isPending(string memory _patentName, address _account) public view returns (bool){\n        return patents[_patentName].requests[_account].status == RequestStatus.Pending;\n    }\n\n    /*Verifies that the given address has been accepted for the given patent*/\n    function isAccepted(string memory _patentName, address _account) public view returns (bool){\n        return patents[_patentName].requests[_account].status == RequestStatus.Accepted;\n    }\n\n    /*Returns true if account is owner of given patent*/\n    function isOwner(string memory _patentName, address _account) public view returns (bool){\n        return getPatentOwner(_patentName) == _account;\n    }\n\n    /*Returns time-stamp of the Patent*/\n    function getTimeStamp(string memory _patentName) public view returns (uint){\n        return patents[_patentName].timestamp;\n    }\n\n    /*Returns the sha256 hash of the patent*/\n    function getPatentHash(string memory _patentName) public view returns (string memory){\n        return patents[_patentName].patentHash;\n    }\n\n    /*Returns patent's owner*/\n    function getPatentOwner(string memory _patentName) public view returns (address) {\n        return patents[_patentName].owner;\n    }\n\n    /*Returns the price of a patent*/\n    function getPrice(string memory _patentName) public view returns (uint){\n        return patents[_patentName].price;\n    }\n\n    /*Returns the number of requests for the given patent*/\n    function getNumRequests(string memory _patentName) public view returns (uint){\n        return patents[_patentName].numRequests;\n    }\n\n    /*Returns the address of the buyer at _index  (Used for iterating)*/\n    function getBuyers(string memory _patentName, uint _index) public view returns (address){\n        return patents[_patentName].buyers[_index];\n    }\n\n    /*Returns the requester's public key*/\n    function getEncryptionKey(string memory _patentName, address _user) public view returns (string memory){\n        require(msg.sender == patents[_patentName].owner);\n        return patents[_patentName].requests[_user].encryptionKey;\n    }\n\n    /*Returns the encrypted IPFS encryption key*/\n    function getEncryptedIpfsKey(string memory _patentName) public view returns (string memory){\n        require(isAccepted(_patentName, msg.sender));\n        return patents[_patentName].requests[msg.sender].encryptedIpfsKey;\n    }\n\n    function getOwnerEmail(string memory _patentName) public view returns (string memory) {\n        return patents[_patentName].email;\n    }\n\n    /*Returns the IPFS location of the patent*/\n    function getPatentLocation(string memory _patentName) public view returns (string memory) {\n        return patents[_patentName].ipfs;\n    }\n}\n",
  "sourcePath": "/Users/axel/Developer/DNAM/Web-Applications/react-app/contracts/Patenting.sol",
  "compiler": {
    "name": "solc",
    "version": "0.5.0+commit.1d4f565a.Emscripten.clang"
  },
  "schemaVersion": "3.0.2",
  "updatedAt": "2019-03-13T12:58:11.988Z",
  "devdoc": {
    "methods": {}
  },
  "userdoc": {
    "methods": {}
  }
}