{
  "contractName": "Patents",
  "abi": [
    {
      "constant": true,
      "inputs": [],
      "name": "depositPrice",
      "outputs": [
        {
          "name": "",
          "type": "uint256"
        }
      ],
      "payable": false,
      "stateMutability": "view",
      "type": "function",
      "signature": "0x1c85da19"
    },
    {
      "constant": true,
      "inputs": [
        {
          "name": "",
          "type": "uint256"
        }
      ],
      "name": "folderIDs",
      "outputs": [
        {
          "name": "",
          "type": "string"
        }
      ],
      "payable": false,
      "stateMutability": "view",
      "type": "function",
      "signature": "0x3ee915d6"
    },
    {
      "constant": true,
      "inputs": [
        {
          "name": "",
          "type": "uint256"
        }
      ],
      "name": "patentIDs",
      "outputs": [
        {
          "name": "",
          "type": "string"
        }
      ],
      "payable": false,
      "stateMutability": "view",
      "type": "function",
      "signature": "0x97c00d4b"
    },
    {
      "constant": false,
      "inputs": [
        {
          "name": "_newOwner",
          "type": "address"
        }
      ],
      "name": "changeOwner",
      "outputs": [],
      "payable": false,
      "stateMutability": "nonpayable",
      "type": "function",
      "signature": "0xa6f9dae1"
    },
    {
      "constant": true,
      "inputs": [],
      "name": "newVersionPrice",
      "outputs": [
        {
          "name": "",
          "type": "uint256"
        }
      ],
      "payable": false,
      "stateMutability": "view",
      "type": "function",
      "signature": "0xf34a16ee"
    },
    {
      "inputs": [
        {
          "name": "_depositPrice",
          "type": "uint256"
        },
        {
          "name": "_newVersionPrice",
          "type": "uint256"
        },
        {
          "name": "_fiatAddress",
          "type": "address"
        },
        {
          "name": "_usersAddress",
          "type": "address"
        }
      ],
      "payable": false,
      "stateMutability": "nonpayable",
      "type": "constructor",
      "signature": "constructor"
    },
    {
      "payable": true,
      "stateMutability": "payable",
      "type": "fallback"
    },
    {
      "constant": false,
      "inputs": [],
      "name": "withdrawFunds",
      "outputs": [],
      "payable": false,
      "stateMutability": "nonpayable",
      "type": "function",
      "signature": "0x24600fc3"
    },
    {
      "constant": false,
      "inputs": [
        {
          "name": "_newPrice",
          "type": "uint256"
        }
      ],
      "name": "setDepositPrice",
      "outputs": [],
      "payable": false,
      "stateMutability": "nonpayable",
      "type": "function",
      "signature": "0xcaea667e"
    },
    {
      "constant": false,
      "inputs": [
        {
          "name": "_newPrice",
          "type": "uint256"
        }
      ],
      "name": "setNewVersionPrice",
      "outputs": [],
      "payable": false,
      "stateMutability": "nonpayable",
      "type": "function",
      "signature": "0xe1f90417"
    },
    {
      "constant": false,
      "inputs": [
        {
          "name": "_newAddress",
          "type": "uint256"
        }
      ],
      "name": "setFiatAddress",
      "outputs": [],
      "payable": false,
      "stateMutability": "nonpayable",
      "type": "function",
      "signature": "0x15f6da90"
    },
    {
      "constant": false,
      "inputs": [
        {
          "name": "_newAddress",
          "type": "uint256"
        }
      ],
      "name": "setRequestsAddress",
      "outputs": [],
      "payable": false,
      "stateMutability": "nonpayable",
      "type": "function",
      "signature": "0xe5100bad"
    },
    {
      "constant": false,
      "inputs": [
        {
          "name": "_folderName",
          "type": "string"
        },
        {
          "name": "_folderHash",
          "type": "string"
        },
        {
          "name": "_licencePrices",
          "type": "uint256[]"
        }
      ],
      "name": "depositFolder",
      "outputs": [],
      "payable": false,
      "stateMutability": "nonpayable",
      "type": "function",
      "signature": "0x6c22dffe"
    },
    {
      "constant": false,
      "inputs": [
        {
          "name": "_patentName",
          "type": "string"
        },
        {
          "name": "_patentHash",
          "type": "string"
        },
        {
          "name": "_folderHash",
          "type": "string"
        },
        {
          "name": "_ipfs",
          "type": "string"
        },
        {
          "name": "_licencePrices",
          "type": "uint256[]"
        }
      ],
      "name": "depositPatent",
      "outputs": [],
      "payable": true,
      "stateMutability": "payable",
      "type": "function",
      "signature": "0x18d0c9aa"
    },
    {
      "constant": false,
      "inputs": [
        {
          "name": "_patentID",
          "type": "string"
        },
        {
          "name": "_newName",
          "type": "string"
        },
        {
          "name": "_newLicencePrices",
          "type": "uint256[]"
        }
      ],
      "name": "modifyPatent",
      "outputs": [],
      "payable": false,
      "stateMutability": "nonpayable",
      "type": "function",
      "signature": "0xd170603c"
    },
    {
      "constant": false,
      "inputs": [
        {
          "name": "_patentID",
          "type": "string"
        },
        {
          "name": "newIpfsLocation",
          "type": "string"
        }
      ],
      "name": "addVersion",
      "outputs": [],
      "payable": true,
      "stateMutability": "payable",
      "type": "function",
      "signature": "0x9a00e589"
    },
    {
      "constant": false,
      "inputs": [
        {
          "name": "_patentID",
          "type": "string"
        }
      ],
      "name": "setVisibility",
      "outputs": [],
      "payable": false,
      "stateMutability": "nonpayable",
      "type": "function",
      "signature": "0xf2fa664c"
    },
    {
      "constant": false,
      "inputs": [
        {
          "name": "_patentID",
          "type": "string"
        },
        {
          "name": "_userID",
          "type": "address"
        }
      ],
      "name": "addBuyer",
      "outputs": [],
      "payable": false,
      "stateMutability": "nonpayable",
      "type": "function",
      "signature": "0x0da36103"
    },
    {
      "constant": false,
      "inputs": [
        {
          "name": "_patentID",
          "type": "string"
        },
        {
          "name": "_rate",
          "type": "uint8"
        }
      ],
      "name": "ratePatent",
      "outputs": [],
      "payable": false,
      "stateMutability": "nonpayable",
      "type": "function",
      "signature": "0xd7a10707"
    },
    {
      "constant": true,
      "inputs": [],
      "name": "patentCount",
      "outputs": [
        {
          "name": "",
          "type": "uint256"
        }
      ],
      "payable": false,
      "stateMutability": "view",
      "type": "function",
      "signature": "0xb084c841"
    },
    {
      "constant": true,
      "inputs": [],
      "name": "folderCount",
      "outputs": [
        {
          "name": "",
          "type": "uint256"
        }
      ],
      "payable": false,
      "stateMutability": "view",
      "type": "function",
      "signature": "0x44bad349"
    },
    {
      "constant": true,
      "inputs": [
        {
          "name": "_patentID",
          "type": "string"
        }
      ],
      "name": "getNumVersions",
      "outputs": [
        {
          "name": "",
          "type": "uint256"
        }
      ],
      "payable": false,
      "stateMutability": "view",
      "type": "function",
      "signature": "0x5a0178f6"
    },
    {
      "constant": true,
      "inputs": [
        {
          "name": "_folderID",
          "type": "string"
        }
      ],
      "name": "getFolderSize",
      "outputs": [
        {
          "name": "",
          "type": "uint256"
        }
      ],
      "payable": false,
      "stateMutability": "view",
      "type": "function",
      "signature": "0x0dec274e"
    },
    {
      "constant": true,
      "inputs": [
        {
          "name": "_folderID",
          "type": "string"
        },
        {
          "name": "_index",
          "type": "uint256"
        }
      ],
      "name": "getPatentID",
      "outputs": [
        {
          "name": "",
          "type": "string"
        }
      ],
      "payable": false,
      "stateMutability": "view",
      "type": "function",
      "signature": "0xc53feefb"
    },
    {
      "constant": true,
      "inputs": [
        {
          "name": "_patentID",
          "type": "string"
        }
      ],
      "name": "getPatentName",
      "outputs": [
        {
          "name": "",
          "type": "string"
        }
      ],
      "payable": false,
      "stateMutability": "view",
      "type": "function",
      "signature": "0xe966b895"
    },
    {
      "constant": true,
      "inputs": [
        {
          "name": "_patentID",
          "type": "string"
        }
      ],
      "name": "getPatentOwner",
      "outputs": [
        {
          "name": "",
          "type": "address"
        }
      ],
      "payable": false,
      "stateMutability": "view",
      "type": "function",
      "signature": "0x99d2618e"
    },
    {
      "constant": true,
      "inputs": [
        {
          "name": "_patentID",
          "type": "string"
        },
        {
          "name": "_index",
          "type": "uint256"
        }
      ],
      "name": "getPatentLocation",
      "outputs": [
        {
          "name": "",
          "type": "string"
        }
      ],
      "payable": false,
      "stateMutability": "view",
      "type": "function",
      "signature": "0xd76b1ab6"
    },
    {
      "constant": true,
      "inputs": [
        {
          "name": "_patentID",
          "type": "string"
        },
        {
          "name": "_index",
          "type": "uint256"
        }
      ],
      "name": "getTimestamp",
      "outputs": [
        {
          "name": "",
          "type": "uint256"
        }
      ],
      "payable": false,
      "stateMutability": "view",
      "type": "function",
      "signature": "0x772b465a"
    },
    {
      "constant": true,
      "inputs": [
        {
          "name": "_patentID",
          "type": "string"
        }
      ],
      "name": "getFolderHash",
      "outputs": [
        {
          "name": "",
          "type": "string"
        }
      ],
      "payable": false,
      "stateMutability": "view",
      "type": "function",
      "signature": "0xf4e370be"
    },
    {
      "constant": true,
      "inputs": [
        {
          "name": "_patentID",
          "type": "string"
        },
        {
          "name": "_userID",
          "type": "address"
        }
      ],
      "name": "isOwner",
      "outputs": [
        {
          "name": "",
          "type": "bool"
        }
      ],
      "payable": false,
      "stateMutability": "view",
      "type": "function",
      "signature": "0xbde1eee7"
    },
    {
      "constant": true,
      "inputs": [
        {
          "name": "_patentID",
          "type": "string"
        }
      ],
      "name": "isDeleted",
      "outputs": [
        {
          "name": "",
          "type": "bool"
        }
      ],
      "payable": false,
      "stateMutability": "view",
      "type": "function",
      "signature": "0x6c9c088c"
    },
    {
      "constant": true,
      "inputs": [
        {
          "name": "_patentID",
          "type": "string"
        }
      ],
      "name": "getMaxLicence",
      "outputs": [
        {
          "name": "",
          "type": "uint256"
        }
      ],
      "payable": false,
      "stateMutability": "view",
      "type": "function",
      "signature": "0x1cc58aa9"
    },
    {
      "constant": true,
      "inputs": [
        {
          "name": "_patentID",
          "type": "string"
        },
        {
          "name": "_licence",
          "type": "uint256"
        }
      ],
      "name": "getPrice",
      "outputs": [
        {
          "name": "",
          "type": "uint256"
        }
      ],
      "payable": false,
      "stateMutability": "view",
      "type": "function",
      "signature": "0x2ef3accc"
    },
    {
      "constant": true,
      "inputs": [
        {
          "name": "_patentID",
          "type": "string"
        }
      ],
      "name": "getPrices",
      "outputs": [
        {
          "name": "",
          "type": "uint256[]"
        }
      ],
      "payable": false,
      "stateMutability": "view",
      "type": "function",
      "signature": "0x467bdf48"
    },
    {
      "constant": true,
      "inputs": [
        {
          "name": "_patentID",
          "type": "string"
        }
      ],
      "name": "getNumRequests",
      "outputs": [
        {
          "name": "",
          "type": "uint256"
        }
      ],
      "payable": false,
      "stateMutability": "view",
      "type": "function",
      "signature": "0xe0cf4cc9"
    },
    {
      "constant": true,
      "inputs": [
        {
          "name": "_patentID",
          "type": "string"
        },
        {
          "name": "_index",
          "type": "uint256"
        }
      ],
      "name": "getBuyers",
      "outputs": [
        {
          "name": "",
          "type": "address"
        }
      ],
      "payable": false,
      "stateMutability": "view",
      "type": "function",
      "signature": "0x6038c638"
    },
    {
      "constant": true,
      "inputs": [
        {
          "name": "_patentID",
          "type": "string"
        },
        {
          "name": "_userID",
          "type": "address"
        }
      ],
      "name": "getRate",
      "outputs": [
        {
          "name": "",
          "type": "uint8"
        }
      ],
      "payable": false,
      "stateMutability": "view",
      "type": "function",
      "signature": "0x28e69e55"
    },
    {
      "constant": true,
      "inputs": [
        {
          "name": "_patentID",
          "type": "string"
        }
      ],
      "name": "getOwnerEmail",
      "outputs": [
        {
          "name": "",
          "type": "string"
        }
      ],
      "payable": false,
      "stateMutability": "view",
      "type": "function",
      "signature": "0x68b2210d"
    },
    {
      "constant": true,
      "inputs": [
        {
          "name": "_patentID",
          "type": "string"
        }
      ],
      "name": "getOwnerName",
      "outputs": [
        {
          "name": "",
          "type": "string"
        }
      ],
      "payable": false,
      "stateMutability": "view",
      "type": "function",
      "signature": "0x1429ab37"
    },
    {
      "constant": true,
      "inputs": [
        {
          "name": "_id",
          "type": "string"
        }
      ],
      "name": "isRegistered",
      "outputs": [
        {
          "name": "",
          "type": "bool"
        }
      ],
      "payable": false,
      "stateMutability": "view",
      "type": "function",
      "signature": "0xc822d7f0"
    },
    {
      "constant": true,
      "inputs": [
        {
          "name": "_userID",
          "type": "address"
        }
      ],
      "name": "hasAccount",
      "outputs": [
        {
          "name": "",
          "type": "bool"
        }
      ],
      "payable": false,
      "stateMutability": "view",
      "type": "function",
      "signature": "0xc8e40fbf"
    },
    {
      "constant": true,
      "inputs": [
        {
          "name": "_dollars",
          "type": "uint256"
        }
      ],
      "name": "getEthPrice",
      "outputs": [
        {
          "name": "",
          "type": "uint256"
        }
      ],
      "payable": false,
      "stateMutability": "view",
      "type": "function",
      "signature": "0x870d365d"
    }
  ],
  "bytecode": "0x6080604052336000806101000a81548173ffffffffffffffffffffffffffffffffffffffff021916908373ffffffffffffffffffffffffffffffffffffffff16021790555034801561005057600080fd5b50604051608080620053cc8339810180604052608081101561007157600080fd5b810190808051906020019092919080519060200190929190805190602001909291908051906020019092919050505081600360006101000a81548173ffffffffffffffffffffffffffffffffffffffff021916908373ffffffffffffffffffffffffffffffffffffffff16021790555080600560006101000a81548173ffffffffffffffffffffffffffffffffffffffff021916908373ffffffffffffffffffffffffffffffffffffffff16021790555083600181905550826002819055505050505061528880620001446000396000f3fe6080604052600436106101ee576000357c0100000000000000000000000000000000000000000000000000000000900463ffffffff1680630da36103146101f05780630dec274e146102d85780631429ab37146103b457806315f6da90146104f557806318d0c9aa146105305780631c85da19146108445780631cc58aa91461086f57806324600fc31461094b57806328e69e55146109625780632ef3accc14610a645780633ee915d614610b4a57806344bad34914610bfe578063467bdf4814610c295780635a0178f614610d465780636038c63814610e2257806368b2210d14610f345780636c22dffe146110755780636c9c088c14611268578063772b465a14611348578063870d365d1461142e57806397c00d4b1461147d57806399d2618e146115315780639a00e58914611639578063a6f9dae11461178b578063b084c841146117dc578063bde1eee714611807578063c53feefb14611907578063c822d7f014611a52578063c8e40fbf14611b32578063caea667e14611b9b578063d170603c14611bd6578063d76b1ab614611dc9578063d7a1070714611f14578063e0cf4cc914611fe9578063e1f90417146120c5578063e5100bad14612100578063e966b8951461213b578063f2fa664c1461227c578063f34a16ee14612344578063f4e370be1461236f575b005b3480156101fc57600080fd5b506102d66004803603604081101561021357600080fd5b810190808035906020019064010000000081111561023057600080fd5b82018360208201111561024257600080fd5b8035906020019184600183028401116401000000008311171561026457600080fd5b91908080601f016020809104026020016040519081016040528093929190818152602001838380828437600081840152601f19601f820116905080830192505050505050509192919290803573ffffffffffffffffffffffffffffffffffffffff1690602001909291905050506124b0565b005b3480156102e457600080fd5b5061039e600480360360208110156102fb57600080fd5b810190808035906020019064010000000081111561031857600080fd5b82018360208201111561032a57600080fd5b8035906020019184600183028401116401000000008311171561034c57600080fd5b91908080601f016020809104026020016040519081016040528093929190818152602001838380828437600081840152601f19601f82011690508083019250505050505050919291929050505061270b565b6040518082815260200191505060405180910390f35b3480156103c057600080fd5b5061047a600480360360208110156103d757600080fd5b81019080803590602001906401000000008111156103f457600080fd5b82018360208201111561040657600080fd5b8035906020019184600183028401116401000000008311171561042857600080fd5b91908080601f016020809104026020016040519081016040528093929190818152602001838380828437600081840152601f19601f820116905080830192505050505050509192919290505050612783565b6040518080602001828103825283818151815260200191508051906020019080838360005b838110156104ba57808201518184015260208101905061049f565b50505050905090810190601f1680156104e75780820380516001836020036101000a031916815260200191505b509250505060405180910390f35b34801561050157600080fd5b5061052e6004803603602081101561051857600080fd5b8101908080359060200190929190505050612966565b005b610842600480360360a081101561054657600080fd5b810190808035906020019064010000000081111561056357600080fd5b82018360208201111561057557600080fd5b8035906020019184600183028401116401000000008311171561059757600080fd5b91908080601f016020809104026020016040519081016040528093929190818152602001838380828437600081840152601f19601f820116905080830192505050505050509192919290803590602001906401000000008111156105fa57600080fd5b82018360208201111561060c57600080fd5b8035906020019184600183028401116401000000008311171561062e57600080fd5b91908080601f016020809104026020016040519081016040528093929190818152602001838380828437600081840152601f19601f8201169050808301925050505050505091929192908035906020019064010000000081111561069157600080fd5b8201836020820111156106a357600080fd5b803590602001918460018302840111640100000000831117156106c557600080fd5b91908080601f016020809104026020016040519081016040528093929190818152602001838380828437600081840152601f19601f8201169050808301925050505050505091929192908035906020019064010000000081111561072857600080fd5b82018360208201111561073a57600080fd5b8035906020019184600183028401116401000000008311171561075c57600080fd5b91908080601f016020809104026020016040519081016040528093929190818152602001838380828437600081840152601f19601f820116905080830192505050505050509192919290803590602001906401000000008111156107bf57600080fd5b8201836020820111156107d157600080fd5b803590602001918460208302840111640100000000831117156107f357600080fd5b919080806020026020016040519081016040528093929190818152602001838360200280828437600081840152601f19601f820116905080830192505050505050509192919290505050612a05565b005b34801561085057600080fd5b506108596130ab565b6040518082815260200191505060405180910390f35b34801561087b57600080fd5b506109356004803603602081101561089257600080fd5b81019080803590602001906401000000008111156108af57600080fd5b8201836020820111156108c157600080fd5b803590602001918460018302840111640100000000831117156108e357600080fd5b91908080601f016020809104026020016040519081016040528093929190818152602001838380828437600081840152601f19601f8201169050808301925050505050505091929192905050506130b1565b6040518082815260200191505060405180910390f35b34801561095757600080fd5b5061096061312c565b005b34801561096e57600080fd5b50610a486004803603604081101561098557600080fd5b81019080803590602001906401000000008111156109a257600080fd5b8201836020820111156109b457600080fd5b803590602001918460018302840111640100000000831117156109d657600080fd5b91908080601f016020809104026020016040519081016040528093929190818152602001838380828437600081840152601f19601f820116905080830192505050505050509192919290803573ffffffffffffffffffffffffffffffffffffffff169060200190929190505050613208565b604051808260ff1660ff16815260200191505060405180910390f35b348015610a7057600080fd5b50610b3460048036036040811015610a8757600080fd5b8101908080359060200190640100000000811115610aa457600080fd5b820183602082011115610ab657600080fd5b80359060200191846001830284011164010000000083111715610ad857600080fd5b91908080601f016020809104026020016040519081016040528093929190818152602001838380828437600081840152601f19601f820116905080830192505050505050509192919290803590602001909291905050506132cb565b6040518082815260200191505060405180910390f35b348015610b5657600080fd5b50610b8360048036036020811015610b6d57600080fd5b810190808035906020019092919050505061335e565b6040518080602001828103825283818151815260200191508051906020019080838360005b83811015610bc3578082015181840152602081019050610ba8565b50505050905090810190601f168015610bf05780820380516001836020036101000a031916815260200191505b509250505060405180910390f35b348015610c0a57600080fd5b50610c13613419565b6040518082815260200191505060405180910390f35b348015610c3557600080fd5b50610cef60048036036020811015610c4c57600080fd5b8101908080359060200190640100000000811115610c6957600080fd5b820183602082011115610c7b57600080fd5b80359060200191846001830284011164010000000083111715610c9d57600080fd5b91908080601f016020809104026020016040519081016040528093929190818152602001838380828437600081840152601f19601f820116905080830192505050505050509192919290505050613426565b6040518080602001828103825283818151815260200191508051906020019060200280838360005b83811015610d32578082015181840152602081019050610d17565b505050509050019250505060405180910390f35b348015610d5257600080fd5b50610e0c60048036036020811015610d6957600080fd5b8101908080359060200190640100000000811115610d8657600080fd5b820183602082011115610d9857600080fd5b80359060200191846001830284011164010000000083111715610dba57600080fd5b91908080601f016020809104026020016040519081016040528093929190818152602001838380828437600081840152601f19601f8201169050808301925050505050505091929192905050506134ec565b6040518082815260200191505060405180910390f35b348015610e2e57600080fd5b50610ef260048036036040811015610e4557600080fd5b8101908080359060200190640100000000811115610e6257600080fd5b820183602082011115610e7457600080fd5b80359060200191846001830284011164010000000083111715610e9657600080fd5b91908080601f016020809104026020016040519081016040528093929190818152602001838380828437600081840152601f19601f82011690508083019250505050505050919291929080359060200190929190505050613567565b604051808273ffffffffffffffffffffffffffffffffffffffff1673ffffffffffffffffffffffffffffffffffffffff16815260200191505060405180910390f35b348015610f4057600080fd5b50610ffa60048036036020811015610f5757600080fd5b8101908080359060200190640100000000811115610f7457600080fd5b820183602082011115610f8657600080fd5b80359060200191846001830284011164010000000083111715610fa857600080fd5b91908080601f016020809104026020016040519081016040528093929190818152602001838380828437600081840152601f19601f820116905080830192505050505050509192919290505050613617565b6040518080602001828103825283818151815260200191508051906020019080838360005b8381101561103a57808201518184015260208101905061101f565b50505050905090810190601f1680156110675780820380516001836020036101000a031916815260200191505b509250505060405180910390f35b34801561108157600080fd5b506112666004803603606081101561109857600080fd5b81019080803590602001906401000000008111156110b557600080fd5b8201836020820111156110c757600080fd5b803590602001918460018302840111640100000000831117156110e957600080fd5b91908080601f016020809104026020016040519081016040528093929190818152602001838380828437600081840152601f19601f8201169050808301925050505050505091929192908035906020019064010000000081111561114c57600080fd5b82018360208201111561115e57600080fd5b8035906020019184600183028401116401000000008311171561118057600080fd5b91908080601f016020809104026020016040519081016040528093929190818152602001838380828437600081840152601f19601f820116905080830192505050505050509192919290803590602001906401000000008111156111e357600080fd5b8201836020820111156111f557600080fd5b8035906020019184602083028401116401000000008311171561121757600080fd5b919080806020026020016040519081016040528093929190818152602001838360200280828437600081840152601f19601f8201169050808301925050505050505091929192905050506137fa565b005b34801561127457600080fd5b5061132e6004803603602081101561128b57600080fd5b81019080803590602001906401000000008111156112a857600080fd5b8201836020820111156112ba57600080fd5b803590602001918460018302840111640100000000831117156112dc57600080fd5b91908080601f016020809104026020016040519081016040528093929190818152602001838380828437600081840152601f19601f820116905080830192505050505050509192919290505050613d66565b604051808215151515815260200191505060405180910390f35b34801561135457600080fd5b506114186004803603604081101561136b57600080fd5b810190808035906020019064010000000081111561138857600080fd5b82018360208201111561139a57600080fd5b803590602001918460018302840111640100000000831117156113bc57600080fd5b91908080601f016020809104026020016040519081016040528093929190818152602001838380828437600081840152601f19601f82011690508083019250505050505050919291929080359060200190929190505050613deb565b6040518082815260200191505060405180910390f35b34801561143a57600080fd5b506114676004803603602081101561145157600080fd5b8101908080359060200190929190505050613e7b565b6040518082815260200191505060405180910390f35b34801561148957600080fd5b506114b6600480360360208110156114a057600080fd5b8101908080359060200190929190505050613e91565b6040518080602001828103825283818151815260200191508051906020019080838360005b838110156114f65780820151818401526020810190506114db565b50505050905090810190601f1680156115235780820380516001836020036101000a031916815260200191505b509250505060405180910390f35b34801561153d57600080fd5b506115f76004803603602081101561155457600080fd5b810190808035906020019064010000000081111561157157600080fd5b82018360208201111561158357600080fd5b803590602001918460018302840111640100000000831117156115a557600080fd5b91908080601f016020809104026020016040519081016040528093929190818152602001838380828437600081840152601f19601f820116905080830192505050505050509192919290505050613f4c565b604051808273ffffffffffffffffffffffffffffffffffffffff1673ffffffffffffffffffffffffffffffffffffffff16815260200191505060405180910390f35b6117896004803603604081101561164f57600080fd5b810190808035906020019064010000000081111561166c57600080fd5b82018360208201111561167e57600080fd5b803590602001918460018302840111640100000000831117156116a057600080fd5b91908080601f016020809104026020016040519081016040528093929190818152602001838380828437600081840152601f19601f8201169050808301925050505050505091929192908035906020019064010000000081111561170357600080fd5b82018360208201111561171557600080fd5b8035906020019184600183028401116401000000008311171561173757600080fd5b91908080601f016020809104026020016040519081016040528093929190818152602001838380828437600081840152601f19601f820116905080830192505050505050509192919290505050613fe4565b005b34801561179757600080fd5b506117da600480360360208110156117ae57600080fd5b81019080803573ffffffffffffffffffffffffffffffffffffffff1690602001909291905050506141ef565b005b3480156117e857600080fd5b506117f161428d565b6040518082815260200191505060405180910390f35b34801561181357600080fd5b506118ed6004803603604081101561182a57600080fd5b810190808035906020019064010000000081111561184757600080fd5b82018360208201111561185957600080fd5b8035906020019184600183028401116401000000008311171561187b57600080fd5b91908080601f016020809104026020016040519081016040528093929190818152602001838380828437600081840152601f19601f820116905080830192505050505050509192919290803573ffffffffffffffffffffffffffffffffffffffff16906020019092919050505061429a565b604051808215151515815260200191505060405180910390f35b34801561191357600080fd5b506119d76004803603604081101561192a57600080fd5b810190808035906020019064010000000081111561194757600080fd5b82018360208201111561195957600080fd5b8035906020019184600183028401116401000000008311171561197b57600080fd5b91908080601f016020809104026020016040519081016040528093929190818152602001838380828437600081840152601f19601f820116905080830192505050505050509192919290803590602001909291905050506142db565b6040518080602001828103825283818151815260200191508051906020019080838360005b83811015611a175780820151818401526020810190506119fc565b50505050905090810190601f168015611a445780820380516001836020036101000a031916815260200191505b509250505060405180910390f35b348015611a5e57600080fd5b50611b1860048036036020811015611a7557600080fd5b8101908080359060200190640100000000811115611a9257600080fd5b820183602082011115611aa457600080fd5b80359060200191846001830284011164010000000083111715611ac657600080fd5b91908080601f016020809104026020016040519081016040528093929190818152602001838380828437600081840152601f19601f820116905080830192505050505050509192919290505050614400565b604051808215151515815260200191505060405180910390f35b348015611b3e57600080fd5b50611b8160048036036020811015611b5557600080fd5b81019080803573ffffffffffffffffffffffffffffffffffffffff1690602001909291905050506144c7565b604051808215151515815260200191505060405180910390f35b348015611ba757600080fd5b50611bd460048036036020811015611bbe57600080fd5b81019080803590602001909291905050506145c6565b005b348015611be257600080fd5b50611dc760048036036060811015611bf957600080fd5b8101908080359060200190640100000000811115611c1657600080fd5b820183602082011115611c2857600080fd5b80359060200191846001830284011164010000000083111715611c4a57600080fd5b91908080601f016020809104026020016040519081016040528093929190818152602001838380828437600081840152601f19601f82011690508083019250505050505050919291929080359060200190640100000000811115611cad57600080fd5b820183602082011115611cbf57600080fd5b80359060200191846001830284011164010000000083111715611ce157600080fd5b91908080601f016020809104026020016040519081016040528093929190818152602001838380828437600081840152601f19601f82011690508083019250505050505050919291929080359060200190640100000000811115611d4457600080fd5b820183602082011115611d5657600080fd5b80359060200191846020830284011164010000000083111715611d7857600080fd5b919080806020026020016040519081016040528093929190818152602001838360200280828437600081840152601f19601f82011690508083019250505050505050919291929050505061462b565b005b348015611dd557600080fd5b50611e9960048036036040811015611dec57600080fd5b8101908080359060200190640100000000811115611e0957600080fd5b820183602082011115611e1b57600080fd5b80359060200191846001830284011164010000000083111715611e3d57600080fd5b91908080601f016020809104026020016040519081016040528093929190818152602001838380828437600081840152601f19601f820116905080830192505050505050509192919290803590602001909291905050506146f8565b6040518080602001828103825283818151815260200191508051906020019080838360005b83811015611ed9578082015181840152602081019050611ebe565b50505050905090810190601f168015611f065780820380516001836020036101000a031916815260200191505b509250505060405180910390f35b348015611f2057600080fd5b50611fe760048036036040811015611f3757600080fd5b8101908080359060200190640100000000811115611f5457600080fd5b820183602082011115611f6657600080fd5b80359060200191846001830284011164010000000083111715611f8857600080fd5b91908080601f016020809104026020016040519081016040528093929190818152602001838380828437600081840152601f19601f820116905080830192505050505050509192919290803560ff169060200190929190505050614820565b005b348015611ff557600080fd5b506120af6004803603602081101561200c57600080fd5b810190808035906020019064010000000081111561202957600080fd5b82018360208201111561203b57600080fd5b8035906020019184600183028401116401000000008311171561205d57600080fd5b91908080601f016020809104026020016040519081016040528093929190818152602001838380828437600081840152601f19601f820116905080830192505050505050509192919290505050614a90565b6040518082815260200191505060405180910390f35b3480156120d157600080fd5b506120fe600480360360208110156120e857600080fd5b8101908080359060200190929190505050614b0b565b005b34801561210c57600080fd5b506121396004803603602081101561212357600080fd5b8101908080359060200190929190505050614b70565b005b34801561214757600080fd5b506122016004803603602081101561215e57600080fd5b810190808035906020019064010000000081111561217b57600080fd5b82018360208201111561218d57600080fd5b803590602001918460018302840111640100000000831117156121af57600080fd5b91908080601f016020809104026020016040519081016040528093929190818152602001838380828437600081840152601f19601f820116905080830192505050505050509192919290505050614c0f565b6040518080602001828103825283818151815260200191508051906020019080838360005b83811015612241578082015181840152602081019050612226565b50505050905090810190601f16801561226e5780820380516001836020036101000a031916815260200191505b509250505060405180910390f35b34801561228857600080fd5b506123426004803603602081101561229f57600080fd5b81019080803590602001906401000000008111156122bc57600080fd5b8201836020820111156122ce57600080fd5b803590602001918460018302840111640100000000831117156122f057600080fd5b91908080601f016020809104026020016040519081016040528093929190818152602001838380828437600081840152601f19601f820116905080830192505050505050509192919290505050614d1f565b005b34801561235057600080fd5b50612359614de6565b6040518082815260200191505060405180910390f35b34801561237b57600080fd5b506124356004803603602081101561239257600080fd5b81019080803590602001906401000000008111156123af57600080fd5b8201836020820111156123c157600080fd5b803590602001918460018302840111640100000000831117156123e357600080fd5b91908080601f016020809104026020016040519081016040528093929190818152602001838380828437600081840152601f19601f820116905080830192505050505050509192919290505050614dec565b6040518080602001828103825283818151815260200191508051906020019080838360005b8381101561247557808201518184015260208101905061245a565b50505050905090810190601f1680156124a25780820380516001836020036101000a031916815260200191505b509250505060405180910390f35b6124b982614400565b80156126245750600460009054906101000a900473ffffffffffffffffffffffffffffffffffffffff1673ffffffffffffffffffffffffffffffffffffffff16632174c91583836040518363ffffffff167c010000000000000000000000000000000000000000000000000000000002815260040180806020018373ffffffffffffffffffffffffffffffffffffffff1673ffffffffffffffffffffffffffffffffffffffff168152602001828103825284818151815260200191508051906020019080838360005b8381101561259d578082015181840152602081019050612582565b50505050905090810190601f1680156125ca5780820380516001836020036101000a031916815260200191505b50935050505060206040518083038186803b1580156125e857600080fd5b505afa1580156125fc573d6000803e3d6000fd5b505050506040513d602081101561261257600080fd5b81019080805190602001909291905050505b151561262f57600080fd5b60006007836040518082805190602001908083835b6020831015156126695780518252602082019150602081019050602083039250612644565b6001836020036101000a03801982511681845116808217855250505050505090500191505090815260200160405180910390209050806007018290806001815401808255809150509060018203906000526020600020016000909192909190916101000a81548173ffffffffffffffffffffffffffffffffffffffff021916908373ffffffffffffffffffffffffffffffffffffffff16021790555050505050565b60006009826040518082805190602001908083835b6020831015156127455780518252602082019150602081019050602083039250612720565b6001836020036101000a0380198251168184511680821785525050505050509050019150509081526020016040518091039020805490509050919050565b6060600560009054906101000a900473ffffffffffffffffffffffffffffffffffffffff1673ffffffffffffffffffffffffffffffffffffffff16635fd4b08a6007846040518082805190602001908083835b6020831015156127fb57805182526020820191506020810190506020830392506127d6565b6001836020036101000a038019825116818451168082178552505050505050905001915050908152602001604051809103902060010160009054906101000a900473ffffffffffffffffffffffffffffffffffffffff166040518263ffffffff167c0100000000000000000000000000000000000000000000000000000000028152600401808273ffffffffffffffffffffffffffffffffffffffff1673ffffffffffffffffffffffffffffffffffffffff16815260200191505060006040518083038186803b1580156128ce57600080fd5b505afa1580156128e2573d6000803e3d6000fd5b505050506040513d6000823e3d601f19601f82011682018060405250602081101561290c57600080fd5b81019080805164010000000081111561292457600080fd5b8281019050602081018481111561293a57600080fd5b815185600182028301116401000000008211171561295757600080fd5b50509291905050509050919050565b6000809054906101000a900473ffffffffffffffffffffffffffffffffffffffff1673ffffffffffffffffffffffffffffffffffffffff163373ffffffffffffffffffffffffffffffffffffffff161415156129c157600080fd5b80600360006101000a81548173ffffffffffffffffffffffffffffffffffffffff021916908373ffffffffffffffffffffffffffffffffffffffff16021790555050565b600560009054906101000a900473ffffffffffffffffffffffffffffffffffffffff1673ffffffffffffffffffffffffffffffffffffffff1663c3c5a547336040518263ffffffff167c0100000000000000000000000000000000000000000000000000000000028152600401808273ffffffffffffffffffffffffffffffffffffffff1673ffffffffffffffffffffffffffffffffffffffff16815260200191505060206040518083038186803b158015612ac057600080fd5b505afa158015612ad4573d6000803e3d6000fd5b505050506040513d6020811015612aea57600080fd5b81019080805190602001909291905050508015612b0d5750612b0b84614400565b155b8015612b235750612b1f600154613e7b565b3410155b1515612b2e57600080fd5b60606001604051908082528060200260200182016040528015612b6557816020015b6060815260200190600190039081612b505790505b50905082816000815181101515612b7857fe5b9060200190602002018190525060606001604051908082528060200260200182016040528015612bb75781602001602082028038833980820191505090505b509050612bc385614400565b612bcd5742612c55565b6007856040518082805190602001908083835b602083101515612c055780518252602082019150602081019050602083039250612be0565b6001836020036101000a03801982511681845116808217855250505050505090500191505090815260200160405180910390206003016000815481101515612c4957fe5b90600052602060002001545b816000815181101515612c6457fe5b9060200190602002018181525050610100604051908101604052808881526020013373ffffffffffffffffffffffffffffffffffffffff1681526020018681526020018281526020018381526020018481526020016000151581526020016000604051908082528060200260200182016040528015612cf25781602001602082028038833980820191505090505b508152506007876040518082805190602001908083835b602083101515612d2e5780518252602082019150602081019050602083039250612d09565b6001836020036101000a03801982511681845116808217855250505050505090500191505090815260200160405180910390206000820151816000019080519060200190612d7d929190614efc565b5060208201518160010160006101000a81548173ffffffffffffffffffffffffffffffffffffffff021916908373ffffffffffffffffffffffffffffffffffffffff1602179055506040820151816002019080519060200190612de1929190614efc565b506060820151816003019080519060200190612dfe929190614f7c565b506080820151816004019080519060200190612e1b929190614fc9565b5060a0820151816005019080519060200190612e38929190614f7c565b5060c08201518160060160006101000a81548160ff02191690831515021790555060e0820151816007019080519060200190612e75929190615029565b509050506006869080600181540180825580915050906001820390600052602060002001600090919290919091509080519060200190612eb69291906150b3565b5050600560009054906101000a900473ffffffffffffffffffffffffffffffffffffffff1673ffffffffffffffffffffffffffffffffffffffff1663d5e811e833886040518363ffffffff167c0100000000000000000000000000000000000000000000000000000000028152600401808373ffffffffffffffffffffffffffffffffffffffff1673ffffffffffffffffffffffffffffffffffffffff16815260200180602001828103825283818151815260200191508051906020019080838360005b83811015612f95578082015181840152602081019050612f7a565b50505050905090810190601f168015612fc25780820380516001836020036101000a031916815260200191505b509350505050600060405180830381600087803b158015612fe257600080fd5b505af1158015612ff6573d6000803e3d6000fd5b505050506009856040518082805190602001908083835b602083101515613032578051825260208201915060208101905060208303925061300d565b6001836020036101000a03801982511681845116808217855250505050505090500191505090815260200160405180910390208690806001815401808255809150509060018203906000526020600020016000909192909190915090805190602001906130a09291906150b3565b505050505050505050565b60015481565b60006007826040518082805190602001908083835b6020831015156130eb57805182526020820191506020810190506020830392506130c6565b6001836020036101000a0380198251168184511680821785525050505050509050019150509081526020016040518091039020600501805490509050919050565b6000809054906101000a900473ffffffffffffffffffffffffffffffffffffffff1673ffffffffffffffffffffffffffffffffffffffff163373ffffffffffffffffffffffffffffffffffffffff1614151561318757600080fd5b6000809054906101000a900473ffffffffffffffffffffffffffffffffffffffff1673ffffffffffffffffffffffffffffffffffffffff166108fc3073ffffffffffffffffffffffffffffffffffffffff16319081150290604051600060405180830381858888f19350505050158015613205573d6000803e3d6000fd5b50565b60006007836040518082805190602001908083835b602083101515613242578051825260208201915060208101905060208303925061321d565b6001836020036101000a038019825116818451168082178552505050505050905001915050908152602001604051809103902060080160008373ffffffffffffffffffffffffffffffffffffffff1673ffffffffffffffffffffffffffffffffffffffff16815260200190815260200160002060009054906101000a900460ff16905092915050565b60006007836040518082805190602001908083835b60208310151561330557805182526020820191506020810190506020830392506132e0565b6001836020036101000a03801982511681845116808217855250505050505090500191505090815260200160405180910390206005016001830381548110151561334b57fe5b9060005260206000200154905092915050565b60088181548110151561336d57fe5b906000526020600020016000915090508054600181600116156101000203166002900480601f0160208091040260200160405190810160405280929190818152602001828054600181600116156101000203166002900480156134115780601f106133e657610100808354040283529160200191613411565b820191906000526020600020905b8154815290600101906020018083116133f457829003601f168201915b505050505081565b6000600880549050905090565b60606007826040518082805190602001908083835b602083101515613460578051825260208201915060208101905060208303925061343b565b6001836020036101000a03801982511681845116808217855250505050505090500191505090815260200160405180910390206005018054806020026020016040519081016040528092919081815260200182805480156134e057602002820191906000526020600020905b8154815260200190600101908083116134cc575b50505050509050919050565b60006007826040518082805190602001908083835b6020831015156135265780518252602082019150602081019050602083039250613501565b6001836020036101000a0380198251168184511680821785525050505050509050019150509081526020016040518091039020600401805490509050919050565b60006007836040518082805190602001908083835b6020831015156135a1578051825260208201915060208101905060208303925061357c565b6001836020036101000a0380198251168184511680821785525050505050509050019150509081526020016040518091039020600701828154811015156135e457fe5b9060005260206000200160009054906101000a900473ffffffffffffffffffffffffffffffffffffffff16905092915050565b6060600560009054906101000a900473ffffffffffffffffffffffffffffffffffffffff1673ffffffffffffffffffffffffffffffffffffffff16634fa7353c6007846040518082805190602001908083835b60208310151561368f578051825260208201915060208101905060208303925061366a565b6001836020036101000a038019825116818451168082178552505050505050905001915050908152602001604051809103902060010160009054906101000a900473ffffffffffffffffffffffffffffffffffffffff166040518263ffffffff167c0100000000000000000000000000000000000000000000000000000000028152600401808273ffffffffffffffffffffffffffffffffffffffff1673ffffffffffffffffffffffffffffffffffffffff16815260200191505060006040518083038186803b15801561376257600080fd5b505afa158015613776573d6000803e3d6000fd5b505050506040513d6000823e3d601f19601f8201168201806040525060208110156137a057600080fd5b8101908080516401000000008111156137b857600080fd5b828101905060208101848111156137ce57600080fd5b81518560018202830111640100000000821117156137eb57600080fd5b50509291905050509050919050565b600560009054906101000a900473ffffffffffffffffffffffffffffffffffffffff1673ffffffffffffffffffffffffffffffffffffffff1663c3c5a547336040518263ffffffff167c0100000000000000000000000000000000000000000000000000000000028152600401808273ffffffffffffffffffffffffffffffffffffffff1673ffffffffffffffffffffffffffffffffffffffff16815260200191505060206040518083038186803b1580156138b557600080fd5b505afa1580156138c9573d6000803e3d6000fd5b505050506040513d60208110156138df57600080fd5b81019080805190602001909291905050508015613902575061390082614400565b155b151561390d57600080fd5b6060600160405190808252806020026020018201604052801561393f5781602001602082028038833980820191505090505b5090504281600081518110151561395257fe5b90602001906020020181815250506060600160405190808252806020026020018201604052801561399757816020015b60608152602001906001900390816139825790505b50905060206040519081016040528060008152508160008151811015156139ba57fe5b90602001906020020181905250610100604051908101604052808681526020013373ffffffffffffffffffffffffffffffffffffffff168152602001602060405190810160405280600081525081526020018381526020018281526020018481526020016000151581526020016000604051908082528060200260200182016040528015613a575781602001602082028038833980820191505090505b508152506007856040518082805190602001908083835b602083101515613a935780518252602082019150602081019050602083039250613a6e565b6001836020036101000a03801982511681845116808217855250505050505090500191505090815260200160405180910390206000820151816000019080519060200190613ae2929190614efc565b5060208201518160010160006101000a81548173ffffffffffffffffffffffffffffffffffffffff021916908373ffffffffffffffffffffffffffffffffffffffff1602179055506040820151816002019080519060200190613b46929190614efc565b506060820151816003019080519060200190613b63929190614f7c565b506080820151816004019080519060200190613b80929190614fc9565b5060a0820151816005019080519060200190613b9d929190614f7c565b5060c08201518160060160006101000a81548160ff02191690831515021790555060e0820151816007019080519060200190613bda929190615029565b509050506008849080600181540180825580915050906001820390600052602060002001600090919290919091509080519060200190613c1b9291906150b3565b5050600560009054906101000a900473ffffffffffffffffffffffffffffffffffffffff1673ffffffffffffffffffffffffffffffffffffffff16637746d73933866040518363ffffffff167c0100000000000000000000000000000000000000000000000000000000028152600401808373ffffffffffffffffffffffffffffffffffffffff1673ffffffffffffffffffffffffffffffffffffffff16815260200180602001828103825283818151815260200191508051906020019080838360005b83811015613cfa578082015181840152602081019050613cdf565b50505050905090810190601f168015613d275780820380516001836020036101000a031916815260200191505b509350505050600060405180830381600087803b158015613d4757600080fd5b505af1158015613d5b573d6000803e3d6000fd5b505050505050505050565b60006007826040518082805190602001908083835b602083101515613da05780518252602082019150602081019050602083039250613d7b565b6001836020036101000a038019825116818451168082178552505050505050905001915050908152602001604051809103902060060160009054906101000a900460ff169050919050565b60006007836040518082805190602001908083835b602083101515613e255780518252602082019150602081019050602083039250613e00565b6001836020036101000a038019825116818451168082178552505050505050905001915050908152602001604051809103902060030182815481101515613e6857fe5b9060005260206000200154905092915050565b600060c882811515613e8957fe5b049050919050565b600681815481101515613ea057fe5b906000526020600020016000915090508054600181600116156101000203166002900480601f016020809104026020016040519081016040528092919081815260200182805460018160011615610100020316600290048015613f445780601f10613f1957610100808354040283529160200191613f44565b820191906000526020600020905b815481529060010190602001808311613f2757829003601f168201915b505050505081565b60006007826040518082805190602001908083835b602083101515613f865780518252602082019150602081019050602083039250613f61565b6001836020036101000a038019825116818451168082178552505050505050905001915050908152602001604051809103902060010160009054906101000a900473ffffffffffffffffffffffffffffffffffffffff169050919050565b600560009054906101000a900473ffffffffffffffffffffffffffffffffffffffff1673ffffffffffffffffffffffffffffffffffffffff1663c3c5a547336040518263ffffffff167c0100000000000000000000000000000000000000000000000000000000028152600401808273ffffffffffffffffffffffffffffffffffffffff1673ffffffffffffffffffffffffffffffffffffffff16815260200191505060206040518083038186803b15801561409f57600080fd5b505afa1580156140b3573d6000803e3d6000fd5b505050506040513d60208110156140c957600080fd5b810190808051906020019092919050505080156140eb57506140ea82614400565b5b801561410157506140fd600254613e7b565b3410155b151561410c57600080fd5b60006007836040518082805190602001908083835b6020831015156141465780518252602082019150602081019050602083039250614121565b6001836020036101000a03801982511681845116808217855250505050505090500191505090815260200160405180910390209050806004018290806001815401808255809150509060018203906000526020600020016000909192909190915090805190602001906141ba9291906150b3565b505080600301429080600181540180825580915050906001820390600052602060002001600090919290919091505550505050565b6000809054906101000a900473ffffffffffffffffffffffffffffffffffffffff1673ffffffffffffffffffffffffffffffffffffffff163373ffffffffffffffffffffffffffffffffffffffff1614151561424a57600080fd5b806000806101000a81548173ffffffffffffffffffffffffffffffffffffffff021916908373ffffffffffffffffffffffffffffffffffffffff16021790555050565b6000600680549050905090565b60008173ffffffffffffffffffffffffffffffffffffffff166142bc84613f4c565b73ffffffffffffffffffffffffffffffffffffffff1614905092915050565b60606009836040518082805190602001908083835b60208310151561431557805182526020820191506020810190506020830392506142f0565b6001836020036101000a03801982511681845116808217855250505050505090500191505090815260200160405180910390208281548110151561435557fe5b906000526020600020018054600181600116156101000203166002900480601f0160208091040260200160405190810160405280929190818152602001828054600181600116156101000203166002900480156143f35780601f106143c8576101008083540402835291602001916143f3565b820191906000526020600020905b8154815290600101906020018083116143d657829003601f168201915b5050505050905092915050565b60008073ffffffffffffffffffffffffffffffffffffffff166007836040518082805190602001908083835b602083101515614451578051825260208201915060208101905060208303925061442c565b6001836020036101000a038019825116818451168082178552505050505050905001915050908152602001604051809103902060010160009054906101000a900473ffffffffffffffffffffffffffffffffffffffff1673ffffffffffffffffffffffffffffffffffffffff1614159050919050565b6000600560009054906101000a900473ffffffffffffffffffffffffffffffffffffffff1673ffffffffffffffffffffffffffffffffffffffff1663c3c5a547836040518263ffffffff167c0100000000000000000000000000000000000000000000000000000000028152600401808273ffffffffffffffffffffffffffffffffffffffff1673ffffffffffffffffffffffffffffffffffffffff16815260200191505060206040518083038186803b15801561458457600080fd5b505afa158015614598573d6000803e3d6000fd5b505050506040513d60208110156145ae57600080fd5b81019080805190602001909291905050509050919050565b6000809054906101000a900473ffffffffffffffffffffffffffffffffffffffff1673ffffffffffffffffffffffffffffffffffffffff163373ffffffffffffffffffffffffffffffffffffffff1614151561462157600080fd5b8060018190555050565b61463483614400565b80156146465750614645833361429a565b5b151561465157600080fd5b60006007846040518082805190602001908083835b60208310151561468b5780518252602082019150602081019050602083039250614666565b6001836020036101000a03801982511681845116808217855250505050505090500191505090815260200160405180910390209050828160000190805190602001906146d89291906150b3565b50818160050190805190602001906146f1929190615133565b5050505050565b60606007836040518082805190602001908083835b602083101515614732578051825260208201915060208101905060208303925061470d565b6001836020036101000a03801982511681845116808217855250505050505090500191505090815260200160405180910390206004018281548110151561477557fe5b906000526020600020018054600181600116156101000203166002900480601f0160208091040260200160405190810160405280929190818152602001828054600181600116156101000203166002900480156148135780601f106147e857610100808354040283529160200191614813565b820191906000526020600020905b8154815290600101906020018083116147f657829003601f168201915b5050505050905092915050565b61482982614400565b801561499757506000600460009054906101000a900473ffffffffffffffffffffffffffffffffffffffff1673ffffffffffffffffffffffffffffffffffffffff16632760568d84336040518363ffffffff167c010000000000000000000000000000000000000000000000000000000002815260040180806020018373ffffffffffffffffffffffffffffffffffffffff1673ffffffffffffffffffffffffffffffffffffffff168152602001828103825284818151815260200191508051906020019080838360005b8381101561490f5780820151818401526020810190506148f4565b50505050905090810190601f16801561493c5780820380516001836020036101000a031916815260200191505b50935050505060206040518083038186803b15801561495a57600080fd5b505afa15801561496e573d6000803e3d6000fd5b505050506040513d602081101561498457600080fd5b8101908080519060200190929190505050115b80156149a7575060008160ff1610155b80156149b7575060058160ff1611155b15156149c257600080fd5b60006007836040518082805190602001908083835b6020831015156149fc57805182526020820191506020810190506020830392506149d7565b6001836020036101000a03801982511681845116808217855250505050505090500191505090815260200160405180910390209050818160080160003373ffffffffffffffffffffffffffffffffffffffff1673ffffffffffffffffffffffffffffffffffffffff16815260200190815260200160002060006101000a81548160ff021916908360ff160217905550505050565b60006007826040518082805190602001908083835b602083101515614aca5780518252602082019150602081019050602083039250614aa5565b6001836020036101000a0380198251168184511680821785525050505050509050019150509081526020016040518091039020600701805490509050919050565b6000809054906101000a900473ffffffffffffffffffffffffffffffffffffffff1673ffffffffffffffffffffffffffffffffffffffff163373ffffffffffffffffffffffffffffffffffffffff16141515614b6657600080fd5b8060028190555050565b6000809054906101000a900473ffffffffffffffffffffffffffffffffffffffff1673ffffffffffffffffffffffffffffffffffffffff163373ffffffffffffffffffffffffffffffffffffffff16141515614bcb57600080fd5b80600460006101000a81548173ffffffffffffffffffffffffffffffffffffffff021916908373ffffffffffffffffffffffffffffffffffffffff16021790555050565b60606007826040518082805190602001908083835b602083101515614c495780518252602082019150602081019050602083039250614c24565b6001836020036101000a03801982511681845116808217855250505050505090500191505090815260200160405180910390206000018054600181600116156101000203166002900480601f016020809104026020016040519081016040528092919081815260200182805460018160011615610100020316600290048015614d135780601f10614ce857610100808354040283529160200191614d13565b820191906000526020600020905b815481529060010190602001808311614cf657829003601f168201915b50505050509050919050565b614d2881614400565b8015614d3a5750614d39813361429a565b5b1515614d4557600080fd5b60006007826040518082805190602001908083835b602083101515614d7f5780518252602082019150602081019050602083039250614d5a565b6001836020036101000a038019825116818451168082178552505050505050905001915050908152602001604051809103902090508060060160009054906101000a900460ff16158160060160006101000a81548160ff0219169083151502179055505050565b60025481565b60606007826040518082805190602001908083835b602083101515614e265780518252602082019150602081019050602083039250614e01565b6001836020036101000a03801982511681845116808217855250505050505090500191505090815260200160405180910390206002018054600181600116156101000203166002900480601f016020809104026020016040519081016040528092919081815260200182805460018160011615610100020316600290048015614ef05780601f10614ec557610100808354040283529160200191614ef0565b820191906000526020600020905b815481529060010190602001808311614ed357829003601f168201915b50505050509050919050565b828054600181600116156101000203166002900490600052602060002090601f016020900481019282601f10614f3d57805160ff1916838001178555614f6b565b82800160010185558215614f6b579182015b82811115614f6a578251825591602001919060010190614f4f565b5b509050614f789190615180565b5090565b828054828255906000526020600020908101928215614fb8579160200282015b82811115614fb7578251825591602001919060010190614f9c565b5b509050614fc59190615180565b5090565b828054828255906000526020600020908101928215615018579160200282015b82811115615017578251829080519060200190615007929190614efc565b5091602001919060010190614fe9565b5b50905061502591906151a5565b5090565b8280548282559060005260206000209081019282156150a2579160200282015b828111156150a15782518260006101000a81548173ffffffffffffffffffffffffffffffffffffffff021916908373ffffffffffffffffffffffffffffffffffffffff16021790555091602001919060010190615049565b5b5090506150af91906151d1565b5090565b828054600181600116156101000203166002900490600052602060002090601f016020900481019282601f106150f457805160ff1916838001178555615122565b82800160010185558215615122579182015b82811115615121578251825591602001919060010190615106565b5b50905061512f9190615180565b5090565b82805482825590600052602060002090810192821561516f579160200282015b8281111561516e578251825591602001919060010190615153565b5b50905061517c9190615180565b5090565b6151a291905b8082111561519e576000816000905550600101615186565b5090565b90565b6151ce91905b808211156151ca57600081816151c19190615214565b506001016151ab565b5090565b90565b61521191905b8082111561520d57600081816101000a81549073ffffffffffffffffffffffffffffffffffffffff0219169055506001016151d7565b5090565b90565b50805460018160011615610100020316600290046000825580601f1061523a5750615259565b601f0160209004906000526020600020908101906152589190615180565b5b5056fea165627a7a723058204bcaa216d5ef5a6439f88a3be2aabd65ba78cf7b14a01efcdffc2a80b91c46e50029",
  "source": "pragma solidity ^0.5.0;\n\nimport './AccessRestricted.sol';\nimport './FiatContract.sol';\nimport './Requests.sol';\nimport './Users.sol';\n\ncontract Patents is AccessRestricted {\n\n    // TODO: add text to require\n    // TODO: function to set a patent ownership ?\n\n    uint public depositPrice; // price to pay to deposit a patent\n    uint public newVersionPrice; // price to pay to add a version to a patent\n\n    FiatContract fiat;\n    Requests requests;\n    Users users;\n\n    // TODO: also store sha256 hashes to compare new version with olders ?\n    /* Struct for patent */\n    struct Patent {\n        string name;\n        address owner;\n        string folderHash;\n        uint[] timestamps;\n        string[] ipfs;\n        uint[] licencePrices;\n        bool deleted;\n        address[] buyers;\n        mapping(address => uint8) rates;\n    }\n\n    string[] public patentIDs; // registered patent hashes\n    mapping(string => Patent) private patents; // patent ID (hash) to Patents information\n\n    string[] public folderIDs; // registered folder hashes\n    mapping(string => string[]) private folders; // folder ID (hash) to patentIDs\n\n    // ========================================= CONSTRUCTOR AND SETTERS ============================================\n\n    /* Constructor of the contract\n    * {param} uint : The price for depositing a pattern in Wei\n    */\n    constructor(uint _depositPrice, uint _newVersionPrice, address _fiatAddress, address _usersAddress) public {\n        fiat = FiatContract(_fiatAddress);\n        // requests = Requests(_requestsAddress);\n        users = Users(_usersAddress);\n        depositPrice = _depositPrice;\n        newVersionPrice = _newVersionPrice;\n    }\n\n    /*For donations*/\n    function() external payable {}\n\n    /*Allows the contract owner to withdraw the remaining funds*/\n    function withdrawFunds() public onlyOwner {\n        owner.transfer(address(this).balance);\n    }\n\n    /*Allows the contract owner to modify the price to deposit a new patent*/\n    function setDepositPrice(uint _newPrice) public onlyOwner {\n        depositPrice = _newPrice;\n    }\n\n    /*Allows the contract owner to modify the price to deposit a new patent*/\n    function setNewVersionPrice(uint _newPrice) public onlyOwner {\n        newVersionPrice = _newPrice;\n    }\n\n    /*Allows the contract owner to modify the address of the Fiat Contract in case it would change*/\n    function setFiatAddress(uint _newAddress) public onlyOwner {\n        fiat = FiatContract(_newAddress);\n    }\n\n    /*Allows the contract owner to modify the address of the requests contract in case it would change*/\n    function setRequestsAddress(uint _newAddress) public onlyOwner {\n        requests = Requests(_newAddress);\n    }\n\n    // ========================================= PATENTING FUNCTIONS ============================================\n\n    /* Function to register a folder information\n    * {params} the folder parameters\n    */\n    function depositFolder(string memory _folderName, string memory _folderHash, uint[] memory _licencePrices) public {\n        require(users.isRegistered(msg.sender) && !isRegistered(_folderHash));\n        uint[] memory timestamps = new uint[](1); timestamps[0] = now;\n        string[] memory ipfs = new string[](1); ipfs[0] = '';\n        patents[_folderHash] = Patent(_folderName, msg.sender, '', timestamps, ipfs, _licencePrices, false, new address[](0));\n        folderIDs.push(_folderHash);\n        users.addFolder(msg.sender, _folderHash);\n        // emit event\n    }\n\n    /* Function to deposit a patent\n    * {params} the patent parameters\n    * {costs} the price of a patent\n    */\n    function depositPatent(string memory _patentName, string memory _patentHash, string memory _folderHash, string memory _ipfs, uint[] memory _licencePrices) public payable {\n        require(users.isRegistered(msg.sender) && !isRegistered(_patentHash) && msg.value >= getEthPrice(depositPrice));\n        string[] memory ipfs = new string[](1); ipfs[0] = _ipfs;\n        uint[] memory timestamps = new uint[](1); // timestamps[0] = now;\n        timestamps[0] = isRegistered(_folderHash) ? patents[_folderHash].timestamps[0] : now;\n        patents[_patentHash] = Patent(_patentName, msg.sender, _folderHash, timestamps, ipfs, _licencePrices, false, new address[](0));\n        patentIDs.push(_patentHash);\n        users.addPatent(msg.sender, _patentHash);\n        folders[_folderHash].push(_patentHash);\n        // emit event\n    }\n\n    /* Function to modify the licences and prices of the given _patentID */\n    function modifyPatent(string memory _patentID, string memory _newName, uint[] memory _newLicencePrices) public {\n        require(isRegistered(_patentID) && isOwner(_patentID, msg.sender));\n        Patent storage p = patents[_patentID];\n        p.name = _newName;\n        p.licencePrices = _newLicencePrices;\n    }\n\n    /* Function to add a version to the given _patentID*/\n    function addVersion(string memory _patentID, string memory newIpfsLocation) public payable {\n        require(users.isRegistered(msg.sender) && isRegistered(_patentID) && msg.value >= getEthPrice(newVersionPrice));\n        Patent storage p = patents[_patentID];\n        p.ipfs.push(newIpfsLocation);\n        p.timestamps.push(now);\n    }\n\n    /* delete or undelete a patent (i.e. set its visibility wrt other users) */\n    function setVisibility(string memory _patentID) public {\n        require(isRegistered(_patentID) && isOwner(_patentID, msg.sender));\n        Patent storage p = patents[_patentID];\n        p.deleted = !p.deleted;\n    }\n\n    function addBuyer(string memory _patentID, address _userID) public {\n        require(isRegistered(_patentID) && requests.hasRequested(_patentID, _userID));\n        Patent storage p = patents[_patentID];\n        p.buyers.push(_userID);\n    }\n\n    function ratePatent(string memory _patentID, uint8 _rate) public {\n        require(isRegistered(_patentID) && requests.getAcceptedLicence(_patentID, msg.sender) > 0 && _rate >= 0 && _rate <= 5);\n        Patent storage p = patents[_patentID];\n        p.rates[msg.sender] = _rate;\n    }\n\n    /* ============================== View functions that do not require transactions ============================== */\n\n    /*Returns number of deposited patents*/\n    function patentCount() public view returns (uint){\n        return patentIDs.length;\n    }\n\n    /*Returns number of deposited folders*/\n    function folderCount() public view returns (uint){\n        return folderIDs.length;\n    }\n\n    /*Returns number of versions of the _patentID*/\n    function getNumVersions(string memory _patentID) public view returns (uint) {\n        return patents[_patentID].ipfs.length;\n    }\n\n    /*Returns number of patents of the _folderID*/\n    function getFolderSize(string memory _folderID) public view returns (uint) {\n        return folders[_folderID].length;\n    }\n\n    /*Returns the patentID of the _folderID given by _index*/\n    function getPatentID(string memory _folderID, uint _index) public view returns (string memory) {\n        return folders[_folderID][_index];\n    }\n\n    /*Returns patent's name*/\n    function getPatentName(string memory _patentID) public view returns (string memory) {\n        return patents[_patentID].name;\n    }\n\n    /*Returns patent's owner*/\n    function getPatentOwner(string memory _patentID) public view returns (address) {\n        return patents[_patentID].owner;\n    }\n\n    /*Returns the IPFS location of the _patentID version given by _index*/\n    function getPatentLocation(string memory _patentID, uint _index) public view returns (string memory) {\n        return patents[_patentID].ipfs[_index];\n    }\n\n    /*Returns the IPFS location of the _patentID version given by _index*/\n    function getTimestamp(string memory _patentID, uint _index) public view returns (uint) {\n        return patents[_patentID].timestamps[_index];\n    }\n\n    /*Returns the price of a patent*/\n    function getFolderHash(string memory _patentID) public view returns (string memory) {\n        return patents[_patentID].folderHash;\n    }\n\n    /*Returns true if account is owner of given patent*/\n    function isOwner(string memory _patentID, address _userID) public view returns (bool){\n        return getPatentOwner(_patentID) == _userID;\n    }\n\n    /*Returns true if the patent has been deleted*/\n    function isDeleted(string memory _patentID) public view returns (bool) {\n        return patents[_patentID].deleted;\n    }\n\n    /* Returns the maximum licence to be requested of the given patent */\n    function getMaxLicence(string memory _patentID) public view returns (uint){\n        return patents[_patentID].licencePrices.length;\n    }\n\n    /*Returns the price of a patent for a given licence*/\n    function getPrice(string memory _patentID, uint _licence) public view returns (uint) {\n        // index by licence-1 cause licence 0 price not stored in licence prices since free\n        return patents[_patentID].licencePrices[_licence-1];\n    }\n\n    /*Returns the prices of a patent*/\n    function getPrices(string memory _patentID) public view returns (uint[] memory) {\n        return patents[_patentID].licencePrices;\n    }\n\n    /*Returns the number of requests for the given patent*/\n    function getNumRequests(string memory _patentID) public view returns (uint){\n        return patents[_patentID].buyers.length;\n    }\n\n    /*Returns the address of the buyer at _index  (Used for iterating)*/\n    function getBuyers(string memory _patentID, uint _index) public view returns (address){\n        return patents[_patentID].buyers[_index];\n    }\n\n    /*Returns the rate given by the _userID to the _patentID*/\n    function getRate(string memory _patentID, address _userID) public view returns (uint8){\n        return patents[_patentID].rates[_userID];\n    }\n\n    /*Returns the email address of the _patentID's owner*/\n    function getOwnerEmail(string memory _patentID) public view returns (string memory) {\n        return users.getEmail(patents[_patentID].owner);\n    }\n\n    /*Returns the email address of the _patentID's owner*/\n    function getOwnerName(string memory _patentID) public view returns (string memory) {\n        return users.getName(patents[_patentID].owner);\n    }\n\n    /*Returns true if the given ID (patent or folder) has already been registered*/\n    function isRegistered(string memory _id) public view returns (bool) {\n        return patents[_id].owner != address(0);\n    }\n\n    /*Returns true if the given patent ID has already been registered*/\n    function hasAccount(address _userID) public view returns (bool) {\n        return users.isRegistered(_userID);\n    }\n\n    function getEthPrice(uint _dollars) public view returns (uint) {\n        // return fiat.USD(0) * 100 * _dollars;\n        return _dollars / 200;\n    }\n}\n",
  "sourcePath": "/Users/axel/Developer/DNAM/Web-Applications/react-app/contracts/Patents.sol",
  "compiler": {
    "name": "solc",
    "version": "0.5.0+commit.1d4f565a.Emscripten.clang"
  },
  "schemaVersion": "3.0.2",
  "updatedAt": "2019-07-05T10:48:23.100Z",
  "devdoc": {
    "methods": {}
  },
  "userdoc": {
    "methods": {}
  }
}