{
  "contractName": "Patenting",
  "abi": [
    {
      "constant": true,
      "inputs": [],
      "name": "patentPrice",
      "outputs": [
        {
          "name": "",
          "type": "uint256"
        }
      ],
      "payable": false,
      "stateMutability": "view",
      "type": "function",
      "signature": "0x0638c22c"
    },
    {
      "constant": true,
      "inputs": [
        {
          "name": "",
          "type": "uint256"
        }
      ],
      "name": "patentNames",
      "outputs": [
        {
          "name": "",
          "type": "string"
        }
      ],
      "payable": false,
      "stateMutability": "view",
      "type": "function",
      "signature": "0x41e14449"
    },
    {
      "constant": true,
      "inputs": [],
      "name": "owner",
      "outputs": [
        {
          "name": "",
          "type": "address"
        }
      ],
      "payable": false,
      "stateMutability": "view",
      "type": "function",
      "signature": "0x8da5cb5b"
    },
    {
      "constant": true,
      "inputs": [
        {
          "name": "",
          "type": "uint256"
        }
      ],
      "name": "albumNames",
      "outputs": [
        {
          "name": "",
          "type": "string"
        }
      ],
      "payable": false,
      "stateMutability": "view",
      "type": "function",
      "signature": "0x928ec99f"
    },
    {
      "constant": false,
      "inputs": [
        {
          "name": "_newOwner",
          "type": "address"
        }
      ],
      "name": "changeOwner",
      "outputs": [],
      "payable": false,
      "stateMutability": "nonpayable",
      "type": "function",
      "signature": "0xa6f9dae1"
    },
    {
      "constant": true,
      "inputs": [],
      "name": "patentCount",
      "outputs": [
        {
          "name": "",
          "type": "uint256"
        }
      ],
      "payable": false,
      "stateMutability": "view",
      "type": "function",
      "signature": "0xb084c841"
    },
    {
      "constant": true,
      "inputs": [],
      "name": "albumCount",
      "outputs": [
        {
          "name": "",
          "type": "uint256"
        }
      ],
      "payable": false,
      "stateMutability": "view",
      "type": "function",
      "signature": "0xef2dcbc1"
    },
    {
      "inputs": [
        {
          "name": "_patentPrice",
          "type": "uint256"
        },
        {
          "name": "_fiatContract",
          "type": "address"
        }
      ],
      "payable": false,
      "stateMutability": "nonpayable",
      "type": "constructor",
      "signature": "constructor"
    },
    {
      "anonymous": false,
      "inputs": [
        {
          "indexed": false,
          "name": "_ownerMail",
          "type": "string"
        },
        {
          "indexed": false,
          "name": "_patentName",
          "type": "string"
        },
        {
          "indexed": false,
          "name": "_rentee",
          "type": "address"
        }
      ],
      "name": "NewRequest",
      "type": "event",
      "signature": "0x7e558bb9898d8d17809158db6c967a8ea47d93a15a5d359a1186352a086cfb7c"
    },
    {
      "anonymous": false,
      "inputs": [
        {
          "indexed": false,
          "name": "_requesterEmail",
          "type": "string"
        },
        {
          "indexed": false,
          "name": "_patentName",
          "type": "string"
        },
        {
          "indexed": false,
          "name": "_accepted",
          "type": "bool"
        }
      ],
      "name": "RequestResponse",
      "type": "event",
      "signature": "0x87deb0bf3260371a3845769d523869b17a51dab5e82dd1d7db896b489fe42f57"
    },
    {
      "constant": false,
      "inputs": [],
      "name": "withdrawFunds",
      "outputs": [],
      "payable": false,
      "stateMutability": "nonpayable",
      "type": "function",
      "signature": "0x24600fc3"
    },
    {
      "constant": true,
      "inputs": [
        {
          "name": "_dollars",
          "type": "uint256"
        }
      ],
      "name": "getEthPrice",
      "outputs": [
        {
          "name": "",
          "type": "uint256"
        }
      ],
      "payable": false,
      "stateMutability": "view",
      "type": "function",
      "signature": "0x870d365d"
    },
    {
      "constant": false,
      "inputs": [
        {
          "name": "_patentName",
          "type": "string"
        },
        {
          "name": "_patentHash",
          "type": "string"
        },
        {
          "name": "_maxLicence",
          "type": "uint256"
        },
        {
          "name": "_licencePrices",
          "type": "uint256[]"
        },
        {
          "name": "_ipfs",
          "type": "string"
        },
        {
          "name": "_email",
          "type": "string"
        }
      ],
      "name": "depositPatent",
      "outputs": [],
      "payable": true,
      "stateMutability": "payable",
      "type": "function",
      "signature": "0xbdc8b024"
    },
    {
      "constant": false,
      "inputs": [
        {
          "name": "_patentName",
          "type": "string"
        },
        {
          "name": "_newMaxLicence",
          "type": "uint256"
        },
        {
          "name": "_newLicencePrices",
          "type": "uint256[]"
        }
      ],
      "name": "modifyPatent",
      "outputs": [],
      "payable": false,
      "stateMutability": "nonpayable",
      "type": "function",
      "signature": "0xe1d3acf7"
    },
    {
      "constant": false,
      "inputs": [
        {
          "name": "_patentName",
          "type": "string"
        }
      ],
      "name": "deletePatent",
      "outputs": [],
      "payable": false,
      "stateMutability": "nonpayable",
      "type": "function",
      "signature": "0x021631dc"
    },
    {
      "constant": false,
      "inputs": [
        {
          "name": "_patentName",
          "type": "string"
        }
      ],
      "name": "undeletePatent",
      "outputs": [],
      "payable": false,
      "stateMutability": "nonpayable",
      "type": "function",
      "signature": "0x61b978b6"
    },
    {
      "constant": false,
      "inputs": [
        {
          "name": "_patentName",
          "type": "string"
        },
        {
          "name": "_requestedLicence",
          "type": "uint256"
        },
        {
          "name": "_encryptionKey",
          "type": "string"
        },
        {
          "name": "_email",
          "type": "string"
        }
      ],
      "name": "requestAccess",
      "outputs": [],
      "payable": true,
      "stateMutability": "payable",
      "type": "function",
      "signature": "0x31a41030"
    },
    {
      "constant": false,
      "inputs": [
        {
          "name": "_patentName",
          "type": "string"
        },
        {
          "name": "_requestedLicence",
          "type": "uint256"
        }
      ],
      "name": "resendRequest",
      "outputs": [],
      "payable": true,
      "stateMutability": "payable",
      "type": "function",
      "signature": "0xa6e81dc9"
    },
    {
      "constant": false,
      "inputs": [
        {
          "name": "_patentName",
          "type": "string"
        },
        {
          "name": "_user",
          "type": "address"
        },
        {
          "name": "_encryptedIpfsKey",
          "type": "string"
        }
      ],
      "name": "grantAccess",
      "outputs": [],
      "payable": false,
      "stateMutability": "nonpayable",
      "type": "function",
      "signature": "0x5d98dde8"
    },
    {
      "constant": false,
      "inputs": [
        {
          "name": "_patentName",
          "type": "string"
        },
        {
          "name": "_user",
          "type": "address"
        }
      ],
      "name": "rejectAccess",
      "outputs": [],
      "payable": false,
      "stateMutability": "nonpayable",
      "type": "function",
      "signature": "0xa6966e25"
    },
    {
      "constant": false,
      "inputs": [
        {
          "name": "_patentName",
          "type": "string"
        }
      ],
      "name": "cancelRequest",
      "outputs": [],
      "payable": false,
      "stateMutability": "nonpayable",
      "type": "function",
      "signature": "0xe489445d"
    },
    {
      "constant": false,
      "inputs": [
        {
          "name": "_patentName",
          "type": "string"
        },
        {
          "name": "_requestedLicence",
          "type": "uint256"
        }
      ],
      "name": "requestUpgrade",
      "outputs": [],
      "payable": true,
      "stateMutability": "payable",
      "type": "function",
      "signature": "0x7a9eee2c"
    },
    {
      "constant": false,
      "inputs": [
        {
          "name": "_patentName",
          "type": "string"
        },
        {
          "name": "_user",
          "type": "address"
        }
      ],
      "name": "acceptUpgrade",
      "outputs": [],
      "payable": false,
      "stateMutability": "nonpayable",
      "type": "function",
      "signature": "0x8200dfae"
    },
    {
      "constant": false,
      "inputs": [
        {
          "name": "_patentName",
          "type": "string"
        },
        {
          "name": "_user",
          "type": "address"
        }
      ],
      "name": "rejectUpgrade",
      "outputs": [],
      "payable": false,
      "stateMutability": "nonpayable",
      "type": "function",
      "signature": "0xd0ca7dba"
    },
    {
      "constant": false,
      "inputs": [
        {
          "name": "_patentName",
          "type": "string"
        }
      ],
      "name": "cancelUpgrade",
      "outputs": [],
      "payable": false,
      "stateMutability": "nonpayable",
      "type": "function",
      "signature": "0x1c8ff46e"
    },
    {
      "constant": true,
      "inputs": [
        {
          "name": "_patentName",
          "type": "string"
        },
        {
          "name": "_account",
          "type": "address"
        }
      ],
      "name": "canRequest",
      "outputs": [
        {
          "name": "",
          "type": "bool"
        }
      ],
      "payable": false,
      "stateMutability": "view",
      "type": "function",
      "signature": "0x2294de45"
    },
    {
      "constant": true,
      "inputs": [
        {
          "name": "_patentName",
          "type": "string"
        },
        {
          "name": "_account",
          "type": "address"
        }
      ],
      "name": "canUpgrade",
      "outputs": [
        {
          "name": "",
          "type": "bool"
        }
      ],
      "payable": false,
      "stateMutability": "view",
      "type": "function",
      "signature": "0xa47e1356"
    },
    {
      "constant": true,
      "inputs": [
        {
          "name": "_patentName",
          "type": "string"
        },
        {
          "name": "_account",
          "type": "address"
        }
      ],
      "name": "getRequestStatus",
      "outputs": [
        {
          "name": "",
          "type": "uint8"
        }
      ],
      "payable": false,
      "stateMutability": "view",
      "type": "function",
      "signature": "0xe2f99c7e"
    },
    {
      "constant": true,
      "inputs": [
        {
          "name": "_patentName",
          "type": "string"
        },
        {
          "name": "_account",
          "type": "address"
        }
      ],
      "name": "getRequestedLicence",
      "outputs": [
        {
          "name": "",
          "type": "uint256"
        }
      ],
      "payable": false,
      "stateMutability": "view",
      "type": "function",
      "signature": "0x356b7b08"
    },
    {
      "constant": true,
      "inputs": [
        {
          "name": "_patentName",
          "type": "string"
        },
        {
          "name": "_account",
          "type": "address"
        }
      ],
      "name": "getAcceptedLicence",
      "outputs": [
        {
          "name": "",
          "type": "uint256"
        }
      ],
      "payable": false,
      "stateMutability": "view",
      "type": "function",
      "signature": "0x2760568d"
    },
    {
      "constant": true,
      "inputs": [
        {
          "name": "_patentName",
          "type": "string"
        }
      ],
      "name": "getMaxLicence",
      "outputs": [
        {
          "name": "",
          "type": "uint256"
        }
      ],
      "payable": false,
      "stateMutability": "view",
      "type": "function",
      "signature": "0x1cc58aa9"
    },
    {
      "constant": true,
      "inputs": [
        {
          "name": "_patentName",
          "type": "string"
        },
        {
          "name": "_account",
          "type": "address"
        }
      ],
      "name": "hasBeenRequested",
      "outputs": [
        {
          "name": "",
          "type": "bool"
        }
      ],
      "payable": false,
      "stateMutability": "view",
      "type": "function",
      "signature": "0x21284088"
    },
    {
      "constant": true,
      "inputs": [
        {
          "name": "_patentName",
          "type": "string"
        },
        {
          "name": "_account",
          "type": "address"
        }
      ],
      "name": "isPending",
      "outputs": [
        {
          "name": "",
          "type": "bool"
        }
      ],
      "payable": false,
      "stateMutability": "view",
      "type": "function",
      "signature": "0xbe3e0722"
    },
    {
      "constant": true,
      "inputs": [
        {
          "name": "_patentName",
          "type": "string"
        },
        {
          "name": "_account",
          "type": "address"
        }
      ],
      "name": "isAccepted",
      "outputs": [
        {
          "name": "",
          "type": "bool"
        }
      ],
      "payable": false,
      "stateMutability": "view",
      "type": "function",
      "signature": "0x65f8695e"
    },
    {
      "constant": true,
      "inputs": [
        {
          "name": "_patentName",
          "type": "string"
        },
        {
          "name": "_account",
          "type": "address"
        }
      ],
      "name": "isOwner",
      "outputs": [
        {
          "name": "",
          "type": "bool"
        }
      ],
      "payable": false,
      "stateMutability": "view",
      "type": "function",
      "signature": "0xbde1eee7"
    },
    {
      "constant": true,
      "inputs": [
        {
          "name": "_patentName",
          "type": "string"
        }
      ],
      "name": "getTimeStamp",
      "outputs": [
        {
          "name": "",
          "type": "uint256"
        }
      ],
      "payable": false,
      "stateMutability": "view",
      "type": "function",
      "signature": "0xfa52c7cc"
    },
    {
      "constant": true,
      "inputs": [
        {
          "name": "_patentName",
          "type": "string"
        }
      ],
      "name": "getPatentHash",
      "outputs": [
        {
          "name": "",
          "type": "string"
        }
      ],
      "payable": false,
      "stateMutability": "view",
      "type": "function",
      "signature": "0x16720cc2"
    },
    {
      "constant": true,
      "inputs": [
        {
          "name": "_patentName",
          "type": "string"
        }
      ],
      "name": "getPatentOwner",
      "outputs": [
        {
          "name": "",
          "type": "address"
        }
      ],
      "payable": false,
      "stateMutability": "view",
      "type": "function",
      "signature": "0x99d2618e"
    },
    {
      "constant": true,
      "inputs": [
        {
          "name": "_patentName",
          "type": "string"
        },
        {
          "name": "_licence",
          "type": "uint256"
        }
      ],
      "name": "getPrice",
      "outputs": [
        {
          "name": "",
          "type": "uint256"
        }
      ],
      "payable": false,
      "stateMutability": "view",
      "type": "function",
      "signature": "0x2ef3accc"
    },
    {
      "constant": true,
      "inputs": [
        {
          "name": "_patentName",
          "type": "string"
        }
      ],
      "name": "getPrices",
      "outputs": [
        {
          "name": "",
          "type": "uint256[]"
        }
      ],
      "payable": false,
      "stateMutability": "view",
      "type": "function",
      "signature": "0x467bdf48"
    },
    {
      "constant": true,
      "inputs": [
        {
          "name": "_patentName",
          "type": "string"
        }
      ],
      "name": "getNumRequests",
      "outputs": [
        {
          "name": "",
          "type": "uint256"
        }
      ],
      "payable": false,
      "stateMutability": "view",
      "type": "function",
      "signature": "0xe0cf4cc9"
    },
    {
      "constant": true,
      "inputs": [
        {
          "name": "_patentName",
          "type": "string"
        },
        {
          "name": "_index",
          "type": "uint256"
        }
      ],
      "name": "getBuyers",
      "outputs": [
        {
          "name": "",
          "type": "address"
        }
      ],
      "payable": false,
      "stateMutability": "view",
      "type": "function",
      "signature": "0x6038c638"
    },
    {
      "constant": true,
      "inputs": [
        {
          "name": "_patentName",
          "type": "string"
        },
        {
          "name": "_user",
          "type": "address"
        }
      ],
      "name": "getEncryptionKey",
      "outputs": [
        {
          "name": "",
          "type": "string"
        }
      ],
      "payable": false,
      "stateMutability": "view",
      "type": "function",
      "signature": "0xad8c9dd6"
    },
    {
      "constant": true,
      "inputs": [
        {
          "name": "_patentName",
          "type": "string"
        }
      ],
      "name": "getEncryptedIpfsKey",
      "outputs": [
        {
          "name": "",
          "type": "string"
        }
      ],
      "payable": false,
      "stateMutability": "view",
      "type": "function",
      "signature": "0xa302e8cd"
    },
    {
      "constant": true,
      "inputs": [
        {
          "name": "_patentName",
          "type": "string"
        }
      ],
      "name": "getOwnerEmail",
      "outputs": [
        {
          "name": "",
          "type": "string"
        }
      ],
      "payable": false,
      "stateMutability": "view",
      "type": "function",
      "signature": "0x68b2210d"
    },
    {
      "constant": true,
      "inputs": [
        {
          "name": "_patentName",
          "type": "string"
        }
      ],
      "name": "getPatentLocation",
      "outputs": [
        {
          "name": "",
          "type": "string"
        }
      ],
      "payable": false,
      "stateMutability": "view",
      "type": "function",
      "signature": "0x607f9e87"
    },
    {
      "constant": true,
      "inputs": [
        {
          "name": "_patentName",
          "type": "string"
        }
      ],
      "name": "isRegistered",
      "outputs": [
        {
          "name": "",
          "type": "bool"
        }
      ],
      "payable": false,
      "stateMutability": "view",
      "type": "function",
      "signature": "0xc822d7f0"
    },
    {
      "constant": true,
      "inputs": [
        {
          "name": "_patentName",
          "type": "string"
        }
      ],
      "name": "isDeleted",
      "outputs": [
        {
          "name": "",
          "type": "bool"
        }
      ],
      "payable": false,
      "stateMutability": "view",
      "type": "function",
      "signature": "0x6c9c088c"
    }
  ],
  "bytecode": "0x6080604052336000806101000a81548173ffffffffffffffffffffffffffffffffffffffff021916908373ffffffffffffffffffffffffffffffffffffffff1602179055503480156200005157600080fd5b5060405160408062005d23833981018060405260408110156200007357600080fd5b810190808051906020019092919080519060200190929190505050816001819055505050615c7c80620000a76000396000f3fe608060405260043610610225576000357c0100000000000000000000000000000000000000000000000000000000900463ffffffff168063021631dc1461022a5780630638c22c146102f257806316720cc21461031d5780631c8ff46e1461045e5780631cc58aa91461052657806321284088146106025780632294de451461070257806324600fc3146108025780632760568d146108195780632ef3accc1461091557806331a41030146109fb578063356b7b0814610bee57806341e1444914610cea578063467bdf4814610d9e5780635d98dde814610ebb5780636038c6381461103a578063607f9e871461114c57806361b978b61461128d57806365f8695e1461135557806368b2210d146114555780636c9c088c146115965780637a9eee2c146116765780638200dfae1461173b578063870d365d146118235780638da5cb5b14611872578063928ec99f146118c957806399d2618e1461197d578063a302e8cd14611a85578063a47e135614611bc6578063a6966e2514611cc6578063a6e81dc914611dae578063a6f9dae114611e73578063ad8c9dd614611ec4578063b084c84114612025578063bdc8b02414612050578063bde1eee71461236e578063be3e07221461246e578063c822d7f01461256e578063d0ca7dba1461264e578063e0cf4cc914612736578063e1d3acf714612812578063e2f99c7e14612978578063e489445d14612a82578063ef2dcbc114612b4a578063fa52c7cc14612b75575b600080fd5b34801561023657600080fd5b506102f06004803603602081101561024d57600080fd5b810190808035906020019064010000000081111561026a57600080fd5b82018360208201111561027c57600080fd5b8035906020019184600183028401116401000000008311171561029e57600080fd5b91908080601f016020809104026020016040519081016040528093929190818152602001838380828437600081840152601f19601f820116905080830192505050505050509192919290505050612c51565b005b3480156102fe57600080fd5b50610307612d19565b6040518082815260200191505060405180910390f35b34801561032957600080fd5b506103e36004803603602081101561034057600080fd5b810190808035906020019064010000000081111561035d57600080fd5b82018360208201111561036f57600080fd5b8035906020019184600183028401116401000000008311171561039157600080fd5b91908080601f016020809104026020016040519081016040528093929190818152602001838380828437600081840152601f19601f820116905080830192505050505050509192919290505050612d1f565b6040518080602001828103825283818151815260200191508051906020019080838360005b83811015610423578082015181840152602081019050610408565b50505050905090810190601f1680156104505780820380516001836020036101000a031916815260200191505b509250505060405180910390f35b34801561046a57600080fd5b506105246004803603602081101561048157600080fd5b810190808035906020019064010000000081111561049e57600080fd5b8201836020820111156104b057600080fd5b803590602001918460018302840111640100000000831117156104d257600080fd5b91908080601f016020809104026020016040519081016040528093929190818152602001838380828437600081840152601f19601f820116905080830192505050505050509192919290505050612e2f565b005b34801561053257600080fd5b506105ec6004803603602081101561054957600080fd5b810190808035906020019064010000000081111561056657600080fd5b82018360208201111561057857600080fd5b8035906020019184600183028401116401000000008311171561059a57600080fd5b91908080601f016020809104026020016040519081016040528093929190818152602001838380828437600081840152601f19601f820116905080830192505050505050509192919290505050612f97565b6040518082815260200191505060405180910390f35b34801561060e57600080fd5b506106e86004803603604081101561062557600080fd5b810190808035906020019064010000000081111561064257600080fd5b82018360208201111561065457600080fd5b8035906020019184600183028401116401000000008311171561067657600080fd5b91908080601f016020809104026020016040519081016040528093929190818152602001838380828437600081840152601f19601f820116905080830192505050505050509192919290803573ffffffffffffffffffffffffffffffffffffffff16906020019092919050505061300f565b604051808215151515815260200191505060405180910390f35b34801561070e57600080fd5b506107e86004803603604081101561072557600080fd5b810190808035906020019064010000000081111561074257600080fd5b82018360208201111561075457600080fd5b8035906020019184600183028401116401000000008311171561077657600080fd5b91908080601f016020809104026020016040519081016040528093929190818152602001838380828437600081840152601f19601f820116905080830192505050505050509192919290803573ffffffffffffffffffffffffffffffffffffffff1690602001909291905050506130ee565b604051808215151515815260200191505060405180910390f35b34801561080e57600080fd5b50610817613135565b005b34801561082557600080fd5b506108ff6004803603604081101561083c57600080fd5b810190808035906020019064010000000081111561085957600080fd5b82018360208201111561086b57600080fd5b8035906020019184600183028401116401000000008311171561088d57600080fd5b91908080601f016020809104026020016040519081016040528093929190818152602001838380828437600081840152601f19601f820116905080830192505050505050509192919290803573ffffffffffffffffffffffffffffffffffffffff169060200190929190505050613211565b6040518082815260200191505060405180910390f35b34801561092157600080fd5b506109e56004803603604081101561093857600080fd5b810190808035906020019064010000000081111561095557600080fd5b82018360208201111561096757600080fd5b8035906020019184600183028401116401000000008311171561098957600080fd5b91908080601f016020809104026020016040519081016040528093929190818152602001838380828437600081840152601f19601f820116905080830192505050505050509192919290803590602001909291905050506132ca565b6040518082815260200191505060405180910390f35b610bec60048036036080811015610a1157600080fd5b8101908080359060200190640100000000811115610a2e57600080fd5b820183602082011115610a4057600080fd5b80359060200191846001830284011164010000000083111715610a6257600080fd5b91908080601f016020809104026020016040519081016040528093929190818152602001838380828437600081840152601f19601f8201169050808301925050505050505091929192908035906020019092919080359060200190640100000000811115610acf57600080fd5b820183602082011115610ae157600080fd5b80359060200191846001830284011164010000000083111715610b0357600080fd5b91908080601f016020809104026020016040519081016040528093929190818152602001838380828437600081840152601f19601f82011690508083019250505050505050919291929080359060200190640100000000811115610b6657600080fd5b820183602082011115610b7857600080fd5b80359060200191846001830284011164010000000083111715610b9a57600080fd5b91908080601f016020809104026020016040519081016040528093929190818152602001838380828437600081840152601f19601f82011690508083019250505050505050919291929050505061335d565b005b348015610bfa57600080fd5b50610cd460048036036040811015610c1157600080fd5b8101908080359060200190640100000000811115610c2e57600080fd5b820183602082011115610c4057600080fd5b80359060200191846001830284011164010000000083111715610c6257600080fd5b91908080601f016020809104026020016040519081016040528093929190818152602001838380828437600081840152601f19601f820116905080830192505050505050509192919290803573ffffffffffffffffffffffffffffffffffffffff169060200190929190505050613879565b6040518082815260200191505060405180910390f35b348015610cf657600080fd5b50610d2360048036036020811015610d0d57600080fd5b8101908080359060200190929190505050613932565b6040518080602001828103825283818151815260200191508051906020019080838360005b83811015610d63578082015181840152602081019050610d48565b50505050905090810190601f168015610d905780820380516001836020036101000a031916815260200191505b509250505060405180910390f35b348015610daa57600080fd5b50610e6460048036036020811015610dc157600080fd5b8101908080359060200190640100000000811115610dde57600080fd5b820183602082011115610df057600080fd5b80359060200191846001830284011164010000000083111715610e1257600080fd5b91908080601f016020809104026020016040519081016040528093929190818152602001838380828437600081840152601f19601f8201169050808301925050505050505091929192905050506139ed565b6040518080602001828103825283818151815260200191508051906020019060200280838360005b83811015610ea7578082015181840152602081019050610e8c565b505050509050019250505060405180910390f35b348015610ec757600080fd5b5061103860048036036060811015610ede57600080fd5b8101908080359060200190640100000000811115610efb57600080fd5b820183602082011115610f0d57600080fd5b80359060200191846001830284011164010000000083111715610f2f57600080fd5b91908080601f016020809104026020016040519081016040528093929190818152602001838380828437600081840152601f19601f820116905080830192505050505050509192919290803573ffffffffffffffffffffffffffffffffffffffff16906020019092919080359060200190640100000000811115610fb257600080fd5b820183602082011115610fc457600080fd5b80359060200191846001830284011164010000000083111715610fe657600080fd5b91908080601f016020809104026020016040519081016040528093929190818152602001838380828437600081840152601f19601f820116905080830192505050505050509192919290505050613ab3565b005b34801561104657600080fd5b5061110a6004803603604081101561105d57600080fd5b810190808035906020019064010000000081111561107a57600080fd5b82018360208201111561108c57600080fd5b803590602001918460018302840111640100000000831117156110ae57600080fd5b91908080601f016020809104026020016040519081016040528093929190818152602001838380828437600081840152601f19601f82011690508083019250505050505050919291929080359060200190929190505050613d8b565b604051808273ffffffffffffffffffffffffffffffffffffffff1673ffffffffffffffffffffffffffffffffffffffff16815260200191505060405180910390f35b34801561115857600080fd5b506112126004803603602081101561116f57600080fd5b810190808035906020019064010000000081111561118c57600080fd5b82018360208201111561119e57600080fd5b803590602001918460018302840111640100000000831117156111c057600080fd5b91908080601f016020809104026020016040519081016040528093929190818152602001838380828437600081840152601f19601f820116905080830192505050505050509192919290505050613e35565b6040518080602001828103825283818151815260200191508051906020019080838360005b83811015611252578082015181840152602081019050611237565b50505050905090810190601f16801561127f5780820380516001836020036101000a031916815260200191505b509250505060405180910390f35b34801561129957600080fd5b50611353600480360360208110156112b057600080fd5b81019080803590602001906401000000008111156112cd57600080fd5b8201836020820111156112df57600080fd5b8035906020019184600183028401116401000000008311171561130157600080fd5b91908080601f016020809104026020016040519081016040528093929190818152602001838380828437600081840152601f19601f820116905080830192505050505050509192919290505050613f45565b005b34801561136157600080fd5b5061143b6004803603604081101561137857600080fd5b810190808035906020019064010000000081111561139557600080fd5b8201836020820111156113a757600080fd5b803590602001918460018302840111640100000000831117156113c957600080fd5b91908080601f016020809104026020016040519081016040528093929190818152602001838380828437600081840152601f19601f820116905080830192505050505050509192919290803573ffffffffffffffffffffffffffffffffffffffff16906020019092919050505061400c565b604051808215151515815260200191505060405180910390f35b34801561146157600080fd5b5061151b6004803603602081101561147857600080fd5b810190808035906020019064010000000081111561149557600080fd5b8201836020820111156114a757600080fd5b803590602001918460018302840111640100000000831117156114c957600080fd5b91908080601f016020809104026020016040519081016040528093929190818152602001838380828437600081840152601f19601f8201169050808301925050505050505091929192905050506140ea565b6040518080602001828103825283818151815260200191508051906020019080838360005b8381101561155b578082015181840152602081019050611540565b50505050905090810190601f1680156115885780820380516001836020036101000a031916815260200191505b509250505060405180910390f35b3480156115a257600080fd5b5061165c600480360360208110156115b957600080fd5b81019080803590602001906401000000008111156115d657600080fd5b8201836020820111156115e857600080fd5b8035906020019184600183028401116401000000008311171561160a57600080fd5b91908080601f016020809104026020016040519081016040528093929190818152602001838380828437600081840152601f19601f8201169050808301925050505050505091929192905050506141fa565b604051808215151515815260200191505060405180910390f35b6117396004803603604081101561168c57600080fd5b81019080803590602001906401000000008111156116a957600080fd5b8201836020820111156116bb57600080fd5b803590602001918460018302840111640100000000831117156116dd57600080fd5b91908080601f016020809104026020016040519081016040528093929190818152602001838380828437600081840152601f19601f8201169050808301925050505050505091929192908035906020019092919050505061427f565b005b34801561174757600080fd5b506118216004803603604081101561175e57600080fd5b810190808035906020019064010000000081111561177b57600080fd5b82018360208201111561178d57600080fd5b803590602001918460018302840111640100000000831117156117af57600080fd5b91908080601f016020809104026020016040519081016040528093929190818152602001838380828437600081840152601f19601f820116905080830192505050505050509192919290803573ffffffffffffffffffffffffffffffffffffffff169060200190929190505050614504565b005b34801561182f57600080fd5b5061185c6004803603602081101561184657600080fd5b810190808035906020019092919050505061468c565b6040518082815260200191505060405180910390f35b34801561187e57600080fd5b506118876146a2565b604051808273ffffffffffffffffffffffffffffffffffffffff1673ffffffffffffffffffffffffffffffffffffffff16815260200191505060405180910390f35b3480156118d557600080fd5b50611902600480360360208110156118ec57600080fd5b81019080803590602001909291905050506146c7565b6040518080602001828103825283818151815260200191508051906020019080838360005b83811015611942578082015181840152602081019050611927565b50505050905090810190601f16801561196f5780820380516001836020036101000a031916815260200191505b509250505060405180910390f35b34801561198957600080fd5b50611a43600480360360208110156119a057600080fd5b81019080803590602001906401000000008111156119bd57600080fd5b8201836020820111156119cf57600080fd5b803590602001918460018302840111640100000000831117156119f157600080fd5b91908080601f016020809104026020016040519081016040528093929190818152602001838380828437600081840152601f19601f820116905080830192505050505050509192919290505050614782565b604051808273ffffffffffffffffffffffffffffffffffffffff1673ffffffffffffffffffffffffffffffffffffffff16815260200191505060405180910390f35b348015611a9157600080fd5b50611b4b60048036036020811015611aa857600080fd5b8101908080359060200190640100000000811115611ac557600080fd5b820183602082011115611ad757600080fd5b80359060200191846001830284011164010000000083111715611af957600080fd5b91908080601f016020809104026020016040519081016040528093929190818152602001838380828437600081840152601f19601f82011690508083019250505050505050919291929050505061481a565b6040518080602001828103825283818151815260200191508051906020019080838360005b83811015611b8b578082015181840152602081019050611b70565b50505050905090810190601f168015611bb85780820380516001836020036101000a031916815260200191505b509250505060405180910390f35b348015611bd257600080fd5b50611cac60048036036040811015611be957600080fd5b8101908080359060200190640100000000811115611c0657600080fd5b820183602082011115611c1857600080fd5b80359060200191846001830284011164010000000083111715611c3a57600080fd5b91908080601f016020809104026020016040519081016040528093929190818152602001838380828437600081840152601f19601f820116905080830192505050505050509192919290803573ffffffffffffffffffffffffffffffffffffffff16906020019092919050505061497f565b604051808215151515815260200191505060405180910390f35b348015611cd257600080fd5b50611dac60048036036040811015611ce957600080fd5b8101908080359060200190640100000000811115611d0657600080fd5b820183602082011115611d1857600080fd5b80359060200191846001830284011164010000000083111715611d3a57600080fd5b91908080601f016020809104026020016040519081016040528093929190818152602001838380828437600081840152601f19601f820116905080830192505050505050509192919290803573ffffffffffffffffffffffffffffffffffffffff1690602001909291905050506149cb565b005b611e7160048036036040811015611dc457600080fd5b8101908080359060200190640100000000811115611de157600080fd5b820183602082011115611df357600080fd5b80359060200191846001830284011164010000000083111715611e1557600080fd5b91908080601f016020809104026020016040519081016040528093929190818152602001838380828437600081840152601f19601f82011690508083019250505050505050919291929080359060200190929190505050614c7c565b005b348015611e7f57600080fd5b50611ec260048036036020811015611e9657600080fd5b81019080803573ffffffffffffffffffffffffffffffffffffffff169060200190929190505050614e4f565b005b348015611ed057600080fd5b50611faa60048036036040811015611ee757600080fd5b8101908080359060200190640100000000811115611f0457600080fd5b820183602082011115611f1657600080fd5b80359060200191846001830284011164010000000083111715611f3857600080fd5b91908080601f016020809104026020016040519081016040528093929190818152602001838380828437600081840152601f19601f820116905080830192505050505050509192919290803573ffffffffffffffffffffffffffffffffffffffff169060200190929190505050614eed565b6040518080602001828103825283818151815260200191508051906020019080838360005b83811015611fea578082015181840152602081019050611fcf565b50505050905090810190601f1680156120175780820380516001836020036101000a031916815260200191505b509250505060405180910390f35b34801561203157600080fd5b5061203a615053565b6040518082815260200191505060405180910390f35b61236c600480360360c081101561206657600080fd5b810190808035906020019064010000000081111561208357600080fd5b82018360208201111561209557600080fd5b803590602001918460018302840111640100000000831117156120b757600080fd5b91908080601f016020809104026020016040519081016040528093929190818152602001838380828437600081840152601f19601f8201169050808301925050505050505091929192908035906020019064010000000081111561211a57600080fd5b82018360208201111561212c57600080fd5b8035906020019184600183028401116401000000008311171561214e57600080fd5b91908080601f016020809104026020016040519081016040528093929190818152602001838380828437600081840152601f19601f82011690508083019250505050505050919291929080359060200190929190803590602001906401000000008111156121bb57600080fd5b8201836020820111156121cd57600080fd5b803590602001918460208302840111640100000000831117156121ef57600080fd5b919080806020026020016040519081016040528093929190818152602001838360200280828437600081840152601f19601f8201169050808301925050505050505091929192908035906020019064010000000081111561224f57600080fd5b82018360208201111561226157600080fd5b8035906020019184600183028401116401000000008311171561228357600080fd5b91908080601f016020809104026020016040519081016040528093929190818152602001838380828437600081840152601f19601f820116905080830192505050505050509192919290803590602001906401000000008111156122e657600080fd5b8201836020820111156122f857600080fd5b8035906020019184600183028401116401000000008311171561231a57600080fd5b91908080601f016020809104026020016040519081016040528093929190818152602001838380828437600081840152601f19601f820116905080830192505050505050509192919290505050615059565b005b34801561237a57600080fd5b506124546004803603604081101561239157600080fd5b81019080803590602001906401000000008111156123ae57600080fd5b8201836020820111156123c057600080fd5b803590602001918460018302840111640100000000831117156123e257600080fd5b91908080601f016020809104026020016040519081016040528093929190818152602001838380828437600081840152601f19601f820116905080830192505050505050509192919290803573ffffffffffffffffffffffffffffffffffffffff169060200190929190505050615314565b604051808215151515815260200191505060405180910390f35b34801561247a57600080fd5b506125546004803603604081101561249157600080fd5b81019080803590602001906401000000008111156124ae57600080fd5b8201836020820111156124c057600080fd5b803590602001918460018302840111640100000000831117156124e257600080fd5b91908080601f016020809104026020016040519081016040528093929190818152602001838380828437600081840152601f19601f820116905080830192505050505050509192919290803573ffffffffffffffffffffffffffffffffffffffff1690602001909291905050506153db565b604051808215151515815260200191505060405180910390f35b34801561257a57600080fd5b506126346004803603602081101561259157600080fd5b81019080803590602001906401000000008111156125ae57600080fd5b8201836020820111156125c057600080fd5b803590602001918460018302840111640100000000831117156125e257600080fd5b91908080601f016020809104026020016040519081016040528093929190818152602001838380828437600081840152601f19601f8201169050808301925050505050505091929192905050506154ba565b604051808215151515815260200191505060405180910390f35b34801561265a57600080fd5b506127346004803603604081101561267157600080fd5b810190808035906020019064010000000081111561268e57600080fd5b8201836020820111156126a057600080fd5b803590602001918460018302840111640100000000831117156126c257600080fd5b91908080601f016020809104026020016040519081016040528093929190818152602001838380828437600081840152601f19601f820116905080830192505050505050509192919290803573ffffffffffffffffffffffffffffffffffffffff169060200190929190505050615535565b005b34801561274257600080fd5b506127fc6004803603602081101561275957600080fd5b810190808035906020019064010000000081111561277657600080fd5b82018360208201111561278857600080fd5b803590602001918460018302840111640100000000831117156127aa57600080fd5b91908080601f016020809104026020016040519081016040528093929190818152602001838380828437600081840152601f19601f8201169050808301925050505050505091929192905050506156b0565b6040518082815260200191505060405180910390f35b34801561281e57600080fd5b506129766004803603606081101561283557600080fd5b810190808035906020019064010000000081111561285257600080fd5b82018360208201111561286457600080fd5b8035906020019184600183028401116401000000008311171561288657600080fd5b91908080601f016020809104026020016040519081016040528093929190818152602001838380828437600081840152601f19601f82011690508083019250505050505050919291929080359060200190929190803590602001906401000000008111156128f357600080fd5b82018360208201111561290557600080fd5b8035906020019184602083028401116401000000008311171561292757600080fd5b919080806020026020016040519081016040528093929190818152602001838360200280828437600081840152601f19601f820116905080830192505050505050509192919290505050615728565b005b34801561298457600080fd5b50612a5e6004803603604081101561299b57600080fd5b81019080803590602001906401000000008111156129b857600080fd5b8201836020820111156129ca57600080fd5b803590602001918460018302840111640100000000831117156129ec57600080fd5b91908080601f016020809104026020016040519081016040528093929190818152602001838380828437600081840152601f19601f820116905080830192505050505050509192919290803573ffffffffffffffffffffffffffffffffffffffff1690602001909291905050506157e5565b60405180826004811115612a6e57fe5b60ff16815260200191505060405180910390f35b348015612a8e57600080fd5b50612b4860048036036020811015612aa557600080fd5b8101908080359060200190640100000000811115612ac257600080fd5b820183602082011115612ad457600080fd5b80359060200191846001830284011164010000000083111715612af657600080fd5b91908080601f016020809104026020016040519081016040528093929190818152602001838380828437600081840152601f19601f8201169050808301925050505050505091929192905050506158ab565b005b348015612b5657600080fd5b50612b5f615a13565b6040518082815260200191505060405180910390f35b348015612b8157600080fd5b50612c3b60048036036020811015612b9857600080fd5b8101908080359060200190640100000000811115612bb557600080fd5b820183602082011115612bc757600080fd5b80359060200191846001830284011164010000000083111715612be957600080fd5b91908080601f016020809104026020016040519081016040528093929190818152602001838380828437600081840152601f19601f820116905080830192505050505050509192919290505050615a19565b6040518082815260200191505060405180910390f35b612c5a816154ba565b8015612c6c5750612c6b8133615314565b5b8015612c7e5750612c7c816141fa565b155b1515612c8957600080fd5b60006005826040518082805190602001908083835b602083101515612cc35780518252602082019150602081019050602083039250612c9e565b6001836020036101000a0380198251168184511680821785525050505050509050019150509081526020016040518091039020905060018160080160006101000a81548160ff0219169083151502179055505050565b60015481565b60606005826040518082805190602001908083835b602083101515612d595780518252602082019150602081019050602083039250612d34565b6001836020036101000a03801982511681845116808217855250505050505090500191505090815260200160405180910390206002018054600181600116156101000203166002900480601f016020809104026020016040519081016040528092919081815260200182805460018160011615610100020316600290048015612e235780601f10612df857610100808354040283529160200191612e23565b820191906000526020600020905b815481529060010190602001808311612e0657829003601f168201915b50505050509050919050565b612e38816154ba565b8015612e4a5750612e4981336153db565b5b1515612e5557600080fd5b60006005826040518082805190602001908083835b602083101515612e8f5780518252602082019150602081019050602083039250612e6a565b6001836020036101000a0380198251168184511680821785525050505050509050019150509081526020016040518091039020600a0160003373ffffffffffffffffffffffffffffffffffffffff1673ffffffffffffffffffffffffffffffffffffffff16815260200190815260200160002090506000816003015410151515612f1857600080fd5b3373ffffffffffffffffffffffffffffffffffffffff166108fc82600301549081150290604051600060405180830381858888f19350505050158015612f62573d6000803e3d6000fd5b506000816003018190555060048160000160006101000a81548160ff02191690836004811115612f8e57fe5b02179055505050565b60006005826040518082805190602001908083835b602083101515612fd15780518252602082019150602081019050602083039250612fac565b6001836020036101000a0380198251168184511680821785525050505050509050019150509081526020016040518091039020600601549050919050565b600080600481111561301d57fe5b6005846040518082805190602001908083835b6020831015156130555780518252602082019150602081019050602083039250613030565b6001836020036101000a0380198251168184511680821785525050505050509050019150509081526020016040518091039020600a0160008473ffffffffffffffffffffffffffffffffffffffff1673ffffffffffffffffffffffffffffffffffffffff16815260200190815260200160002060000160009054906101000a900460ff1660048111156130e457fe5b1415905092915050565b60006130f9836141fa565b8061310a5750613109838361400c565b5b8061311b575061311a83836153db565b5b8061312c575061312b8383615314565b5b15905092915050565b6000809054906101000a900473ffffffffffffffffffffffffffffffffffffffff1673ffffffffffffffffffffffffffffffffffffffff163373ffffffffffffffffffffffffffffffffffffffff1614151561319057600080fd5b6000809054906101000a900473ffffffffffffffffffffffffffffffffffffffff1673ffffffffffffffffffffffffffffffffffffffff166108fc3073ffffffffffffffffffffffffffffffffffffffff16319081150290604051600060405180830381858888f1935050505015801561320e573d6000803e3d6000fd5b50565b60006005836040518082805190602001908083835b60208310151561324b5780518252602082019150602081019050602083039250613226565b6001836020036101000a0380198251168184511680821785525050505050509050019150509081526020016040518091039020600a0160008373ffffffffffffffffffffffffffffffffffffffff1673ffffffffffffffffffffffffffffffffffffffff16815260200190815260200160002060010154905092915050565b60006005836040518082805190602001908083835b60208310151561330457805182526020820191506020810190506020830392506132df565b6001836020036101000a03801982511681845116808217855250505050505090500191505090815260200160405180910390206007016001830381548110151561334a57fe5b9060005260206000200154905092915050565b613366846154ba565b8015613378575061337784336130ee565b5b151561338357600080fd5b60008311801561340157506005846040518082805190602001908083835b6020831015156133c657805182526020820191506020810190506020830392506133a1565b6001836020036101000a0380198251168184511680821785525050505050509050019150509081526020016040518091039020600601548311155b151561340c57600080fd5b600061342061341b86866132ca565b61468c565b905080341015151561343157600080fd5b60006005866040518082805190602001908083835b60208310151561346b5780518252602082019150602081019050602083039250613446565b6001836020036101000a03801982511681845116808217855250505050505090500191505090815260200160405180910390209050600060048111156134ad57fe5b81600a0160003373ffffffffffffffffffffffffffffffffffffffff1673ffffffffffffffffffffffffffffffffffffffff16815260200190815260200160002060000160009054906101000a900460ff16600481111561350a57fe5b1415613577573381600901600083600501600081548092919060010191905055815260200190815260200160002060006101000a81548173ffffffffffffffffffffffffffffffffffffffff021916908373ffffffffffffffffffffffffffffffffffffffff1602179055505b60e0604051908101604052806001600481111561359057fe5b815260200160008152602001868152602001838152602001848152602001858152602001602060405190810160405280600081525081525081600a0160003373ffffffffffffffffffffffffffffffffffffffff1673ffffffffffffffffffffffffffffffffffffffff16815260200190815260200160002060008201518160000160006101000a81548160ff0219169083600481111561362d57fe5b0217905550602082015181600101556040820151816002015560608201518160030155608082015181600401908051906020019061366c929190615a91565b5060a0820151816005019080519060200190613689929190615a91565b5060c08201518160060190805190602001906136a6929190615a91565b509050507f7e558bb9898d8d17809158db6c967a8ea47d93a15a5d359a1186352a086cfb7c6005876040518082805190602001908083835b60208310151561370357805182526020820191506020810190506020830392506136de565b6001836020036101000a038019825116818451168082178552505050505050905001915050908152602001604051809103902060040187336040518080602001806020018473ffffffffffffffffffffffffffffffffffffffff1673ffffffffffffffffffffffffffffffffffffffff1681526020018381038352868181546001816001161561010002031660029004815260200191508054600181600116156101000203166002900480156137fa5780601f106137cf576101008083540402835291602001916137fa565b820191906000526020600020905b8154815290600101906020018083116137dd57829003601f168201915b5050838103825285818151815260200191508051906020019080838360005b83811015613834578082015181840152602081019050613819565b50505050905090810190601f1680156138615780820380516001836020036101000a031916815260200191505b509550505050505060405180910390a1505050505050565b60006005836040518082805190602001908083835b6020831015156138b3578051825260208201915060208101905060208303925061388e565b6001836020036101000a0380198251168184511680821785525050505050509050019150509081526020016040518091039020600a0160008373ffffffffffffffffffffffffffffffffffffffff1673ffffffffffffffffffffffffffffffffffffffff16815260200190815260200160002060020154905092915050565b60048181548110151561394157fe5b906000526020600020016000915090508054600181600116156101000203166002900480601f0160208091040260200160405190810160405280929190818152602001828054600181600116156101000203166002900480156139e55780601f106139ba576101008083540402835291602001916139e5565b820191906000526020600020905b8154815290600101906020018083116139c857829003601f168201915b505050505081565b60606005826040518082805190602001908083835b602083101515613a275780518252602082019150602081019050602083039250613a02565b6001836020036101000a0380198251168184511680821785525050505050509050019150509081526020016040518091039020600701805480602002602001604051908101604052809291908181526020018280548015613aa757602002820191906000526020600020905b815481526020019060010190808311613a93575b50505050509050919050565b613abc836154ba565b8015613ace5750613acd8333615314565b5b8015613ae05750613adf83836153db565b5b1515613aeb57600080fd5b60006005846040518082805190602001908083835b602083101515613b255780518252602082019150602081019050602083039250613b00565b6001836020036101000a0380198251168184511680821785525050505050509050019150509081526020016040518091039020600a0160008473ffffffffffffffffffffffffffffffffffffffff1673ffffffffffffffffffffffffffffffffffffffff16815260200190815260200160002090506000816003015410151515613bae57600080fd5b3373ffffffffffffffffffffffffffffffffffffffff166108fc82600301549081150290604051600060405180830381858888f19350505050158015613bf8573d6000803e3d6000fd5b506000816003018190555060048160000160006101000a81548160ff02191690836004811115613c2457fe5b02179055508060020154816001018190555081816006019080519060200190613c4e929190615b11565b507f87deb0bf3260371a3845769d523869b17a51dab5e82dd1d7db896b489fe42f578160040185600160405180806020018060200184151515158152602001838103835286818154600181600116156101000203166002900481526020019150805460018160011615610100020316600290048015613d0e5780601f10613ce357610100808354040283529160200191613d0e565b820191906000526020600020905b815481529060010190602001808311613cf157829003601f168201915b5050838103825285818151815260200191508051906020019080838360005b83811015613d48578082015181840152602081019050613d2d565b50505050905090810190601f168015613d755780820380516001836020036101000a031916815260200191505b509550505050505060405180910390a150505050565b60006005836040518082805190602001908083835b602083101515613dc55780518252602082019150602081019050602083039250613da0565b6001836020036101000a0380198251168184511680821785525050505050509050019150509081526020016040518091039020600901600083815260200190815260200160002060009054906101000a900473ffffffffffffffffffffffffffffffffffffffff16905092915050565b60606005826040518082805190602001908083835b602083101515613e6f5780518252602082019150602081019050602083039250613e4a565b6001836020036101000a03801982511681845116808217855250505050505090500191505090815260200160405180910390206003018054600181600116156101000203166002900480601f016020809104026020016040519081016040528092919081815260200182805460018160011615610100020316600290048015613f395780601f10613f0e57610100808354040283529160200191613f39565b820191906000526020600020905b815481529060010190602001808311613f1c57829003601f168201915b50505050509050919050565b613f4e816154ba565b8015613f605750613f5f8133615314565b5b8015613f715750613f70816141fa565b5b1515613f7c57600080fd5b60006005826040518082805190602001908083835b602083101515613fb65780518252602082019150602081019050602083039250613f91565b6001836020036101000a0380198251168184511680821785525050505050509050019150509081526020016040518091039020905060008160080160006101000a81548160ff0219169083151502179055505050565b600060048081111561401a57fe5b6005846040518082805190602001908083835b602083101515614052578051825260208201915060208101905060208303925061402d565b6001836020036101000a0380198251168184511680821785525050505050509050019150509081526020016040518091039020600a0160008473ffffffffffffffffffffffffffffffffffffffff1673ffffffffffffffffffffffffffffffffffffffff16815260200190815260200160002060000160009054906101000a900460ff1660048111156140e157fe5b14905092915050565b60606005826040518082805190602001908083835b60208310151561412457805182526020820191506020810190506020830392506140ff565b6001836020036101000a03801982511681845116808217855250505050505090500191505090815260200160405180910390206004018054600181600116156101000203166002900480601f0160208091040260200160405190810160405280929190818152602001828054600181600116156101000203166002900480156141ee5780601f106141c3576101008083540402835291602001916141ee565b820191906000526020600020905b8154815290600101906020018083116141d157829003601f168201915b50505050509050919050565b60006005826040518082805190602001908083835b602083101515614234578051825260208201915060208101905060208303925061420f565b6001836020036101000a038019825116818451168082178552505050505050905001915050908152602001604051809103902060080160009054906101000a900460ff169050919050565b614288826154ba565b801561429a5750614299823361497f565b5b15156142a557600080fd5b60006005836040518082805190602001908083835b6020831015156142df57805182526020820191506020810190506020830392506142ba565b6001836020036101000a0380198251168184511680821785525050505050509050019150509081526020016040518091039020600a0160003373ffffffffffffffffffffffffffffffffffffffff1673ffffffffffffffffffffffffffffffffffffffff1681526020019081526020016000206001015490506005836040518082805190602001908083835b602083101515614390578051825260208201915060208101905060208303925061436b565b6001836020036101000a03801982511681845116808217855250505050505090500191505090815260200160405180910390206006015482111580156143d557508082115b15156143e057600080fd5b60006143ec84836132ca565b6143f685856132ca565b03905060006144048261468c565b905080341015151561441557600080fd5b60006005866040518082805190602001908083835b60208310151561444f578051825260208201915060208101905060208303925061442a565b6001836020036101000a0380198251168184511680821785525050505050509050019150509081526020016040518091039020600a0160003373ffffffffffffffffffffffffffffffffffffffff1673ffffffffffffffffffffffffffffffffffffffff168152602001908152602001600020905060018160000160006101000a81548160ff021916908360048111156144e557fe5b0217905550848160020181905550818160030181905550505050505050565b61450d826154ba565b801561451f575061451e8233615314565b5b8015614531575061453082826153db565b5b151561453c57600080fd5b60006005836040518082805190602001908083835b6020831015156145765780518252602082019150602081019050602083039250614551565b6001836020036101000a0380198251168184511680821785525050505050509050019150509081526020016040518091039020600a0160008373ffffffffffffffffffffffffffffffffffffffff1673ffffffffffffffffffffffffffffffffffffffff168152602001908152602001600020905060008160030154101515156145ff57600080fd5b3373ffffffffffffffffffffffffffffffffffffffff166108fc82600301549081150290604051600060405180830381858888f19350505050158015614649573d6000803e3d6000fd5b506000816003018190555060048160000160006101000a81548160ff0219169083600481111561467557fe5b021790555080600201548160010181905550505050565b600060828281151561469a57fe5b049050919050565b6000809054906101000a900473ffffffffffffffffffffffffffffffffffffffff1681565b6006818154811015156146d657fe5b906000526020600020016000915090508054600181600116156101000203166002900480601f01602080910402602001604051908101604052809291908181526020018280546001816001161561010002031660029004801561477a5780601f1061474f5761010080835404028352916020019161477a565b820191906000526020600020905b81548152906001019060200180831161475d57829003601f168201915b505050505081565b60006005826040518082805190602001908083835b6020831015156147bc5780518252602082019150602081019050602083039250614797565b6001836020036101000a038019825116818451168082178552505050505050905001915050908152602001604051809103902060000160009054906101000a900473ffffffffffffffffffffffffffffffffffffffff169050919050565b6060614826823361400c565b151561483157600080fd5b6005826040518082805190602001908083835b6020831015156148695780518252602082019150602081019050602083039250614844565b6001836020036101000a0380198251168184511680821785525050505050509050019150509081526020016040518091039020600a0160003373ffffffffffffffffffffffffffffffffffffffff1673ffffffffffffffffffffffffffffffffffffffff1681526020019081526020016000206006018054600181600116156101000203166002900480601f0160208091040260200160405190810160405280929190818152602001828054600181600116156101000203166002900480156149735780601f1061494857610100808354040283529160200191614973565b820191906000526020600020905b81548152906001019060200180831161495657829003601f168201915b50505050509050919050565b600061498a836141fa565b15801561499d575061499c838361400c565b5b80156149b057506149ae83836153db565b155b80156149c357506149c18383615314565b155b905092915050565b6149d4826154ba565b80156149e657506149e58233615314565b5b80156149f857506149f782826153db565b5b1515614a0357600080fd5b60006005836040518082805190602001908083835b602083101515614a3d5780518252602082019150602081019050602083039250614a18565b6001836020036101000a0380198251168184511680821785525050505050509050019150509081526020016040518091039020600a0160008373ffffffffffffffffffffffffffffffffffffffff1673ffffffffffffffffffffffffffffffffffffffff16815260200190815260200160002090506000816003015410151515614ac657600080fd5b8173ffffffffffffffffffffffffffffffffffffffff166108fc82600301549081150290604051600060405180830381858888f19350505050158015614b10573d6000803e3d6000fd5b506000816003018190555060028160000160006101000a81548160ff02191690836004811115614b3c57fe5b02179055507f87deb0bf3260371a3845769d523869b17a51dab5e82dd1d7db896b489fe42f578160040184600060405180806020018060200184151515158152602001838103835286818154600181600116156101000203166002900481526020019150805460018160011615610100020316600290048015614c005780601f10614bd557610100808354040283529160200191614c00565b820191906000526020600020905b815481529060010190602001808311614be357829003601f168201915b5050838103825285818151815260200191508051906020019080838360005b83811015614c3a578082015181840152602081019050614c1f565b50505050905090810190601f168015614c675780820380516001836020036101000a031916815260200191505b509550505050505060405180910390a1505050565b614c85826154ba565b8015614c975750614c9682336130ee565b5b8015614ca95750614ca8823361300f565b5b1515614cb457600080fd5b600081118015614d3257506005826040518082805190602001908083835b602083101515614cf75780518252602082019150602081019050602083039250614cd2565b6001836020036101000a0380198251168184511680821785525050505050509050019150509081526020016040518091039020600601548111155b1515614d3d57600080fd5b6000614d51614d4c84846132ca565b61468c565b9050803410151515614d6257600080fd5b60006005846040518082805190602001908083835b602083101515614d9c5780518252602082019150602081019050602083039250614d77565b6001836020036101000a0380198251168184511680821785525050505050509050019150509081526020016040518091039020600a0160003373ffffffffffffffffffffffffffffffffffffffff1673ffffffffffffffffffffffffffffffffffffffff168152602001908152602001600020905060018160000160006101000a81548160ff02191690836004811115614e3257fe5b021790555082816002018190555081816003018190555050505050565b6000809054906101000a900473ffffffffffffffffffffffffffffffffffffffff1673ffffffffffffffffffffffffffffffffffffffff163373ffffffffffffffffffffffffffffffffffffffff16141515614eaa57600080fd5b806000806101000a81548173ffffffffffffffffffffffffffffffffffffffff021916908373ffffffffffffffffffffffffffffffffffffffff16021790555050565b6060614ef98333615314565b1515614f0457600080fd5b6005836040518082805190602001908083835b602083101515614f3c5780518252602082019150602081019050602083039250614f17565b6001836020036101000a0380198251168184511680821785525050505050509050019150509081526020016040518091039020600a0160008373ffffffffffffffffffffffffffffffffffffffff1673ffffffffffffffffffffffffffffffffffffffff1681526020019081526020016000206005018054600181600116156101000203166002900480601f0160208091040260200160405190810160405280929190818152602001828054600181600116156101000203166002900480156150465780601f1061501b57610100808354040283529160200191615046565b820191906000526020600020905b81548152906001019060200180831161502957829003601f168201915b5050505050905092915050565b60025481565b60006005876040518082805190602001908083835b602083101515615093578051825260208201915060208101905060208303925061506e565b6001836020036101000a0380198251168184511680821785525050505050509050019150509081526020016040518091039020600101541480156150e157506150dd60015461468c565b3410155b80156150ed5750838351145b15156150f857600080fd5b610120604051908101604052803373ffffffffffffffffffffffffffffffffffffffff16815260200142815260200186815260200183815260200182815260200160008152602001858152602001848152602001600015158152506005876040518082805190602001908083835b60208310151561518b5780518252602082019150602081019050602083039250615166565b6001836020036101000a038019825116818451168082178552505050505050905001915050908152602001604051809103902060008201518160000160006101000a81548173ffffffffffffffffffffffffffffffffffffffff021916908373ffffffffffffffffffffffffffffffffffffffff16021790555060208201518160010155604082015181600201908051906020019061522b929190615a91565b506060820151816003019080519060200190615248929190615a91565b506080820151816004019080519060200190615265929190615a91565b5060a0820151816005015560c0820151816006015560e0820151816007019080519060200190615296929190615b91565b506101008201518160080160006101000a81548160ff02191690831515021790555090505060048690806001815401808255809150509060018203906000526020600020016000909192909190915090805190602001906152f8929190615b11565b5050600260008154809291906001019190505550505050505050565b60008173ffffffffffffffffffffffffffffffffffffffff166005846040518082805190602001908083835b6020831015156153655780518252602082019150602081019050602083039250615340565b6001836020036101000a038019825116818451168082178552505050505050905001915050908152602001604051809103902060000160009054906101000a900473ffffffffffffffffffffffffffffffffffffffff1673ffffffffffffffffffffffffffffffffffffffff1614905092915050565b6000600160048111156153ea57fe5b6005846040518082805190602001908083835b60208310151561542257805182526020820191506020810190506020830392506153fd565b6001836020036101000a0380198251168184511680821785525050505050509050019150509081526020016040518091039020600a0160008473ffffffffffffffffffffffffffffffffffffffff1673ffffffffffffffffffffffffffffffffffffffff16815260200190815260200160002060000160009054906101000a900460ff1660048111156154b157fe5b14905092915050565b6000806005836040518082805190602001908083835b6020831015156154f557805182526020820191506020810190506020830392506154d0565b6001836020036101000a03801982511681845116808217855250505050505090500191505090815260200160405180910390206001015414159050919050565b61553e826154ba565b8015615550575061554f8233615314565b5b8015615562575061556182826153db565b5b151561556d57600080fd5b60006005836040518082805190602001908083835b6020831015156155a75780518252602082019150602081019050602083039250615582565b6001836020036101000a0380198251168184511680821785525050505050509050019150509081526020016040518091039020600a0160008373ffffffffffffffffffffffffffffffffffffffff1673ffffffffffffffffffffffffffffffffffffffff1681526020019081526020016000209050600081600301541015151561563057600080fd5b8173ffffffffffffffffffffffffffffffffffffffff166108fc82600301549081150290604051600060405180830381858888f1935050505015801561567a573d6000803e3d6000fd5b506000816003018190555060048160000160006101000a81548160ff021916908360048111156156a657fe5b0217905550505050565b60006005826040518082805190602001908083835b6020831015156156ea57805182526020820191506020810190506020830392506156c5565b6001836020036101000a0380198251168184511680821785525050505050509050019150509081526020016040518091039020600501549050919050565b615731836154ba565b801561574357506157428333615314565b5b151561574e57600080fd5b60006005846040518082805190602001908083835b6020831015156157885780518252602082019150602081019050602083039250615763565b6001836020036101000a03801982511681845116808217855250505050505090500191505090815260200160405180910390209050828160060181905550818160070190805190602001906157de929190615bde565b5050505050565b60006005836040518082805190602001908083835b60208310151561581f57805182526020820191506020810190506020830392506157fa565b6001836020036101000a0380198251168184511680821785525050505050509050019150509081526020016040518091039020600a0160008373ffffffffffffffffffffffffffffffffffffffff1673ffffffffffffffffffffffffffffffffffffffff16815260200190815260200160002060000160009054906101000a900460ff16905092915050565b6158b4816154ba565b80156158c657506158c581336153db565b5b15156158d157600080fd5b60006005826040518082805190602001908083835b60208310151561590b57805182526020820191506020810190506020830392506158e6565b6001836020036101000a0380198251168184511680821785525050505050509050019150509081526020016040518091039020600a0160003373ffffffffffffffffffffffffffffffffffffffff1673ffffffffffffffffffffffffffffffffffffffff1681526020019081526020016000209050600081600301541015151561599457600080fd5b3373ffffffffffffffffffffffffffffffffffffffff166108fc82600301549081150290604051600060405180830381858888f193505050501580156159de573d6000803e3d6000fd5b506000816003018190555060038160000160006101000a81548160ff02191690836004811115615a0a57fe5b02179055505050565b60035481565b60006005826040518082805190602001908083835b602083101515615a535780518252602082019150602081019050602083039250615a2e565b6001836020036101000a0380198251168184511680821785525050505050509050019150509081526020016040518091039020600101549050919050565b828054600181600116156101000203166002900490600052602060002090601f016020900481019282601f10615ad257805160ff1916838001178555615b00565b82800160010185558215615b00579182015b82811115615aff578251825591602001919060010190615ae4565b5b509050615b0d9190615c2b565b5090565b828054600181600116156101000203166002900490600052602060002090601f016020900481019282601f10615b5257805160ff1916838001178555615b80565b82800160010185558215615b80579182015b82811115615b7f578251825591602001919060010190615b64565b5b509050615b8d9190615c2b565b5090565b828054828255906000526020600020908101928215615bcd579160200282015b82811115615bcc578251825591602001919060010190615bb1565b5b509050615bda9190615c2b565b5090565b828054828255906000526020600020908101928215615c1a579160200282015b82811115615c19578251825591602001919060010190615bfe565b5b509050615c279190615c2b565b5090565b615c4d91905b80821115615c49576000816000905550600101615c31565b5090565b9056fea165627a7a72305820d6a7459256e182ebe6cbf89591fd100b20ee5c795fd35ded80fd5c207441ccca0029",
  "source": "pragma solidity ^0.5.0;\n\nimport './AccessRestricted.sol';\nimport './TimeStamping.sol';\nimport './FiatContract.sol';\n\ncontract Patenting is AccessRestricted {\n\n    uint public patentPrice;\n    uint public patentCount;\n    uint public albumCount;\n\n    enum RequestStatus {Not_requested, Pending, Rejected, Cancelled, Accepted}\n\n    /* Struct for request */\n    struct Request {\n        RequestStatus status;\n        uint acceptedLicence;  // can put uint8 ?\n        uint requestedLicence; // can put uint8 ?\n        uint deposit;\n        string email;\n        string encryptionKey;\n        string encryptedIpfsKey;\n    }\n\n    // remove email and add a mapping address => email ?\n\n    // TODO: put patentName in struct and index mapping by patentHash (depends on content)\n    // => store array of hashes => redo album registration by forgetting names for the moment\n\n    /* Struct for patent */\n    struct Patent {\n        address owner;\n        uint timestamp;\n        string patentHash;\n        string ipfs;\n        string email;\n        uint numRequests;\n        uint maxLicence;  // can put uint8 ?\n        uint[] licencePrices;\n        bool deleted;\n        mapping(uint => address) buyers;\n        mapping(address => Request) requests;\n    }\n\n    struct Album {\n        Patent patent; // album info, same info than single patent\n        // string[] songsName; // songHashes\n    }\n\n    // mapping for songs\n    string[] public patentNames;\n    mapping(string => Patent) private patents; // patent name to Patent\n\n    // mapping for albums\n    string[] public albumNames;\n    mapping(string => Album) private albums; // album name to Album\n\n    event NewRequest(\n        string _ownerMail,\n        string _patentName,\n        address _rentee\n        // uint _requestedLicence\n    );\n\n    event RequestResponse(\n        string _requesterEmail,\n        string _patentName,\n        bool _accepted\n    );\n\n    // FiatContract fiat;\n\n    /* Constructor of the contract\n    * {param} uint : The price for depositing a pattern in Wei\n    */\n    constructor(uint _patentPrice, address _fiatContract) public {\n        // fiat = FiatContract(_fiatContract);\n        patentPrice = _patentPrice;\n    }\n\n    /*Allows the owner to withdraw the remaining funds*/\n    function withdrawFunds() public onlyOwner {\n        owner.transfer(address(this).balance);\n    }\n\n    function getEthPrice(uint _dollars) public view returns (uint) {\n        // return fiat.USD(0) * 100 * _dollars;\n        return _dollars / 130;\n    }\n\n    /* ======================================== PATENT MANAGEMENT FUNCTIONS ======================================= */\n\n    /* Function to deposit a patent\n    * {params} the patent parameters\n    * {costs} the price of a patent\n    */\n    function depositPatent(string memory _patentName, string memory _patentHash, uint _maxLicence, uint[] memory _licencePrices, string memory _ipfs, string memory _email) public payable {\n        require(patents[_patentName].timestamp == 0 && msg.value >= getEthPrice(patentPrice) && _licencePrices.length == _maxLicence);\n        patents[_patentName] = Patent(msg.sender, now, _patentHash, _ipfs, _email, 0, _maxLicence, _licencePrices, false);\n        patentNames.push(_patentName);\n        patentCount++;\n    }\n\n    /* Function called when a file is updated to set its IPFS location\n    * {params} the new IPFS location\n    */\n    /* function setIpfsLocation(string memory _patentName, string memory _newIpfs) public {\n        require(isRegistered(_patentName) && isOwner(_patentName, msg.sender));\n        if(patents[_patentName].ipfs != _newIpfs) { // compare keckak256\n            Patent storage p = patents[_patentName];\n            p.ipfs = _newIpfs;\n        }\n        // emit un event pour notifier que ca a change et envoyer un mail aux buyers du patent\n        // emit modifiedPatent(true);\n    } */\n\n    /* Function to modify the licences and prices of a patent */\n    function modifyPatent(string memory _patentName, uint _newMaxLicence, uint[] memory _newLicencePrices) public {\n        require(isRegistered(_patentName) && isOwner(_patentName, msg.sender));\n        Patent storage p = patents[_patentName];\n        p.maxLicence = _newMaxLicence;\n        p.licencePrices = _newLicencePrices;\n    }\n\n    /* delete a patent (i.e. set it not accessible to other users) */\n    function deletePatent(string memory _patentName) public {\n        require(isRegistered(_patentName) && isOwner(_patentName, msg.sender) && !isDeleted(_patentName));\n        Patent storage p = patents[_patentName];\n        p.deleted = true;\n    }\n\n    /* undelete a patent (i.e. set it back accessible to other users) */\n    function undeletePatent(string memory _patentName) public {\n        require(isRegistered(_patentName) && isOwner(_patentName, msg.sender) && isDeleted(_patentName));\n        Patent storage p = patents[_patentName];\n        p.deleted = false;\n    }\n\n    /* ======================================== REQUEST MANAGEMENT FUNCTIONS ======================================= */\n\n    /* ------------------------------------------ NEW REQUESTS MANAGEMENT ------------------------------------------ */\n\n    /* Function to request access to a patent\n    * {params} _patentName : name of patent\n    *          _requestedLicence : licence requested for the patent\n    *          _encryptionKey : key to encrypt AES key with (key exchange protocol)\n    * {costs} price of the patent : will be frozen until request is accepted, rejected, or cancelled\n    */\n    function requestAccess(string memory _patentName, uint _requestedLicence, string memory _encryptionKey, string memory _email) public payable {\n        require(isRegistered(_patentName) && canRequest(_patentName, msg.sender));\n        require(_requestedLicence > 0 && _requestedLicence <= patents[_patentName].maxLicence);\n        uint ethPrice = getEthPrice(getPrice(_patentName, _requestedLicence));\n        require(msg.value >= ethPrice);\n        Patent storage p = patents[_patentName];\n        if (p.requests[msg.sender].status == RequestStatus.Not_requested) {\n            p.buyers[p.numRequests++] = msg.sender;\n        }\n        p.requests[msg.sender] = Request(RequestStatus.Pending, 0, _requestedLicence, ethPrice, _email, _encryptionKey, \"\");\n        emit NewRequest(patents[_patentName].email, _patentName, msg.sender); // put licence in event\n    }\n\n    /* Resend a rejected or cancelled request */\n    function resendRequest(string memory _patentName, uint _requestedLicence) public payable {\n        require(isRegistered(_patentName) && canRequest(_patentName, msg.sender) && hasBeenRequested(_patentName, msg.sender));\n        require(_requestedLicence > 0 && _requestedLicence <= patents[_patentName].maxLicence);\n        uint ethPrice = getEthPrice(getPrice(_patentName, _requestedLicence));\n        require(msg.value >= ethPrice);\n        Request storage r = patents[_patentName].requests[msg.sender];\n        r.status = RequestStatus.Pending;\n        r.requestedLicence = _requestedLicence;\n        r.deposit = ethPrice;\n    }\n\n    /* Function to grant access to a user\n    * {params} _patentName : name of patent\n    *          _user : user to give access to (must have requested)\n    *          _encryptedIpfsKey : encrypted AES key to decrypt file on ipfs\n    *   Transfers the amount to the patent owner\n    */\n    function grantAccess(string memory _patentName, address _user, string memory _encryptedIpfsKey) public {\n        require(isRegistered(_patentName) && isOwner(_patentName, msg.sender) && isPending(_patentName, _user));\n        Request storage r = patents[_patentName].requests[_user];\n        require(r.deposit >= 0);\n        msg.sender.transfer(r.deposit);\n        r.deposit = 0;\n        r.status = RequestStatus.Accepted;\n        r.acceptedLicence = r.requestedLicence;\n        // r.requestedLicence = 0;\n        r.encryptedIpfsKey = _encryptedIpfsKey;\n        emit RequestResponse(r.email, _patentName, true); // put licence in event\n    }\n\n    /* Function to reject access to a patent\n    * {params} : Same as above\n    * Refunds the amount to the user\n    */\n    function rejectAccess(string memory _patentName, address payable _user) public {\n        require(isRegistered(_patentName) && isOwner(_patentName, msg.sender) && isPending(_patentName, _user));\n        Request storage r = patents[_patentName].requests[_user];\n        require(r.deposit >= 0);\n        // Refund back to user\n        _user.transfer(r.deposit);\n        r.deposit = 0;\n        r.status = RequestStatus.Rejected;\n        emit RequestResponse(r.email, _patentName, false);\n    }\n\n    /* Function that cancels a request (can only be called by user)\n    * {params} : _patentName : name of patent\n    */\n    function cancelRequest(string memory _patentName) public {\n        require(isRegistered(_patentName) && isPending(_patentName, msg.sender));\n        Request storage r = patents[_patentName].requests[msg.sender];\n        require(r.deposit >= 0);\n        msg.sender.transfer(r.deposit);\n        r.deposit = 0;\n        r.status = RequestStatus.Cancelled;\n    }\n\n    /* ---------------------------------------- UPGRADE MANAGEMENT FUNCTIONS ---------------------------------------- */\n\n    /* Function to request a licence upgrade\n    * {params} _patentName : name of patent\n    *          _newRequestedLicence : new requested licence for the patent\n    * {costs} price of the requested licence - price of owned licence: will be frozen until request is accepted, rejected, or cancelled\n    */\n    function requestUpgrade(string memory _patentName, uint _requestedLicence) public payable {\n        require(isRegistered(_patentName) && canUpgrade(_patentName, msg.sender)); // && !patents[_patentName].deleted\n        uint userLicence = patents[_patentName].requests[msg.sender].acceptedLicence;\n        require(_requestedLicence <= patents[_patentName].maxLicence && _requestedLicence > userLicence);\n        // just pay the difference\n        uint price = getPrice(_patentName, _requestedLicence) - getPrice(_patentName, userLicence);\n        uint ethPrice = getEthPrice(price);\n        require(msg.value >= ethPrice);\n        Request storage r = patents[_patentName].requests[msg.sender];\n        r.status = RequestStatus.Pending;\n        r.requestedLicence = _requestedLicence;\n        r.deposit = ethPrice;\n        // emit NewUpgradeRequest(patents[_patentName].email, _patentName, _newRequestedLicence, msg.sender);\n    }\n\n    /* Function to upgrade licence access to a user\n    * {params} _patentName : name of patent\n    *          _user : user to give access to (must have requested)\n    *   Transfers the amount to the patent owner\n    */\n    function acceptUpgrade(string memory _patentName, address _user) public {\n        require(isRegistered(_patentName) && isOwner(_patentName, msg.sender) && isPending(_patentName, _user));\n        Request storage r = patents[_patentName].requests[_user];\n        require(r.deposit >= 0);\n        msg.sender.transfer(r.deposit);\n        r.deposit = 0;\n        r.status = RequestStatus.Accepted;\n        r.acceptedLicence = r.requestedLicence;\n        // r.requestedLicence = 0;\n        // emit RequestResponse(r.email, _patentName, true); // put licence in event\n    }\n\n    /* Function to reject access to an upgrade request\n    * {params} : Same as above\n    * Refunds the amount to the user\n    */\n    function rejectUpgrade(string memory _patentName, address payable _user) public {\n        require(isRegistered(_patentName) && isOwner(_patentName, msg.sender) && isPending(_patentName, _user));\n        Request storage r = patents[_patentName].requests[_user];\n        require(r.deposit >= 0);\n        // Refund back to user\n        _user.transfer(r.deposit);\n        r.deposit = 0;\n        // come back to previously accepted licence\n        r.status = RequestStatus.Accepted;\n        // r.requestedLicence = 0;\n        // emit RequestResponse(r.email, _patentName, false); // put licence in event\n    }\n\n    /* Function that cancels an upgrade request (to be called by requester)\n    * {params} : _patentName : name of patent\n    */\n    function cancelUpgrade(string memory _patentName) public {\n        require(isRegistered(_patentName) && isPending(_patentName, msg.sender));\n        Request storage r = patents[_patentName].requests[msg.sender];\n        require(r.deposit >= 0);\n        msg.sender.transfer(r.deposit);\n        r.deposit = 0;\n        // r.requestedLicence = 0;\n        // come back to previously accepted licence\n        r.status = RequestStatus.Accepted;\n    }\n\n    /* ============================== View functions that do not require transactions ============================== */\n\n    /*Returns true if the given account can request the given patent : is either Not_requested, cancelled or rejected*/\n    function canRequest(string memory _patentName, address _account) public view returns (bool){\n        return !(isDeleted(_patentName) || isAccepted(_patentName, _account) || isPending(_patentName, _account) || isOwner(_patentName, _account));\n    }\n\n    /*Returns true if the given account can request the given patent : is either Not_requested, cancelled or rejected*/\n    function canUpgrade(string memory _patentName, address _account) public view returns (bool){\n        return !isDeleted(_patentName) && isAccepted(_patentName, _account) && !isPending(_patentName, _account) && !isOwner(_patentName, _account);\n    }\n\n    /*Returns the RequestStatus of the given patent for the given account*/\n    function getRequestStatus(string memory _patentName, address _account) public view returns (RequestStatus){\n        return patents[_patentName].requests[_account].status;\n    }\n\n    /* Returns the Requested licence of the given patent for the given account */\n    function getRequestedLicence(string memory _patentName, address _account) public view returns (uint){\n        return patents[_patentName].requests[_account].requestedLicence;\n    }\n\n    /* Returns the Requested licence of the given patent for the given account */\n    function getAcceptedLicence(string memory _patentName, address _account) public view returns (uint){\n        return patents[_patentName].requests[_account].acceptedLicence;\n    }\n\n    /* Returns the Requested licence of the given patent for the given account */\n    function getMaxLicence(string memory _patentName) public view returns (uint){\n        return patents[_patentName].maxLicence;\n    }\n\n    /*Returns true of the given account has already requested the given patent*/\n    function hasBeenRequested(string memory _patentName, address _account) public view returns (bool){\n        return patents[_patentName].requests[_account].status != RequestStatus.Not_requested;\n    }\n\n    /*Returns true of the given account has a pending request on the given patent*/\n    function isPending(string memory _patentName, address _account) public view returns (bool){\n        return patents[_patentName].requests[_account].status == RequestStatus.Pending;\n    }\n\n    /*Verifies that the given address has been accepted for the given patent*/\n    function isAccepted(string memory _patentName, address _account) public view returns (bool){\n        return patents[_patentName].requests[_account].status == RequestStatus.Accepted;\n    }\n\n    /*Returns true if account is owner of given patent*/\n    function isOwner(string memory _patentName, address _account) public view returns (bool){\n        return patents[_patentName].owner == _account;\n    }\n\n    /*Returns time-stamp of the Patent*/\n    function getTimeStamp(string memory _patentName) public view returns (uint){\n        return patents[_patentName].timestamp;\n    }\n\n    /*Returns the sha256 hash of the patent*/\n    function getPatentHash(string memory _patentName) public view returns (string memory){\n        return patents[_patentName].patentHash;\n    }\n\n    /*Returns patent's owner*/\n    function getPatentOwner(string memory _patentName) public view returns (address) {\n        return patents[_patentName].owner;\n    }\n\n    /*Returns the price of a patent for a given licence*/\n    function getPrice(string memory _patentName, uint _licence) public view returns (uint) {\n        // index by licence-1 because licence 0 price not stored in licence prices since free\n        return patents[_patentName].licencePrices[_licence-1];\n    }\n\n    /*Returns the price of a patent*/\n    function getPrices(string memory _patentName) public view returns (uint[] memory) {\n        return patents[_patentName].licencePrices;\n    }\n\n    /*Returns the number of requests for the given patent*/\n    function getNumRequests(string memory _patentName) public view returns (uint){\n        return patents[_patentName].numRequests;\n    }\n\n    /*Returns the address of the buyer at _index  (Used for iterating)*/\n    function getBuyers(string memory _patentName, uint _index) public view returns (address){\n        return patents[_patentName].buyers[_index];\n    }\n\n    /*Returns the requester's public key*/\n    function getEncryptionKey(string memory _patentName, address _user) public view returns (string memory){\n        require(isOwner(_patentName, msg.sender));\n        return patents[_patentName].requests[_user].encryptionKey;\n    }\n\n    /*Returns the encrypted IPFS encryption key*/\n    function getEncryptedIpfsKey(string memory _patentName) public view returns (string memory){\n        require(isAccepted(_patentName, msg.sender));\n        return patents[_patentName].requests[msg.sender].encryptedIpfsKey;\n    }\n\n    function getOwnerEmail(string memory _patentName) public view returns (string memory) {\n        return patents[_patentName].email;\n    }\n\n    /*Returns the IPFS location of the patent*/\n    function getPatentLocation(string memory _patentName) public view returns (string memory) {\n        return patents[_patentName].ipfs;\n    }\n\n    function isRegistered(string memory _patentName) public view returns (bool) {\n        return patents[_patentName].timestamp != 0;\n    }\n\n    /*Returns true if the patent has been deleted*/\n    function isDeleted(string memory _patentName) public view returns (bool) {\n        return patents[_patentName].deleted;\n    }\n}\n",
  "sourcePath": "/Users/axel/Developer/DNAM/Web-Applications/react-app/contracts/Patenting.sol",
  "compiler": {
    "name": "solc",
    "version": "0.5.0+commit.1d4f565a.Emscripten.clang"
  },
  "schemaVersion": "3.0.2",
  "updatedAt": "2019-05-14T12:28:18.541Z",
  "devdoc": {
    "methods": {}
  },
  "userdoc": {
    "methods": {}
  }
}