{
  "contractName": "Patenting",
  "abi": [
    {
      "constant": true,
      "inputs": [],
      "name": "depositPrice",
      "outputs": [
        {
          "name": "",
          "type": "uint256"
        }
      ],
      "payable": false,
      "stateMutability": "view",
      "type": "function",
      "signature": "0x1c85da19"
    },
    {
      "constant": true,
      "inputs": [
        {
          "name": "",
          "type": "uint256"
        }
      ],
      "name": "patentIDs",
      "outputs": [
        {
          "name": "",
          "type": "string"
        }
      ],
      "payable": false,
      "stateMutability": "view",
      "type": "function",
      "signature": "0x97c00d4b"
    },
    {
      "constant": false,
      "inputs": [
        {
          "name": "_newOwner",
          "type": "address"
        }
      ],
      "name": "changeOwner",
      "outputs": [],
      "payable": false,
      "stateMutability": "nonpayable",
      "type": "function",
      "signature": "0xa6f9dae1"
    },
    {
      "constant": true,
      "inputs": [
        {
          "name": "",
          "type": "uint256"
        }
      ],
      "name": "userIDs",
      "outputs": [
        {
          "name": "",
          "type": "address"
        }
      ],
      "payable": false,
      "stateMutability": "view",
      "type": "function",
      "signature": "0xedfec35e"
    },
    {
      "inputs": [
        {
          "name": "_depositPrice",
          "type": "uint256"
        },
        {
          "name": "_fiatContract",
          "type": "address"
        }
      ],
      "payable": false,
      "stateMutability": "nonpayable",
      "type": "constructor",
      "signature": "constructor"
    },
    {
      "anonymous": false,
      "inputs": [
        {
          "indexed": false,
          "name": "_ownerMail",
          "type": "string"
        },
        {
          "indexed": false,
          "name": "_patentName",
          "type": "string"
        },
        {
          "indexed": false,
          "name": "_rentee",
          "type": "address"
        }
      ],
      "name": "NewRequest",
      "type": "event",
      "signature": "0x7e558bb9898d8d17809158db6c967a8ea47d93a15a5d359a1186352a086cfb7c"
    },
    {
      "anonymous": false,
      "inputs": [
        {
          "indexed": false,
          "name": "_requesterEmail",
          "type": "string"
        },
        {
          "indexed": false,
          "name": "_patentName",
          "type": "string"
        },
        {
          "indexed": false,
          "name": "_accepted",
          "type": "bool"
        }
      ],
      "name": "RequestResponse",
      "type": "event",
      "signature": "0x87deb0bf3260371a3845769d523869b17a51dab5e82dd1d7db896b489fe42f57"
    },
    {
      "constant": false,
      "inputs": [],
      "name": "withdrawFunds",
      "outputs": [],
      "payable": false,
      "stateMutability": "nonpayable",
      "type": "function",
      "signature": "0x24600fc3"
    },
    {
      "constant": true,
      "inputs": [
        {
          "name": "_dollars",
          "type": "uint256"
        }
      ],
      "name": "getEthPrice",
      "outputs": [
        {
          "name": "",
          "type": "uint256"
        }
      ],
      "payable": false,
      "stateMutability": "view",
      "type": "function",
      "signature": "0x870d365d"
    },
    {
      "constant": false,
      "inputs": [
        {
          "name": "_name",
          "type": "string"
        },
        {
          "name": "_email",
          "type": "string"
        }
      ],
      "name": "registerAccount",
      "outputs": [],
      "payable": false,
      "stateMutability": "nonpayable",
      "type": "function",
      "signature": "0xddc7b6a7"
    },
    {
      "constant": false,
      "inputs": [
        {
          "name": "_newName",
          "type": "string"
        },
        {
          "name": "_newEmail",
          "type": "string"
        }
      ],
      "name": "modifyAccount",
      "outputs": [],
      "payable": false,
      "stateMutability": "nonpayable",
      "type": "function",
      "signature": "0xf4769e86"
    },
    {
      "constant": false,
      "inputs": [
        {
          "name": "_patentName",
          "type": "string"
        },
        {
          "name": "_patentHash",
          "type": "string"
        },
        {
          "name": "_maxLicence",
          "type": "uint8"
        },
        {
          "name": "_licencePrices",
          "type": "uint256[]"
        },
        {
          "name": "_ipfs",
          "type": "string"
        }
      ],
      "name": "depositPatent",
      "outputs": [],
      "payable": true,
      "stateMutability": "payable",
      "type": "function",
      "signature": "0xc7874118"
    },
    {
      "constant": false,
      "inputs": [
        {
          "name": "_patentID",
          "type": "string"
        },
        {
          "name": "_newName",
          "type": "string"
        },
        {
          "name": "_newMaxLicence",
          "type": "uint8"
        },
        {
          "name": "_newLicencePrices",
          "type": "uint256[]"
        }
      ],
      "name": "modifyPatent",
      "outputs": [],
      "payable": false,
      "stateMutability": "nonpayable",
      "type": "function",
      "signature": "0x8b287351"
    },
    {
      "constant": false,
      "inputs": [
        {
          "name": "_patentID",
          "type": "string"
        }
      ],
      "name": "setVisibility",
      "outputs": [],
      "payable": false,
      "stateMutability": "nonpayable",
      "type": "function",
      "signature": "0xf2fa664c"
    },
    {
      "constant": false,
      "inputs": [
        {
          "name": "_patentID",
          "type": "string"
        },
        {
          "name": "_requestedLicence",
          "type": "uint8"
        },
        {
          "name": "_encryptionKey",
          "type": "string"
        },
        {
          "name": "_email",
          "type": "string"
        }
      ],
      "name": "requestAccess",
      "outputs": [],
      "payable": true,
      "stateMutability": "payable",
      "type": "function",
      "signature": "0x24880dcd"
    },
    {
      "constant": false,
      "inputs": [
        {
          "name": "_patentID",
          "type": "string"
        },
        {
          "name": "_requestedLicence",
          "type": "uint8"
        }
      ],
      "name": "resendRequest",
      "outputs": [],
      "payable": true,
      "stateMutability": "payable",
      "type": "function",
      "signature": "0xce975b72"
    },
    {
      "constant": false,
      "inputs": [
        {
          "name": "_patentID",
          "type": "string"
        },
        {
          "name": "_user",
          "type": "address"
        }
      ],
      "name": "acceptRequest",
      "outputs": [],
      "payable": false,
      "stateMutability": "nonpayable",
      "type": "function",
      "signature": "0x2bcb56f9"
    },
    {
      "constant": false,
      "inputs": [
        {
          "name": "_patentID",
          "type": "string"
        },
        {
          "name": "_user",
          "type": "address"
        },
        {
          "name": "_encryptedIpfsKey",
          "type": "string"
        }
      ],
      "name": "grantAccess",
      "outputs": [],
      "payable": false,
      "stateMutability": "nonpayable",
      "type": "function",
      "signature": "0x5d98dde8"
    },
    {
      "constant": false,
      "inputs": [
        {
          "name": "_patentID",
          "type": "string"
        },
        {
          "name": "_user",
          "type": "address"
        }
      ],
      "name": "rejectRequest",
      "outputs": [],
      "payable": false,
      "stateMutability": "nonpayable",
      "type": "function",
      "signature": "0x0e6549fa"
    },
    {
      "constant": false,
      "inputs": [
        {
          "name": "_patentID",
          "type": "string"
        }
      ],
      "name": "cancelRequest",
      "outputs": [],
      "payable": false,
      "stateMutability": "nonpayable",
      "type": "function",
      "signature": "0xe489445d"
    },
    {
      "constant": true,
      "inputs": [],
      "name": "patentCount",
      "outputs": [
        {
          "name": "",
          "type": "uint256"
        }
      ],
      "payable": false,
      "stateMutability": "view",
      "type": "function",
      "signature": "0xb084c841"
    },
    {
      "constant": true,
      "inputs": [],
      "name": "userCount",
      "outputs": [
        {
          "name": "",
          "type": "uint256"
        }
      ],
      "payable": false,
      "stateMutability": "view",
      "type": "function",
      "signature": "0x07973ccf"
    },
    {
      "constant": true,
      "inputs": [
        {
          "name": "_patentID",
          "type": "string"
        },
        {
          "name": "_requestedLicence",
          "type": "uint256"
        },
        {
          "name": "_user",
          "type": "address"
        }
      ],
      "name": "canRequest",
      "outputs": [
        {
          "name": "",
          "type": "bool"
        }
      ],
      "payable": false,
      "stateMutability": "view",
      "type": "function",
      "signature": "0x2f35645a"
    },
    {
      "constant": true,
      "inputs": [
        {
          "name": "_patentID",
          "type": "string"
        },
        {
          "name": "_user",
          "type": "address"
        }
      ],
      "name": "getRequestStatus",
      "outputs": [
        {
          "name": "",
          "type": "uint8"
        }
      ],
      "payable": false,
      "stateMutability": "view",
      "type": "function",
      "signature": "0xe2f99c7e"
    },
    {
      "constant": true,
      "inputs": [
        {
          "name": "_patentID",
          "type": "string"
        },
        {
          "name": "_user",
          "type": "address"
        }
      ],
      "name": "getRequestedLicence",
      "outputs": [
        {
          "name": "",
          "type": "uint256"
        }
      ],
      "payable": false,
      "stateMutability": "view",
      "type": "function",
      "signature": "0x356b7b08"
    },
    {
      "constant": true,
      "inputs": [
        {
          "name": "_patentID",
          "type": "string"
        },
        {
          "name": "_user",
          "type": "address"
        }
      ],
      "name": "getAcceptedLicence",
      "outputs": [
        {
          "name": "",
          "type": "uint256"
        }
      ],
      "payable": false,
      "stateMutability": "view",
      "type": "function",
      "signature": "0x2760568d"
    },
    {
      "constant": true,
      "inputs": [
        {
          "name": "_patentID",
          "type": "string"
        }
      ],
      "name": "getMaxLicence",
      "outputs": [
        {
          "name": "",
          "type": "uint256"
        }
      ],
      "payable": false,
      "stateMutability": "view",
      "type": "function",
      "signature": "0x1cc58aa9"
    },
    {
      "constant": true,
      "inputs": [
        {
          "name": "_patentID",
          "type": "string"
        },
        {
          "name": "_user",
          "type": "address"
        }
      ],
      "name": "isPending",
      "outputs": [
        {
          "name": "",
          "type": "bool"
        }
      ],
      "payable": false,
      "stateMutability": "view",
      "type": "function",
      "signature": "0xbe3e0722"
    },
    {
      "constant": true,
      "inputs": [
        {
          "name": "_patentID",
          "type": "string"
        },
        {
          "name": "_user",
          "type": "address"
        }
      ],
      "name": "isAccepted",
      "outputs": [
        {
          "name": "",
          "type": "bool"
        }
      ],
      "payable": false,
      "stateMutability": "view",
      "type": "function",
      "signature": "0x65f8695e"
    },
    {
      "constant": true,
      "inputs": [
        {
          "name": "_patentID",
          "type": "string"
        },
        {
          "name": "_user",
          "type": "address"
        }
      ],
      "name": "isOwner",
      "outputs": [
        {
          "name": "",
          "type": "bool"
        }
      ],
      "payable": false,
      "stateMutability": "view",
      "type": "function",
      "signature": "0xbde1eee7"
    },
    {
      "constant": true,
      "inputs": [
        {
          "name": "_patentID",
          "type": "string"
        }
      ],
      "name": "getTimeStamp",
      "outputs": [
        {
          "name": "",
          "type": "uint256"
        }
      ],
      "payable": false,
      "stateMutability": "view",
      "type": "function",
      "signature": "0xfa52c7cc"
    },
    {
      "constant": true,
      "inputs": [
        {
          "name": "_patentID",
          "type": "string"
        }
      ],
      "name": "getPatentName",
      "outputs": [
        {
          "name": "",
          "type": "string"
        }
      ],
      "payable": false,
      "stateMutability": "view",
      "type": "function",
      "signature": "0xe966b895"
    },
    {
      "constant": true,
      "inputs": [
        {
          "name": "_patentID",
          "type": "string"
        }
      ],
      "name": "getPatentOwner",
      "outputs": [
        {
          "name": "",
          "type": "address"
        }
      ],
      "payable": false,
      "stateMutability": "view",
      "type": "function",
      "signature": "0x99d2618e"
    },
    {
      "constant": true,
      "inputs": [
        {
          "name": "_patentID",
          "type": "string"
        },
        {
          "name": "_licence",
          "type": "uint256"
        }
      ],
      "name": "getPrice",
      "outputs": [
        {
          "name": "",
          "type": "uint256"
        }
      ],
      "payable": false,
      "stateMutability": "view",
      "type": "function",
      "signature": "0x2ef3accc"
    },
    {
      "constant": true,
      "inputs": [
        {
          "name": "_patentID",
          "type": "string"
        }
      ],
      "name": "getPrices",
      "outputs": [
        {
          "name": "",
          "type": "uint256[]"
        }
      ],
      "payable": false,
      "stateMutability": "view",
      "type": "function",
      "signature": "0x467bdf48"
    },
    {
      "constant": true,
      "inputs": [
        {
          "name": "_patentID",
          "type": "string"
        }
      ],
      "name": "getNumRequests",
      "outputs": [
        {
          "name": "",
          "type": "uint256"
        }
      ],
      "payable": false,
      "stateMutability": "view",
      "type": "function",
      "signature": "0xe0cf4cc9"
    },
    {
      "constant": true,
      "inputs": [
        {
          "name": "_patentID",
          "type": "string"
        },
        {
          "name": "_index",
          "type": "uint256"
        }
      ],
      "name": "getBuyers",
      "outputs": [
        {
          "name": "",
          "type": "address"
        }
      ],
      "payable": false,
      "stateMutability": "view",
      "type": "function",
      "signature": "0x6038c638"
    },
    {
      "constant": true,
      "inputs": [
        {
          "name": "_patentID",
          "type": "string"
        },
        {
          "name": "_user",
          "type": "address"
        }
      ],
      "name": "getEncryptionKey",
      "outputs": [
        {
          "name": "",
          "type": "string"
        }
      ],
      "payable": false,
      "stateMutability": "view",
      "type": "function",
      "signature": "0xad8c9dd6"
    },
    {
      "constant": true,
      "inputs": [
        {
          "name": "_patentID",
          "type": "string"
        }
      ],
      "name": "getEncryptedIpfsKey",
      "outputs": [
        {
          "name": "",
          "type": "string"
        }
      ],
      "payable": false,
      "stateMutability": "view",
      "type": "function",
      "signature": "0xa302e8cd"
    },
    {
      "constant": true,
      "inputs": [
        {
          "name": "_patentID",
          "type": "string"
        }
      ],
      "name": "getOwnerEmail",
      "outputs": [
        {
          "name": "",
          "type": "string"
        }
      ],
      "payable": false,
      "stateMutability": "view",
      "type": "function",
      "signature": "0x68b2210d"
    },
    {
      "constant": true,
      "inputs": [
        {
          "name": "_patentID",
          "type": "string"
        }
      ],
      "name": "getOwnerName",
      "outputs": [
        {
          "name": "",
          "type": "string"
        }
      ],
      "payable": false,
      "stateMutability": "view",
      "type": "function",
      "signature": "0x1429ab37"
    },
    {
      "constant": true,
      "inputs": [
        {
          "name": "_patentID",
          "type": "string"
        }
      ],
      "name": "getPatentLocation",
      "outputs": [
        {
          "name": "",
          "type": "string"
        }
      ],
      "payable": false,
      "stateMutability": "view",
      "type": "function",
      "signature": "0x607f9e87"
    },
    {
      "constant": true,
      "inputs": [
        {
          "name": "_patentID",
          "type": "string"
        }
      ],
      "name": "isRegistered",
      "outputs": [
        {
          "name": "",
          "type": "bool"
        }
      ],
      "payable": false,
      "stateMutability": "view",
      "type": "function",
      "signature": "0xc822d7f0"
    },
    {
      "constant": true,
      "inputs": [
        {
          "name": "_patentID",
          "type": "string"
        }
      ],
      "name": "isDeleted",
      "outputs": [
        {
          "name": "",
          "type": "bool"
        }
      ],
      "payable": false,
      "stateMutability": "view",
      "type": "function",
      "signature": "0x6c9c088c"
    },
    {
      "constant": true,
      "inputs": [
        {
          "name": "_user",
          "type": "address"
        }
      ],
      "name": "hasAccount",
      "outputs": [
        {
          "name": "",
          "type": "bool"
        }
      ],
      "payable": false,
      "stateMutability": "view",
      "type": "function",
      "signature": "0xc8e40fbf"
    },
    {
      "constant": true,
      "inputs": [
        {
          "name": "_user",
          "type": "address"
        }
      ],
      "name": "getNumPatents",
      "outputs": [
        {
          "name": "",
          "type": "uint256"
        }
      ],
      "payable": false,
      "stateMutability": "view",
      "type": "function",
      "signature": "0xb110660a"
    },
    {
      "constant": true,
      "inputs": [
        {
          "name": "_user",
          "type": "address"
        },
        {
          "name": "_index",
          "type": "uint256"
        }
      ],
      "name": "getOwnedPatentIDs",
      "outputs": [
        {
          "name": "",
          "type": "string"
        }
      ],
      "payable": false,
      "stateMutability": "view",
      "type": "function",
      "signature": "0xdcb06c59"
    }
  ],
  "bytecode": "0x6080604052336000806101000a81548173ffffffffffffffffffffffffffffffffffffffff021916908373ffffffffffffffffffffffffffffffffffffffff1602179055503480156200005157600080fd5b5060405160408062005ea2833981018060405260408110156200007357600080fd5b810190808051906020019092919080519060200190929190505050816001819055505050615dfb80620000a76000396000f3fe60806040526004361061021a576000357c0100000000000000000000000000000000000000000000000000000000900463ffffffff16806307973ccf1461021f5780630e6549fa1461024a5780631429ab37146103325780631c85da19146104735780631cc58aa91461049e57806324600fc31461057a57806324880dcd146105915780632760568d146107875780632bcb56f9146108835780632ef3accc1461096b5780632f35645a14610a51578063356b7b0814610b5b578063467bdf4814610c575780635d98dde814610d745780636038c63814610ef3578063607f9e871461100557806365f8695e1461114657806368b2210d146112465780636c9c088c14611387578063870d365d146114675780638b287351146114b657806397c00d4b146116b657806399d2618e1461176a578063a302e8cd14611872578063a6f9dae1146119b3578063ad8c9dd614611a04578063b084c84114611b65578063b110660a14611b90578063bde1eee714611bf5578063be3e072214611cf5578063c787411814611df5578063c822d7f01461207f578063c8e40fbf1461215f578063ce975b72146121c8578063dcb06c5914612290578063ddc7b6a714612364578063e0cf4cc9146124c3578063e2f99c7e1461259f578063e489445d146126a9578063e966b89514612771578063edfec35e146128b2578063f2fa664c1461292d578063f4769e86146129f5578063fa52c7cc14612b54575b600080fd5b34801561022b57600080fd5b50610234612c30565b6040518082815260200191505060405180910390f35b34801561025657600080fd5b506103306004803603604081101561026d57600080fd5b810190808035906020019064010000000081111561028a57600080fd5b82018360208201111561029c57600080fd5b803590602001918460018302840111640100000000831117156102be57600080fd5b91908080601f016020809104026020016040519081016040528093929190818152602001838380828437600081840152601f19601f820116905080830192505050505050509192919290803573ffffffffffffffffffffffffffffffffffffffff169060200190929190505050612c3d565b005b34801561033e57600080fd5b506103f86004803603602081101561035557600080fd5b810190808035906020019064010000000081111561037257600080fd5b82018360208201111561038457600080fd5b803590602001918460018302840111640100000000831117156103a657600080fd5b91908080601f016020809104026020016040519081016040528093929190818152602001838380828437600081840152601f19601f820116905080830192505050505050509192919290505050612fb6565b6040518080602001828103825283818151815260200191508051906020019080838360005b8381101561043857808201518184015260208101905061041d565b50505050905090810190601f1680156104655780820380516001836020036101000a031916815260200191505b509250505060405180910390f35b34801561047f57600080fd5b50610488613128565b6040518082815260200191505060405180910390f35b3480156104aa57600080fd5b50610564600480360360208110156104c157600080fd5b81019080803590602001906401000000008111156104de57600080fd5b8201836020820111156104f057600080fd5b8035906020019184600183028401116401000000008311171561051257600080fd5b91908080601f016020809104026020016040519081016040528093929190818152602001838380828437600081840152601f19601f82011690508083019250505050505050919291929050505061312e565b6040518082815260200191505060405180910390f35b34801561058657600080fd5b5061058f6131b6565b005b610785600480360360808110156105a757600080fd5b81019080803590602001906401000000008111156105c457600080fd5b8201836020820111156105d657600080fd5b803590602001918460018302840111640100000000831117156105f857600080fd5b91908080601f016020809104026020016040519081016040528093929190818152602001838380828437600081840152601f19601f820116905080830192505050505050509192919290803560ff1690602001909291908035906020019064010000000081111561066857600080fd5b82018360208201111561067a57600080fd5b8035906020019184600183028401116401000000008311171561069c57600080fd5b91908080601f016020809104026020016040519081016040528093929190818152602001838380828437600081840152601f19601f820116905080830192505050505050509192919290803590602001906401000000008111156106ff57600080fd5b82018360208201111561071157600080fd5b8035906020019184600183028401116401000000008311171561073357600080fd5b91908080601f016020809104026020016040519081016040528093929190818152602001838380828437600081840152601f19601f820116905080830192505050505050509192919290505050613292565b005b34801561079357600080fd5b5061086d600480360360408110156107aa57600080fd5b81019080803590602001906401000000008111156107c757600080fd5b8201836020820111156107d957600080fd5b803590602001918460018302840111640100000000831117156107fb57600080fd5b91908080601f016020809104026020016040519081016040528093929190818152602001838380828437600081840152601f19601f820116905080830192505050505050509192919290803573ffffffffffffffffffffffffffffffffffffffff1690602001909291905050506137d9565b6040518082815260200191505060405180910390f35b34801561088f57600080fd5b50610969600480360360408110156108a657600080fd5b81019080803590602001906401000000008111156108c357600080fd5b8201836020820111156108d557600080fd5b803590602001918460018302840111640100000000831117156108f757600080fd5b91908080601f016020809104026020016040519081016040528093929190818152602001838380828437600081840152601f19601f820116905080830192505050505050509192919290803573ffffffffffffffffffffffffffffffffffffffff1690602001909291905050506138a2565b005b34801561097757600080fd5b50610a3b6004803603604081101561098e57600080fd5b81019080803590602001906401000000008111156109ab57600080fd5b8201836020820111156109bd57600080fd5b803590602001918460018302840111640100000000831117156109df57600080fd5b91908080601f016020809104026020016040519081016040528093929190818152602001838380828437600081840152601f19601f82011690508083019250505050505050919291929080359060200190929190505050613c0b565b6040518082815260200191505060405180910390f35b348015610a5d57600080fd5b50610b4160048036036060811015610a7457600080fd5b8101908080359060200190640100000000811115610a9157600080fd5b820183602082011115610aa357600080fd5b80359060200191846001830284011164010000000083111715610ac557600080fd5b91908080601f016020809104026020016040519081016040528093929190818152602001838380828437600081840152601f19601f82011690508083019250505050505050919291929080359060200190929190803573ffffffffffffffffffffffffffffffffffffffff169060200190929190505050613c9e565b604051808215151515815260200191505060405180910390f35b348015610b6757600080fd5b50610c4160048036036040811015610b7e57600080fd5b8101908080359060200190640100000000811115610b9b57600080fd5b820183602082011115610bad57600080fd5b80359060200191846001830284011164010000000083111715610bcf57600080fd5b91908080601f016020809104026020016040519081016040528093929190818152602001838380828437600081840152601f19601f820116905080830192505050505050509192919290803573ffffffffffffffffffffffffffffffffffffffff169060200190929190505050613d01565b6040518082815260200191505060405180910390f35b348015610c6357600080fd5b50610d1d60048036036020811015610c7a57600080fd5b8101908080359060200190640100000000811115610c9757600080fd5b820183602082011115610ca957600080fd5b80359060200191846001830284011164010000000083111715610ccb57600080fd5b91908080601f016020809104026020016040519081016040528093929190818152602001838380828437600081840152601f19601f820116905080830192505050505050509192919290505050613dca565b6040518080602001828103825283818151815260200191508051906020019060200280838360005b83811015610d60578082015181840152602081019050610d45565b505050509050019250505060405180910390f35b348015610d8057600080fd5b50610ef160048036036060811015610d9757600080fd5b8101908080359060200190640100000000811115610db457600080fd5b820183602082011115610dc657600080fd5b80359060200191846001830284011164010000000083111715610de857600080fd5b91908080601f016020809104026020016040519081016040528093929190818152602001838380828437600081840152601f19601f820116905080830192505050505050509192919290803573ffffffffffffffffffffffffffffffffffffffff16906020019092919080359060200190640100000000811115610e6b57600080fd5b820183602082011115610e7d57600080fd5b80359060200191846001830284011164010000000083111715610e9f57600080fd5b91908080601f016020809104026020016040519081016040528093929190818152602001838380828437600081840152601f19601f820116905080830192505050505050509192919290505050613e90565b005b348015610eff57600080fd5b50610fc360048036036040811015610f1657600080fd5b8101908080359060200190640100000000811115610f3357600080fd5b820183602082011115610f4557600080fd5b80359060200191846001830284011164010000000083111715610f6757600080fd5b91908080601f016020809104026020016040519081016040528093929190818152602001838380828437600081840152601f19601f82011690508083019250505050505050919291929080359060200190929190505050613f68565b604051808273ffffffffffffffffffffffffffffffffffffffff1673ffffffffffffffffffffffffffffffffffffffff16815260200191505060405180910390f35b34801561101157600080fd5b506110cb6004803603602081101561102857600080fd5b810190808035906020019064010000000081111561104557600080fd5b82018360208201111561105757600080fd5b8035906020019184600183028401116401000000008311171561107957600080fd5b91908080601f016020809104026020016040519081016040528093929190818152602001838380828437600081840152601f19601f820116905080830192505050505050509192919290505050614018565b6040518080602001828103825283818151815260200191508051906020019080838360005b8381101561110b5780820151818401526020810190506110f0565b50505050905090810190601f1680156111385780820380516001836020036101000a031916815260200191505b509250505060405180910390f35b34801561115257600080fd5b5061122c6004803603604081101561116957600080fd5b810190808035906020019064010000000081111561118657600080fd5b82018360208201111561119857600080fd5b803590602001918460018302840111640100000000831117156111ba57600080fd5b91908080601f016020809104026020016040519081016040528093929190818152602001838380828437600081840152601f19601f820116905080830192505050505050509192919290803573ffffffffffffffffffffffffffffffffffffffff169060200190929190505050614128565b604051808215151515815260200191505060405180910390f35b34801561125257600080fd5b5061130c6004803603602081101561126957600080fd5b810190808035906020019064010000000081111561128657600080fd5b82018360208201111561129857600080fd5b803590602001918460018302840111640100000000831117156112ba57600080fd5b91908080601f016020809104026020016040519081016040528093929190818152602001838380828437600081840152601f19601f820116905080830192505050505050509192919290505050614206565b6040518080602001828103825283818151815260200191508051906020019080838360005b8381101561134c578082015181840152602081019050611331565b50505050905090810190601f1680156113795780820380516001836020036101000a031916815260200191505b509250505060405180910390f35b34801561139357600080fd5b5061144d600480360360208110156113aa57600080fd5b81019080803590602001906401000000008111156113c757600080fd5b8201836020820111156113d957600080fd5b803590602001918460018302840111640100000000831117156113fb57600080fd5b91908080601f016020809104026020016040519081016040528093929190818152602001838380828437600081840152601f19601f820116905080830192505050505050509192919290505050614378565b604051808215151515815260200191505060405180910390f35b34801561147357600080fd5b506114a06004803603602081101561148a57600080fd5b81019080803590602001909291905050506143fd565b6040518082815260200191505060405180910390f35b3480156114c257600080fd5b506116b4600480360360808110156114d957600080fd5b81019080803590602001906401000000008111156114f657600080fd5b82018360208201111561150857600080fd5b8035906020019184600183028401116401000000008311171561152a57600080fd5b91908080601f016020809104026020016040519081016040528093929190818152602001838380828437600081840152601f19601f8201169050808301925050505050505091929192908035906020019064010000000081111561158d57600080fd5b82018360208201111561159f57600080fd5b803590602001918460018302840111640100000000831117156115c157600080fd5b91908080601f016020809104026020016040519081016040528093929190818152602001838380828437600081840152601f19601f820116905080830192505050505050509192919290803560ff1690602001909291908035906020019064010000000081111561163157600080fd5b82018360208201111561164357600080fd5b8035906020019184602083028401116401000000008311171561166557600080fd5b919080806020026020016040519081016040528093929190818152602001838360200280828437600081840152601f19601f820116905080830192505050505050509192919290505050614413565b005b3480156116c257600080fd5b506116ef600480360360208110156116d957600080fd5b81019080803590602001909291905050506144fe565b6040518080602001828103825283818151815260200191508051906020019080838360005b8381101561172f578082015181840152602081019050611714565b50505050905090810190601f16801561175c5780820380516001836020036101000a031916815260200191505b509250505060405180910390f35b34801561177657600080fd5b506118306004803603602081101561178d57600080fd5b81019080803590602001906401000000008111156117aa57600080fd5b8201836020820111156117bc57600080fd5b803590602001918460018302840111640100000000831117156117de57600080fd5b91908080601f016020809104026020016040519081016040528093929190818152602001838380828437600081840152601f19601f8201169050808301925050505050505091929192905050506145b9565b604051808273ffffffffffffffffffffffffffffffffffffffff1673ffffffffffffffffffffffffffffffffffffffff16815260200191505060405180910390f35b34801561187e57600080fd5b506119386004803603602081101561189557600080fd5b81019080803590602001906401000000008111156118b257600080fd5b8201836020820111156118c457600080fd5b803590602001918460018302840111640100000000831117156118e657600080fd5b91908080601f016020809104026020016040519081016040528093929190818152602001838380828437600081840152601f19601f820116905080830192505050505050509192919290505050614651565b6040518080602001828103825283818151815260200191508051906020019080838360005b8381101561197857808201518184015260208101905061195d565b50505050905090810190601f1680156119a55780820380516001836020036101000a031916815260200191505b509250505060405180910390f35b3480156119bf57600080fd5b50611a02600480360360208110156119d657600080fd5b81019080803573ffffffffffffffffffffffffffffffffffffffff1690602001909291905050506147b6565b005b348015611a1057600080fd5b50611aea60048036036040811015611a2757600080fd5b8101908080359060200190640100000000811115611a4457600080fd5b820183602082011115611a5657600080fd5b80359060200191846001830284011164010000000083111715611a7857600080fd5b91908080601f016020809104026020016040519081016040528093929190818152602001838380828437600081840152601f19601f820116905080830192505050505050509192919290803573ffffffffffffffffffffffffffffffffffffffff169060200190929190505050614854565b6040518080602001828103825283818151815260200191508051906020019080838360005b83811015611b2a578082015181840152602081019050611b0f565b50505050905090810190601f168015611b575780820380516001836020036101000a031916815260200191505b509250505060405180910390f35b348015611b7157600080fd5b50611b7a6149ba565b6040518082815260200191505060405180910390f35b348015611b9c57600080fd5b50611bdf60048036036020811015611bb357600080fd5b81019080803573ffffffffffffffffffffffffffffffffffffffff1690602001909291905050506149c7565b6040518082815260200191505060405180910390f35b348015611c0157600080fd5b50611cdb60048036036040811015611c1857600080fd5b8101908080359060200190640100000000811115611c3557600080fd5b820183602082011115611c4757600080fd5b80359060200191846001830284011164010000000083111715611c6957600080fd5b91908080601f016020809104026020016040519081016040528093929190818152602001838380828437600081840152601f19601f820116905080830192505050505050509192919290803573ffffffffffffffffffffffffffffffffffffffff169060200190929190505050614a16565b604051808215151515815260200191505060405180910390f35b348015611d0157600080fd5b50611ddb60048036036040811015611d1857600080fd5b8101908080359060200190640100000000811115611d3557600080fd5b820183602082011115611d4757600080fd5b80359060200191846001830284011164010000000083111715611d6957600080fd5b91908080601f016020809104026020016040519081016040528093929190818152602001838380828437600081840152601f19601f820116905080830192505050505050509192919290803573ffffffffffffffffffffffffffffffffffffffff169060200190929190505050614add565b604051808215151515815260200191505060405180910390f35b61207d600480360360a0811015611e0b57600080fd5b8101908080359060200190640100000000811115611e2857600080fd5b820183602082011115611e3a57600080fd5b80359060200191846001830284011164010000000083111715611e5c57600080fd5b91908080601f016020809104026020016040519081016040528093929190818152602001838380828437600081840152601f19601f82011690508083019250505050505050919291929080359060200190640100000000811115611ebf57600080fd5b820183602082011115611ed157600080fd5b80359060200191846001830284011164010000000083111715611ef357600080fd5b91908080601f016020809104026020016040519081016040528093929190818152602001838380828437600081840152601f19601f820116905080830192505050505050509192919290803560ff16906020019092919080359060200190640100000000811115611f6357600080fd5b820183602082011115611f7557600080fd5b80359060200191846020830284011164010000000083111715611f9757600080fd5b919080806020026020016040519081016040528093929190818152602001838360200280828437600081840152601f19601f82011690508083019250505050505050919291929080359060200190640100000000811115611ff757600080fd5b82018360208201111561200957600080fd5b8035906020019184600183028401116401000000008311171561202b57600080fd5b91908080601f016020809104026020016040519081016040528093929190818152602001838380828437600081840152601f19601f820116905080830192505050505050509192919290505050614bbc565b005b34801561208b57600080fd5b50612145600480360360208110156120a257600080fd5b81019080803590602001906401000000008111156120bf57600080fd5b8201836020820111156120d157600080fd5b803590602001918460018302840111640100000000831117156120f357600080fd5b91908080601f016020809104026020016040519081016040528093929190818152602001838380828437600081840152601f19601f820116905080830192505050505050509192919290505050614ecd565b604051808215151515815260200191505060405180910390f35b34801561216b57600080fd5b506121ae6004803603602081101561218257600080fd5b81019080803573ffffffffffffffffffffffffffffffffffffffff169060200190929190505050614f48565b604051808215151515815260200191505060405180910390f35b61228e600480360360408110156121de57600080fd5b81019080803590602001906401000000008111156121fb57600080fd5b82018360208201111561220d57600080fd5b8035906020019184600183028401116401000000008311171561222f57600080fd5b91908080601f016020809104026020016040519081016040528093929190818152602001838380828437600081840152601f19601f820116905080830192505050505050509192919290803560ff169060200190929190505050614f97565b005b34801561229c57600080fd5b506122e9600480360360408110156122b357600080fd5b81019080803573ffffffffffffffffffffffffffffffffffffffff169060200190929190803590602001909291905050506151f8565b6040518080602001828103825283818151815260200191508051906020019080838360005b8381101561232957808201518184015260208101905061230e565b50505050905090810190601f1680156123565780820380516001836020036101000a031916815260200191505b509250505060405180910390f35b34801561237057600080fd5b506124c16004803603604081101561238757600080fd5b81019080803590602001906401000000008111156123a457600080fd5b8201836020820111156123b657600080fd5b803590602001918460018302840111640100000000831117156123d857600080fd5b91908080601f016020809104026020016040519081016040528093929190818152602001838380828437600081840152601f19601f8201169050808301925050505050505091929192908035906020019064010000000081111561243b57600080fd5b82018360208201111561244d57600080fd5b8035906020019184600183028401116401000000008311171561246f57600080fd5b91908080601f016020809104026020016040519081016040528093929190818152602001838380828437600081840152601f19601f8201169050808301925050505050505091929192905050506152f4565b005b3480156124cf57600080fd5b50612589600480360360208110156124e657600080fd5b810190808035906020019064010000000081111561250357600080fd5b82018360208201111561251557600080fd5b8035906020019184600183028401116401000000008311171561253757600080fd5b91908080601f016020809104026020016040519081016040528093929190818152602001838380828437600081840152601f19601f82011690508083019250505050505050919291929050505061546d565b6040518082815260200191505060405180910390f35b3480156125ab57600080fd5b50612685600480360360408110156125c257600080fd5b81019080803590602001906401000000008111156125df57600080fd5b8201836020820111156125f157600080fd5b8035906020019184600183028401116401000000008311171561261357600080fd5b91908080601f016020809104026020016040519081016040528093929190818152602001838380828437600081840152601f19601f820116905080830192505050505050509192919290803573ffffffffffffffffffffffffffffffffffffffff1690602001909291905050506154e8565b6040518082600481111561269557fe5b60ff16815260200191505060405180910390f35b3480156126b557600080fd5b5061276f600480360360208110156126cc57600080fd5b81019080803590602001906401000000008111156126e957600080fd5b8201836020820111156126fb57600080fd5b8035906020019184600183028401116401000000008311171561271d57600080fd5b91908080601f016020809104026020016040519081016040528093929190818152602001838380828437600081840152601f19601f8201169050808301925050505050505091929192905050506155ae565b005b34801561277d57600080fd5b506128376004803603602081101561279457600080fd5b81019080803590602001906401000000008111156127b157600080fd5b8201836020820111156127c357600080fd5b803590602001918460018302840111640100000000831117156127e557600080fd5b91908080601f016020809104026020016040519081016040528093929190818152602001838380828437600081840152601f19601f820116905080830192505050505050509192919290505050615754565b6040518080602001828103825283818151815260200191508051906020019080838360005b8381101561287757808201518184015260208101905061285c565b50505050905090810190601f1680156128a45780820380516001836020036101000a031916815260200191505b509250505060405180910390f35b3480156128be57600080fd5b506128eb600480360360208110156128d557600080fd5b8101908080359060200190929190505050615864565b604051808273ffffffffffffffffffffffffffffffffffffffff1673ffffffffffffffffffffffffffffffffffffffff16815260200191505060405180910390f35b34801561293957600080fd5b506129f36004803603602081101561295057600080fd5b810190808035906020019064010000000081111561296d57600080fd5b82018360208201111561297f57600080fd5b803590602001918460018302840111640100000000831117156129a157600080fd5b91908080601f016020809104026020016040519081016040528093929190818152602001838380828437600081840152601f19601f8201169050808301925050505050505091929192905050506158a2565b005b348015612a0157600080fd5b50612b5260048036036040811015612a1857600080fd5b8101908080359060200190640100000000811115612a3557600080fd5b820183602082011115612a4757600080fd5b80359060200191846001830284011164010000000083111715612a6957600080fd5b91908080601f016020809104026020016040519081016040528093929190818152602001838380828437600081840152601f19601f82011690508083019250505050505050919291929080359060200190640100000000811115612acc57600080fd5b820183602082011115612ade57600080fd5b80359060200191846001830284011164010000000083111715612b0057600080fd5b91908080601f016020809104026020016040519081016040528093929190818152602001838380828437600081840152601f19601f820116905080830192505050505050509192919290505050615969565b005b348015612b6057600080fd5b50612c1a60048036036020811015612b7757600080fd5b8101908080359060200190640100000000811115612b9457600080fd5b820183602082011115612ba657600080fd5b80359060200191846001830284011164010000000083111715612bc857600080fd5b91908080601f016020809104026020016040519081016040528093929190818152602001838380828437600081840152601f19601f8201169050808301925050505050505091929192905050506159f7565b6040518082815260200191505060405180910390f35b6000600480549050905090565b612c4682614ecd565b8015612c585750612c578233614a16565b5b8015612c6a5750612c698282614add565b5b1515612c7557600080fd5b60006003836040518082805190602001908083835b602083101515612caf5780518252602082019150602081019050602083039250612c8a565b6001836020036101000a038019825116818451168082178552505050505050905001915050908152602001604051809103902060080160008373ffffffffffffffffffffffffffffffffffffffff1673ffffffffffffffffffffffffffffffffffffffff16815260200190815260200160002090506000816001015410151515612d3857600080fd5b8173ffffffffffffffffffffffffffffffffffffffff166108fc82600101549081150290604051600060405180830381858888f19350505050158015612d82573d6000803e3d6000fd5b50600081600101819055506000612d9984846137d9565b1115612dca5760048160000160006101000a81548160ff02191690836004811115612dc057fe5b0217905550612df1565b60028160000160006101000a81548160ff02191690836004811115612deb57fe5b02179055505b7f87deb0bf3260371a3845769d523869b17a51dab5e82dd1d7db896b489fe42f57816002016003856040518082805190602001908083835b602083101515612e4e5780518252602082019150602081019050602083039250612e29565b6001836020036101000a0380198251168184511680821785525050505050509050019150509081526020016040518091039020600001600060405180806020018060200184151515158152602001838103835286818154600181600116156101000203166002900481526020019150805460018160011615610100020316600290048015612f1d5780601f10612ef257610100808354040283529160200191612f1d565b820191906000526020600020905b815481529060010190602001808311612f0057829003601f168201915b5050838103825285818154600181600116156101000203166002900481526020019150805460018160011615610100020316600290048015612fa05780601f10612f7557610100808354040283529160200191612fa0565b820191906000526020600020905b815481529060010190602001808311612f8357829003601f168201915b50509550505050505060405180910390a1505050565b6060600560006003846040518082805190602001908083835b602083101515612ff45780518252602082019150602081019050602083039250612fcf565b6001836020036101000a038019825116818451168082178552505050505050905001915050908152602001604051809103902060010160009054906101000a900473ffffffffffffffffffffffffffffffffffffffff1673ffffffffffffffffffffffffffffffffffffffff1673ffffffffffffffffffffffffffffffffffffffff1681526020019081526020016000206000018054600181600116156101000203166002900480601f01602080910402602001604051908101604052809291908181526020018280546001816001161561010002031660029004801561311c5780601f106130f15761010080835404028352916020019161311c565b820191906000526020600020905b8154815290600101906020018083116130ff57829003601f168201915b50505050509050919050565b60015481565b60006003826040518082805190602001908083835b6020831015156131685780518252602082019150602081019050602083039250613143565b6001836020036101000a038019825116818451168082178552505050505050905001915050908152602001604051809103902060040160009054906101000a900460ff1660ff169050919050565b6000809054906101000a900473ffffffffffffffffffffffffffffffffffffffff1673ffffffffffffffffffffffffffffffffffffffff163373ffffffffffffffffffffffffffffffffffffffff1614151561321157600080fd5b6000809054906101000a900473ffffffffffffffffffffffffffffffffffffffff1673ffffffffffffffffffffffffffffffffffffffff166108fc3073ffffffffffffffffffffffffffffffffffffffff16319081150290604051600060405180830381858888f1935050505015801561328f573d6000803e3d6000fd5b50565b61329b84614ecd565b80156132b157506132b0848460ff1633613c9e565b5b15156132bc57600080fd5b600060048111156132c957fe5b6003856040518082805190602001908083835b60208310151561330157805182526020820191506020810190506020830392506132dc565b6001836020036101000a038019825116818451168082178552505050505050905001915050908152602001604051809103902060080160003373ffffffffffffffffffffffffffffffffffffffff1673ffffffffffffffffffffffffffffffffffffffff16815260200190815260200160002060000160009054906101000a900460ff16600481111561339057fe5b14151561339c57600080fd5b60006133b36133ae868660ff16613c0b565b6143fd565b90508034101515156133c457600080fd5b60006003866040518082805190602001908083835b6020831015156133fe57805182526020820191506020810190506020830392506133d9565b6001836020036101000a03801982511681845116808217855250505050505090500191505090815260200160405180910390209050806007013390806001815401808255809150509060018203906000526020600020016000909192909190916101000a81548173ffffffffffffffffffffffffffffffffffffffff021916908373ffffffffffffffffffffffffffffffffffffffff1602179055505060e060405190810160405280600160048111156134b457fe5b8152602001600060ff1681526020018660ff16815260200183815260200184815260200185815260200160206040519081016040528060008152508152508160080160003373ffffffffffffffffffffffffffffffffffffffff1673ffffffffffffffffffffffffffffffffffffffff16815260200190815260200160002060008201518160000160006101000a81548160ff0219169083600481111561355757fe5b021790555060208201518160000160016101000a81548160ff021916908360ff16021790555060408201518160000160026101000a81548160ff021916908360ff1602179055506060820151816001015560808201518160020190805190602001906135c4929190615a6f565b5060a08201518160030190805190602001906135e1929190615a6f565b5060c08201518160040190805190602001906135fe929190615a6f565b509050507f7e558bb9898d8d17809158db6c967a8ea47d93a15a5d359a1186352a086cfb7c61362c87614206565b6003886040518082805190602001908083835b602083101515613664578051825260208201915060208101905060208303925061363f565b6001836020036101000a0380198251168184511680821785525050505050509050019150509081526020016040518091039020600001336040518080602001806020018473ffffffffffffffffffffffffffffffffffffffff1673ffffffffffffffffffffffffffffffffffffffff168152602001838103835286818151815260200191508051906020019080838360005b838110156137115780820151818401526020810190506136f6565b50505050905090810190601f16801561373e5780820380516001836020036101000a031916815260200191505b508381038252858181546001816001161561010002031660029004815260200191508054600181600116156101000203166002900480156137c05780601f10613795576101008083540402835291602001916137c0565b820191906000526020600020905b8154815290600101906020018083116137a357829003601f168201915b50509550505050505060405180910390a1505050505050565b60006003836040518082805190602001908083835b60208310151561381357805182526020820191506020810190506020830392506137ee565b6001836020036101000a038019825116818451168082178552505050505050905001915050908152602001604051809103902060080160008373ffffffffffffffffffffffffffffffffffffffff1673ffffffffffffffffffffffffffffffffffffffff16815260200190815260200160002060000160019054906101000a900460ff1660ff16905092915050565b6138ab82614ecd565b80156138bd57506138bc8233614a16565b5b80156138cf57506138ce8282614add565b5b15156138da57600080fd5b60006003836040518082805190602001908083835b60208310151561391457805182526020820191506020810190506020830392506138ef565b6001836020036101000a038019825116818451168082178552505050505050905001915050908152602001604051809103902060080160008373ffffffffffffffffffffffffffffffffffffffff1673ffffffffffffffffffffffffffffffffffffffff1681526020019081526020016000209050600081600101541015151561399d57600080fd5b3373ffffffffffffffffffffffffffffffffffffffff166108fc82600101549081150290604051600060405180830381858888f193505050501580156139e7573d6000803e3d6000fd5b506000816001018190555060048160000160006101000a81548160ff02191690836004811115613a1357fe5b02179055508060000160029054906101000a900460ff168160000160016101000a81548160ff021916908360ff1602179055507f87deb0bf3260371a3845769d523869b17a51dab5e82dd1d7db896b489fe42f57816002016003856040518082805190602001908083835b602083101515613aa35780518252602082019150602081019050602083039250613a7e565b6001836020036101000a0380198251168184511680821785525050505050509050019150509081526020016040518091039020600001600160405180806020018060200184151515158152602001838103835286818154600181600116156101000203166002900481526020019150805460018160011615610100020316600290048015613b725780601f10613b4757610100808354040283529160200191613b72565b820191906000526020600020905b815481529060010190602001808311613b5557829003601f168201915b5050838103825285818154600181600116156101000203166002900481526020019150805460018160011615610100020316600290048015613bf55780601f10613bca57610100808354040283529160200191613bf5565b820191906000526020600020905b815481529060010190602001808311613bd857829003601f168201915b50509550505050505060405180910390a1505050565b60006003836040518082805190602001908083835b602083101515613c455780518252602082019150602081019050602083039250613c20565b6001836020036101000a038019825116818451168082178552505050505050905001915050908152602001604051809103902060050160018303815481101515613c8b57fe5b9060005260206000200154905092915050565b6000613ca984614378565b158015613cbd5750613cbb8483614add565b155b8015613cd05750613cce8483614a16565b155b8015613ce45750613ce184836137d9565b83115b8015613cf85750613cf48461312e565b8311155b90509392505050565b60006003836040518082805190602001908083835b602083101515613d3b5780518252602082019150602081019050602083039250613d16565b6001836020036101000a038019825116818451168082178552505050505050905001915050908152602001604051809103902060080160008373ffffffffffffffffffffffffffffffffffffffff1673ffffffffffffffffffffffffffffffffffffffff16815260200190815260200160002060000160029054906101000a900460ff1660ff16905092915050565b60606003826040518082805190602001908083835b602083101515613e045780518252602082019150602081019050602083039250613ddf565b6001836020036101000a0380198251168184511680821785525050505050509050019150509081526020016040518091039020600501805480602002602001604051908101604052809291908181526020018280548015613e8457602002820191906000526020600020905b815481526020019060010190808311613e70575b50505050509050919050565b613e9a83836138a2565b60006003846040518082805190602001908083835b602083101515613ed45780518252602082019150602081019050602083039250613eaf565b6001836020036101000a038019825116818451168082178552505050505050905001915050908152602001604051809103902060080160008473ffffffffffffffffffffffffffffffffffffffff1673ffffffffffffffffffffffffffffffffffffffff168152602001908152602001600020905081816004019080519060200190613f61929190615aef565b5050505050565b60006003836040518082805190602001908083835b602083101515613fa25780518252602082019150602081019050602083039250613f7d565b6001836020036101000a038019825116818451168082178552505050505050905001915050908152602001604051809103902060070182815481101515613fe557fe5b9060005260206000200160009054906101000a900473ffffffffffffffffffffffffffffffffffffffff16905092915050565b60606003826040518082805190602001908083835b602083101515614052578051825260208201915060208101905060208303925061402d565b6001836020036101000a03801982511681845116808217855250505050505090500191505090815260200160405180910390206003018054600181600116156101000203166002900480601f01602080910402602001604051908101604052809291908181526020018280546001816001161561010002031660029004801561411c5780601f106140f15761010080835404028352916020019161411c565b820191906000526020600020905b8154815290600101906020018083116140ff57829003601f168201915b50505050509050919050565b600060048081111561413657fe5b6003846040518082805190602001908083835b60208310151561416e5780518252602082019150602081019050602083039250614149565b6001836020036101000a038019825116818451168082178552505050505050905001915050908152602001604051809103902060080160008473ffffffffffffffffffffffffffffffffffffffff1673ffffffffffffffffffffffffffffffffffffffff16815260200190815260200160002060000160009054906101000a900460ff1660048111156141fd57fe5b14905092915050565b6060600560006003846040518082805190602001908083835b602083101515614244578051825260208201915060208101905060208303925061421f565b6001836020036101000a038019825116818451168082178552505050505050905001915050908152602001604051809103902060010160009054906101000a900473ffffffffffffffffffffffffffffffffffffffff1673ffffffffffffffffffffffffffffffffffffffff1673ffffffffffffffffffffffffffffffffffffffff1681526020019081526020016000206001018054600181600116156101000203166002900480601f01602080910402602001604051908101604052809291908181526020018280546001816001161561010002031660029004801561436c5780601f106143415761010080835404028352916020019161436c565b820191906000526020600020905b81548152906001019060200180831161434f57829003601f168201915b50505050509050919050565b60006003826040518082805190602001908083835b6020831015156143b2578051825260208201915060208101905060208303925061438d565b6001836020036101000a038019825116818451168082178552505050505050905001915050908152602001604051809103902060060160009054906101000a900460ff169050919050565b600060828281151561440b57fe5b049050919050565b61441c84614ecd565b801561442e575061442d8433614a16565b5b151561443957600080fd5b60006003856040518082805190602001908083835b602083101515614473578051825260208201915060208101905060208303925061444e565b6001836020036101000a03801982511681845116808217855250505050505090500191505090815260200160405180910390209050838160000190805190602001906144c0929190615aef565b50828160040160006101000a81548160ff021916908360ff160217905550818160050190805190602001906144f6929190615b6f565b505050505050565b60028181548110151561450d57fe5b906000526020600020016000915090508054600181600116156101000203166002900480601f0160208091040260200160405190810160405280929190818152602001828054600181600116156101000203166002900480156145b15780601f10614586576101008083540402835291602001916145b1565b820191906000526020600020905b81548152906001019060200180831161459457829003601f168201915b505050505081565b60006003826040518082805190602001908083835b6020831015156145f357805182526020820191506020810190506020830392506145ce565b6001836020036101000a038019825116818451168082178552505050505050905001915050908152602001604051809103902060010160009054906101000a900473ffffffffffffffffffffffffffffffffffffffff169050919050565b606061465d8233614128565b151561466857600080fd5b6003826040518082805190602001908083835b6020831015156146a0578051825260208201915060208101905060208303925061467b565b6001836020036101000a038019825116818451168082178552505050505050905001915050908152602001604051809103902060080160003373ffffffffffffffffffffffffffffffffffffffff1673ffffffffffffffffffffffffffffffffffffffff1681526020019081526020016000206004018054600181600116156101000203166002900480601f0160208091040260200160405190810160405280929190818152602001828054600181600116156101000203166002900480156147aa5780601f1061477f576101008083540402835291602001916147aa565b820191906000526020600020905b81548152906001019060200180831161478d57829003601f168201915b50505050509050919050565b6000809054906101000a900473ffffffffffffffffffffffffffffffffffffffff1673ffffffffffffffffffffffffffffffffffffffff163373ffffffffffffffffffffffffffffffffffffffff1614151561481157600080fd5b806000806101000a81548173ffffffffffffffffffffffffffffffffffffffff021916908373ffffffffffffffffffffffffffffffffffffffff16021790555050565b60606148608333614a16565b151561486b57600080fd5b6003836040518082805190602001908083835b6020831015156148a3578051825260208201915060208101905060208303925061487e565b6001836020036101000a038019825116818451168082178552505050505050905001915050908152602001604051809103902060080160008373ffffffffffffffffffffffffffffffffffffffff1673ffffffffffffffffffffffffffffffffffffffff1681526020019081526020016000206003018054600181600116156101000203166002900480601f0160208091040260200160405190810160405280929190818152602001828054600181600116156101000203166002900480156149ad5780601f10614982576101008083540402835291602001916149ad565b820191906000526020600020905b81548152906001019060200180831161499057829003601f168201915b5050505050905092915050565b6000600280549050905090565b6000600560008373ffffffffffffffffffffffffffffffffffffffff1673ffffffffffffffffffffffffffffffffffffffff168152602001908152602001600020600301805490509050919050565b60008173ffffffffffffffffffffffffffffffffffffffff166003846040518082805190602001908083835b602083101515614a675780518252602082019150602081019050602083039250614a42565b6001836020036101000a038019825116818451168082178552505050505050905001915050908152602001604051809103902060010160009054906101000a900473ffffffffffffffffffffffffffffffffffffffff1673ffffffffffffffffffffffffffffffffffffffff1614905092915050565b600060016004811115614aec57fe5b6003846040518082805190602001908083835b602083101515614b245780518252602082019150602081019050602083039250614aff565b6001836020036101000a038019825116818451168082178552505050505050905001915050908152602001604051809103902060080160008473ffffffffffffffffffffffffffffffffffffffff1673ffffffffffffffffffffffffffffffffffffffff16815260200190815260200160002060000160009054906101000a900460ff166004811115614bb357fe5b14905092915050565b614bc533614f48565b8015614bd75750614bd584614ecd565b155b8015614bed5750614be96001546143fd565b3410155b8015614bfc57508260ff168251145b1515614c0757600080fd5b610100604051908101604052808681526020013373ffffffffffffffffffffffffffffffffffffffff1681526020014281526020018281526020018460ff1681526020018381526020016000151581526020016000604051908082528060200260200182016040528015614c8a5781602001602082028038833980820191505090505b508152506003856040518082805190602001908083835b602083101515614cc65780518252602082019150602081019050602083039250614ca1565b6001836020036101000a03801982511681845116808217855250505050505090500191505090815260200160405180910390206000820151816000019080519060200190614d15929190615a6f565b5060208201518160010160006101000a81548173ffffffffffffffffffffffffffffffffffffffff021916908373ffffffffffffffffffffffffffffffffffffffff160217905550604082015181600201556060820151816003019080519060200190614d83929190615a6f565b5060808201518160040160006101000a81548160ff021916908360ff16021790555060a0820151816005019080519060200190614dc1929190615bbc565b5060c08201518160060160006101000a81548160ff02191690831515021790555060e0820151816007019080519060200190614dfe929190615c09565b509050506002849080600181540180825580915050906001820390600052602060002001600090919290919091509080519060200190614e3f929190615aef565b50506000600560003373ffffffffffffffffffffffffffffffffffffffff1673ffffffffffffffffffffffffffffffffffffffff168152602001908152602001600020905080600301859080600181540180825580915050906001820390600052602060002001600090919290919091509080519060200190614ec3929190615aef565b5050505050505050565b6000806003836040518082805190602001908083835b602083101515614f085780518252602082019150602081019050602083039250614ee3565b6001836020036101000a03801982511681845116808217855250505050505090500191505090815260200160405180910390206002015414159050919050565b600080600560008473ffffffffffffffffffffffffffffffffffffffff1673ffffffffffffffffffffffffffffffffffffffff1681526020019081526020016000206002015414159050919050565b614fa082614ecd565b8015614fb65750614fb5828260ff1633613c9e565b5b1515614fc157600080fd5b60006004811115614fce57fe5b6003836040518082805190602001908083835b6020831015156150065780518252602082019150602081019050602083039250614fe1565b6001836020036101000a038019825116818451168082178552505050505050905001915050908152602001604051809103902060080160003373ffffffffffffffffffffffffffffffffffffffff1673ffffffffffffffffffffffffffffffffffffffff16815260200190815260200160002060000160009054906101000a900460ff16600481111561509557fe5b141515156150a257600080fd5b60006150b1838360ff16613c0b565b905060006150bf84336137d9565b905060008111156150d9576150d48482613c0b565b820391505b60006150e4836143fd565b90508034101515156150f557600080fd5b60006003866040518082805190602001908083835b60208310151561512f578051825260208201915060208101905060208303925061510a565b6001836020036101000a038019825116818451168082178552505050505050905001915050908152602001604051809103902060080160003373ffffffffffffffffffffffffffffffffffffffff1673ffffffffffffffffffffffffffffffffffffffff168152602001908152602001600020905060018160000160006101000a81548160ff021916908360048111156151c557fe5b0217905550848160000160026101000a81548160ff021916908360ff160217905550818160010181905550505050505050565b6060600560008473ffffffffffffffffffffffffffffffffffffffff1673ffffffffffffffffffffffffffffffffffffffff1681526020019081526020016000206003018281548110151561524957fe5b906000526020600020018054600181600116156101000203166002900480601f0160208091040260200160405190810160405280929190818152602001828054600181600116156101000203166002900480156152e75780601f106152bc576101008083540402835291602001916152e7565b820191906000526020600020905b8154815290600101906020018083116152ca57829003601f168201915b5050505050905092915050565b6152fd33614f48565b15151561530957600080fd5b608060405190810160405280838152602001828152602001428152602001600060405190808252806020026020018201604052801561535c57816020015b60608152602001906001900390816153475790505b50815250600560003373ffffffffffffffffffffffffffffffffffffffff1673ffffffffffffffffffffffffffffffffffffffff16815260200190815260200160002060008201518160000190805190602001906153bb929190615a6f565b5060208201518160010190805190602001906153d8929190615a6f565b506040820151816002015560608201518160030190805190602001906153ff929190615c93565b5090505060043390806001815401808255809150509060018203906000526020600020016000909192909190916101000a81548173ffffffffffffffffffffffffffffffffffffffff021916908373ffffffffffffffffffffffffffffffffffffffff160217905550505050565b60006003826040518082805190602001908083835b6020831015156154a75780518252602082019150602081019050602083039250615482565b6001836020036101000a0380198251168184511680821785525050505050509050019150509081526020016040518091039020600701805490509050919050565b60006003836040518082805190602001908083835b60208310151561552257805182526020820191506020810190506020830392506154fd565b6001836020036101000a038019825116818451168082178552505050505050905001915050908152602001604051809103902060080160008373ffffffffffffffffffffffffffffffffffffffff1673ffffffffffffffffffffffffffffffffffffffff16815260200190815260200160002060000160009054906101000a900460ff16905092915050565b6155b781614ecd565b80156155c957506155c88133614add565b5b15156155d457600080fd5b60006003826040518082805190602001908083835b60208310151561560e57805182526020820191506020810190506020830392506155e9565b6001836020036101000a038019825116818451168082178552505050505050905001915050908152602001604051809103902060080160003373ffffffffffffffffffffffffffffffffffffffff1673ffffffffffffffffffffffffffffffffffffffff1681526020019081526020016000209050600081600101541015151561569757600080fd5b3373ffffffffffffffffffffffffffffffffffffffff166108fc82600101549081150290604051600060405180830381858888f193505050501580156156e1573d6000803e3d6000fd5b506000816001018190555060006156f883336137d9565b11156157295760048160000160006101000a81548160ff0219169083600481111561571f57fe5b0217905550615750565b60038160000160006101000a81548160ff0219169083600481111561574a57fe5b02179055505b5050565b60606003826040518082805190602001908083835b60208310151561578e5780518252602082019150602081019050602083039250615769565b6001836020036101000a03801982511681845116808217855250505050505090500191505090815260200160405180910390206000018054600181600116156101000203166002900480601f0160208091040260200160405190810160405280929190818152602001828054600181600116156101000203166002900480156158585780601f1061582d57610100808354040283529160200191615858565b820191906000526020600020905b81548152906001019060200180831161583b57829003601f168201915b50505050509050919050565b60048181548110151561587357fe5b906000526020600020016000915054906101000a900473ffffffffffffffffffffffffffffffffffffffff1681565b6158ab81614ecd565b80156158bd57506158bc8133614a16565b5b15156158c857600080fd5b60006003826040518082805190602001908083835b60208310151561590257805182526020820191506020810190506020830392506158dd565b6001836020036101000a038019825116818451168082178552505050505050905001915050908152602001604051809103902090508060060160009054906101000a900460ff16158160060160006101000a81548160ff0219169083151502179055505050565b61597233614f48565b151561597d57600080fd5b6000600560003373ffffffffffffffffffffffffffffffffffffffff1673ffffffffffffffffffffffffffffffffffffffff1681526020019081526020016000209050828160000190805190602001906159d8929190615aef565b50818160010190805190602001906159f1929190615aef565b50505050565b60006003826040518082805190602001908083835b602083101515615a315780518252602082019150602081019050602083039250615a0c565b6001836020036101000a0380198251168184511680821785525050505050509050019150509081526020016040518091039020600201549050919050565b828054600181600116156101000203166002900490600052602060002090601f016020900481019282601f10615ab057805160ff1916838001178555615ade565b82800160010185558215615ade579182015b82811115615add578251825591602001919060010190615ac2565b5b509050615aeb9190615cf3565b5090565b828054600181600116156101000203166002900490600052602060002090601f016020900481019282601f10615b3057805160ff1916838001178555615b5e565b82800160010185558215615b5e579182015b82811115615b5d578251825591602001919060010190615b42565b5b509050615b6b9190615cf3565b5090565b828054828255906000526020600020908101928215615bab579160200282015b82811115615baa578251825591602001919060010190615b8f565b5b509050615bb89190615cf3565b5090565b828054828255906000526020600020908101928215615bf8579160200282015b82811115615bf7578251825591602001919060010190615bdc565b5b509050615c059190615cf3565b5090565b828054828255906000526020600020908101928215615c82579160200282015b82811115615c815782518260006101000a81548173ffffffffffffffffffffffffffffffffffffffff021916908373ffffffffffffffffffffffffffffffffffffffff16021790555091602001919060010190615c29565b5b509050615c8f9190615d18565b5090565b828054828255906000526020600020908101928215615ce2579160200282015b82811115615ce1578251829080519060200190615cd1929190615a6f565b5091602001919060010190615cb3565b5b509050615cef9190615d5b565b5090565b615d1591905b80821115615d11576000816000905550600101615cf9565b5090565b90565b615d5891905b80821115615d5457600081816101000a81549073ffffffffffffffffffffffffffffffffffffffff021916905550600101615d1e565b5090565b90565b615d8491905b80821115615d805760008181615d779190615d87565b50600101615d61565b5090565b90565b50805460018160011615610100020316600290046000825580601f10615dad5750615dcc565b601f016020900490600052602060002090810190615dcb9190615cf3565b5b5056fea165627a7a72305820559aedd06171f58e3d984841242c1655cfe02d1547f0f890bc8cbf18b37f01050029",
  "source": "pragma solidity ^0.5.0;\n\nimport './AccessRestricted.sol';\nimport './FiatContract.sol';\n\ncontract Patenting is AccessRestricted {\n\n    // TODO: add text to require\n\n    uint public depositPrice;\n\n    enum RequestStatus {NotRequested, Pending, Rejected, Cancelled, Accepted}\n\n    /* Struct for request */\n    struct Request {\n        RequestStatus status;\n        uint8 acceptedLicence;\n        uint8 requestedLicence;\n        uint deposit;\n        string email;\n        string encryptionKey;\n        string encryptedIpfsKey;\n    }\n\n    // mapping(address => string[]) requestedPatents; // address to requested patentIDs\n\n    /* Struct for patent */\n    struct Patent {\n        string name;\n        address owner;\n        uint timestamp; // uint64\n        string ipfs;\n        uint8 maxLicence;\n        uint[] licencePrices;\n        bool deleted;\n        address[] buyers;\n        mapping(address => Request) requests;\n    }\n\n    string[] public patentIDs; // patent hashes\n    mapping(string => Patent) private patents; // patent ID (hash) to Patent\n\n    /* Struct for user account */\n    struct User {\n        string name;\n        string email;\n        uint createdAt;\n        string[] ownedPatentIDs;\n    }\n\n    address[] public userIDs; // user addresses\n    mapping(address => User) private users; // user ID (address) to User\n\n    // TODO: add _patentID and licences in events\n\n    event NewRequest(\n        string _ownerMail,\n        string _patentName,\n        address _rentee\n    );\n\n    event RequestResponse(\n        string _requesterEmail,\n        string _patentName,\n        bool _accepted\n    );\n\n    // FiatContract fiat;\n\n    /* Constructor of the contract\n    * {param} uint : The price for depositing a pattern in Wei\n    */\n    constructor(uint _depositPrice, address _fiatContract) public {\n        // fiat = FiatContract(_fiatContract);\n        depositPrice = _depositPrice;\n    }\n\n    /*Allows the owner to withdraw the remaining funds*/\n    function withdrawFunds() public onlyOwner {\n        owner.transfer(address(this).balance);\n    }\n\n    function getEthPrice(uint _dollars) public view returns (uint) {\n        // return fiat.USD(0) * 100 * _dollars;\n        return _dollars / 130;\n    }\n\n    /* ========================================= USER MANAGEMENT FUNCTIONS ======================================== */\n\n    /* Function to register a new user */\n    function registerAccount(string memory _name, string memory _email) public {\n        require(!hasAccount(msg.sender));\n        users[msg.sender] = User(_name, _email, now, new string[](0));\n        userIDs.push(msg.sender);\n        // emit newAccount\n    }\n\n    /* Function to modify the user information */\n    function modifyAccount(string memory _newName, string memory _newEmail) public {\n        require(hasAccount(msg.sender));\n        User storage u = users[msg.sender];\n        u.name = _newName;\n        u.email = _newEmail;\n    }\n\n    /* ======================================== PATENT MANAGEMENT FUNCTIONS ======================================= */\n\n    /* Function to deposit a patent\n    * {params} the patent parameters\n    * {costs} the price of a patent\n    */\n    function depositPatent(string memory _patentName, string memory _patentHash, uint8 _maxLicence, uint[] memory _licencePrices, string memory _ipfs) public payable {\n        require(hasAccount(msg.sender) && !isRegistered(_patentHash) && msg.value >= getEthPrice(depositPrice) && _licencePrices.length == _maxLicence);\n        patents[_patentHash] = Patent(_patentName, msg.sender, now, _ipfs, _maxLicence, _licencePrices, false, new address[](0));\n        patentIDs.push(_patentHash);\n        User storage u = users[msg.sender];\n        u.ownedPatentIDs.push(_patentHash);\n        // emit event\n    }\n\n    /* Function to modify the licences and prices of a patent */\n    function modifyPatent(string memory _patentID, string memory _newName, uint8 _newMaxLicence, uint[] memory _newLicencePrices) public {\n        require(isRegistered(_patentID) && isOwner(_patentID, msg.sender));\n        Patent storage p = patents[_patentID];\n        p.name = _newName;\n        p.maxLicence = _newMaxLicence;\n        p.licencePrices = _newLicencePrices;\n    }\n\n    /* delete or undelete a patent (i.e. set its visibility wrt other users) */\n    function setVisibility(string memory _patentID) public {\n        require(isRegistered(_patentID) && isOwner(_patentID, msg.sender));\n        Patent storage p = patents[_patentID];\n        p.deleted = !p.deleted;\n    }\n\n    /* ======================================== REQUEST MANAGEMENT FUNCTIONS ======================================= */\n\n    /* Function to request access to a patent\n    * {params} _patentName : name of patent\n    *          _requestedLicence : licence requested for the patent\n    *          _encryptionKey : key to encrypt AES key with (key exchange protocol)\n    * {costs} price of the patent : will be frozen until request is accepted, rejected, or cancelled\n    */\n    function requestAccess(string memory _patentID, uint8 _requestedLicence, string memory _encryptionKey, string memory _email) public payable {\n        require(isRegistered(_patentID) && canRequest(_patentID, _requestedLicence, msg.sender));\n        // require patent has not already been requested\n        require(patents[_patentID].requests[msg.sender].status == RequestStatus.NotRequested);\n        uint ethPrice = getEthPrice(getPrice(_patentID, _requestedLicence));\n        require(msg.value >= ethPrice);\n        // requestedPatents[msg.sender].push(_patentID);\n        Patent storage p = patents[_patentID];\n        p.buyers.push(msg.sender);\n        p.requests[msg.sender] = Request(RequestStatus.Pending, 0, _requestedLicence, ethPrice, _email, _encryptionKey, \"\");\n        emit NewRequest(getOwnerEmail(_patentID), patents[_patentID].name, msg.sender); // put licence in event\n    }\n\n    /* Resend a request for a patent (either to upgrade licence for an accepted request or\n    *  to request access for a previously rejected or cancelled request)\n    */\n    function resendRequest(string memory _patentID, uint8 _requestedLicence) public payable {\n        require(isRegistered(_patentID) && canRequest(_patentID, _requestedLicence, msg.sender));\n        // Ensure patent has already been requested\n        require(patents[_patentID].requests[msg.sender].status != RequestStatus.NotRequested);\n        uint price = getPrice(_patentID, _requestedLicence);\n        uint userLicence = getAcceptedLicence(_patentID, msg.sender);\n        if (userLicence > 0) {\n            // just pay the difference if the user has already access to a licence\n            price -= getPrice(_patentID, userLicence);\n        }\n        uint ethPrice = getEthPrice(price);\n        require(msg.value >= ethPrice);\n        Request storage r = patents[_patentID].requests[msg.sender];\n        r.status = RequestStatus.Pending;\n        r.requestedLicence = _requestedLicence;\n        r.deposit = ethPrice;\n        // emit NewUpgradeRequest(getOwnerEmail(_patentID), patents[_patentID].name, _newRequestedLicence, msg.sender);\n    }\n\n    /* Function to accept a request\n    * {params} _patentID : id of patent\n    *          _user : user to give access to (must have requested)\n    *   Transfers the amount to the patent owner\n    */\n    function acceptRequest(string memory _patentID, address _user) public {\n        require(isRegistered(_patentID) && isOwner(_patentID, msg.sender) && isPending(_patentID, _user));\n        Request storage r = patents[_patentID].requests[_user];\n        require(r.deposit >= 0);\n        msg.sender.transfer(r.deposit);\n        r.deposit = 0;\n        r.status = RequestStatus.Accepted;\n        r.acceptedLicence = r.requestedLicence;\n        emit RequestResponse(r.email, patents[_patentID].name, true); // put licence in event\n    }\n\n    /* Function to grant access to a user\n    * {params} _patentID : id of patent\n    *          _user : user to give access to (must have requested)\n    *          _encryptedIpfsKey : encrypted AES key to decrypt file on ipfs\n    *   accept the pending request and gives the key to the requester\n    */\n    function grantAccess(string memory _patentID, address _user, string memory _encryptedIpfsKey) public {\n        acceptRequest(_patentID, _user);\n        Request storage r = patents[_patentID].requests[_user];\n        r.encryptedIpfsKey = _encryptedIpfsKey;\n    }\n\n    /* Function to reject access to a patent or a licence upgrade\n    * {params} : Same as above\n    * Refunds the amount to the user\n    */\n    function rejectRequest(string memory _patentID, address payable _user) public {\n        require(isRegistered(_patentID) && isOwner(_patentID, msg.sender) && isPending(_patentID, _user));\n        Request storage r = patents[_patentID].requests[_user];\n        require(r.deposit >= 0);\n        // Refund back to user\n        _user.transfer(r.deposit);\n        r.deposit = 0;\n        // if user already had access (i.e. asked for upgrade), just go back to previously accepted licence, otherwise reject\n        if (getAcceptedLicence(_patentID, _user) > 0) {\n            r.status = RequestStatus.Accepted;\n        } else {\n            r.status = RequestStatus.Rejected;\n        }\n        emit RequestResponse(r.email, patents[_patentID].name, false); // Put licence in event\n    }\n\n    /* Function that cancels a request (can only be called by user)\n    * {params} : _patentName : name of patent\n    */\n    function cancelRequest(string memory _patentID) public {\n        require(isRegistered(_patentID) && isPending(_patentID, msg.sender));\n        Request storage r = patents[_patentID].requests[msg.sender];\n        require(r.deposit >= 0);\n        // Refund back to user\n        msg.sender.transfer(r.deposit);\n        r.deposit = 0;\n        if (getAcceptedLicence(_patentID, msg.sender) > 0) {\n            r.status = RequestStatus.Accepted;\n        } else {\n            r.status = RequestStatus.Cancelled;\n        }\n    }\n\n    /* ============================== View functions that do not require transactions ============================== */\n\n\n    /*Returns number of deposited patents*/\n    function patentCount() public view returns (uint){\n        return patentIDs.length;\n    }\n\n    /*Returns number of registered users*/\n    function userCount() public view returns (uint){\n        return userIDs.length;\n    }\n\n    /*Returns true if the given account can request the given patent*/\n    function canRequest(string memory _patentID, uint _requestedLicence, address _user) public view returns (bool){\n        return !isDeleted(_patentID) && !isPending(_patentID, _user) && !isOwner(_patentID, _user)\n            && _requestedLicence > getAcceptedLicence(_patentID, _user) && _requestedLicence <= getMaxLicence(_patentID);\n    }\n\n    /*Returns the status of the request made for the given patent by the given account*/\n    function getRequestStatus(string memory _patentID, address _user) public view returns (RequestStatus){\n        return patents[_patentID].requests[_user].status;\n    }\n\n    /* Returns the requested licence of the given patent for the given account */\n    function getRequestedLicence(string memory _patentID, address _user) public view returns (uint){\n        return patents[_patentID].requests[_user].requestedLicence;\n    }\n\n    /* Returns the accepted licence of the given patent for the given account */\n    function getAcceptedLicence(string memory _patentID, address _user) public view returns (uint){\n        return patents[_patentID].requests[_user].acceptedLicence;\n    }\n\n    /* Returns the maximum licence to be requested of the given patent */\n    function getMaxLicence(string memory _patentID) public view returns (uint){\n        return patents[_patentID].maxLicence;\n    }\n\n    /*Returns true of the given account has a pending request on the given patent*/\n    function isPending(string memory _patentID, address _user) public view returns (bool){\n        return patents[_patentID].requests[_user].status == RequestStatus.Pending;\n    }\n\n    /*Verifies that the given address has been accepted for the given patent*/\n    function isAccepted(string memory _patentID, address _user) public view returns (bool){\n        return patents[_patentID].requests[_user].status == RequestStatus.Accepted;\n    }\n\n    /*Returns true if account is owner of given patent*/\n    function isOwner(string memory _patentID, address _user) public view returns (bool){\n        return patents[_patentID].owner == _user;\n    }\n\n    /*Returns time-stamp of the Patent*/\n    function getTimeStamp(string memory _patentID) public view returns (uint){\n        return patents[_patentID].timestamp;\n    }\n\n    /*Returns the human readable name of the patent*/\n    function getPatentName(string memory _patentID) public view returns (string memory){\n        return patents[_patentID].name;\n    }\n\n    /*Returns patent's owner*/\n    function getPatentOwner(string memory _patentID) public view returns (address) {\n        return patents[_patentID].owner;\n    }\n\n    /*Returns the price of a patent for a given licence*/\n    function getPrice(string memory _patentID, uint _licence) public view returns (uint) {\n        // index by licence-1 cause licence 0 price not stored in licence prices since free\n        return patents[_patentID].licencePrices[_licence-1];\n    }\n\n    /*Returns the price of a patent*/\n    function getPrices(string memory _patentID) public view returns (uint[] memory) {\n        return patents[_patentID].licencePrices;\n    }\n\n    /*Returns the number of requests for the given patent*/\n    function getNumRequests(string memory _patentID) public view returns (uint){\n        return patents[_patentID].buyers.length;\n    }\n\n    /*Returns the address of the buyer at _index  (Used for iterating)*/\n    function getBuyers(string memory _patentID, uint _index) public view returns (address){\n        return patents[_patentID].buyers[_index];\n    }\n\n    /*Returns the address of the buyer at _index  (Used for iterating)*/\n    /* function getNumRequestedPatents() public view returns (uint){\n        return requestedPatents[msg.sender].length;\n    } */\n\n    /*Returns the address of the buyer at _index  (Used for iterating)*/\n    /* function getRequestedPatents(uint _index) public view returns (string memory){\n        return requestedPatents[msg.sender][_index];\n    }*/\n\n    /*Returns the requester's public key*/\n    function getEncryptionKey(string memory _patentID, address _user) public view returns (string memory){\n        require(isOwner(_patentID, msg.sender));\n        return patents[_patentID].requests[_user].encryptionKey;\n    }\n\n    /*Returns the encrypted IPFS encryption key*/\n    function getEncryptedIpfsKey(string memory _patentID) public view returns (string memory){\n        require(isAccepted(_patentID, msg.sender));\n        return patents[_patentID].requests[msg.sender].encryptedIpfsKey;\n    }\n\n    /*Returns the email address of the _patentID's owner*/\n    function getOwnerEmail(string memory _patentID) public view returns (string memory) {\n        return users[patents[_patentID].owner].email;\n    }\n\n    /*Returns the name of the _patentID's owner*/\n    function getOwnerName(string memory _patentID) public view returns (string memory) {\n        return users[patents[_patentID].owner].name;\n    }\n\n    /*Returns the IPFS location of the patent*/\n    function getPatentLocation(string memory _patentID) public view returns (string memory) {\n        return patents[_patentID].ipfs;\n    }\n\n    /*Returns true if the given patent ID has already been registered*/\n    function isRegistered(string memory _patentID) public view returns (bool) {\n        return patents[_patentID].timestamp != 0;\n    }\n\n    /*Returns true if the patent has been deleted*/\n    function isDeleted(string memory _patentID) public view returns (bool) {\n        return patents[_patentID].deleted;\n    }\n\n    /*Returns true if the given account has already been registered*/\n    function hasAccount(address _user) public view returns (bool) {\n        return users[_user].createdAt != 0;\n    }\n\n    /*Returns the number of patents owned by the user*/\n    function getNumPatents(address _user) public view returns (uint){\n        return users[_user].ownedPatentIDs.length;\n    }\n\n    /*Returns the patent of the _user at index i (Used for iterating)*/\n    function getOwnedPatentIDs(address _user, uint _index) public view returns (string memory){\n        return users[_user].ownedPatentIDs[_index];\n    }\n}\n",
  "sourcePath": "/Users/axel/Developer/DNAM/Web-Applications/react-app/contracts/Patenting.sol",
  "compiler": {
    "name": "solc",
    "version": "0.5.0+commit.1d4f565a.Emscripten.clang"
  },
  "schemaVersion": "3.0.2",
  "updatedAt": "2019-05-29T08:07:02.499Z",
  "devdoc": {
    "methods": {}
  },
  "userdoc": {
    "methods": {}
  }
}