{
  "contractName": "Patenting",
  "abi": [
    {
      "constant": true,
      "inputs": [],
      "name": "patentPrice",
      "outputs": [
        {
          "name": "",
          "type": "uint256"
        }
      ],
      "payable": false,
      "stateMutability": "view",
      "type": "function",
      "signature": "0x0638c22c"
    },
    {
      "constant": true,
      "inputs": [
        {
          "name": "",
          "type": "uint256"
        }
      ],
      "name": "patentNames",
      "outputs": [
        {
          "name": "",
          "type": "string"
        }
      ],
      "payable": false,
      "stateMutability": "view",
      "type": "function",
      "signature": "0x41e14449"
    },
    {
      "constant": true,
      "inputs": [],
      "name": "owner",
      "outputs": [
        {
          "name": "",
          "type": "address"
        }
      ],
      "payable": false,
      "stateMutability": "view",
      "type": "function",
      "signature": "0x8da5cb5b"
    },
    {
      "constant": false,
      "inputs": [
        {
          "name": "_newOwner",
          "type": "address"
        }
      ],
      "name": "changeOwner",
      "outputs": [],
      "payable": false,
      "stateMutability": "nonpayable",
      "type": "function",
      "signature": "0xa6f9dae1"
    },
    {
      "constant": true,
      "inputs": [],
      "name": "patentCount",
      "outputs": [
        {
          "name": "",
          "type": "uint256"
        }
      ],
      "payable": false,
      "stateMutability": "view",
      "type": "function",
      "signature": "0xb084c841"
    },
    {
      "inputs": [
        {
          "name": "_patentPrice",
          "type": "uint256"
        },
        {
          "name": "_fiatContract",
          "type": "address"
        }
      ],
      "payable": false,
      "stateMutability": "nonpayable",
      "type": "constructor",
      "signature": "constructor"
    },
    {
      "anonymous": false,
      "inputs": [
        {
          "indexed": false,
          "name": "_ownerMail",
          "type": "string"
        },
        {
          "indexed": false,
          "name": "_patentName",
          "type": "string"
        },
        {
          "indexed": false,
          "name": "_rentee",
          "type": "address"
        }
      ],
      "name": "NewRequest",
      "type": "event",
      "signature": "0x7e558bb9898d8d17809158db6c967a8ea47d93a15a5d359a1186352a086cfb7c"
    },
    {
      "anonymous": false,
      "inputs": [
        {
          "indexed": false,
          "name": "_requesterEmail",
          "type": "string"
        },
        {
          "indexed": false,
          "name": "_patentName",
          "type": "string"
        },
        {
          "indexed": false,
          "name": "_accepted",
          "type": "bool"
        }
      ],
      "name": "RequestResponse",
      "type": "event",
      "signature": "0x87deb0bf3260371a3845769d523869b17a51dab5e82dd1d7db896b489fe42f57"
    },
    {
      "anonymous": false,
      "inputs": [
        {
          "indexed": false,
          "name": "modified",
          "type": "bool"
        }
      ],
      "name": "modifiedPatent",
      "type": "event",
      "signature": "0xe10483482ca19ed372c6d708835cf1799c5fcec3983c043538b84ed2d5cdb2e4"
    },
    {
      "constant": true,
      "inputs": [
        {
          "name": "_dollars",
          "type": "uint256"
        }
      ],
      "name": "getEthPrice",
      "outputs": [
        {
          "name": "",
          "type": "uint256"
        }
      ],
      "payable": false,
      "stateMutability": "view",
      "type": "function",
      "signature": "0x870d365d"
    },
    {
      "constant": false,
      "inputs": [
        {
          "name": "_patentName",
          "type": "string"
        },
        {
          "name": "_patentHash",
          "type": "string"
        },
        {
          "name": "_price",
          "type": "uint256"
        },
        {
          "name": "_ipfs",
          "type": "string"
        },
        {
          "name": "_email",
          "type": "string"
        }
      ],
      "name": "depositPatent",
      "outputs": [],
      "payable": true,
      "stateMutability": "payable",
      "type": "function",
      "signature": "0xeb3e8bf8"
    },
    {
      "constant": false,
      "inputs": [
        {
          "name": "_patentName",
          "type": "string"
        },
        {
          "name": "_newIpfs",
          "type": "string"
        }
      ],
      "name": "setIpfsLocation",
      "outputs": [],
      "payable": false,
      "stateMutability": "nonpayable",
      "type": "function",
      "signature": "0x36359e11"
    },
    {
      "constant": false,
      "inputs": [
        {
          "name": "_patentName",
          "type": "string"
        },
        {
          "name": "_encryptionKey",
          "type": "string"
        },
        {
          "name": "_email",
          "type": "string"
        }
      ],
      "name": "requestAccess",
      "outputs": [],
      "payable": true,
      "stateMutability": "payable",
      "type": "function",
      "signature": "0xdb6a88ec"
    },
    {
      "constant": false,
      "inputs": [
        {
          "name": "_patentName",
          "type": "string"
        }
      ],
      "name": "resendRequest",
      "outputs": [],
      "payable": true,
      "stateMutability": "payable",
      "type": "function",
      "signature": "0xfd11ff49"
    },
    {
      "constant": false,
      "inputs": [
        {
          "name": "_patentName",
          "type": "string"
        },
        {
          "name": "_user",
          "type": "address"
        },
        {
          "name": "_encryptedIpfsKey",
          "type": "string"
        }
      ],
      "name": "grantAccess",
      "outputs": [],
      "payable": false,
      "stateMutability": "nonpayable",
      "type": "function",
      "signature": "0x5d98dde8"
    },
    {
      "constant": false,
      "inputs": [
        {
          "name": "_patentName",
          "type": "string"
        },
        {
          "name": "_user",
          "type": "address"
        }
      ],
      "name": "rejectAccess",
      "outputs": [],
      "payable": false,
      "stateMutability": "nonpayable",
      "type": "function",
      "signature": "0xa6966e25"
    },
    {
      "constant": false,
      "inputs": [
        {
          "name": "_patentName",
          "type": "string"
        }
      ],
      "name": "cancelRequest",
      "outputs": [],
      "payable": false,
      "stateMutability": "nonpayable",
      "type": "function",
      "signature": "0xe489445d"
    },
    {
      "constant": false,
      "inputs": [],
      "name": "withdrawFunds",
      "outputs": [],
      "payable": false,
      "stateMutability": "nonpayable",
      "type": "function",
      "signature": "0x24600fc3"
    },
    {
      "constant": true,
      "inputs": [
        {
          "name": "_patentName",
          "type": "string"
        },
        {
          "name": "_account",
          "type": "address"
        }
      ],
      "name": "canRequest",
      "outputs": [
        {
          "name": "",
          "type": "bool"
        }
      ],
      "payable": false,
      "stateMutability": "view",
      "type": "function",
      "signature": "0x2294de45"
    },
    {
      "constant": true,
      "inputs": [
        {
          "name": "_patentName",
          "type": "string"
        },
        {
          "name": "_account",
          "type": "address"
        }
      ],
      "name": "getRequestStatus",
      "outputs": [
        {
          "name": "",
          "type": "uint8"
        }
      ],
      "payable": false,
      "stateMutability": "view",
      "type": "function",
      "signature": "0xe2f99c7e"
    },
    {
      "constant": true,
      "inputs": [
        {
          "name": "_patentName",
          "type": "string"
        },
        {
          "name": "_account",
          "type": "address"
        }
      ],
      "name": "isNotRequested",
      "outputs": [
        {
          "name": "",
          "type": "bool"
        }
      ],
      "payable": false,
      "stateMutability": "view",
      "type": "function",
      "signature": "0x47ce3d6f"
    },
    {
      "constant": true,
      "inputs": [
        {
          "name": "_patentName",
          "type": "string"
        },
        {
          "name": "_account",
          "type": "address"
        }
      ],
      "name": "isPending",
      "outputs": [
        {
          "name": "",
          "type": "bool"
        }
      ],
      "payable": false,
      "stateMutability": "view",
      "type": "function",
      "signature": "0xbe3e0722"
    },
    {
      "constant": true,
      "inputs": [
        {
          "name": "_patentName",
          "type": "string"
        },
        {
          "name": "_account",
          "type": "address"
        }
      ],
      "name": "isAccepted",
      "outputs": [
        {
          "name": "",
          "type": "bool"
        }
      ],
      "payable": false,
      "stateMutability": "view",
      "type": "function",
      "signature": "0x65f8695e"
    },
    {
      "constant": true,
      "inputs": [
        {
          "name": "_patentName",
          "type": "string"
        },
        {
          "name": "_account",
          "type": "address"
        }
      ],
      "name": "isOwner",
      "outputs": [
        {
          "name": "",
          "type": "bool"
        }
      ],
      "payable": false,
      "stateMutability": "view",
      "type": "function",
      "signature": "0xbde1eee7"
    },
    {
      "constant": true,
      "inputs": [
        {
          "name": "_patentName",
          "type": "string"
        }
      ],
      "name": "getTimeStamp",
      "outputs": [
        {
          "name": "",
          "type": "uint256"
        }
      ],
      "payable": false,
      "stateMutability": "view",
      "type": "function",
      "signature": "0xfa52c7cc"
    },
    {
      "constant": true,
      "inputs": [
        {
          "name": "_patentName",
          "type": "string"
        }
      ],
      "name": "getPatentHash",
      "outputs": [
        {
          "name": "",
          "type": "string"
        }
      ],
      "payable": false,
      "stateMutability": "view",
      "type": "function",
      "signature": "0x16720cc2"
    },
    {
      "constant": true,
      "inputs": [
        {
          "name": "_patentName",
          "type": "string"
        }
      ],
      "name": "getPatentOwner",
      "outputs": [
        {
          "name": "",
          "type": "address"
        }
      ],
      "payable": false,
      "stateMutability": "view",
      "type": "function",
      "signature": "0x99d2618e"
    },
    {
      "constant": true,
      "inputs": [
        {
          "name": "_patentName",
          "type": "string"
        }
      ],
      "name": "getPrice",
      "outputs": [
        {
          "name": "",
          "type": "uint256"
        }
      ],
      "payable": false,
      "stateMutability": "view",
      "type": "function",
      "signature": "0x524f3889"
    },
    {
      "constant": true,
      "inputs": [
        {
          "name": "_patentName",
          "type": "string"
        }
      ],
      "name": "getNumRequests",
      "outputs": [
        {
          "name": "",
          "type": "uint256"
        }
      ],
      "payable": false,
      "stateMutability": "view",
      "type": "function",
      "signature": "0xe0cf4cc9"
    },
    {
      "constant": true,
      "inputs": [
        {
          "name": "_patentName",
          "type": "string"
        },
        {
          "name": "_index",
          "type": "uint256"
        }
      ],
      "name": "getBuyers",
      "outputs": [
        {
          "name": "",
          "type": "address"
        }
      ],
      "payable": false,
      "stateMutability": "view",
      "type": "function",
      "signature": "0x6038c638"
    },
    {
      "constant": true,
      "inputs": [
        {
          "name": "_patentName",
          "type": "string"
        },
        {
          "name": "_user",
          "type": "address"
        }
      ],
      "name": "getEncryptionKey",
      "outputs": [
        {
          "name": "",
          "type": "string"
        }
      ],
      "payable": false,
      "stateMutability": "view",
      "type": "function",
      "signature": "0xad8c9dd6"
    },
    {
      "constant": true,
      "inputs": [
        {
          "name": "_patentName",
          "type": "string"
        }
      ],
      "name": "getEncryptedIpfsKey",
      "outputs": [
        {
          "name": "",
          "type": "string"
        }
      ],
      "payable": false,
      "stateMutability": "view",
      "type": "function",
      "signature": "0xa302e8cd"
    },
    {
      "constant": true,
      "inputs": [
        {
          "name": "_patentName",
          "type": "string"
        }
      ],
      "name": "getOwnerEmail",
      "outputs": [
        {
          "name": "",
          "type": "string"
        }
      ],
      "payable": false,
      "stateMutability": "view",
      "type": "function",
      "signature": "0x68b2210d"
    },
    {
      "constant": true,
      "inputs": [
        {
          "name": "_patentName",
          "type": "string"
        }
      ],
      "name": "getPatentLocation",
      "outputs": [
        {
          "name": "",
          "type": "string"
        }
      ],
      "payable": false,
      "stateMutability": "view",
      "type": "function",
      "signature": "0x607f9e87"
    }
  ],
  "bytecode": "0x6080604052336000806101000a81548173ffffffffffffffffffffffffffffffffffffffff021916908373ffffffffffffffffffffffffffffffffffffffff16021790555034801561005057600080fd5b50604051604080620043158339810180604052604081101561007157600080fd5b81019080805190602001909291908051906020019092919050505081600181905550505061427080620000a56000396000f3fe608060405260043610610180576000357c0100000000000000000000000000000000000000000000000000000000900463ffffffff1680630638c22c1461018557806316720cc2146101b05780632294de45146102f157806324600fc3146103f157806336359e111461040857806341e144491461056757806347ce3d6f1461061b578063524f38891461071b5780635d98dde8146107f75780636038c63814610976578063607f9e8714610a8857806365f8695e14610bc957806368b2210d14610cc9578063870d365d14610e0a5780638da5cb5b14610e5957806399d2618e14610eb0578063a302e8cd14610fb8578063a6966e25146110f9578063a6f9dae1146111e1578063ad8c9dd614611232578063b084c84114611393578063bde1eee7146113be578063be3e0722146114be578063db6a88ec146115be578063e0cf4cc9146117a7578063e2f99c7e14611883578063e489445d1461198d578063eb3e8bf814611a55578063fa52c7cc14611cdf578063fd11ff4914611dbb575b600080fd5b34801561019157600080fd5b5061019a611e76565b6040518082815260200191505060405180910390f35b3480156101bc57600080fd5b50610276600480360360208110156101d357600080fd5b81019080803590602001906401000000008111156101f057600080fd5b82018360208201111561020257600080fd5b8035906020019184600183028401116401000000008311171561022457600080fd5b91908080601f016020809104026020016040519081016040528093929190818152602001838380828437600081840152601f19601f820116905080830192505050505050509192919290505050611e7c565b6040518080602001828103825283818151815260200191508051906020019080838360005b838110156102b657808201518184015260208101905061029b565b50505050905090810190601f1680156102e35780820380516001836020036101000a031916815260200191505b509250505060405180910390f35b3480156102fd57600080fd5b506103d76004803603604081101561031457600080fd5b810190808035906020019064010000000081111561033157600080fd5b82018360208201111561034357600080fd5b8035906020019184600183028401116401000000008311171561036557600080fd5b91908080601f016020809104026020016040519081016040528093929190818152602001838380828437600081840152601f19601f820116905080830192505050505050509192919290803573ffffffffffffffffffffffffffffffffffffffff169060200190929190505050611f8c565b604051808215151515815260200191505060405180910390f35b3480156103fd57600080fd5b50610406611fc3565b005b34801561041457600080fd5b506105656004803603604081101561042b57600080fd5b810190808035906020019064010000000081111561044857600080fd5b82018360208201111561045a57600080fd5b8035906020019184600183028401116401000000008311171561047c57600080fd5b91908080601f016020809104026020016040519081016040528093929190818152602001838380828437600081840152601f19601f820116905080830192505050505050509192919290803590602001906401000000008111156104df57600080fd5b8201836020820111156104f157600080fd5b8035906020019184600183028401116401000000008311171561051357600080fd5b91908080601f016020809104026020016040519081016040528093929190818152602001838380828437600081840152601f19601f82011690508083019250505050505050919291929050505061209f565b005b34801561057357600080fd5b506105a06004803603602081101561058a57600080fd5b81019080803590602001909291905050506121bc565b6040518080602001828103825283818151815260200191508051906020019080838360005b838110156105e05780820151818401526020810190506105c5565b50505050905090810190601f16801561060d5780820380516001836020036101000a031916815260200191505b509250505060405180910390f35b34801561062757600080fd5b506107016004803603604081101561063e57600080fd5b810190808035906020019064010000000081111561065b57600080fd5b82018360208201111561066d57600080fd5b8035906020019184600183028401116401000000008311171561068f57600080fd5b91908080601f016020809104026020016040519081016040528093929190818152602001838380828437600081840152601f19601f820116905080830192505050505050509192919290803573ffffffffffffffffffffffffffffffffffffffff169060200190929190505050612277565b604051808215151515815260200191505060405180910390f35b34801561072757600080fd5b506107e16004803603602081101561073e57600080fd5b810190808035906020019064010000000081111561075b57600080fd5b82018360208201111561076d57600080fd5b8035906020019184600183028401116401000000008311171561078f57600080fd5b91908080601f016020809104026020016040519081016040528093929190818152602001838380828437600081840152601f19601f820116905080830192505050505050509192919290505050612355565b6040518082815260200191505060405180910390f35b34801561080357600080fd5b506109746004803603606081101561081a57600080fd5b810190808035906020019064010000000081111561083757600080fd5b82018360208201111561084957600080fd5b8035906020019184600183028401116401000000008311171561086b57600080fd5b91908080601f016020809104026020016040519081016040528093929190818152602001838380828437600081840152601f19601f820116905080830192505050505050509192919290803573ffffffffffffffffffffffffffffffffffffffff169060200190929190803590602001906401000000008111156108ee57600080fd5b82018360208201111561090057600080fd5b8035906020019184600183028401116401000000008311171561092257600080fd5b91908080601f016020809104026020016040519081016040528093929190818152602001838380828437600081840152601f19601f8201169050808301925050505050505091929192905050506123cd565b005b34801561098257600080fd5b50610a466004803603604081101561099957600080fd5b81019080803590602001906401000000008111156109b657600080fd5b8201836020820111156109c857600080fd5b803590602001918460018302840111640100000000831117156109ea57600080fd5b91908080601f016020809104026020016040519081016040528093929190818152602001838380828437600081840152601f19601f82011690508083019250505050505050919291929080359060200190929190505050612702565b604051808273ffffffffffffffffffffffffffffffffffffffff1673ffffffffffffffffffffffffffffffffffffffff16815260200191505060405180910390f35b348015610a9457600080fd5b50610b4e60048036036020811015610aab57600080fd5b8101908080359060200190640100000000811115610ac857600080fd5b820183602082011115610ada57600080fd5b80359060200191846001830284011164010000000083111715610afc57600080fd5b91908080601f016020809104026020016040519081016040528093929190818152602001838380828437600081840152601f19601f8201169050808301925050505050505091929192905050506127ac565b6040518080602001828103825283818151815260200191508051906020019080838360005b83811015610b8e578082015181840152602081019050610b73565b50505050905090810190601f168015610bbb5780820380516001836020036101000a031916815260200191505b509250505060405180910390f35b348015610bd557600080fd5b50610caf60048036036040811015610bec57600080fd5b8101908080359060200190640100000000811115610c0957600080fd5b820183602082011115610c1b57600080fd5b80359060200191846001830284011164010000000083111715610c3d57600080fd5b91908080601f016020809104026020016040519081016040528093929190818152602001838380828437600081840152601f19601f820116905080830192505050505050509192919290803573ffffffffffffffffffffffffffffffffffffffff1690602001909291905050506128bc565b604051808215151515815260200191505060405180910390f35b348015610cd557600080fd5b50610d8f60048036036020811015610cec57600080fd5b8101908080359060200190640100000000811115610d0957600080fd5b820183602082011115610d1b57600080fd5b80359060200191846001830284011164010000000083111715610d3d57600080fd5b91908080601f016020809104026020016040519081016040528093929190818152602001838380828437600081840152601f19601f82011690508083019250505050505050919291929050505061299a565b6040518080602001828103825283818151815260200191508051906020019080838360005b83811015610dcf578082015181840152602081019050610db4565b50505050905090810190601f168015610dfc5780820380516001836020036101000a031916815260200191505b509250505060405180910390f35b348015610e1657600080fd5b50610e4360048036036020811015610e2d57600080fd5b8101908080359060200190929190505050612aaa565b6040518082815260200191505060405180910390f35b348015610e6557600080fd5b50610e6e612ac0565b604051808273ffffffffffffffffffffffffffffffffffffffff1673ffffffffffffffffffffffffffffffffffffffff16815260200191505060405180910390f35b348015610ebc57600080fd5b50610f7660048036036020811015610ed357600080fd5b8101908080359060200190640100000000811115610ef057600080fd5b820183602082011115610f0257600080fd5b80359060200191846001830284011164010000000083111715610f2457600080fd5b91908080601f016020809104026020016040519081016040528093929190818152602001838380828437600081840152601f19601f820116905080830192505050505050509192919290505050612ae5565b604051808273ffffffffffffffffffffffffffffffffffffffff1673ffffffffffffffffffffffffffffffffffffffff16815260200191505060405180910390f35b348015610fc457600080fd5b5061107e60048036036020811015610fdb57600080fd5b8101908080359060200190640100000000811115610ff857600080fd5b82018360208201111561100a57600080fd5b8035906020019184600183028401116401000000008311171561102c57600080fd5b91908080601f016020809104026020016040519081016040528093929190818152602001838380828437600081840152601f19601f820116905080830192505050505050509192919290505050612b7d565b6040518080602001828103825283818151815260200191508051906020019080838360005b838110156110be5780820151818401526020810190506110a3565b50505050905090810190601f1680156110eb5780820380516001836020036101000a031916815260200191505b509250505060405180910390f35b34801561110557600080fd5b506111df6004803603604081101561111c57600080fd5b810190808035906020019064010000000081111561113957600080fd5b82018360208201111561114b57600080fd5b8035906020019184600183028401116401000000008311171561116d57600080fd5b91908080601f016020809104026020016040519081016040528093929190818152602001838380828437600081840152601f19601f820116905080830192505050505050509192919290803573ffffffffffffffffffffffffffffffffffffffff169060200190929190505050612ce2565b005b3480156111ed57600080fd5b506112306004803603602081101561120457600080fd5b81019080803573ffffffffffffffffffffffffffffffffffffffff169060200190929190505050612ffd565b005b34801561123e57600080fd5b506113186004803603604081101561125557600080fd5b810190808035906020019064010000000081111561127257600080fd5b82018360208201111561128457600080fd5b803590602001918460018302840111640100000000831117156112a657600080fd5b91908080601f016020809104026020016040519081016040528093929190818152602001838380828437600081840152601f19601f820116905080830192505050505050509192919290803573ffffffffffffffffffffffffffffffffffffffff16906020019092919050505061309b565b6040518080602001828103825283818151815260200191508051906020019080838360005b8381101561135857808201518184015260208101905061133d565b50505050905090810190601f1680156113855780820380516001836020036101000a031916815260200191505b509250505060405180910390f35b34801561139f57600080fd5b506113a86132b4565b6040518082815260200191505060405180910390f35b3480156113ca57600080fd5b506114a4600480360360408110156113e157600080fd5b81019080803590602001906401000000008111156113fe57600080fd5b82018360208201111561141057600080fd5b8035906020019184600183028401116401000000008311171561143257600080fd5b91908080601f016020809104026020016040519081016040528093929190818152602001838380828437600081840152601f19601f820116905080830192505050505050509192919290803573ffffffffffffffffffffffffffffffffffffffff1690602001909291905050506132ba565b604051808215151515815260200191505060405180910390f35b3480156114ca57600080fd5b506115a4600480360360408110156114e157600080fd5b81019080803590602001906401000000008111156114fe57600080fd5b82018360208201111561151057600080fd5b8035906020019184600183028401116401000000008311171561153257600080fd5b91908080601f016020809104026020016040519081016040528093929190818152602001838380828437600081840152601f19601f820116905080830192505050505050509192919290803573ffffffffffffffffffffffffffffffffffffffff1690602001909291905050506132fb565b604051808215151515815260200191505060405180910390f35b6117a5600480360360608110156115d457600080fd5b81019080803590602001906401000000008111156115f157600080fd5b82018360208201111561160357600080fd5b8035906020019184600183028401116401000000008311171561162557600080fd5b91908080601f016020809104026020016040519081016040528093929190818152602001838380828437600081840152601f19601f8201169050808301925050505050505091929192908035906020019064010000000081111561168857600080fd5b82018360208201111561169a57600080fd5b803590602001918460018302840111640100000000831117156116bc57600080fd5b91908080601f016020809104026020016040519081016040528093929190818152602001838380828437600081840152601f19601f8201169050808301925050505050505091929192908035906020019064010000000081111561171f57600080fd5b82018360208201111561173157600080fd5b8035906020019184600183028401116401000000008311171561175357600080fd5b91908080601f016020809104026020016040519081016040528093929190818152602001838380828437600081840152601f19601f8201169050808301925050505050505091929192905050506133da565b005b3480156117b357600080fd5b5061186d600480360360208110156117ca57600080fd5b81019080803590602001906401000000008111156117e757600080fd5b8201836020820111156117f957600080fd5b8035906020019184600183028401116401000000008311171561181b57600080fd5b91908080601f016020809104026020016040519081016040528093929190818152602001838380828437600081840152601f19601f820116905080830192505050505050509192919290505050613917565b6040518082815260200191505060405180910390f35b34801561188f57600080fd5b50611969600480360360408110156118a657600080fd5b81019080803590602001906401000000008111156118c357600080fd5b8201836020820111156118d557600080fd5b803590602001918460018302840111640100000000831117156118f757600080fd5b91908080601f016020809104026020016040519081016040528093929190818152602001838380828437600081840152601f19601f820116905080830192505050505050509192919290803573ffffffffffffffffffffffffffffffffffffffff16906020019092919050505061398f565b6040518082600481111561197957fe5b60ff16815260200191505060405180910390f35b34801561199957600080fd5b50611a53600480360360208110156119b057600080fd5b81019080803590602001906401000000008111156119cd57600080fd5b8201836020820111156119df57600080fd5b80359060200191846001830284011164010000000083111715611a0157600080fd5b91908080601f016020809104026020016040519081016040528093929190818152602001838380828437600081840152601f19601f820116905080830192505050505050509192919290505050613a55565b005b611cdd600480360360a0811015611a6b57600080fd5b8101908080359060200190640100000000811115611a8857600080fd5b820183602082011115611a9a57600080fd5b80359060200191846001830284011164010000000083111715611abc57600080fd5b91908080601f016020809104026020016040519081016040528093929190818152602001838380828437600081840152601f19601f82011690508083019250505050505050919291929080359060200190640100000000811115611b1f57600080fd5b820183602082011115611b3157600080fd5b80359060200191846001830284011164010000000083111715611b5357600080fd5b91908080601f016020809104026020016040519081016040528093929190818152602001838380828437600081840152601f19601f8201169050808301925050505050505091929192908035906020019092919080359060200190640100000000811115611bc057600080fd5b820183602082011115611bd257600080fd5b80359060200191846001830284011164010000000083111715611bf457600080fd5b91908080601f016020809104026020016040519081016040528093929190818152602001838380828437600081840152601f19601f82011690508083019250505050505050919291929080359060200190640100000000811115611c5757600080fd5b820183602082011115611c6957600080fd5b80359060200191846001830284011164010000000083111715611c8b57600080fd5b91908080601f016020809104026020016040519081016040528093929190818152602001838380828437600081840152601f19601f820116905080830192505050505050509192919290505050613c3a565b005b348015611ceb57600080fd5b50611da560048036036020811015611d0257600080fd5b8101908080359060200190640100000000811115611d1f57600080fd5b820183602082011115611d3157600080fd5b80359060200191846001830284011164010000000083111715611d5357600080fd5b91908080601f016020809104026020016040519081016040528093929190818152602001838380828437600081840152601f19601f820116905080830192505050505050509192919290505050613e9a565b6040518082815260200191505060405180910390f35b611e7460048036036020811015611dd157600080fd5b8101908080359060200190640100000000811115611dee57600080fd5b820183602082011115611e0057600080fd5b80359060200191846001830284011164010000000083111715611e2257600080fd5b91908080601f016020809104026020016040519081016040528093929190818152602001838380828437600081840152601f19601f820116905080830192505050505050509192919290505050613f12565b005b60015481565b60606004826040518082805190602001908083835b602083101515611eb65780518252602082019150602081019050602083039250611e91565b6001836020036101000a03801982511681845116808217855250505050505090500191505090815260200160405180910390206002018054600181600116156101000203166002900480601f016020809104026020016040519081016040528092919081815260200182805460018160011615610100020316600290048015611f805780601f10611f5557610100808354040283529160200191611f80565b820191906000526020600020905b815481529060010190602001808311611f6357829003601f168201915b50505050509050919050565b6000611f9883836132fb565b80611fa95750611fa883836128bc565b5b80611fba5750611fb983836132ba565b5b15905092915050565b6000809054906101000a900473ffffffffffffffffffffffffffffffffffffffff1673ffffffffffffffffffffffffffffffffffffffff163373ffffffffffffffffffffffffffffffffffffffff1614151561201e57600080fd5b6000809054906101000a900473ffffffffffffffffffffffffffffffffffffffff1673ffffffffffffffffffffffffffffffffffffffff166108fc3073ffffffffffffffffffffffffffffffffffffffff16319081150290604051600060405180830381858888f1935050505015801561209c573d6000803e3d6000fd5b50565b60006004836040518082805190602001908083835b6020831015156120d957805182526020820191506020810190506020830392506120b4565b6001836020036101000a03801982511681845116808217855250505050505090500191505090815260200160405180910390206001015414158015612124575061212382336132ba565b5b151561212f57600080fd5b60006004836040518082805190602001908083835b6020831015156121695780518252602082019150602081019050602083039250612144565b6001836020036101000a03801982511681845116808217855250505050505090500191505090815260200160405180910390209050818160040190805190602001906121b692919061411f565b50505050565b6003818154811015156121cb57fe5b906000526020600020016000915090508054600181600116156101000203166002900480601f01602080910402602001604051908101604052809291908181526020018280546001816001161561010002031660029004801561226f5780601f106122445761010080835404028352916020019161226f565b820191906000526020600020905b81548152906001019060200180831161225257829003601f168201915b505050505081565b600080600481111561228557fe5b6004846040518082805190602001908083835b6020831015156122bd5780518252602082019150602081019050602083039250612298565b6001836020036101000a038019825116818451168082178552505050505050905001915050908152602001604051809103902060080160008473ffffffffffffffffffffffffffffffffffffffff1673ffffffffffffffffffffffffffffffffffffffff16815260200190815260200160002060000160009054906101000a900460ff16600481111561234c57fe5b14905092915050565b60006004826040518082805190602001908083835b60208310151561238f578051825260208201915060208101905060208303925061236a565b6001836020036101000a0380198251168184511680821785525050505050509050019150509081526020016040518091039020600301549050919050565b60006004846040518082805190602001908083835b60208310151561240757805182526020820191506020810190506020830392506123e2565b6001836020036101000a03801982511681845116808217855250505050505090500191505090815260200160405180910390206001015414158015612452575061245183336132ba565b5b8015612464575061246383836132fb565b5b151561246f57600080fd5b60006004846040518082805190602001908083835b6020831015156124a95780518252602082019150602081019050602083039250612484565b6001836020036101000a038019825116818451168082178552505050505050905001915050908152602001604051809103902060080160008473ffffffffffffffffffffffffffffffffffffffff1673ffffffffffffffffffffffffffffffffffffffff1681526020019081526020016000209050600081600101541015151561253257600080fd5b3373ffffffffffffffffffffffffffffffffffffffff166108fc82600101549081150290604051600060405180830381858888f1935050505015801561257c573d6000803e3d6000fd5b506000816001018190555060048160000160006101000a81548160ff021916908360048111156125a857fe5b0217905550818160040190805190602001906125c592919061411f565b507f87deb0bf3260371a3845769d523869b17a51dab5e82dd1d7db896b489fe42f5781600201856001604051808060200180602001841515151581526020018381038352868181546001816001161561010002031660029004815260200191508054600181600116156101000203166002900480156126855780601f1061265a57610100808354040283529160200191612685565b820191906000526020600020905b81548152906001019060200180831161266857829003601f168201915b5050838103825285818151815260200191508051906020019080838360005b838110156126bf5780820151818401526020810190506126a4565b50505050905090810190601f1680156126ec5780820380516001836020036101000a031916815260200191505b509550505050505060405180910390a150505050565b60006004836040518082805190602001908083835b60208310151561273c5780518252602082019150602081019050602083039250612717565b6001836020036101000a0380198251168184511680821785525050505050509050019150509081526020016040518091039020600701600083815260200190815260200160002060009054906101000a900473ffffffffffffffffffffffffffffffffffffffff16905092915050565b60606004826040518082805190602001908083835b6020831015156127e657805182526020820191506020810190506020830392506127c1565b6001836020036101000a03801982511681845116808217855250505050505090500191505090815260200160405180910390206004018054600181600116156101000203166002900480601f0160208091040260200160405190810160405280929190818152602001828054600181600116156101000203166002900480156128b05780601f10612885576101008083540402835291602001916128b0565b820191906000526020600020905b81548152906001019060200180831161289357829003601f168201915b50505050509050919050565b60006004808111156128ca57fe5b6004846040518082805190602001908083835b60208310151561290257805182526020820191506020810190506020830392506128dd565b6001836020036101000a038019825116818451168082178552505050505050905001915050908152602001604051809103902060080160008473ffffffffffffffffffffffffffffffffffffffff1673ffffffffffffffffffffffffffffffffffffffff16815260200190815260200160002060000160009054906101000a900460ff16600481111561299157fe5b14905092915050565b60606004826040518082805190602001908083835b6020831015156129d457805182526020820191506020810190506020830392506129af565b6001836020036101000a03801982511681845116808217855250505050505090500191505090815260200160405180910390206005018054600181600116156101000203166002900480601f016020809104026020016040519081016040528092919081815260200182805460018160011615610100020316600290048015612a9e5780601f10612a7357610100808354040283529160200191612a9e565b820191906000526020600020905b815481529060010190602001808311612a8157829003601f168201915b50505050509050919050565b6000608282811515612ab857fe5b049050919050565b6000809054906101000a900473ffffffffffffffffffffffffffffffffffffffff1681565b60006004826040518082805190602001908083835b602083101515612b1f5780518252602082019150602081019050602083039250612afa565b6001836020036101000a038019825116818451168082178552505050505050905001915050908152602001604051809103902060000160009054906101000a900473ffffffffffffffffffffffffffffffffffffffff169050919050565b6060612b8982336128bc565b1515612b9457600080fd5b6004826040518082805190602001908083835b602083101515612bcc5780518252602082019150602081019050602083039250612ba7565b6001836020036101000a038019825116818451168082178552505050505050905001915050908152602001604051809103902060080160003373ffffffffffffffffffffffffffffffffffffffff1673ffffffffffffffffffffffffffffffffffffffff1681526020019081526020016000206004018054600181600116156101000203166002900480601f016020809104026020016040519081016040528092919081815260200182805460018160011615610100020316600290048015612cd65780601f10612cab57610100808354040283529160200191612cd6565b820191906000526020600020905b815481529060010190602001808311612cb957829003601f168201915b50505050509050919050565b60006004836040518082805190602001908083835b602083101515612d1c5780518252602082019150602081019050602083039250612cf7565b6001836020036101000a03801982511681845116808217855250505050505090500191505090815260200160405180910390206001015414158015612d675750612d6682336132ba565b5b8015612d795750612d7882826132fb565b5b1515612d8457600080fd5b60006004836040518082805190602001908083835b602083101515612dbe5780518252602082019150602081019050602083039250612d99565b6001836020036101000a038019825116818451168082178552505050505050905001915050908152602001604051809103902060080160008373ffffffffffffffffffffffffffffffffffffffff1673ffffffffffffffffffffffffffffffffffffffff16815260200190815260200160002090506000816001015410151515612e4757600080fd5b8173ffffffffffffffffffffffffffffffffffffffff166108fc82600101549081150290604051600060405180830381858888f19350505050158015612e91573d6000803e3d6000fd5b506000816001018190555060028160000160006101000a81548160ff02191690836004811115612ebd57fe5b02179055507f87deb0bf3260371a3845769d523869b17a51dab5e82dd1d7db896b489fe42f578160020184600060405180806020018060200184151515158152602001838103835286818154600181600116156101000203166002900481526020019150805460018160011615610100020316600290048015612f815780601f10612f5657610100808354040283529160200191612f81565b820191906000526020600020905b815481529060010190602001808311612f6457829003601f168201915b5050838103825285818151815260200191508051906020019080838360005b83811015612fbb578082015181840152602081019050612fa0565b50505050905090810190601f168015612fe85780820380516001836020036101000a031916815260200191505b509550505050505060405180910390a1505050565b6000809054906101000a900473ffffffffffffffffffffffffffffffffffffffff1673ffffffffffffffffffffffffffffffffffffffff163373ffffffffffffffffffffffffffffffffffffffff1614151561305857600080fd5b806000806101000a81548173ffffffffffffffffffffffffffffffffffffffff021916908373ffffffffffffffffffffffffffffffffffffffff16021790555050565b60606004836040518082805190602001908083835b6020831015156130d557805182526020820191506020810190506020830392506130b0565b6001836020036101000a038019825116818451168082178552505050505050905001915050908152602001604051809103902060000160009054906101000a900473ffffffffffffffffffffffffffffffffffffffff1673ffffffffffffffffffffffffffffffffffffffff163373ffffffffffffffffffffffffffffffffffffffff1614151561316557600080fd5b6004836040518082805190602001908083835b60208310151561319d5780518252602082019150602081019050602083039250613178565b6001836020036101000a038019825116818451168082178552505050505050905001915050908152602001604051809103902060080160008373ffffffffffffffffffffffffffffffffffffffff1673ffffffffffffffffffffffffffffffffffffffff1681526020019081526020016000206003018054600181600116156101000203166002900480601f0160208091040260200160405190810160405280929190818152602001828054600181600116156101000203166002900480156132a75780601f1061327c576101008083540402835291602001916132a7565b820191906000526020600020905b81548152906001019060200180831161328a57829003601f168201915b5050505050905092915050565b60025481565b60008173ffffffffffffffffffffffffffffffffffffffff166132dc84612ae5565b73ffffffffffffffffffffffffffffffffffffffff1614905092915050565b60006001600481111561330a57fe5b6004846040518082805190602001908083835b602083101515613342578051825260208201915060208101905060208303925061331d565b6001836020036101000a038019825116818451168082178552505050505050905001915050908152602001604051809103902060080160008473ffffffffffffffffffffffffffffffffffffffff1673ffffffffffffffffffffffffffffffffffffffff16815260200190815260200160002060000160009054906101000a900460ff1660048111156133d157fe5b14905092915050565b60006134536004856040518082805190602001908083835b60208310151561341757805182526020820191506020810190506020830392506133f2565b6001836020036101000a038019825116818451168082178552505050505050905001915050908152602001604051809103902060030154612aaa565b905060006004856040518082805190602001908083835b60208310151561348f578051825260208201915060208101905060208303925061346a565b6001836020036101000a038019825116818451168082178552505050505050905001915050908152602001604051809103902060010154141580156134da57506134d98433611f8c565b5b80156134e65750803410155b15156134f157600080fd5b60006004856040518082805190602001908083835b60208310151561352b5780518252602082019150602081019050602083039250613506565b6001836020036101000a038019825116818451168082178552505050505050905001915050908152602001604051809103902090506000600481111561356d57fe5b8160080160003373ffffffffffffffffffffffffffffffffffffffff1673ffffffffffffffffffffffffffffffffffffffff16815260200190815260200160002060000160009054906101000a900460ff1660048111156135ca57fe5b1415613637573381600701600083600601600081548092919060010191905055815260200190815260200160002060006101000a81548173ffffffffffffffffffffffffffffffffffffffff021916908373ffffffffffffffffffffffffffffffffffffffff1602179055505b60a0604051908101604052806001600481111561365057fe5b815260200183815260200184815260200185815260200160206040519081016040528060008152508152508160080160003373ffffffffffffffffffffffffffffffffffffffff1673ffffffffffffffffffffffffffffffffffffffff16815260200190815260200160002060008201518160000160006101000a81548160ff021916908360048111156136e057fe5b021790555060208201518160010155604082015181600201908051906020019061370b92919061419f565b50606082015181600301908051906020019061372892919061419f565b50608082015181600401908051906020019061374592919061419f565b509050507f7e558bb9898d8d17809158db6c967a8ea47d93a15a5d359a1186352a086cfb7c6004866040518082805190602001908083835b6020831015156137a2578051825260208201915060208101905060208303925061377d565b6001836020036101000a038019825116818451168082178552505050505050905001915050908152602001604051809103902060050186336040518080602001806020018473ffffffffffffffffffffffffffffffffffffffff1673ffffffffffffffffffffffffffffffffffffffff1681526020018381038352868181546001816001161561010002031660029004815260200191508054600181600116156101000203166002900480156138995780601f1061386e57610100808354040283529160200191613899565b820191906000526020600020905b81548152906001019060200180831161387c57829003601f168201915b5050838103825285818151815260200191508051906020019080838360005b838110156138d35780820151818401526020810190506138b8565b50505050905090810190601f1680156139005780820380516001836020036101000a031916815260200191505b509550505050505060405180910390a15050505050565b60006004826040518082805190602001908083835b602083101515613951578051825260208201915060208101905060208303925061392c565b6001836020036101000a0380198251168184511680821785525050505050509050019150509081526020016040518091039020600601549050919050565b60006004836040518082805190602001908083835b6020831015156139c957805182526020820191506020810190506020830392506139a4565b6001836020036101000a038019825116818451168082178552505050505050905001915050908152602001604051809103902060080160008373ffffffffffffffffffffffffffffffffffffffff1673ffffffffffffffffffffffffffffffffffffffff16815260200190815260200160002060000160009054906101000a900460ff16905092915050565b60006004826040518082805190602001908083835b602083101515613a8f5780518252602082019150602081019050602083039250613a6a565b6001836020036101000a03801982511681845116808217855250505050505090500191505090815260200160405180910390206001015414158015613adb5750613ad981336132ba565b155b8015613aed5750613aec81336132fb565b5b1515613af857600080fd5b60006004826040518082805190602001908083835b602083101515613b325780518252602082019150602081019050602083039250613b0d565b6001836020036101000a038019825116818451168082178552505050505050905001915050908152602001604051809103902060080160003373ffffffffffffffffffffffffffffffffffffffff1673ffffffffffffffffffffffffffffffffffffffff16815260200190815260200160002090506000816001015410151515613bbb57600080fd5b3373ffffffffffffffffffffffffffffffffffffffff166108fc82600101549081150290604051600060405180830381858888f19350505050158015613c05573d6000803e3d6000fd5b506000816001018190555060038160000160006101000a81548160ff02191690836004811115613c3157fe5b02179055505050565b60006004866040518082805190602001908083835b602083101515613c745780518252602082019150602081019050602083039250613c4f565b6001836020036101000a038019825116818451168082178552505050505050905001915050908152602001604051809103902060010154148015613cc25750613cbe600154612aaa565b3410155b1515613ccd57600080fd5b60e0604051908101604052803373ffffffffffffffffffffffffffffffffffffffff16815260200142815260200185815260200184815260200183815260200182815260200160008152506004866040518082805190602001908083835b602083101515613d505780518252602082019150602081019050602083039250613d2b565b6001836020036101000a038019825116818451168082178552505050505050905001915050908152602001604051809103902060008201518160000160006101000a81548173ffffffffffffffffffffffffffffffffffffffff021916908373ffffffffffffffffffffffffffffffffffffffff160217905550602082015181600101556040820151816002019080519060200190613df092919061419f565b50606082015181600301556080820151816004019080519060200190613e1792919061419f565b5060a0820151816005019080519060200190613e3492919061419f565b5060c082015181600601559050506003859080600181540180825580915050906001820390600052602060002001600090919290919091509080519060200190613e7f92919061411f565b50506002600081548092919060010191905055505050505050565b60006004826040518082805190602001908083835b602083101515613ed45780518252602082019150602081019050602083039250613eaf565b6001836020036101000a0380198251168184511680821785525050505050509050019150509081526020016040518091039020600101549050919050565b6000613f8b6004836040518082805190602001908083835b602083101515613f4f5780518252602082019150602081019050602083039250613f2a565b6001836020036101000a038019825116818451168082178552505050505050905001915050908152602001604051809103902060030154612aaa565b905060006004836040518082805190602001908083835b602083101515613fc75780518252602082019150602081019050602083039250613fa2565b6001836020036101000a0380198251168184511680821785525050505050509050019150509081526020016040518091039020600101541415801561401257506140118233611f8c565b5b801561401e5750803410155b8015614031575061402f8233612277565b155b151561403c57600080fd5b60006004836040518082805190602001908083835b6020831015156140765780518252602082019150602081019050602083039250614051565b6001836020036101000a038019825116818451168082178552505050505050905001915050908152602001604051809103902060080160003373ffffffffffffffffffffffffffffffffffffffff1673ffffffffffffffffffffffffffffffffffffffff168152602001908152602001600020905060018160000160006101000a81548160ff0219169083600481111561410c57fe5b0217905550818160010181905550505050565b828054600181600116156101000203166002900490600052602060002090601f016020900481019282601f1061416057805160ff191683800117855561418e565b8280016001018555821561418e579182015b8281111561418d578251825591602001919060010190614172565b5b50905061419b919061421f565b5090565b828054600181600116156101000203166002900490600052602060002090601f016020900481019282601f106141e057805160ff191683800117855561420e565b8280016001018555821561420e579182015b8281111561420d5782518255916020019190600101906141f2565b5b50905061421b919061421f565b5090565b61424191905b8082111561423d576000816000905550600101614225565b5090565b9056fea165627a7a72305820a01528a3e2aae9c8082f65dbd3f484a897364f4d9cda4c7b619da2c2925bda850029",
  "source": "pragma solidity ^0.5.0;\n\nimport './AccessRestricted.sol';\nimport './TimeStamping.sol';\nimport './FiatContract.sol';\n\ncontract Patenting is AccessRestricted {\n\n    uint public patentPrice;\n    uint public patentCount;\n\n    enum RequestStatus {Not_requested, Pending, Rejected, Cancelled, Accepted}\n\n    // revoir la structure ? pk des mappings et pas des lists ?\n    // request contient son requester et requests est juste un tableau et buyers aussi\n\n    /* Struct for request */\n    struct Request {\n        RequestStatus status;\n        uint deposit;\n        string email;\n        string encryptionKey;\n        string encryptedIpfsKey;\n    }\n\n    /* Struct for patent*/\n    struct Patent {\n        address owner;\n        uint timestamp;\n        string patentHash;\n        uint price;\n        string ipfs;\n        string email;\n        uint numRequests;\n        mapping(uint => address) buyers;\n        mapping(address => Request) requests;\n    }\n\n    string[] public patentNames;\n    mapping(string => Patent) private patents; // PatentName to struct\n\n    event NewRequest(\n        string _ownerMail,\n        string _patentName,\n        address _rentee\n    );\n\n    event RequestResponse(\n        string _requesterEmail,\n        string _patentName,\n        bool _accepted\n    );\n\n    event modifiedPatent(\n        bool modified\n    );\n\n    // FiatContract fiat;\n\n    /* Constructor of the contract\n    * {param} uint : The price for depositing a pattern in Wei\n    */\n    constructor(uint _patentPrice, address _fiatContract) public {\n        // fiat = FiatContract(_fiatContract);\n        patentPrice = _patentPrice;\n    }\n\n    function getEthPrice(uint _dollars) public view returns (uint) {\n        // return fiat.USD(0) * 100 * _dollars;\n        return _dollars / 130;\n    }\n\n    /* Function to deposit a pattern\n    * {params} the patent parameters\n    * {costs} the price of a patent\n    */\n    function depositPatent(string memory _patentName, string memory _patentHash, uint _price, string memory _ipfs, string memory _email) public payable {\n        require(patents[_patentName].timestamp == 0 && msg.value >= getEthPrice(patentPrice));\n        patents[_patentName] = Patent(msg.sender, now, _patentHash, _price, _ipfs, _email, 0);\n        patentNames.push(_patentName);\n        patentCount++;\n    }\n\n    /* Function called when a file is updated to set its IPFS location\n    * {params} the new IPFS location\n    */\n    function setIpfsLocation(string memory _patentName, string memory _newIpfs) public {\n        require(patents[_patentName].timestamp != 0 && isOwner(_patentName, msg.sender));\n        // if(patents[_patentName].ipfs != _newIpfs)\n        Patent storage p = patents[_patentName];\n        p.ipfs = _newIpfs;\n\n        // emit modifiedPatent(true);\n        // emit un event pour notifier que ca a change et envoyer un mail aux buyers du patent\n    }\n\n    /* Function to request access to a patent\n    * {params} _patentName : name of patent\n    *          _encryptionKey : key to encrypt AES key with (key exchange protocol)\n    * {costs} price of the patent : will be frozen until request is accepted, rejected, or cancelled\n    */\n    function requestAccess(string memory _patentName, string memory _encryptionKey, string memory _email) public payable {\n        uint ethPrice = getEthPrice(patents[_patentName].price);\n        require(patents[_patentName].timestamp != 0 && canRequest(_patentName, msg.sender) && msg.value >= ethPrice);\n        Patent storage p = patents[_patentName];\n        if (p.requests[msg.sender].status == RequestStatus.Not_requested) {\n            p.buyers[p.numRequests++] = msg.sender;\n        }\n        p.requests[msg.sender] = Request(RequestStatus.Pending, ethPrice, _email, _encryptionKey, \"\");\n        emit NewRequest(patents[_patentName].email, _patentName, msg.sender);\n    }\n\n    function resendRequest(string memory _patentName) public payable {\n        uint ethPrice = getEthPrice(patents[_patentName].price);\n        require(patents[_patentName].timestamp != 0 && canRequest(_patentName, msg.sender) && msg.value >= ethPrice && !isNotRequested(_patentName, msg.sender));\n        Request storage r = patents[_patentName].requests[msg.sender];\n        r.status = RequestStatus.Pending;\n        r.deposit = ethPrice;\n    }\n\n    /* Function to grant access to a user\n    * {params} _patentName : name of patent\n    *          _user : user to give access to (must have requested)\n    *          _encryptedIpfsKey : encrypted AES key to decrypt file on ipfs\n    *   Transfers the amount to the patent owner\n    */\n    function grantAccess(string memory _patentName, address _user, string memory _encryptedIpfsKey) public {\n        require(patents[_patentName].timestamp != 0 && isOwner(_patentName, msg.sender) && isPending(_patentName, _user));\n        Request storage r = patents[_patentName].requests[_user];\n        require(r.deposit >= 0);\n        msg.sender.transfer(r.deposit);\n        r.deposit = 0;\n        r.status = RequestStatus.Accepted;\n        // Accept Request\n        r.encryptedIpfsKey = _encryptedIpfsKey;\n        emit RequestResponse(r.email, _patentName, true);\n    }\n\n    /* Function to reject access to a patent\n    * {params} : Same as above\n    * Refunds the amount to the user\n    */\n    function rejectAccess(string memory _patentName, address payable _user) public {\n        require(patents[_patentName].timestamp != 0 && isOwner(_patentName, msg.sender) && isPending(_patentName, _user));\n        Request storage r = patents[_patentName].requests[_user];\n        require(r.deposit >= 0);\n        _user.transfer(r.deposit);\n        // Refund back to user\n        r.deposit = 0;\n        r.status = RequestStatus.Rejected;\n        // Reject Request\n        emit RequestResponse(r.email, _patentName, false);\n    }\n\n    /* Function that cancels a request (can only be called by user)\n    * {params} : _patentName : name of patent\n    */\n    function cancelRequest(string memory _patentName) public {\n        require(patents[_patentName].timestamp != 0 && !isOwner(_patentName, msg.sender) && isPending(_patentName, msg.sender));\n        Request storage r = patents[_patentName].requests[msg.sender];\n        require(r.deposit >= 0);\n        msg.sender.transfer(r.deposit);\n        r.deposit = 0;\n        r.status = RequestStatus.Cancelled;\n        // Cancel request\n    }\n\n    /*Allows the owner to withdraw the remaining funds*/\n    function withdrawFunds() public onlyOwner {\n        owner.transfer(address(this).balance);\n    }\n\n    /*-----------------------------------View functions that do not require transactions-----------------------------------*/\n\n    /*Returns true if the given account can request the given patent : is either Not_requested, cancelled or rejected*/\n    function canRequest(string memory _patentName, address _account) public view returns (bool){\n        return !(isPending(_patentName, _account) || isAccepted(_patentName, _account) || isOwner(_patentName, _account));\n    }\n\n    /*Returns the RequestStatus of the given patent for the given account*/\n    function getRequestStatus(string memory _patentName, address _account) public view returns (RequestStatus){\n        return patents[_patentName].requests[_account].status;\n    }\n\n    /*Returns true of the given account hasn't requested the given patent*/\n    function isNotRequested(string memory _patentName, address _account) public view returns (bool){\n        return patents[_patentName].requests[_account].status == RequestStatus.Not_requested;\n    }\n\n    /*Returns true of the given account has a pending request on the given patent*/\n    function isPending(string memory _patentName, address _account) public view returns (bool){\n        return patents[_patentName].requests[_account].status == RequestStatus.Pending;\n    }\n\n    /*Verifies that the given address has been accepted for the given patent*/\n    function isAccepted(string memory _patentName, address _account) public view returns (bool){\n        return patents[_patentName].requests[_account].status == RequestStatus.Accepted;\n    }\n\n    /*Returns true if account is owner of given patent*/\n    function isOwner(string memory _patentName, address _account) public view returns (bool){\n        return getPatentOwner(_patentName) == _account;\n    }\n\n    /*Returns time-stamp of the Patent*/\n    function getTimeStamp(string memory _patentName) public view returns (uint){\n        return patents[_patentName].timestamp;\n    }\n\n    /*Returns the sha256 hash of the patent*/\n    function getPatentHash(string memory _patentName) public view returns (string memory){\n        return patents[_patentName].patentHash;\n    }\n\n    /*Returns patent's owner*/\n    function getPatentOwner(string memory _patentName) public view returns (address) {\n        return patents[_patentName].owner;\n    }\n\n    /*Returns the price of a patent*/\n    function getPrice(string memory _patentName) public view returns (uint){\n        return patents[_patentName].price;\n    }\n\n    /*Returns the number of requests for the given patent*/\n    function getNumRequests(string memory _patentName) public view returns (uint){\n        return patents[_patentName].numRequests;\n    }\n\n    /*Returns the address of the buyer at _index  (Used for iterating)*/\n    function getBuyers(string memory _patentName, uint _index) public view returns (address){\n        return patents[_patentName].buyers[_index];\n    }\n\n    /*Returns the requester's public key*/\n    function getEncryptionKey(string memory _patentName, address _user) public view returns (string memory){\n        require(msg.sender == patents[_patentName].owner);\n        return patents[_patentName].requests[_user].encryptionKey;\n    }\n\n    /*Returns the encrypted IPFS encryption key*/\n    function getEncryptedIpfsKey(string memory _patentName) public view returns (string memory){\n        require(isAccepted(_patentName, msg.sender));\n        return patents[_patentName].requests[msg.sender].encryptedIpfsKey;\n    }\n\n    function getOwnerEmail(string memory _patentName) public view returns (string memory) {\n        return patents[_patentName].email;\n    }\n\n    /*Returns the IPFS location of the patent*/\n    function getPatentLocation(string memory _patentName) public view returns (string memory) {\n        return patents[_patentName].ipfs;\n    }\n}\n",
  "sourcePath": "/Users/axel/Developer/DNAM/Web-Applications/react-app/contracts/Patenting.sol",
  "compiler": {
    "name": "solc",
    "version": "0.5.0+commit.1d4f565a.Emscripten.clang"
  },
  "schemaVersion": "3.0.2",
  "updatedAt": "2019-03-26T10:00:38.628Z",
  "devdoc": {
    "methods": {}
  },
  "userdoc": {
    "methods": {}
  }
}