{
  "contractName": "Patenting",
  "abi": [
    {
      "constant": true,
      "inputs": [],
      "name": "patentPrice",
      "outputs": [
        {
          "name": "",
          "type": "uint256"
        }
      ],
      "payable": false,
      "stateMutability": "view",
      "type": "function",
      "signature": "0x0638c22c"
    },
    {
      "constant": true,
      "inputs": [
        {
          "name": "",
          "type": "uint256"
        }
      ],
      "name": "patentNames",
      "outputs": [
        {
          "name": "",
          "type": "string"
        }
      ],
      "payable": false,
      "stateMutability": "view",
      "type": "function",
      "signature": "0x41e14449"
    },
    {
      "constant": true,
      "inputs": [],
      "name": "owner",
      "outputs": [
        {
          "name": "",
          "type": "address"
        }
      ],
      "payable": false,
      "stateMutability": "view",
      "type": "function",
      "signature": "0x8da5cb5b"
    },
    {
      "constant": true,
      "inputs": [
        {
          "name": "",
          "type": "uint256"
        }
      ],
      "name": "albumNames",
      "outputs": [
        {
          "name": "",
          "type": "string"
        }
      ],
      "payable": false,
      "stateMutability": "view",
      "type": "function",
      "signature": "0x928ec99f"
    },
    {
      "constant": false,
      "inputs": [
        {
          "name": "_newOwner",
          "type": "address"
        }
      ],
      "name": "changeOwner",
      "outputs": [],
      "payable": false,
      "stateMutability": "nonpayable",
      "type": "function",
      "signature": "0xa6f9dae1"
    },
    {
      "constant": true,
      "inputs": [],
      "name": "patentCount",
      "outputs": [
        {
          "name": "",
          "type": "uint256"
        }
      ],
      "payable": false,
      "stateMutability": "view",
      "type": "function",
      "signature": "0xb084c841"
    },
    {
      "constant": true,
      "inputs": [],
      "name": "albumCount",
      "outputs": [
        {
          "name": "",
          "type": "uint256"
        }
      ],
      "payable": false,
      "stateMutability": "view",
      "type": "function",
      "signature": "0xef2dcbc1"
    },
    {
      "inputs": [
        {
          "name": "_patentPrice",
          "type": "uint256"
        },
        {
          "name": "_fiatContract",
          "type": "address"
        }
      ],
      "payable": false,
      "stateMutability": "nonpayable",
      "type": "constructor",
      "signature": "constructor"
    },
    {
      "anonymous": false,
      "inputs": [
        {
          "indexed": false,
          "name": "_ownerMail",
          "type": "string"
        },
        {
          "indexed": false,
          "name": "_patentName",
          "type": "string"
        },
        {
          "indexed": false,
          "name": "_rentee",
          "type": "address"
        }
      ],
      "name": "NewRequest",
      "type": "event",
      "signature": "0x7e558bb9898d8d17809158db6c967a8ea47d93a15a5d359a1186352a086cfb7c"
    },
    {
      "anonymous": false,
      "inputs": [
        {
          "indexed": false,
          "name": "_requesterEmail",
          "type": "string"
        },
        {
          "indexed": false,
          "name": "_patentName",
          "type": "string"
        },
        {
          "indexed": false,
          "name": "_accepted",
          "type": "bool"
        }
      ],
      "name": "RequestResponse",
      "type": "event",
      "signature": "0x87deb0bf3260371a3845769d523869b17a51dab5e82dd1d7db896b489fe42f57"
    },
    {
      "constant": false,
      "inputs": [],
      "name": "withdrawFunds",
      "outputs": [],
      "payable": false,
      "stateMutability": "nonpayable",
      "type": "function",
      "signature": "0x24600fc3"
    },
    {
      "constant": true,
      "inputs": [
        {
          "name": "_dollars",
          "type": "uint256"
        }
      ],
      "name": "getEthPrice",
      "outputs": [
        {
          "name": "",
          "type": "uint256"
        }
      ],
      "payable": false,
      "stateMutability": "view",
      "type": "function",
      "signature": "0x870d365d"
    },
    {
      "constant": false,
      "inputs": [
        {
          "name": "_patentName",
          "type": "string"
        },
        {
          "name": "_patentHash",
          "type": "string"
        },
        {
          "name": "_maxLicence",
          "type": "uint256"
        },
        {
          "name": "_licencePrices",
          "type": "uint256[]"
        },
        {
          "name": "_ipfs",
          "type": "string"
        },
        {
          "name": "_email",
          "type": "string"
        }
      ],
      "name": "depositPatent",
      "outputs": [],
      "payable": true,
      "stateMutability": "payable",
      "type": "function",
      "signature": "0xbdc8b024"
    },
    {
      "constant": false,
      "inputs": [
        {
          "name": "_patentName",
          "type": "string"
        },
        {
          "name": "_newIpfs",
          "type": "string"
        }
      ],
      "name": "setIpfsLocation",
      "outputs": [],
      "payable": false,
      "stateMutability": "nonpayable",
      "type": "function",
      "signature": "0x36359e11"
    },
    {
      "constant": false,
      "inputs": [
        {
          "name": "_patentName",
          "type": "string"
        }
      ],
      "name": "deletePatent",
      "outputs": [],
      "payable": false,
      "stateMutability": "nonpayable",
      "type": "function",
      "signature": "0x021631dc"
    },
    {
      "constant": false,
      "inputs": [
        {
          "name": "_patentName",
          "type": "string"
        },
        {
          "name": "_requestedLicence",
          "type": "uint256"
        },
        {
          "name": "_encryptionKey",
          "type": "string"
        },
        {
          "name": "_email",
          "type": "string"
        }
      ],
      "name": "requestAccess",
      "outputs": [],
      "payable": true,
      "stateMutability": "payable",
      "type": "function",
      "signature": "0x31a41030"
    },
    {
      "constant": false,
      "inputs": [
        {
          "name": "_patentName",
          "type": "string"
        },
        {
          "name": "_requestedLicence",
          "type": "uint256"
        }
      ],
      "name": "resendRequest",
      "outputs": [],
      "payable": true,
      "stateMutability": "payable",
      "type": "function",
      "signature": "0xa6e81dc9"
    },
    {
      "constant": false,
      "inputs": [
        {
          "name": "_patentName",
          "type": "string"
        },
        {
          "name": "_user",
          "type": "address"
        },
        {
          "name": "_encryptedIpfsKey",
          "type": "string"
        }
      ],
      "name": "grantAccess",
      "outputs": [],
      "payable": false,
      "stateMutability": "nonpayable",
      "type": "function",
      "signature": "0x5d98dde8"
    },
    {
      "constant": false,
      "inputs": [
        {
          "name": "_patentName",
          "type": "string"
        },
        {
          "name": "_user",
          "type": "address"
        }
      ],
      "name": "rejectAccess",
      "outputs": [],
      "payable": false,
      "stateMutability": "nonpayable",
      "type": "function",
      "signature": "0xa6966e25"
    },
    {
      "constant": false,
      "inputs": [
        {
          "name": "_patentName",
          "type": "string"
        }
      ],
      "name": "cancelRequest",
      "outputs": [],
      "payable": false,
      "stateMutability": "nonpayable",
      "type": "function",
      "signature": "0xe489445d"
    },
    {
      "constant": false,
      "inputs": [
        {
          "name": "_patentName",
          "type": "string"
        },
        {
          "name": "_requestedLicence",
          "type": "uint256"
        }
      ],
      "name": "requestUpgrade",
      "outputs": [],
      "payable": true,
      "stateMutability": "payable",
      "type": "function",
      "signature": "0x7a9eee2c"
    },
    {
      "constant": false,
      "inputs": [
        {
          "name": "_patentName",
          "type": "string"
        },
        {
          "name": "_user",
          "type": "address"
        }
      ],
      "name": "acceptUpgrade",
      "outputs": [],
      "payable": false,
      "stateMutability": "nonpayable",
      "type": "function",
      "signature": "0x8200dfae"
    },
    {
      "constant": false,
      "inputs": [
        {
          "name": "_patentName",
          "type": "string"
        },
        {
          "name": "_user",
          "type": "address"
        }
      ],
      "name": "rejectUpgrade",
      "outputs": [],
      "payable": false,
      "stateMutability": "nonpayable",
      "type": "function",
      "signature": "0xd0ca7dba"
    },
    {
      "constant": false,
      "inputs": [
        {
          "name": "_patentName",
          "type": "string"
        }
      ],
      "name": "cancelUpgrade",
      "outputs": [],
      "payable": false,
      "stateMutability": "nonpayable",
      "type": "function",
      "signature": "0x1c8ff46e"
    },
    {
      "constant": true,
      "inputs": [
        {
          "name": "_patentName",
          "type": "string"
        },
        {
          "name": "_account",
          "type": "address"
        }
      ],
      "name": "canRequest",
      "outputs": [
        {
          "name": "",
          "type": "bool"
        }
      ],
      "payable": false,
      "stateMutability": "view",
      "type": "function",
      "signature": "0x2294de45"
    },
    {
      "constant": true,
      "inputs": [
        {
          "name": "_patentName",
          "type": "string"
        },
        {
          "name": "_account",
          "type": "address"
        }
      ],
      "name": "canUpgrade",
      "outputs": [
        {
          "name": "",
          "type": "bool"
        }
      ],
      "payable": false,
      "stateMutability": "view",
      "type": "function",
      "signature": "0xa47e1356"
    },
    {
      "constant": true,
      "inputs": [
        {
          "name": "_patentName",
          "type": "string"
        },
        {
          "name": "_account",
          "type": "address"
        }
      ],
      "name": "getRequestStatus",
      "outputs": [
        {
          "name": "",
          "type": "uint8"
        }
      ],
      "payable": false,
      "stateMutability": "view",
      "type": "function",
      "signature": "0xe2f99c7e"
    },
    {
      "constant": true,
      "inputs": [
        {
          "name": "_patentName",
          "type": "string"
        },
        {
          "name": "_account",
          "type": "address"
        }
      ],
      "name": "getRequestedLicence",
      "outputs": [
        {
          "name": "",
          "type": "uint256"
        }
      ],
      "payable": false,
      "stateMutability": "view",
      "type": "function",
      "signature": "0x356b7b08"
    },
    {
      "constant": true,
      "inputs": [
        {
          "name": "_patentName",
          "type": "string"
        },
        {
          "name": "_account",
          "type": "address"
        }
      ],
      "name": "getAcceptedLicence",
      "outputs": [
        {
          "name": "",
          "type": "uint256"
        }
      ],
      "payable": false,
      "stateMutability": "view",
      "type": "function",
      "signature": "0x2760568d"
    },
    {
      "constant": true,
      "inputs": [
        {
          "name": "_patentName",
          "type": "string"
        }
      ],
      "name": "getMaxLicence",
      "outputs": [
        {
          "name": "",
          "type": "uint256"
        }
      ],
      "payable": false,
      "stateMutability": "view",
      "type": "function",
      "signature": "0x1cc58aa9"
    },
    {
      "constant": true,
      "inputs": [
        {
          "name": "_patentName",
          "type": "string"
        },
        {
          "name": "_account",
          "type": "address"
        }
      ],
      "name": "hasBeenRequested",
      "outputs": [
        {
          "name": "",
          "type": "bool"
        }
      ],
      "payable": false,
      "stateMutability": "view",
      "type": "function",
      "signature": "0x21284088"
    },
    {
      "constant": true,
      "inputs": [
        {
          "name": "_patentName",
          "type": "string"
        },
        {
          "name": "_account",
          "type": "address"
        }
      ],
      "name": "isPending",
      "outputs": [
        {
          "name": "",
          "type": "bool"
        }
      ],
      "payable": false,
      "stateMutability": "view",
      "type": "function",
      "signature": "0xbe3e0722"
    },
    {
      "constant": true,
      "inputs": [
        {
          "name": "_patentName",
          "type": "string"
        },
        {
          "name": "_account",
          "type": "address"
        }
      ],
      "name": "isAccepted",
      "outputs": [
        {
          "name": "",
          "type": "bool"
        }
      ],
      "payable": false,
      "stateMutability": "view",
      "type": "function",
      "signature": "0x65f8695e"
    },
    {
      "constant": true,
      "inputs": [
        {
          "name": "_patentName",
          "type": "string"
        },
        {
          "name": "_account",
          "type": "address"
        }
      ],
      "name": "isOwner",
      "outputs": [
        {
          "name": "",
          "type": "bool"
        }
      ],
      "payable": false,
      "stateMutability": "view",
      "type": "function",
      "signature": "0xbde1eee7"
    },
    {
      "constant": true,
      "inputs": [
        {
          "name": "_patentName",
          "type": "string"
        }
      ],
      "name": "getTimeStamp",
      "outputs": [
        {
          "name": "",
          "type": "uint256"
        }
      ],
      "payable": false,
      "stateMutability": "view",
      "type": "function",
      "signature": "0xfa52c7cc"
    },
    {
      "constant": true,
      "inputs": [
        {
          "name": "_patentName",
          "type": "string"
        }
      ],
      "name": "getPatentHash",
      "outputs": [
        {
          "name": "",
          "type": "string"
        }
      ],
      "payable": false,
      "stateMutability": "view",
      "type": "function",
      "signature": "0x16720cc2"
    },
    {
      "constant": true,
      "inputs": [
        {
          "name": "_patentName",
          "type": "string"
        }
      ],
      "name": "getPatentOwner",
      "outputs": [
        {
          "name": "",
          "type": "address"
        }
      ],
      "payable": false,
      "stateMutability": "view",
      "type": "function",
      "signature": "0x99d2618e"
    },
    {
      "constant": true,
      "inputs": [
        {
          "name": "_albumName",
          "type": "string"
        }
      ],
      "name": "getAlbumOwner",
      "outputs": [
        {
          "name": "",
          "type": "address"
        }
      ],
      "payable": false,
      "stateMutability": "view",
      "type": "function",
      "signature": "0x31ee3926"
    },
    {
      "constant": true,
      "inputs": [
        {
          "name": "_patentName",
          "type": "string"
        },
        {
          "name": "_licence",
          "type": "uint256"
        }
      ],
      "name": "getPrice",
      "outputs": [
        {
          "name": "",
          "type": "uint256"
        }
      ],
      "payable": false,
      "stateMutability": "view",
      "type": "function",
      "signature": "0x2ef3accc"
    },
    {
      "constant": true,
      "inputs": [
        {
          "name": "_patentName",
          "type": "string"
        }
      ],
      "name": "getPrices",
      "outputs": [
        {
          "name": "",
          "type": "uint256[]"
        }
      ],
      "payable": false,
      "stateMutability": "view",
      "type": "function",
      "signature": "0x467bdf48"
    },
    {
      "constant": true,
      "inputs": [
        {
          "name": "_patentName",
          "type": "string"
        }
      ],
      "name": "getNumRequests",
      "outputs": [
        {
          "name": "",
          "type": "uint256"
        }
      ],
      "payable": false,
      "stateMutability": "view",
      "type": "function",
      "signature": "0xe0cf4cc9"
    },
    {
      "constant": true,
      "inputs": [
        {
          "name": "_patentName",
          "type": "string"
        },
        {
          "name": "_index",
          "type": "uint256"
        }
      ],
      "name": "getBuyers",
      "outputs": [
        {
          "name": "",
          "type": "address"
        }
      ],
      "payable": false,
      "stateMutability": "view",
      "type": "function",
      "signature": "0x6038c638"
    },
    {
      "constant": true,
      "inputs": [
        {
          "name": "_patentName",
          "type": "string"
        },
        {
          "name": "_user",
          "type": "address"
        }
      ],
      "name": "getEncryptionKey",
      "outputs": [
        {
          "name": "",
          "type": "string"
        }
      ],
      "payable": false,
      "stateMutability": "view",
      "type": "function",
      "signature": "0xad8c9dd6"
    },
    {
      "constant": true,
      "inputs": [
        {
          "name": "_patentName",
          "type": "string"
        }
      ],
      "name": "getEncryptedIpfsKey",
      "outputs": [
        {
          "name": "",
          "type": "string"
        }
      ],
      "payable": false,
      "stateMutability": "view",
      "type": "function",
      "signature": "0xa302e8cd"
    },
    {
      "constant": true,
      "inputs": [
        {
          "name": "_patentName",
          "type": "string"
        }
      ],
      "name": "getOwnerEmail",
      "outputs": [
        {
          "name": "",
          "type": "string"
        }
      ],
      "payable": false,
      "stateMutability": "view",
      "type": "function",
      "signature": "0x68b2210d"
    },
    {
      "constant": true,
      "inputs": [
        {
          "name": "_patentName",
          "type": "string"
        }
      ],
      "name": "getPatentLocation",
      "outputs": [
        {
          "name": "",
          "type": "string"
        }
      ],
      "payable": false,
      "stateMutability": "view",
      "type": "function",
      "signature": "0x607f9e87"
    },
    {
      "constant": true,
      "inputs": [
        {
          "name": "_patentName",
          "type": "string"
        }
      ],
      "name": "isRegistered",
      "outputs": [
        {
          "name": "",
          "type": "bool"
        }
      ],
      "payable": false,
      "stateMutability": "view",
      "type": "function",
      "signature": "0xc822d7f0"
    },
    {
      "constant": true,
      "inputs": [
        {
          "name": "_patentName",
          "type": "string"
        }
      ],
      "name": "isDeleted",
      "outputs": [
        {
          "name": "",
          "type": "bool"
        }
      ],
      "payable": false,
      "stateMutability": "view",
      "type": "function",
      "signature": "0x6c9c088c"
    }
  ],
  "bytecode": "0x6080604052336000806101000a81548173ffffffffffffffffffffffffffffffffffffffff021916908373ffffffffffffffffffffffffffffffffffffffff1602179055503480156200005157600080fd5b5060405160408062005cf3833981018060405260408110156200007357600080fd5b810190808051906020019092919080519060200190929190505050816001819055505050615c4c80620000a76000396000f3fe608060405260043610610225576000357c0100000000000000000000000000000000000000000000000000000000900463ffffffff168063021631dc1461022a5780630638c22c146102f257806316720cc21461031d5780631c8ff46e1461045e5780631cc58aa91461052657806321284088146106025780632294de451461070257806324600fc3146108025780632760568d146108195780632ef3accc1461091557806331a41030146109fb57806331ee392614610bee578063356b7b0814610cf657806336359e1114610df257806341e1444914610f51578063467bdf48146110055780635d98dde8146111225780636038c638146112a1578063607f9e87146113b357806365f8695e146114f457806368b2210d146115f45780636c9c088c146117355780637a9eee2c146118155780638200dfae146118da578063870d365d146119c25780638da5cb5b14611a11578063928ec99f14611a6857806399d2618e14611b1c578063a302e8cd14611c24578063a47e135614611d65578063a6966e2514611e65578063a6e81dc914611f4d578063a6f9dae114612012578063ad8c9dd614612063578063b084c841146121c4578063bdc8b024146121ef578063bde1eee71461250d578063be3e07221461260d578063c822d7f01461270d578063d0ca7dba146127ed578063e0cf4cc9146128d5578063e2f99c7e146129b1578063e489445d14612abb578063ef2dcbc114612b83578063fa52c7cc14612bae575b600080fd5b34801561023657600080fd5b506102f06004803603602081101561024d57600080fd5b810190808035906020019064010000000081111561026a57600080fd5b82018360208201111561027c57600080fd5b8035906020019184600183028401116401000000008311171561029e57600080fd5b91908080601f016020809104026020016040519081016040528093929190818152602001838380828437600081840152601f19601f820116905080830192505050505050509192919290505050612c8a565b005b3480156102fe57600080fd5b50610307612d65565b6040518082815260200191505060405180910390f35b34801561032957600080fd5b506103e36004803603602081101561034057600080fd5b810190808035906020019064010000000081111561035d57600080fd5b82018360208201111561036f57600080fd5b8035906020019184600183028401116401000000008311171561039157600080fd5b91908080601f016020809104026020016040519081016040528093929190818152602001838380828437600081840152601f19601f820116905080830192505050505050509192919290505050612d6b565b6040518080602001828103825283818151815260200191508051906020019080838360005b83811015610423578082015181840152602081019050610408565b50505050905090810190601f1680156104505780820380516001836020036101000a031916815260200191505b509250505060405180910390f35b34801561046a57600080fd5b506105246004803603602081101561048157600080fd5b810190808035906020019064010000000081111561049e57600080fd5b8201836020820111156104b057600080fd5b803590602001918460018302840111640100000000831117156104d257600080fd5b91908080601f016020809104026020016040519081016040528093929190818152602001838380828437600081840152601f19601f820116905080830192505050505050509192919290505050612e7b565b005b34801561053257600080fd5b506105ec6004803603602081101561054957600080fd5b810190808035906020019064010000000081111561056657600080fd5b82018360208201111561057857600080fd5b8035906020019184600183028401116401000000008311171561059a57600080fd5b91908080601f016020809104026020016040519081016040528093929190818152602001838380828437600081840152601f19601f820116905080830192505050505050509192919290505050612fe3565b6040518082815260200191505060405180910390f35b34801561060e57600080fd5b506106e86004803603604081101561062557600080fd5b810190808035906020019064010000000081111561064257600080fd5b82018360208201111561065457600080fd5b8035906020019184600183028401116401000000008311171561067657600080fd5b91908080601f016020809104026020016040519081016040528093929190818152602001838380828437600081840152601f19601f820116905080830192505050505050509192919290803573ffffffffffffffffffffffffffffffffffffffff16906020019092919050505061305b565b604051808215151515815260200191505060405180910390f35b34801561070e57600080fd5b506107e86004803603604081101561072557600080fd5b810190808035906020019064010000000081111561074257600080fd5b82018360208201111561075457600080fd5b8035906020019184600183028401116401000000008311171561077657600080fd5b91908080601f016020809104026020016040519081016040528093929190818152602001838380828437600081840152601f19601f820116905080830192505050505050509192919290803573ffffffffffffffffffffffffffffffffffffffff16906020019092919050505061313a565b604051808215151515815260200191505060405180910390f35b34801561080e57600080fd5b50610817613181565b005b34801561082557600080fd5b506108ff6004803603604081101561083c57600080fd5b810190808035906020019064010000000081111561085957600080fd5b82018360208201111561086b57600080fd5b8035906020019184600183028401116401000000008311171561088d57600080fd5b91908080601f016020809104026020016040519081016040528093929190818152602001838380828437600081840152601f19601f820116905080830192505050505050509192919290803573ffffffffffffffffffffffffffffffffffffffff16906020019092919050505061325d565b6040518082815260200191505060405180910390f35b34801561092157600080fd5b506109e56004803603604081101561093857600080fd5b810190808035906020019064010000000081111561095557600080fd5b82018360208201111561096757600080fd5b8035906020019184600183028401116401000000008311171561098957600080fd5b91908080601f016020809104026020016040519081016040528093929190818152602001838380828437600081840152601f19601f82011690508083019250505050505050919291929080359060200190929190505050613316565b6040518082815260200191505060405180910390f35b610bec60048036036080811015610a1157600080fd5b8101908080359060200190640100000000811115610a2e57600080fd5b820183602082011115610a4057600080fd5b80359060200191846001830284011164010000000083111715610a6257600080fd5b91908080601f016020809104026020016040519081016040528093929190818152602001838380828437600081840152601f19601f8201169050808301925050505050505091929192908035906020019092919080359060200190640100000000811115610acf57600080fd5b820183602082011115610ae157600080fd5b80359060200191846001830284011164010000000083111715610b0357600080fd5b91908080601f016020809104026020016040519081016040528093929190818152602001838380828437600081840152601f19601f82011690508083019250505050505050919291929080359060200190640100000000811115610b6657600080fd5b820183602082011115610b7857600080fd5b80359060200191846001830284011164010000000083111715610b9a57600080fd5b91908080601f016020809104026020016040519081016040528093929190818152602001838380828437600081840152601f19601f8201169050808301925050505050505091929192905050506133a9565b005b348015610bfa57600080fd5b50610cb460048036036020811015610c1157600080fd5b8101908080359060200190640100000000811115610c2e57600080fd5b820183602082011115610c4057600080fd5b80359060200191846001830284011164010000000083111715610c6257600080fd5b91908080601f016020809104026020016040519081016040528093929190818152602001838380828437600081840152601f19601f8201169050808301925050505050505091929192905050506138c5565b604051808273ffffffffffffffffffffffffffffffffffffffff1673ffffffffffffffffffffffffffffffffffffffff16815260200191505060405180910390f35b348015610d0257600080fd5b50610ddc60048036036040811015610d1957600080fd5b8101908080359060200190640100000000811115610d3657600080fd5b820183602082011115610d4857600080fd5b80359060200191846001830284011164010000000083111715610d6a57600080fd5b91908080601f016020809104026020016040519081016040528093929190818152602001838380828437600081840152601f19601f820116905080830192505050505050509192919290803573ffffffffffffffffffffffffffffffffffffffff169060200190929190505050613960565b6040518082815260200191505060405180910390f35b348015610dfe57600080fd5b50610f4f60048036036040811015610e1557600080fd5b8101908080359060200190640100000000811115610e3257600080fd5b820183602082011115610e4457600080fd5b80359060200191846001830284011164010000000083111715610e6657600080fd5b91908080601f016020809104026020016040519081016040528093929190818152602001838380828437600081840152601f19601f82011690508083019250505050505050919291929080359060200190640100000000811115610ec957600080fd5b820183602082011115610edb57600080fd5b80359060200191846001830284011164010000000083111715610efd57600080fd5b91908080601f016020809104026020016040519081016040528093929190818152602001838380828437600081840152601f19601f820116905080830192505050505050509192919290505050613a19565b005b348015610f5d57600080fd5b50610f8a60048036036020811015610f7457600080fd5b8101908080359060200190929190505050613aa6565b6040518080602001828103825283818151815260200191508051906020019080838360005b83811015610fca578082015181840152602081019050610faf565b50505050905090810190601f168015610ff75780820380516001836020036101000a031916815260200191505b509250505060405180910390f35b34801561101157600080fd5b506110cb6004803603602081101561102857600080fd5b810190808035906020019064010000000081111561104557600080fd5b82018360208201111561105757600080fd5b8035906020019184600183028401116401000000008311171561107957600080fd5b91908080601f016020809104026020016040519081016040528093929190818152602001838380828437600081840152601f19601f820116905080830192505050505050509192919290505050613b61565b6040518080602001828103825283818151815260200191508051906020019060200280838360005b8381101561110e5780820151818401526020810190506110f3565b505050509050019250505060405180910390f35b34801561112e57600080fd5b5061129f6004803603606081101561114557600080fd5b810190808035906020019064010000000081111561116257600080fd5b82018360208201111561117457600080fd5b8035906020019184600183028401116401000000008311171561119657600080fd5b91908080601f016020809104026020016040519081016040528093929190818152602001838380828437600081840152601f19601f820116905080830192505050505050509192919290803573ffffffffffffffffffffffffffffffffffffffff1690602001909291908035906020019064010000000081111561121957600080fd5b82018360208201111561122b57600080fd5b8035906020019184600183028401116401000000008311171561124d57600080fd5b91908080601f016020809104026020016040519081016040528093929190818152602001838380828437600081840152601f19601f820116905080830192505050505050509192919290505050613c27565b005b3480156112ad57600080fd5b50611371600480360360408110156112c457600080fd5b81019080803590602001906401000000008111156112e157600080fd5b8201836020820111156112f357600080fd5b8035906020019184600183028401116401000000008311171561131557600080fd5b91908080601f016020809104026020016040519081016040528093929190818152602001838380828437600081840152601f19601f82011690508083019250505050505050919291929080359060200190929190505050613eff565b604051808273ffffffffffffffffffffffffffffffffffffffff1673ffffffffffffffffffffffffffffffffffffffff16815260200191505060405180910390f35b3480156113bf57600080fd5b50611479600480360360208110156113d657600080fd5b81019080803590602001906401000000008111156113f357600080fd5b82018360208201111561140557600080fd5b8035906020019184600183028401116401000000008311171561142757600080fd5b91908080601f016020809104026020016040519081016040528093929190818152602001838380828437600081840152601f19601f820116905080830192505050505050509192919290505050613fa9565b6040518080602001828103825283818151815260200191508051906020019080838360005b838110156114b957808201518184015260208101905061149e565b50505050905090810190601f1680156114e65780820380516001836020036101000a031916815260200191505b509250505060405180910390f35b34801561150057600080fd5b506115da6004803603604081101561151757600080fd5b810190808035906020019064010000000081111561153457600080fd5b82018360208201111561154657600080fd5b8035906020019184600183028401116401000000008311171561156857600080fd5b91908080601f016020809104026020016040519081016040528093929190818152602001838380828437600081840152601f19601f820116905080830192505050505050509192919290803573ffffffffffffffffffffffffffffffffffffffff1690602001909291905050506140b9565b604051808215151515815260200191505060405180910390f35b34801561160057600080fd5b506116ba6004803603602081101561161757600080fd5b810190808035906020019064010000000081111561163457600080fd5b82018360208201111561164657600080fd5b8035906020019184600183028401116401000000008311171561166857600080fd5b91908080601f016020809104026020016040519081016040528093929190818152602001838380828437600081840152601f19601f820116905080830192505050505050509192919290505050614197565b6040518080602001828103825283818151815260200191508051906020019080838360005b838110156116fa5780820151818401526020810190506116df565b50505050905090810190601f1680156117275780820380516001836020036101000a031916815260200191505b509250505060405180910390f35b34801561174157600080fd5b506117fb6004803603602081101561175857600080fd5b810190808035906020019064010000000081111561177557600080fd5b82018360208201111561178757600080fd5b803590602001918460018302840111640100000000831117156117a957600080fd5b91908080601f016020809104026020016040519081016040528093929190818152602001838380828437600081840152601f19601f8201169050808301925050505050505091929192905050506142a7565b604051808215151515815260200191505060405180910390f35b6118d86004803603604081101561182b57600080fd5b810190808035906020019064010000000081111561184857600080fd5b82018360208201111561185a57600080fd5b8035906020019184600183028401116401000000008311171561187c57600080fd5b91908080601f016020809104026020016040519081016040528093929190818152602001838380828437600081840152601f19601f8201169050808301925050505050505091929192908035906020019092919050505061432c565b005b3480156118e657600080fd5b506119c0600480360360408110156118fd57600080fd5b810190808035906020019064010000000081111561191a57600080fd5b82018360208201111561192c57600080fd5b8035906020019184600183028401116401000000008311171561194e57600080fd5b91908080601f016020809104026020016040519081016040528093929190818152602001838380828437600081840152601f19601f820116905080830192505050505050509192919290803573ffffffffffffffffffffffffffffffffffffffff1690602001909291905050506145b1565b005b3480156119ce57600080fd5b506119fb600480360360208110156119e557600080fd5b8101908080359060200190929190505050614739565b6040518082815260200191505060405180910390f35b348015611a1d57600080fd5b50611a2661474f565b604051808273ffffffffffffffffffffffffffffffffffffffff1673ffffffffffffffffffffffffffffffffffffffff16815260200191505060405180910390f35b348015611a7457600080fd5b50611aa160048036036020811015611a8b57600080fd5b8101908080359060200190929190505050614774565b6040518080602001828103825283818151815260200191508051906020019080838360005b83811015611ae1578082015181840152602081019050611ac6565b50505050905090810190601f168015611b0e5780820380516001836020036101000a031916815260200191505b509250505060405180910390f35b348015611b2857600080fd5b50611be260048036036020811015611b3f57600080fd5b8101908080359060200190640100000000811115611b5c57600080fd5b820183602082011115611b6e57600080fd5b80359060200191846001830284011164010000000083111715611b9057600080fd5b91908080601f016020809104026020016040519081016040528093929190818152602001838380828437600081840152601f19601f82011690508083019250505050505050919291929050505061482f565b604051808273ffffffffffffffffffffffffffffffffffffffff1673ffffffffffffffffffffffffffffffffffffffff16815260200191505060405180910390f35b348015611c3057600080fd5b50611cea60048036036020811015611c4757600080fd5b8101908080359060200190640100000000811115611c6457600080fd5b820183602082011115611c7657600080fd5b80359060200191846001830284011164010000000083111715611c9857600080fd5b91908080601f016020809104026020016040519081016040528093929190818152602001838380828437600081840152601f19601f8201169050808301925050505050505091929192905050506148c7565b6040518080602001828103825283818151815260200191508051906020019080838360005b83811015611d2a578082015181840152602081019050611d0f565b50505050905090810190601f168015611d575780820380516001836020036101000a031916815260200191505b509250505060405180910390f35b348015611d7157600080fd5b50611e4b60048036036040811015611d8857600080fd5b8101908080359060200190640100000000811115611da557600080fd5b820183602082011115611db757600080fd5b80359060200191846001830284011164010000000083111715611dd957600080fd5b91908080601f016020809104026020016040519081016040528093929190818152602001838380828437600081840152601f19601f820116905080830192505050505050509192919290803573ffffffffffffffffffffffffffffffffffffffff169060200190929190505050614a2c565b604051808215151515815260200191505060405180910390f35b348015611e7157600080fd5b50611f4b60048036036040811015611e8857600080fd5b8101908080359060200190640100000000811115611ea557600080fd5b820183602082011115611eb757600080fd5b80359060200191846001830284011164010000000083111715611ed957600080fd5b91908080601f016020809104026020016040519081016040528093929190818152602001838380828437600081840152601f19601f820116905080830192505050505050509192919290803573ffffffffffffffffffffffffffffffffffffffff169060200190929190505050614a78565b005b61201060048036036040811015611f6357600080fd5b8101908080359060200190640100000000811115611f8057600080fd5b820183602082011115611f9257600080fd5b80359060200191846001830284011164010000000083111715611fb457600080fd5b91908080601f016020809104026020016040519081016040528093929190818152602001838380828437600081840152601f19601f82011690508083019250505050505050919291929080359060200190929190505050614d29565b005b34801561201e57600080fd5b506120616004803603602081101561203557600080fd5b81019080803573ffffffffffffffffffffffffffffffffffffffff169060200190929190505050614efc565b005b34801561206f57600080fd5b506121496004803603604081101561208657600080fd5b81019080803590602001906401000000008111156120a357600080fd5b8201836020820111156120b557600080fd5b803590602001918460018302840111640100000000831117156120d757600080fd5b91908080601f016020809104026020016040519081016040528093929190818152602001838380828437600081840152601f19601f820116905080830192505050505050509192919290803573ffffffffffffffffffffffffffffffffffffffff169060200190929190505050614f9a565b6040518080602001828103825283818151815260200191508051906020019080838360005b8381101561218957808201518184015260208101905061216e565b50505050905090810190601f1680156121b65780820380516001836020036101000a031916815260200191505b509250505060405180910390f35b3480156121d057600080fd5b506121d96151b3565b6040518082815260200191505060405180910390f35b61250b600480360360c081101561220557600080fd5b810190808035906020019064010000000081111561222257600080fd5b82018360208201111561223457600080fd5b8035906020019184600183028401116401000000008311171561225657600080fd5b91908080601f016020809104026020016040519081016040528093929190818152602001838380828437600081840152601f19601f820116905080830192505050505050509192919290803590602001906401000000008111156122b957600080fd5b8201836020820111156122cb57600080fd5b803590602001918460018302840111640100000000831117156122ed57600080fd5b91908080601f016020809104026020016040519081016040528093929190818152602001838380828437600081840152601f19601f820116905080830192505050505050509192919290803590602001909291908035906020019064010000000081111561235a57600080fd5b82018360208201111561236c57600080fd5b8035906020019184602083028401116401000000008311171561238e57600080fd5b919080806020026020016040519081016040528093929190818152602001838360200280828437600081840152601f19601f820116905080830192505050505050509192919290803590602001906401000000008111156123ee57600080fd5b82018360208201111561240057600080fd5b8035906020019184600183028401116401000000008311171561242257600080fd5b91908080601f016020809104026020016040519081016040528093929190818152602001838380828437600081840152601f19601f8201169050808301925050505050505091929192908035906020019064010000000081111561248557600080fd5b82018360208201111561249757600080fd5b803590602001918460018302840111640100000000831117156124b957600080fd5b91908080601f016020809104026020016040519081016040528093929190818152602001838380828437600081840152601f19601f8201169050808301925050505050505091929192905050506151b9565b005b34801561251957600080fd5b506125f36004803603604081101561253057600080fd5b810190808035906020019064010000000081111561254d57600080fd5b82018360208201111561255f57600080fd5b8035906020019184600183028401116401000000008311171561258157600080fd5b91908080601f016020809104026020016040519081016040528093929190818152602001838380828437600081840152601f19601f820116905080830192505050505050509192919290803573ffffffffffffffffffffffffffffffffffffffff169060200190929190505050615474565b604051808215151515815260200191505060405180910390f35b34801561261957600080fd5b506126f36004803603604081101561263057600080fd5b810190808035906020019064010000000081111561264d57600080fd5b82018360208201111561265f57600080fd5b8035906020019184600183028401116401000000008311171561268157600080fd5b91908080601f016020809104026020016040519081016040528093929190818152602001838380828437600081840152601f19601f820116905080830192505050505050509192919290803573ffffffffffffffffffffffffffffffffffffffff1690602001909291905050506154b5565b604051808215151515815260200191505060405180910390f35b34801561271957600080fd5b506127d36004803603602081101561273057600080fd5b810190808035906020019064010000000081111561274d57600080fd5b82018360208201111561275f57600080fd5b8035906020019184600183028401116401000000008311171561278157600080fd5b91908080601f016020809104026020016040519081016040528093929190818152602001838380828437600081840152601f19601f820116905080830192505050505050509192919290505050615594565b604051808215151515815260200191505060405180910390f35b3480156127f957600080fd5b506128d36004803603604081101561281057600080fd5b810190808035906020019064010000000081111561282d57600080fd5b82018360208201111561283f57600080fd5b8035906020019184600183028401116401000000008311171561286157600080fd5b91908080601f016020809104026020016040519081016040528093929190818152602001838380828437600081840152601f19601f820116905080830192505050505050509192919290803573ffffffffffffffffffffffffffffffffffffffff16906020019092919050505061560f565b005b3480156128e157600080fd5b5061299b600480360360208110156128f857600080fd5b810190808035906020019064010000000081111561291557600080fd5b82018360208201111561292757600080fd5b8035906020019184600183028401116401000000008311171561294957600080fd5b91908080601f016020809104026020016040519081016040528093929190818152602001838380828437600081840152601f19601f82011690508083019250505050505050919291929050505061578a565b6040518082815260200191505060405180910390f35b3480156129bd57600080fd5b50612a97600480360360408110156129d457600080fd5b81019080803590602001906401000000008111156129f157600080fd5b820183602082011115612a0357600080fd5b80359060200191846001830284011164010000000083111715612a2557600080fd5b91908080601f016020809104026020016040519081016040528093929190818152602001838380828437600081840152601f19601f820116905080830192505050505050509192919290803573ffffffffffffffffffffffffffffffffffffffff169060200190929190505050615802565b60405180826004811115612aa757fe5b60ff16815260200191505060405180910390f35b348015612ac757600080fd5b50612b8160048036036020811015612ade57600080fd5b8101908080359060200190640100000000811115612afb57600080fd5b820183602082011115612b0d57600080fd5b80359060200191846001830284011164010000000083111715612b2f57600080fd5b91908080601f016020809104026020016040519081016040528093929190818152602001838380828437600081840152601f19601f8201169050808301925050505050505091929192905050506158c8565b005b348015612b8f57600080fd5b50612b98615a30565b6040518082815260200191505060405180910390f35b348015612bba57600080fd5b50612c7460048036036020811015612bd157600080fd5b8101908080359060200190640100000000811115612bee57600080fd5b820183602082011115612c0057600080fd5b80359060200191846001830284011164010000000083111715612c2257600080fd5b91908080601f016020809104026020016040519081016040528093929190818152602001838380828437600081840152601f19601f820116905080830192505050505050509192919290505050615a36565b6040518082815260200191505060405180910390f35b612c9381615594565b8015612ca55750612ca48133615474565b5b8015612cb75750612cb5816142a7565b155b1515612cc257600080fd5b60006005826040518082805190602001908083835b602083101515612cfc5780518252602082019150602081019050602083039250612cd7565b6001836020036101000a0380198251168184511680821785525050505050509050019150509081526020016040518091039020905060018160080160006101000a81548160ff021916908315150217905550600260008154809291906001900391905055505050565b60015481565b60606005826040518082805190602001908083835b602083101515612da55780518252602082019150602081019050602083039250612d80565b6001836020036101000a03801982511681845116808217855250505050505090500191505090815260200160405180910390206002018054600181600116156101000203166002900480601f016020809104026020016040519081016040528092919081815260200182805460018160011615610100020316600290048015612e6f5780601f10612e4457610100808354040283529160200191612e6f565b820191906000526020600020905b815481529060010190602001808311612e5257829003601f168201915b50505050509050919050565b612e8481615594565b8015612e965750612e9581336154b5565b5b1515612ea157600080fd5b60006005826040518082805190602001908083835b602083101515612edb5780518252602082019150602081019050602083039250612eb6565b6001836020036101000a0380198251168184511680821785525050505050509050019150509081526020016040518091039020600a0160003373ffffffffffffffffffffffffffffffffffffffff1673ffffffffffffffffffffffffffffffffffffffff16815260200190815260200160002090506000816003015410151515612f6457600080fd5b3373ffffffffffffffffffffffffffffffffffffffff166108fc82600301549081150290604051600060405180830381858888f19350505050158015612fae573d6000803e3d6000fd5b506000816003018190555060048160000160006101000a81548160ff02191690836004811115612fda57fe5b02179055505050565b60006005826040518082805190602001908083835b60208310151561301d5780518252602082019150602081019050602083039250612ff8565b6001836020036101000a0380198251168184511680821785525050505050509050019150509081526020016040518091039020600601549050919050565b600080600481111561306957fe5b6005846040518082805190602001908083835b6020831015156130a1578051825260208201915060208101905060208303925061307c565b6001836020036101000a0380198251168184511680821785525050505050509050019150509081526020016040518091039020600a0160008473ffffffffffffffffffffffffffffffffffffffff1673ffffffffffffffffffffffffffffffffffffffff16815260200190815260200160002060000160009054906101000a900460ff16600481111561313057fe5b1415905092915050565b6000613145836142a7565b80613156575061315583836140b9565b5b80613167575061316683836154b5565b5b8061317857506131778383615474565b5b15905092915050565b6000809054906101000a900473ffffffffffffffffffffffffffffffffffffffff1673ffffffffffffffffffffffffffffffffffffffff163373ffffffffffffffffffffffffffffffffffffffff161415156131dc57600080fd5b6000809054906101000a900473ffffffffffffffffffffffffffffffffffffffff1673ffffffffffffffffffffffffffffffffffffffff166108fc3073ffffffffffffffffffffffffffffffffffffffff16319081150290604051600060405180830381858888f1935050505015801561325a573d6000803e3d6000fd5b50565b60006005836040518082805190602001908083835b6020831015156132975780518252602082019150602081019050602083039250613272565b6001836020036101000a0380198251168184511680821785525050505050509050019150509081526020016040518091039020600a0160008373ffffffffffffffffffffffffffffffffffffffff1673ffffffffffffffffffffffffffffffffffffffff16815260200190815260200160002060010154905092915050565b60006005836040518082805190602001908083835b602083101515613350578051825260208201915060208101905060208303925061332b565b6001836020036101000a03801982511681845116808217855250505050505090500191505090815260200160405180910390206007016001830381548110151561339657fe5b9060005260206000200154905092915050565b6133b284615594565b80156133c457506133c3843361313a565b5b15156133cf57600080fd5b60008311801561344d57506005846040518082805190602001908083835b60208310151561341257805182526020820191506020810190506020830392506133ed565b6001836020036101000a0380198251168184511680821785525050505050509050019150509081526020016040518091039020600601548311155b151561345857600080fd5b600061346c6134678686613316565b614739565b905080341015151561347d57600080fd5b60006005866040518082805190602001908083835b6020831015156134b75780518252602082019150602081019050602083039250613492565b6001836020036101000a03801982511681845116808217855250505050505090500191505090815260200160405180910390209050600060048111156134f957fe5b81600a0160003373ffffffffffffffffffffffffffffffffffffffff1673ffffffffffffffffffffffffffffffffffffffff16815260200190815260200160002060000160009054906101000a900460ff16600481111561355657fe5b14156135c3573381600901600083600501600081548092919060010191905055815260200190815260200160002060006101000a81548173ffffffffffffffffffffffffffffffffffffffff021916908373ffffffffffffffffffffffffffffffffffffffff1602179055505b60e060405190810160405280600160048111156135dc57fe5b815260200160008152602001868152602001838152602001848152602001858152602001602060405190810160405280600081525081525081600a0160003373ffffffffffffffffffffffffffffffffffffffff1673ffffffffffffffffffffffffffffffffffffffff16815260200190815260200160002060008201518160000160006101000a81548160ff0219169083600481111561367957fe5b021790555060208201518160010155604082015181600201556060820151816003015560808201518160040190805190602001906136b8929190615aae565b5060a08201518160050190805190602001906136d5929190615aae565b5060c08201518160060190805190602001906136f2929190615aae565b509050507f7e558bb9898d8d17809158db6c967a8ea47d93a15a5d359a1186352a086cfb7c6005876040518082805190602001908083835b60208310151561374f578051825260208201915060208101905060208303925061372a565b6001836020036101000a038019825116818451168082178552505050505050905001915050908152602001604051809103902060040187336040518080602001806020018473ffffffffffffffffffffffffffffffffffffffff1673ffffffffffffffffffffffffffffffffffffffff1681526020018381038352868181546001816001161561010002031660029004815260200191508054600181600116156101000203166002900480156138465780601f1061381b57610100808354040283529160200191613846565b820191906000526020600020905b81548152906001019060200180831161382957829003601f168201915b5050838103825285818151815260200191508051906020019080838360005b83811015613880578082015181840152602081019050613865565b50505050905090810190601f1680156138ad5780820380516001836020036101000a031916815260200191505b509550505050505060405180910390a1505050505050565b60006007826040518082805190602001908083835b6020831015156138ff57805182526020820191506020810190506020830392506138da565b6001836020036101000a038019825116818451168082178552505050505050905001915050908152602001604051809103902060000160000160009054906101000a900473ffffffffffffffffffffffffffffffffffffffff169050919050565b60006005836040518082805190602001908083835b60208310151561399a5780518252602082019150602081019050602083039250613975565b6001836020036101000a0380198251168184511680821785525050505050509050019150509081526020016040518091039020600a0160008373ffffffffffffffffffffffffffffffffffffffff1673ffffffffffffffffffffffffffffffffffffffff16815260200190815260200160002060020154905092915050565b60006005836040518082805190602001908083835b602083101515613a535780518252602082019150602081019050602083039250613a2e565b6001836020036101000a0380198251168184511680821785525050505050509050019150509081526020016040518091039020905081816003019080519060200190613aa0929190615b2e565b50505050565b600481815481101515613ab557fe5b906000526020600020016000915090508054600181600116156101000203166002900480601f016020809104026020016040519081016040528092919081815260200182805460018160011615610100020316600290048015613b595780601f10613b2e57610100808354040283529160200191613b59565b820191906000526020600020905b815481529060010190602001808311613b3c57829003601f168201915b505050505081565b60606005826040518082805190602001908083835b602083101515613b9b5780518252602082019150602081019050602083039250613b76565b6001836020036101000a0380198251168184511680821785525050505050509050019150509081526020016040518091039020600701805480602002602001604051908101604052809291908181526020018280548015613c1b57602002820191906000526020600020905b815481526020019060010190808311613c07575b50505050509050919050565b613c3083615594565b8015613c425750613c418333615474565b5b8015613c545750613c5383836154b5565b5b1515613c5f57600080fd5b60006005846040518082805190602001908083835b602083101515613c995780518252602082019150602081019050602083039250613c74565b6001836020036101000a0380198251168184511680821785525050505050509050019150509081526020016040518091039020600a0160008473ffffffffffffffffffffffffffffffffffffffff1673ffffffffffffffffffffffffffffffffffffffff16815260200190815260200160002090506000816003015410151515613d2257600080fd5b3373ffffffffffffffffffffffffffffffffffffffff166108fc82600301549081150290604051600060405180830381858888f19350505050158015613d6c573d6000803e3d6000fd5b506000816003018190555060048160000160006101000a81548160ff02191690836004811115613d9857fe5b02179055508060020154816001018190555081816006019080519060200190613dc2929190615b2e565b507f87deb0bf3260371a3845769d523869b17a51dab5e82dd1d7db896b489fe42f578160040185600160405180806020018060200184151515158152602001838103835286818154600181600116156101000203166002900481526020019150805460018160011615610100020316600290048015613e825780601f10613e5757610100808354040283529160200191613e82565b820191906000526020600020905b815481529060010190602001808311613e6557829003601f168201915b5050838103825285818151815260200191508051906020019080838360005b83811015613ebc578082015181840152602081019050613ea1565b50505050905090810190601f168015613ee95780820380516001836020036101000a031916815260200191505b509550505050505060405180910390a150505050565b60006005836040518082805190602001908083835b602083101515613f395780518252602082019150602081019050602083039250613f14565b6001836020036101000a0380198251168184511680821785525050505050509050019150509081526020016040518091039020600901600083815260200190815260200160002060009054906101000a900473ffffffffffffffffffffffffffffffffffffffff16905092915050565b60606005826040518082805190602001908083835b602083101515613fe35780518252602082019150602081019050602083039250613fbe565b6001836020036101000a03801982511681845116808217855250505050505090500191505090815260200160405180910390206003018054600181600116156101000203166002900480601f0160208091040260200160405190810160405280929190818152602001828054600181600116156101000203166002900480156140ad5780601f10614082576101008083540402835291602001916140ad565b820191906000526020600020905b81548152906001019060200180831161409057829003601f168201915b50505050509050919050565b60006004808111156140c757fe5b6005846040518082805190602001908083835b6020831015156140ff57805182526020820191506020810190506020830392506140da565b6001836020036101000a0380198251168184511680821785525050505050509050019150509081526020016040518091039020600a0160008473ffffffffffffffffffffffffffffffffffffffff1673ffffffffffffffffffffffffffffffffffffffff16815260200190815260200160002060000160009054906101000a900460ff16600481111561418e57fe5b14905092915050565b60606005826040518082805190602001908083835b6020831015156141d157805182526020820191506020810190506020830392506141ac565b6001836020036101000a03801982511681845116808217855250505050505090500191505090815260200160405180910390206004018054600181600116156101000203166002900480601f01602080910402602001604051908101604052809291908181526020018280546001816001161561010002031660029004801561429b5780601f106142705761010080835404028352916020019161429b565b820191906000526020600020905b81548152906001019060200180831161427e57829003601f168201915b50505050509050919050565b60006005826040518082805190602001908083835b6020831015156142e157805182526020820191506020810190506020830392506142bc565b6001836020036101000a038019825116818451168082178552505050505050905001915050908152602001604051809103902060080160009054906101000a900460ff169050919050565b61433582615594565b801561434757506143468233614a2c565b5b151561435257600080fd5b60006005836040518082805190602001908083835b60208310151561438c5780518252602082019150602081019050602083039250614367565b6001836020036101000a0380198251168184511680821785525050505050509050019150509081526020016040518091039020600a0160003373ffffffffffffffffffffffffffffffffffffffff1673ffffffffffffffffffffffffffffffffffffffff1681526020019081526020016000206001015490506005836040518082805190602001908083835b60208310151561443d5780518252602082019150602081019050602083039250614418565b6001836020036101000a038019825116818451168082178552505050505050905001915050908152602001604051809103902060060154821115801561448257508082115b151561448d57600080fd5b60006144998483613316565b6144a38585613316565b03905060006144b182614739565b90508034101515156144c257600080fd5b60006005866040518082805190602001908083835b6020831015156144fc57805182526020820191506020810190506020830392506144d7565b6001836020036101000a0380198251168184511680821785525050505050509050019150509081526020016040518091039020600a0160003373ffffffffffffffffffffffffffffffffffffffff1673ffffffffffffffffffffffffffffffffffffffff168152602001908152602001600020905060018160000160006101000a81548160ff0219169083600481111561459257fe5b0217905550848160020181905550818160030181905550505050505050565b6145ba82615594565b80156145cc57506145cb8233615474565b5b80156145de57506145dd82826154b5565b5b15156145e957600080fd5b60006005836040518082805190602001908083835b60208310151561462357805182526020820191506020810190506020830392506145fe565b6001836020036101000a0380198251168184511680821785525050505050509050019150509081526020016040518091039020600a0160008373ffffffffffffffffffffffffffffffffffffffff1673ffffffffffffffffffffffffffffffffffffffff168152602001908152602001600020905060008160030154101515156146ac57600080fd5b3373ffffffffffffffffffffffffffffffffffffffff166108fc82600301549081150290604051600060405180830381858888f193505050501580156146f6573d6000803e3d6000fd5b506000816003018190555060048160000160006101000a81548160ff0219169083600481111561472257fe5b021790555080600201548160010181905550505050565b600060828281151561474757fe5b049050919050565b6000809054906101000a900473ffffffffffffffffffffffffffffffffffffffff1681565b60068181548110151561478357fe5b906000526020600020016000915090508054600181600116156101000203166002900480601f0160208091040260200160405190810160405280929190818152602001828054600181600116156101000203166002900480156148275780601f106147fc57610100808354040283529160200191614827565b820191906000526020600020905b81548152906001019060200180831161480a57829003601f168201915b505050505081565b60006005826040518082805190602001908083835b6020831015156148695780518252602082019150602081019050602083039250614844565b6001836020036101000a038019825116818451168082178552505050505050905001915050908152602001604051809103902060000160009054906101000a900473ffffffffffffffffffffffffffffffffffffffff169050919050565b60606148d382336140b9565b15156148de57600080fd5b6005826040518082805190602001908083835b60208310151561491657805182526020820191506020810190506020830392506148f1565b6001836020036101000a0380198251168184511680821785525050505050509050019150509081526020016040518091039020600a0160003373ffffffffffffffffffffffffffffffffffffffff1673ffffffffffffffffffffffffffffffffffffffff1681526020019081526020016000206006018054600181600116156101000203166002900480601f016020809104026020016040519081016040528092919081815260200182805460018160011615610100020316600290048015614a205780601f106149f557610100808354040283529160200191614a20565b820191906000526020600020905b815481529060010190602001808311614a0357829003601f168201915b50505050509050919050565b6000614a37836142a7565b158015614a4a5750614a4983836140b9565b5b8015614a5d5750614a5b83836154b5565b155b8015614a705750614a6e8383615474565b155b905092915050565b614a8182615594565b8015614a935750614a928233615474565b5b8015614aa55750614aa482826154b5565b5b1515614ab057600080fd5b60006005836040518082805190602001908083835b602083101515614aea5780518252602082019150602081019050602083039250614ac5565b6001836020036101000a0380198251168184511680821785525050505050509050019150509081526020016040518091039020600a0160008373ffffffffffffffffffffffffffffffffffffffff1673ffffffffffffffffffffffffffffffffffffffff16815260200190815260200160002090506000816003015410151515614b7357600080fd5b8173ffffffffffffffffffffffffffffffffffffffff166108fc82600301549081150290604051600060405180830381858888f19350505050158015614bbd573d6000803e3d6000fd5b506000816003018190555060028160000160006101000a81548160ff02191690836004811115614be957fe5b02179055507f87deb0bf3260371a3845769d523869b17a51dab5e82dd1d7db896b489fe42f578160040184600060405180806020018060200184151515158152602001838103835286818154600181600116156101000203166002900481526020019150805460018160011615610100020316600290048015614cad5780601f10614c8257610100808354040283529160200191614cad565b820191906000526020600020905b815481529060010190602001808311614c9057829003601f168201915b5050838103825285818151815260200191508051906020019080838360005b83811015614ce7578082015181840152602081019050614ccc565b50505050905090810190601f168015614d145780820380516001836020036101000a031916815260200191505b509550505050505060405180910390a1505050565b614d3282615594565b8015614d445750614d43823361313a565b5b8015614d565750614d55823361305b565b5b1515614d6157600080fd5b600081118015614ddf57506005826040518082805190602001908083835b602083101515614da45780518252602082019150602081019050602083039250614d7f565b6001836020036101000a0380198251168184511680821785525050505050509050019150509081526020016040518091039020600601548111155b1515614dea57600080fd5b6000614dfe614df98484613316565b614739565b9050803410151515614e0f57600080fd5b60006005846040518082805190602001908083835b602083101515614e495780518252602082019150602081019050602083039250614e24565b6001836020036101000a0380198251168184511680821785525050505050509050019150509081526020016040518091039020600a0160003373ffffffffffffffffffffffffffffffffffffffff1673ffffffffffffffffffffffffffffffffffffffff168152602001908152602001600020905060018160000160006101000a81548160ff02191690836004811115614edf57fe5b021790555082816002018190555081816003018190555050505050565b6000809054906101000a900473ffffffffffffffffffffffffffffffffffffffff1673ffffffffffffffffffffffffffffffffffffffff163373ffffffffffffffffffffffffffffffffffffffff16141515614f5757600080fd5b806000806101000a81548173ffffffffffffffffffffffffffffffffffffffff021916908373ffffffffffffffffffffffffffffffffffffffff16021790555050565b60606005836040518082805190602001908083835b602083101515614fd45780518252602082019150602081019050602083039250614faf565b6001836020036101000a038019825116818451168082178552505050505050905001915050908152602001604051809103902060000160009054906101000a900473ffffffffffffffffffffffffffffffffffffffff1673ffffffffffffffffffffffffffffffffffffffff163373ffffffffffffffffffffffffffffffffffffffff1614151561506457600080fd5b6005836040518082805190602001908083835b60208310151561509c5780518252602082019150602081019050602083039250615077565b6001836020036101000a0380198251168184511680821785525050505050509050019150509081526020016040518091039020600a0160008373ffffffffffffffffffffffffffffffffffffffff1673ffffffffffffffffffffffffffffffffffffffff1681526020019081526020016000206005018054600181600116156101000203166002900480601f0160208091040260200160405190810160405280929190818152602001828054600181600116156101000203166002900480156151a65780601f1061517b576101008083540402835291602001916151a6565b820191906000526020600020905b81548152906001019060200180831161518957829003601f168201915b5050505050905092915050565b60025481565b60006005876040518082805190602001908083835b6020831015156151f357805182526020820191506020810190506020830392506151ce565b6001836020036101000a038019825116818451168082178552505050505050905001915050908152602001604051809103902060010154148015615241575061523d600154614739565b3410155b801561524d5750838351145b151561525857600080fd5b610120604051908101604052803373ffffffffffffffffffffffffffffffffffffffff16815260200142815260200186815260200183815260200182815260200160008152602001858152602001848152602001600015158152506005876040518082805190602001908083835b6020831015156152eb57805182526020820191506020810190506020830392506152c6565b6001836020036101000a038019825116818451168082178552505050505050905001915050908152602001604051809103902060008201518160000160006101000a81548173ffffffffffffffffffffffffffffffffffffffff021916908373ffffffffffffffffffffffffffffffffffffffff16021790555060208201518160010155604082015181600201908051906020019061538b929190615aae565b5060608201518160030190805190602001906153a8929190615aae565b5060808201518160040190805190602001906153c5929190615aae565b5060a0820151816005015560c0820151816006015560e08201518160070190805190602001906153f6929190615bae565b506101008201518160080160006101000a81548160ff0219169083151502179055509050506004869080600181540180825580915050906001820390600052602060002001600090919290919091509080519060200190615458929190615b2e565b5050600260008154809291906001019190505550505050505050565b60008173ffffffffffffffffffffffffffffffffffffffff166154968461482f565b73ffffffffffffffffffffffffffffffffffffffff1614905092915050565b6000600160048111156154c457fe5b6005846040518082805190602001908083835b6020831015156154fc57805182526020820191506020810190506020830392506154d7565b6001836020036101000a0380198251168184511680821785525050505050509050019150509081526020016040518091039020600a0160008473ffffffffffffffffffffffffffffffffffffffff1673ffffffffffffffffffffffffffffffffffffffff16815260200190815260200160002060000160009054906101000a900460ff16600481111561558b57fe5b14905092915050565b6000806005836040518082805190602001908083835b6020831015156155cf57805182526020820191506020810190506020830392506155aa565b6001836020036101000a03801982511681845116808217855250505050505090500191505090815260200160405180910390206001015414159050919050565b61561882615594565b801561562a57506156298233615474565b5b801561563c575061563b82826154b5565b5b151561564757600080fd5b60006005836040518082805190602001908083835b602083101515615681578051825260208201915060208101905060208303925061565c565b6001836020036101000a0380198251168184511680821785525050505050509050019150509081526020016040518091039020600a0160008373ffffffffffffffffffffffffffffffffffffffff1673ffffffffffffffffffffffffffffffffffffffff1681526020019081526020016000209050600081600301541015151561570a57600080fd5b8173ffffffffffffffffffffffffffffffffffffffff166108fc82600301549081150290604051600060405180830381858888f19350505050158015615754573d6000803e3d6000fd5b506000816003018190555060048160000160006101000a81548160ff0219169083600481111561578057fe5b0217905550505050565b60006005826040518082805190602001908083835b6020831015156157c4578051825260208201915060208101905060208303925061579f565b6001836020036101000a0380198251168184511680821785525050505050509050019150509081526020016040518091039020600501549050919050565b60006005836040518082805190602001908083835b60208310151561583c5780518252602082019150602081019050602083039250615817565b6001836020036101000a0380198251168184511680821785525050505050509050019150509081526020016040518091039020600a0160008373ffffffffffffffffffffffffffffffffffffffff1673ffffffffffffffffffffffffffffffffffffffff16815260200190815260200160002060000160009054906101000a900460ff16905092915050565b6158d181615594565b80156158e357506158e281336154b5565b5b15156158ee57600080fd5b60006005826040518082805190602001908083835b6020831015156159285780518252602082019150602081019050602083039250615903565b6001836020036101000a0380198251168184511680821785525050505050509050019150509081526020016040518091039020600a0160003373ffffffffffffffffffffffffffffffffffffffff1673ffffffffffffffffffffffffffffffffffffffff168152602001908152602001600020905060008160030154101515156159b157600080fd5b3373ffffffffffffffffffffffffffffffffffffffff166108fc82600301549081150290604051600060405180830381858888f193505050501580156159fb573d6000803e3d6000fd5b506000816003018190555060038160000160006101000a81548160ff02191690836004811115615a2757fe5b02179055505050565b60035481565b60006005826040518082805190602001908083835b602083101515615a705780518252602082019150602081019050602083039250615a4b565b6001836020036101000a0380198251168184511680821785525050505050509050019150509081526020016040518091039020600101549050919050565b828054600181600116156101000203166002900490600052602060002090601f016020900481019282601f10615aef57805160ff1916838001178555615b1d565b82800160010185558215615b1d579182015b82811115615b1c578251825591602001919060010190615b01565b5b509050615b2a9190615bfb565b5090565b828054600181600116156101000203166002900490600052602060002090601f016020900481019282601f10615b6f57805160ff1916838001178555615b9d565b82800160010185558215615b9d579182015b82811115615b9c578251825591602001919060010190615b81565b5b509050615baa9190615bfb565b5090565b828054828255906000526020600020908101928215615bea579160200282015b82811115615be9578251825591602001919060010190615bce565b5b509050615bf79190615bfb565b5090565b615c1d91905b80821115615c19576000816000905550600101615c01565b5090565b9056fea165627a7a72305820ab13ec0d76e8370453bc698ba077224ec994a832200a24af1a2e55e90d378b8d0029",
  "source": "pragma solidity ^0.5.0;\n\nimport './AccessRestricted.sol';\nimport './TimeStamping.sol';\nimport './FiatContract.sol';\n\ncontract Patenting is AccessRestricted {\n\n    uint public patentPrice;\n    uint public patentCount;\n    uint public albumCount;\n\n    enum RequestStatus {Not_requested, Pending, Rejected, Cancelled, Accepted}\n\n    /* Struct for request */\n    struct Request {\n        RequestStatus status;\n        uint acceptedLicence;  // can put uint8 ?\n        uint requestedLicence; // can put uint8 ?\n        uint deposit;\n        string email;\n        string encryptionKey;\n        string encryptedIpfsKey;\n    }\n\n    /* Struct for patent */\n    struct Patent {\n        address owner;\n        uint timestamp;\n        string patentHash;\n        string ipfs;\n        string email;\n        uint numRequests;\n        uint maxLicence;  // can put uint8 ?\n        uint[] licencePrices;\n        bool deleted;\n        mapping(uint => address) buyers;\n        mapping(address => Request) requests;\n    }\n\n    struct Album {\n        Patent patent; // album info, same infos than single patent\n        // string[] songsName;\n    }\n\n    // mapping for songs\n    string[] public patentNames;\n    mapping(string => Patent) private patents; // patent name to Patent\n\n    // mapping for albums\n    string[] public albumNames;\n    mapping(string => Album) private albums; // album name to Album\n\n    event NewRequest(\n        string _ownerMail,\n        string _patentName,\n        address _rentee\n        // uint _requestedLicence\n    );\n\n    event RequestResponse(\n        string _requesterEmail,\n        string _patentName,\n        bool _accepted\n    );\n\n    // FiatContract fiat;\n\n    /* Constructor of the contract\n    * {param} uint : The price for depositing a pattern in Wei\n    */\n    constructor(uint _patentPrice, address _fiatContract) public {\n        // fiat = FiatContract(_fiatContract);\n        patentPrice = _patentPrice;\n    }\n\n    /*Allows the owner to withdraw the remaining funds*/\n    function withdrawFunds() public onlyOwner {\n        owner.transfer(address(this).balance);\n    }\n\n    function getEthPrice(uint _dollars) public view returns (uint) {\n        // return fiat.USD(0) * 100 * _dollars;\n        return _dollars / 130;\n    }\n\n    /* ======================================== DEPOSIT FUNCTIONS ======================================= */\n\n    /* Function to deposit a patent\n    * {params} the patent parameters\n    * {costs} the price of a patent\n    */\n    function depositPatent(string memory _patentName, string memory _patentHash, uint _maxLicence, uint[] memory _licencePrices, string memory _ipfs, string memory _email) public payable {\n        require(patents[_patentName].timestamp == 0 && msg.value >= getEthPrice(patentPrice) && _licencePrices.length == _maxLicence);\n        patents[_patentName] = Patent(msg.sender, now, _patentHash, _ipfs, _email, 0, _maxLicence, _licencePrices, false);\n        patentNames.push(_patentName);\n        patentCount++;\n    }\n\n    /* ======================================== PATENT MANAGEMENT FUNCTIONS ======================================= */\n\n    /* Function called when a file is updated to set its IPFS location\n    * {params} the new IPFS location\n    */\n    function setIpfsLocation(string memory _patentName, string memory _newIpfs) public {\n        // require(isRegistered(_patentName) && isOwner(_patentName, msg.sender));\n        // if(patents[_patentName].ipfs != _newIpfs)\n        Patent storage p = patents[_patentName];\n        p.ipfs = _newIpfs;\n\n        // emit un event pour notifier que ca a change et envoyer un mail aux buyers du patent\n        // emit modifiedPatent(true);\n    }\n\n    /* delete a patent (i.e. not accessible to other users) */\n    function deletePatent(string memory _patentName) public {\n        require(isRegistered(_patentName) && isOwner(_patentName, msg.sender) && !isDeleted(_patentName));\n        Patent storage p = patents[_patentName];\n        p.deleted = true;\n        patentCount--;\n    }\n\n    /* ======================================== REQUEST MANAGEMENT FUNCTIONS ======================================= */\n\n    /* ------------------------------------------ NEW REQUESTS MANAGEMENT ------------------------------------------ */\n\n    /* Function to request access to a patent\n    * {params} _patentName : name of patent\n    *          _requestedLicence : licence requested for the patent\n    *          _encryptionKey : key to encrypt AES key with (key exchange protocol)\n    * {costs} price of the patent : will be frozen until request is accepted, rejected, or cancelled\n    */\n    function requestAccess(string memory _patentName, uint _requestedLicence, string memory _encryptionKey, string memory _email) public payable {\n        require(isRegistered(_patentName) && canRequest(_patentName, msg.sender));\n        require(_requestedLicence > 0 && _requestedLicence <= patents[_patentName].maxLicence);\n        uint ethPrice = getEthPrice(getPrice(_patentName, _requestedLicence));\n        require(msg.value >= ethPrice);\n        Patent storage p = patents[_patentName];\n        if (p.requests[msg.sender].status == RequestStatus.Not_requested) {\n            p.buyers[p.numRequests++] = msg.sender;\n        }\n        p.requests[msg.sender] = Request(RequestStatus.Pending, 0, _requestedLicence, ethPrice, _email, _encryptionKey, \"\");\n        emit NewRequest(patents[_patentName].email, _patentName, msg.sender); // put licence in event\n    }\n\n    /* Resend a rejected or cancelled request */\n    function resendRequest(string memory _patentName, uint _requestedLicence) public payable {\n        require(isRegistered(_patentName) && canRequest(_patentName, msg.sender) && hasBeenRequested(_patentName, msg.sender));\n        require(_requestedLicence > 0 && _requestedLicence <= patents[_patentName].maxLicence);\n        uint ethPrice = getEthPrice(getPrice(_patentName, _requestedLicence));\n        require(msg.value >= ethPrice);\n        Request storage r = patents[_patentName].requests[msg.sender];\n        r.status = RequestStatus.Pending;\n        r.requestedLicence = _requestedLicence;\n        r.deposit = ethPrice;\n    }\n\n    /* Function to grant access to a user\n    * {params} _patentName : name of patent\n    *          _user : user to give access to (must have requested)\n    *          _encryptedIpfsKey : encrypted AES key to decrypt file on ipfs\n    *   Transfers the amount to the patent owner\n    */\n    function grantAccess(string memory _patentName, address _user, string memory _encryptedIpfsKey) public {\n        require(isRegistered(_patentName) && isOwner(_patentName, msg.sender) && isPending(_patentName, _user));\n        Request storage r = patents[_patentName].requests[_user];\n        require(r.deposit >= 0);\n        msg.sender.transfer(r.deposit);\n        r.deposit = 0;\n        r.status = RequestStatus.Accepted;\n        r.acceptedLicence = r.requestedLicence;\n        // r.requestedLicence = 0;\n        r.encryptedIpfsKey = _encryptedIpfsKey;\n        emit RequestResponse(r.email, _patentName, true); // put licence in event\n    }\n\n    /* Function to reject access to a patent\n    * {params} : Same as above\n    * Refunds the amount to the user\n    */\n    function rejectAccess(string memory _patentName, address payable _user) public {\n        require(isRegistered(_patentName) && isOwner(_patentName, msg.sender) && isPending(_patentName, _user));\n        Request storage r = patents[_patentName].requests[_user];\n        require(r.deposit >= 0);\n        // Refund back to user\n        _user.transfer(r.deposit);\n        r.deposit = 0;\n        r.status = RequestStatus.Rejected;\n        emit RequestResponse(r.email, _patentName, false);\n    }\n\n    /* Function that cancels a request (can only be called by user)\n    * {params} : _patentName : name of patent\n    */\n    function cancelRequest(string memory _patentName) public {\n        require(isRegistered(_patentName) && isPending(_patentName, msg.sender));\n        Request storage r = patents[_patentName].requests[msg.sender];\n        require(r.deposit >= 0);\n        msg.sender.transfer(r.deposit);\n        r.deposit = 0;\n        r.status = RequestStatus.Cancelled;\n    }\n\n    /* ---------------------------------------- UPGRADE MANAGEMENT FUNCTIONS ---------------------------------------- */\n\n    /* Function to request a licence upgrade\n    * {params} _patentName : name of patent\n    *          _newRequestedLicence : new requested licence for the patent\n    * {costs} price of the requested licence - price of owned licence: will be frozen until request is accepted, rejected, or cancelled\n    */\n    function requestUpgrade(string memory _patentName, uint _requestedLicence) public payable {\n        require(isRegistered(_patentName) && canUpgrade(_patentName, msg.sender)); // && !patents[_patentName].deleted\n        uint userLicence = patents[_patentName].requests[msg.sender].acceptedLicence;\n        require(_requestedLicence <= patents[_patentName].maxLicence && _requestedLicence > userLicence);\n        // just pay the difference\n        uint price = getPrice(_patentName, _requestedLicence) - getPrice(_patentName, userLicence);\n        uint ethPrice = getEthPrice(price);\n        require(msg.value >= ethPrice);\n        Request storage r = patents[_patentName].requests[msg.sender];\n        r.status = RequestStatus.Pending;\n        r.requestedLicence = _requestedLicence;\n        r.deposit = ethPrice;\n        // emit NewUpgradeRequest(patents[_patentName].email, _patentName, _newRequestedLicence, msg.sender);\n    }\n\n    /* Function to upgrade licence access to a user\n    * {params} _patentName : name of patent\n    *          _user : user to give access to (must have requested)\n    *   Transfers the amount to the patent owner\n    */\n    function acceptUpgrade(string memory _patentName, address _user) public {\n        require(isRegistered(_patentName) && isOwner(_patentName, msg.sender) && isPending(_patentName, _user));\n        Request storage r = patents[_patentName].requests[_user];\n        require(r.deposit >= 0);\n        msg.sender.transfer(r.deposit);\n        r.deposit = 0;\n        r.status = RequestStatus.Accepted;\n        r.acceptedLicence = r.requestedLicence;\n        // r.requestedLicence = 0;\n        // emit RequestResponse(r.email, _patentName, true); // put licence in event\n    }\n\n    /* Function to reject access to an upgrade request\n    * {params} : Same as above\n    * Refunds the amount to the user\n    */\n    function rejectUpgrade(string memory _patentName, address payable _user) public {\n        require(isRegistered(_patentName) && isOwner(_patentName, msg.sender) && isPending(_patentName, _user));\n        Request storage r = patents[_patentName].requests[_user];\n        require(r.deposit >= 0);\n        // Refund back to user\n        _user.transfer(r.deposit);\n        r.deposit = 0;\n        // come back to previously accepted licence\n        r.status = RequestStatus.Accepted;\n        // r.requestedLicence = 0;\n        // emit RequestResponse(r.email, _patentName, false); // put licence in event\n    }\n\n    /* Function that cancels an upgrade request (to be called by requester)\n    * {params} : _patentName : name of patent\n    */\n    function cancelUpgrade(string memory _patentName) public {\n        require(isRegistered(_patentName) && isPending(_patentName, msg.sender));\n        Request storage r = patents[_patentName].requests[msg.sender];\n        require(r.deposit >= 0);\n        msg.sender.transfer(r.deposit);\n        r.deposit = 0;\n        // r.requestedLicence = 0;\n        // come back to previously accepted licence\n        r.status = RequestStatus.Accepted;\n    }\n\n    /* ============================== View functions that do not require transactions ============================== */\n\n    /*Returns true if the given account can request the given patent : is either Not_requested, cancelled or rejected*/\n    function canRequest(string memory _patentName, address _account) public view returns (bool){\n        return !(isDeleted(_patentName) || isAccepted(_patentName, _account) || isPending(_patentName, _account) || isOwner(_patentName, _account));\n    }\n\n    /*Returns true if the given account can request the given patent : is either Not_requested, cancelled or rejected*/\n    function canUpgrade(string memory _patentName, address _account) public view returns (bool){\n        return !isDeleted(_patentName) && isAccepted(_patentName, _account) && !isPending(_patentName, _account) && !isOwner(_patentName, _account);\n    }\n\n    /*Returns the RequestStatus of the given patent for the given account*/\n    function getRequestStatus(string memory _patentName, address _account) public view returns (RequestStatus){\n        return patents[_patentName].requests[_account].status;\n    }\n\n    /* Returns the Requested licence of the given patent for the given account */\n    function getRequestedLicence(string memory _patentName, address _account) public view returns (uint){\n        return patents[_patentName].requests[_account].requestedLicence;\n    }\n\n    /* Returns the Requested licence of the given patent for the given account */\n    function getAcceptedLicence(string memory _patentName, address _account) public view returns (uint){\n        return patents[_patentName].requests[_account].acceptedLicence;\n    }\n\n    /* Returns the Requested licence of the given patent for the given account */\n    function getMaxLicence(string memory _patentName) public view returns (uint){\n        return patents[_patentName].maxLicence;\n    }\n\n    /*Returns true of the given account has already requested the given patent*/\n    function hasBeenRequested(string memory _patentName, address _account) public view returns (bool){\n        return patents[_patentName].requests[_account].status != RequestStatus.Not_requested;\n    }\n\n    /*Returns true of the given account has a pending request on the given patent*/\n    function isPending(string memory _patentName, address _account) public view returns (bool){\n        return patents[_patentName].requests[_account].status == RequestStatus.Pending;\n    }\n\n    /*Verifies that the given address has been accepted for the given patent*/\n    function isAccepted(string memory _patentName, address _account) public view returns (bool){\n        return patents[_patentName].requests[_account].status == RequestStatus.Accepted;\n    }\n\n    /*Returns true if account is owner of given patent*/\n    function isOwner(string memory _patentName, address _account) public view returns (bool){\n        return getPatentOwner(_patentName) == _account;\n    }\n\n    /*Returns time-stamp of the Patent*/\n    function getTimeStamp(string memory _patentName) public view returns (uint){\n        return patents[_patentName].timestamp;\n    }\n\n    /*Returns the sha256 hash of the patent*/\n    function getPatentHash(string memory _patentName) public view returns (string memory){\n        return patents[_patentName].patentHash;\n    }\n\n    /*Returns patent's owner*/\n    function getPatentOwner(string memory _patentName) public view returns (address) {\n        return patents[_patentName].owner;\n    }\n\n    /*Returns album's owner*/\n    function getAlbumOwner(string memory _albumName) public view returns (address) {\n        return albums[_albumName].patent.owner;\n    }\n\n    /*Returns the price of a patent*/\n    function getPrice(string memory _patentName, uint _licence) public view returns (uint) {\n        // index by licence-1 because licence 0 price not stored in licencePrices since free\n        return patents[_patentName].licencePrices[_licence-1];\n    }\n\n    /*Returns the price of a patent*/\n    function getPrices(string memory _patentName) public view returns (uint[] memory) {\n        return patents[_patentName].licencePrices;\n    }\n\n    /*Returns the number of requests for the given patent*/\n    function getNumRequests(string memory _patentName) public view returns (uint){\n        return patents[_patentName].numRequests;\n    }\n\n    /*Returns the address of the buyer at _index  (Used for iterating)*/\n    function getBuyers(string memory _patentName, uint _index) public view returns (address){\n        return patents[_patentName].buyers[_index];\n    }\n\n    /*Returns the requester's public key*/\n    function getEncryptionKey(string memory _patentName, address _user) public view returns (string memory){\n        require(msg.sender == patents[_patentName].owner);\n        return patents[_patentName].requests[_user].encryptionKey;\n    }\n\n    /*Returns the encrypted IPFS encryption key*/\n    function getEncryptedIpfsKey(string memory _patentName) public view returns (string memory){\n        require(isAccepted(_patentName, msg.sender));\n        return patents[_patentName].requests[msg.sender].encryptedIpfsKey;\n    }\n\n    function getOwnerEmail(string memory _patentName) public view returns (string memory) {\n        return patents[_patentName].email;\n    }\n\n    /*Returns the IPFS location of the patent*/\n    function getPatentLocation(string memory _patentName) public view returns (string memory) {\n        return patents[_patentName].ipfs;\n    }\n\n    function isRegistered(string memory _patentName) public view returns (bool) {\n        return patents[_patentName].timestamp != 0;\n    }\n\n    /*Returns true if the patent has been deleted*/\n    function isDeleted(string memory _patentName) public view returns (bool) {\n        return patents[_patentName].deleted;\n    }\n}\n",
  "sourcePath": "/Users/axel/Developer/DNAM/Web-Applications/react-app/contracts/Patenting.sol",
  "compiler": {
    "name": "solc",
    "version": "0.5.0+commit.1d4f565a.Emscripten.clang"
  },
  "schemaVersion": "3.0.2",
  "updatedAt": "2019-05-13T12:10:16.836Z",
  "devdoc": {
    "methods": {}
  },
  "userdoc": {
    "methods": {}
  }
}