{
  "contractName": "Patenting",
  "abi": [
    {
      "constant": true,
      "inputs": [],
      "name": "depositPrice",
      "outputs": [
        {
          "name": "",
          "type": "uint256"
        }
      ],
      "payable": false,
      "stateMutability": "view",
      "type": "function"
    },
    {
      "constant": true,
      "inputs": [
        {
          "name": "",
          "type": "uint256"
        }
      ],
      "name": "patentIDs",
      "outputs": [
        {
          "name": "",
          "type": "string"
        }
      ],
      "payable": false,
      "stateMutability": "view",
      "type": "function"
    },
    {
      "constant": false,
      "inputs": [
        {
          "name": "_newOwner",
          "type": "address"
        }
      ],
      "name": "changeOwner",
      "outputs": [],
      "payable": false,
      "stateMutability": "nonpayable",
      "type": "function"
    },
    {
      "constant": true,
      "inputs": [
        {
          "name": "",
          "type": "uint256"
        }
      ],
      "name": "userIDs",
      "outputs": [
        {
          "name": "",
          "type": "address"
        }
      ],
      "payable": false,
      "stateMutability": "view",
      "type": "function"
    },
    {
      "inputs": [
        {
          "name": "_depositPrice",
          "type": "uint256"
        },
        {
          "name": "_fiatContract",
          "type": "address"
        }
      ],
      "payable": false,
      "stateMutability": "nonpayable",
      "type": "constructor"
    },
    {
      "anonymous": false,
      "inputs": [
        {
          "indexed": false,
          "name": "_ownerMail",
          "type": "string"
        },
        {
          "indexed": false,
          "name": "_patentName",
          "type": "string"
        },
        {
          "indexed": false,
          "name": "_rentee",
          "type": "address"
        }
      ],
      "name": "NewRequest",
      "type": "event"
    },
    {
      "anonymous": false,
      "inputs": [
        {
          "indexed": false,
          "name": "_requesterEmail",
          "type": "string"
        },
        {
          "indexed": false,
          "name": "_patentName",
          "type": "string"
        },
        {
          "indexed": false,
          "name": "_accepted",
          "type": "bool"
        }
      ],
      "name": "RequestResponse",
      "type": "event"
    },
    {
      "constant": false,
      "inputs": [],
      "name": "withdrawFunds",
      "outputs": [],
      "payable": false,
      "stateMutability": "nonpayable",
      "type": "function"
    },
    {
      "constant": false,
      "inputs": [
        {
          "name": "_newPrice",
          "type": "uint256"
        }
      ],
      "name": "setDepositPrice",
      "outputs": [],
      "payable": false,
      "stateMutability": "nonpayable",
      "type": "function"
    },
    {
      "constant": true,
      "inputs": [
        {
          "name": "_dollars",
          "type": "uint256"
        }
      ],
      "name": "getEthPrice",
      "outputs": [
        {
          "name": "",
          "type": "uint256"
        }
      ],
      "payable": false,
      "stateMutability": "view",
      "type": "function"
    },
    {
      "constant": false,
      "inputs": [
        {
          "name": "_name",
          "type": "string"
        },
        {
          "name": "_email",
          "type": "string"
        }
      ],
      "name": "registerAccount",
      "outputs": [],
      "payable": false,
      "stateMutability": "nonpayable",
      "type": "function"
    },
    {
      "constant": false,
      "inputs": [
        {
          "name": "_newName",
          "type": "string"
        },
        {
          "name": "_newEmail",
          "type": "string"
        }
      ],
      "name": "modifyAccount",
      "outputs": [],
      "payable": false,
      "stateMutability": "nonpayable",
      "type": "function"
    },
    {
      "constant": false,
      "inputs": [
        {
          "name": "_patentName",
          "type": "string"
        },
        {
          "name": "_patentHash",
          "type": "string"
        },
        {
          "name": "_maxLicence",
          "type": "uint8"
        },
        {
          "name": "_licencePrices",
          "type": "uint256[]"
        },
        {
          "name": "_ipfs",
          "type": "string"
        }
      ],
      "name": "depositPatent",
      "outputs": [],
      "payable": true,
      "stateMutability": "payable",
      "type": "function"
    },
    {
      "constant": false,
      "inputs": [
        {
          "name": "_patentID",
          "type": "string"
        },
        {
          "name": "_newName",
          "type": "string"
        },
        {
          "name": "_newMaxLicence",
          "type": "uint8"
        },
        {
          "name": "_newLicencePrices",
          "type": "uint256[]"
        }
      ],
      "name": "modifyPatent",
      "outputs": [],
      "payable": false,
      "stateMutability": "nonpayable",
      "type": "function"
    },
    {
      "constant": false,
      "inputs": [
        {
          "name": "_patentID",
          "type": "string"
        }
      ],
      "name": "setVisibility",
      "outputs": [],
      "payable": false,
      "stateMutability": "nonpayable",
      "type": "function"
    },
    {
      "constant": false,
      "inputs": [
        {
          "name": "_patentID",
          "type": "string"
        },
        {
          "name": "_requestedLicence",
          "type": "uint8"
        },
        {
          "name": "_encryptionKey",
          "type": "string"
        },
        {
          "name": "_email",
          "type": "string"
        }
      ],
      "name": "requestAccess",
      "outputs": [],
      "payable": true,
      "stateMutability": "payable",
      "type": "function"
    },
    {
      "constant": false,
      "inputs": [
        {
          "name": "_patentID",
          "type": "string"
        },
        {
          "name": "_requestedLicence",
          "type": "uint8"
        }
      ],
      "name": "resendRequest",
      "outputs": [],
      "payable": true,
      "stateMutability": "payable",
      "type": "function"
    },
    {
      "constant": false,
      "inputs": [
        {
          "name": "_patentID",
          "type": "string"
        },
        {
          "name": "_user",
          "type": "address"
        }
      ],
      "name": "acceptRequest",
      "outputs": [],
      "payable": false,
      "stateMutability": "nonpayable",
      "type": "function"
    },
    {
      "constant": false,
      "inputs": [
        {
          "name": "_patentID",
          "type": "string"
        },
        {
          "name": "_user",
          "type": "address"
        },
        {
          "name": "_encryptedIpfsKey",
          "type": "string"
        }
      ],
      "name": "grantAccess",
      "outputs": [],
      "payable": false,
      "stateMutability": "nonpayable",
      "type": "function"
    },
    {
      "constant": false,
      "inputs": [
        {
          "name": "_patentID",
          "type": "string"
        },
        {
          "name": "_user",
          "type": "address"
        }
      ],
      "name": "rejectRequest",
      "outputs": [],
      "payable": false,
      "stateMutability": "nonpayable",
      "type": "function"
    },
    {
      "constant": false,
      "inputs": [
        {
          "name": "_patentID",
          "type": "string"
        }
      ],
      "name": "cancelRequest",
      "outputs": [],
      "payable": false,
      "stateMutability": "nonpayable",
      "type": "function"
    },
    {
      "constant": true,
      "inputs": [],
      "name": "patentCount",
      "outputs": [
        {
          "name": "",
          "type": "uint256"
        }
      ],
      "payable": false,
      "stateMutability": "view",
      "type": "function"
    },
    {
      "constant": true,
      "inputs": [],
      "name": "userCount",
      "outputs": [
        {
          "name": "",
          "type": "uint256"
        }
      ],
      "payable": false,
      "stateMutability": "view",
      "type": "function"
    },
    {
      "constant": true,
      "inputs": [
        {
          "name": "_patentID",
          "type": "string"
        },
        {
          "name": "_requestedLicence",
          "type": "uint256"
        },
        {
          "name": "_user",
          "type": "address"
        }
      ],
      "name": "canRequest",
      "outputs": [
        {
          "name": "",
          "type": "bool"
        }
      ],
      "payable": false,
      "stateMutability": "view",
      "type": "function"
    },
    {
      "constant": true,
      "inputs": [
        {
          "name": "_patentID",
          "type": "string"
        },
        {
          "name": "_user",
          "type": "address"
        }
      ],
      "name": "getRequestInformation",
      "outputs": [
        {
          "name": "",
          "type": "uint8"
        },
        {
          "name": "",
          "type": "uint8"
        },
        {
          "name": "",
          "type": "uint8"
        },
        {
          "name": "",
          "type": "string"
        }
      ],
      "payable": false,
      "stateMutability": "view",
      "type": "function"
    },
    {
      "constant": true,
      "inputs": [
        {
          "name": "_patentID",
          "type": "string"
        }
      ],
      "name": "getPatentInformation",
      "outputs": [
        {
          "name": "",
          "type": "string"
        },
        {
          "name": "",
          "type": "address"
        },
        {
          "name": "",
          "type": "uint256"
        },
        {
          "name": "",
          "type": "string"
        },
        {
          "name": "",
          "type": "uint8"
        },
        {
          "name": "",
          "type": "uint256[]"
        },
        {
          "name": "",
          "type": "bool"
        }
      ],
      "payable": false,
      "stateMutability": "view",
      "type": "function"
    },
    {
      "constant": true,
      "inputs": [
        {
          "name": "_userID",
          "type": "address"
        }
      ],
      "name": "getUserInformation",
      "outputs": [
        {
          "name": "",
          "type": "string"
        },
        {
          "name": "",
          "type": "string"
        }
      ],
      "payable": false,
      "stateMutability": "view",
      "type": "function"
    },
    {
      "constant": true,
      "inputs": [
        {
          "name": "_patentID",
          "type": "string"
        },
        {
          "name": "_user",
          "type": "address"
        }
      ],
      "name": "isPending",
      "outputs": [
        {
          "name": "",
          "type": "bool"
        }
      ],
      "payable": false,
      "stateMutability": "view",
      "type": "function"
    },
    {
      "constant": true,
      "inputs": [
        {
          "name": "_patentID",
          "type": "string"
        },
        {
          "name": "_user",
          "type": "address"
        }
      ],
      "name": "isOwner",
      "outputs": [
        {
          "name": "",
          "type": "bool"
        }
      ],
      "payable": false,
      "stateMutability": "view",
      "type": "function"
    },
    {
      "constant": true,
      "inputs": [
        {
          "name": "_patentID",
          "type": "string"
        },
        {
          "name": "_licence",
          "type": "uint256"
        }
      ],
      "name": "getPrice",
      "outputs": [
        {
          "name": "",
          "type": "uint256"
        }
      ],
      "payable": false,
      "stateMutability": "view",
      "type": "function"
    },
    {
      "constant": true,
      "inputs": [
        {
          "name": "_patentID",
          "type": "string"
        }
      ],
      "name": "getNumRequests",
      "outputs": [
        {
          "name": "",
          "type": "uint256"
        }
      ],
      "payable": false,
      "stateMutability": "view",
      "type": "function"
    },
    {
      "constant": true,
      "inputs": [
        {
          "name": "_patentID",
          "type": "string"
        },
        {
          "name": "_index",
          "type": "uint256"
        }
      ],
      "name": "getBuyers",
      "outputs": [
        {
          "name": "",
          "type": "address"
        }
      ],
      "payable": false,
      "stateMutability": "view",
      "type": "function"
    },
    {
      "constant": true,
      "inputs": [
        {
          "name": "_patentID",
          "type": "string"
        },
        {
          "name": "_user",
          "type": "address"
        }
      ],
      "name": "getEncryptionKey",
      "outputs": [
        {
          "name": "",
          "type": "string"
        }
      ],
      "payable": false,
      "stateMutability": "view",
      "type": "function"
    },
    {
      "constant": true,
      "inputs": [
        {
          "name": "_patentID",
          "type": "string"
        }
      ],
      "name": "getEncryptedIpfsKey",
      "outputs": [
        {
          "name": "",
          "type": "string"
        }
      ],
      "payable": false,
      "stateMutability": "view",
      "type": "function"
    },
    {
      "constant": true,
      "inputs": [
        {
          "name": "_patentID",
          "type": "string"
        }
      ],
      "name": "getOwnerEmail",
      "outputs": [
        {
          "name": "",
          "type": "string"
        }
      ],
      "payable": false,
      "stateMutability": "view",
      "type": "function"
    },
    {
      "constant": true,
      "inputs": [
        {
          "name": "_patentID",
          "type": "string"
        }
      ],
      "name": "isRegistered",
      "outputs": [
        {
          "name": "",
          "type": "bool"
        }
      ],
      "payable": false,
      "stateMutability": "view",
      "type": "function"
    },
    {
      "constant": true,
      "inputs": [
        {
          "name": "_user",
          "type": "address"
        }
      ],
      "name": "hasAccount",
      "outputs": [
        {
          "name": "",
          "type": "bool"
        }
      ],
      "payable": false,
      "stateMutability": "view",
      "type": "function"
    },
    {
      "constant": true,
      "inputs": [
        {
          "name": "_user",
          "type": "address"
        }
      ],
      "name": "getNumPatents",
      "outputs": [
        {
          "name": "",
          "type": "uint256"
        }
      ],
      "payable": false,
      "stateMutability": "view",
      "type": "function"
    },
    {
      "constant": true,
      "inputs": [
        {
          "name": "_user",
          "type": "address"
        },
        {
          "name": "_index",
          "type": "uint256"
        }
      ],
      "name": "getOwnedPatentIDs",
      "outputs": [
        {
          "name": "",
          "type": "string"
        }
      ],
      "payable": false,
      "stateMutability": "view",
      "type": "function"
    }
  ],
  "bytecode": "0x6080604052336000806101000a81548173ffffffffffffffffffffffffffffffffffffffff021916908373ffffffffffffffffffffffffffffffffffffffff1602179055503480156200005157600080fd5b5060405160408062005f2f833981018060405260408110156200007357600080fd5b81019080805190602001909291908051906020019092919050505080600660006101000a81548173ffffffffffffffffffffffffffffffffffffffff021916908373ffffffffffffffffffffffffffffffffffffffff160217905550816001819055505050615e4780620000e86000396000f3fe6080604052600436106101c2576000357c0100000000000000000000000000000000000000000000000000000000900463ffffffff16806307973ccf146101c75780630e6549fa146101f25780631c85da19146102da57806324600fc31461030557806324880dcd1461031c5780632bcb56f9146105125780632ef3accc146105fa5780632f35645a146106e05780635d98dde8146107ea5780636038c6381461096957806368b2210d14610a7b578063870d365d14610bbc5780638b28735114610c0b57806397c00d4b14610e0b5780639862d5f014610ebf578063a23136cb14610ff5578063a302e8cd1461123c578063a6f9dae11461137d578063ad8c9dd6146113ce578063b084c8411461152f578063b110660a1461155a578063bde1eee7146115bf578063be3e0722146116bf578063c7874118146117bf578063c822d7f014611a49578063c8e40fbf14611b29578063c906a41814611b92578063caea667e14611d22578063ce975b7214611d5d578063dcb06c5914611e25578063ddc7b6a714611ef9578063e0cf4cc914612058578063e489445d14612134578063edfec35e146121fc578063f2fa664c14612277578063f4769e861461233f575b600080fd5b3480156101d357600080fd5b506101dc61249e565b6040518082815260200191505060405180910390f35b3480156101fe57600080fd5b506102d86004803603604081101561021557600080fd5b810190808035906020019064010000000081111561023257600080fd5b82018360208201111561024457600080fd5b8035906020019184600183028401116401000000008311171561026657600080fd5b91908080601f016020809104026020016040519081016040528093929190818152602001838380828437600081840152601f19601f820116905080830192505050505050509192919290803573ffffffffffffffffffffffffffffffffffffffff1690602001909291905050506124ab565b005b3480156102e657600080fd5b506102ef6128cb565b6040518082815260200191505060405180910390f35b34801561031157600080fd5b5061031a6128d1565b005b6105106004803603608081101561033257600080fd5b810190808035906020019064010000000081111561034f57600080fd5b82018360208201111561036157600080fd5b8035906020019184600183028401116401000000008311171561038357600080fd5b91908080601f016020809104026020016040519081016040528093929190818152602001838380828437600081840152601f19601f820116905080830192505050505050509192919290803560ff169060200190929190803590602001906401000000008111156103f357600080fd5b82018360208201111561040557600080fd5b8035906020019184600183028401116401000000008311171561042757600080fd5b91908080601f016020809104026020016040519081016040528093929190818152602001838380828437600081840152601f19601f8201169050808301925050505050505091929192908035906020019064010000000081111561048a57600080fd5b82018360208201111561049c57600080fd5b803590602001918460018302840111640100000000831117156104be57600080fd5b91908080601f016020809104026020016040519081016040528093929190818152602001838380828437600081840152601f19601f8201169050808301925050505050505091929192905050506129ad565b005b34801561051e57600080fd5b506105f86004803603604081101561053557600080fd5b810190808035906020019064010000000081111561055257600080fd5b82018360208201111561056457600080fd5b8035906020019184600183028401116401000000008311171561058657600080fd5b91908080601f016020809104026020016040519081016040528093929190818152602001838380828437600081840152601f19601f820116905080830192505050505050509192919290803573ffffffffffffffffffffffffffffffffffffffff169060200190929190505050612ef4565b005b34801561060657600080fd5b506106ca6004803603604081101561061d57600080fd5b810190808035906020019064010000000081111561063a57600080fd5b82018360208201111561064c57600080fd5b8035906020019184600183028401116401000000008311171561066e57600080fd5b91908080601f016020809104026020016040519081016040528093929190818152602001838380828437600081840152601f19601f82011690508083019250505050505050919291929080359060200190929190505050613249565b6040518082815260200191505060405180910390f35b3480156106ec57600080fd5b506107d06004803603606081101561070357600080fd5b810190808035906020019064010000000081111561072057600080fd5b82018360208201111561073257600080fd5b8035906020019184600183028401116401000000008311171561075457600080fd5b91908080601f016020809104026020016040519081016040528093929190818152602001838380828437600081840152601f19601f82011690508083019250505050505050919291929080359060200190929190803573ffffffffffffffffffffffffffffffffffffffff1690602001909291905050506132dc565b604051808215151515815260200191505060405180910390f35b3480156107f657600080fd5b506109676004803603606081101561080d57600080fd5b810190808035906020019064010000000081111561082a57600080fd5b82018360208201111561083c57600080fd5b8035906020019184600183028401116401000000008311171561085e57600080fd5b91908080601f016020809104026020016040519081016040528093929190818152602001838380828437600081840152601f19601f820116905080830192505050505050509192919290803573ffffffffffffffffffffffffffffffffffffffff169060200190929190803590602001906401000000008111156108e157600080fd5b8201836020820111156108f357600080fd5b8035906020019184600183028401116401000000008311171561091557600080fd5b91908080601f016020809104026020016040519081016040528093929190818152602001838380828437600081840152601f19601f8201169050808301925050505050505091929192905050506134dd565b005b34801561097557600080fd5b50610a396004803603604081101561098c57600080fd5b81019080803590602001906401000000008111156109a957600080fd5b8201836020820111156109bb57600080fd5b803590602001918460018302840111640100000000831117156109dd57600080fd5b91908080601f016020809104026020016040519081016040528093929190818152602001838380828437600081840152601f19601f820116905080830192505050505050509192919290803590602001909291905050506135b5565b604051808273ffffffffffffffffffffffffffffffffffffffff1673ffffffffffffffffffffffffffffffffffffffff16815260200191505060405180910390f35b348015610a8757600080fd5b50610b4160048036036020811015610a9e57600080fd5b8101908080359060200190640100000000811115610abb57600080fd5b820183602082011115610acd57600080fd5b80359060200191846001830284011164010000000083111715610aef57600080fd5b91908080601f016020809104026020016040519081016040528093929190818152602001838380828437600081840152601f19601f820116905080830192505050505050509192919290505050613665565b6040518080602001828103825283818151815260200191508051906020019080838360005b83811015610b81578082015181840152602081019050610b66565b50505050905090810190601f168015610bae5780820380516001836020036101000a031916815260200191505b509250505060405180910390f35b348015610bc857600080fd5b50610bf560048036036020811015610bdf57600080fd5b81019080803590602001909291905050506137d7565b6040518082815260200191505060405180910390f35b348015610c1757600080fd5b50610e0960048036036080811015610c2e57600080fd5b8101908080359060200190640100000000811115610c4b57600080fd5b820183602082011115610c5d57600080fd5b80359060200191846001830284011164010000000083111715610c7f57600080fd5b91908080601f016020809104026020016040519081016040528093929190818152602001838380828437600081840152601f19601f82011690508083019250505050505050919291929080359060200190640100000000811115610ce257600080fd5b820183602082011115610cf457600080fd5b80359060200191846001830284011164010000000083111715610d1657600080fd5b91908080601f016020809104026020016040519081016040528093929190818152602001838380828437600081840152601f19601f820116905080830192505050505050509192919290803560ff16906020019092919080359060200190640100000000811115610d8657600080fd5b820183602082011115610d9857600080fd5b80359060200191846020830284011164010000000083111715610dba57600080fd5b919080806020026020016040519081016040528093929190818152602001838360200280828437600081840152601f19601f8201169050808301925050505050505091929192905050506138b0565b005b348015610e1757600080fd5b50610e4460048036036020811015610e2e57600080fd5b810190808035906020019092919050505061399b565b6040518080602001828103825283818151815260200191508051906020019080838360005b83811015610e84578082015181840152602081019050610e69565b50505050905090810190601f168015610eb15780820380516001836020036101000a031916815260200191505b509250505060405180910390f35b348015610ecb57600080fd5b50610f0e60048036036020811015610ee257600080fd5b81019080803573ffffffffffffffffffffffffffffffffffffffff169060200190929190505050613a56565b604051808060200180602001838103835285818151815260200191508051906020019080838360005b83811015610f52578082015181840152602081019050610f37565b50505050905090810190601f168015610f7f5780820380516001836020036101000a031916815260200191505b50838103825284818151815260200191508051906020019080838360005b83811015610fb8578082015181840152602081019050610f9d565b50505050905090810190601f168015610fe55780820380516001836020036101000a031916815260200191505b5094505050505060405180910390f35b34801561100157600080fd5b506110bb6004803603602081101561101857600080fd5b810190808035906020019064010000000081111561103557600080fd5b82018360208201111561104757600080fd5b8035906020019184600183028401116401000000008311171561106957600080fd5b91908080601f016020809104026020016040519081016040528093929190818152602001838380828437600081840152601f19601f820116905080830192505050505050509192919290505050613cff565b60405180806020018873ffffffffffffffffffffffffffffffffffffffff1673ffffffffffffffffffffffffffffffffffffffff168152602001878152602001806020018660ff1660ff168152602001806020018515151515815260200184810384528b818151815260200191508051906020019080838360005b83811015611151578082015181840152602081019050611136565b50505050905090810190601f16801561117e5780820380516001836020036101000a031916815260200191505b50848103835288818151815260200191508051906020019080838360005b838110156111b757808201518184015260208101905061119c565b50505050905090810190601f1680156111e45780820380516001836020036101000a031916815260200191505b50848103825286818151815260200191508051906020019060200280838360005b83811015611220578082015181840152602081019050611205565b505050509050019a505050505050505050505060405180910390f35b34801561124857600080fd5b506113026004803603602081101561125f57600080fd5b810190808035906020019064010000000081111561127c57600080fd5b82018360208201111561128e57600080fd5b803590602001918460018302840111640100000000831117156112b057600080fd5b91908080601f016020809104026020016040519081016040528093929190818152602001838380828437600081840152601f19601f820116905080830192505050505050509192919290505050614096565b6040518080602001828103825283818151815260200191508051906020019080838360005b83811015611342578082015181840152602081019050611327565b50505050905090810190601f16801561136f5780820380516001836020036101000a031916815260200191505b509250505060405180910390f35b34801561138957600080fd5b506113cc600480360360208110156113a057600080fd5b81019080803573ffffffffffffffffffffffffffffffffffffffff1690602001909291905050506142c5565b005b3480156113da57600080fd5b506114b4600480360360408110156113f157600080fd5b810190808035906020019064010000000081111561140e57600080fd5b82018360208201111561142057600080fd5b8035906020019184600183028401116401000000008311171561144257600080fd5b91908080601f016020809104026020016040519081016040528093929190818152602001838380828437600081840152601f19601f820116905080830192505050505050509192919290803573ffffffffffffffffffffffffffffffffffffffff169060200190929190505050614363565b6040518080602001828103825283818151815260200191508051906020019080838360005b838110156114f45780820151818401526020810190506114d9565b50505050905090810190601f1680156115215780820380516001836020036101000a031916815260200191505b509250505060405180910390f35b34801561153b57600080fd5b506115446144b4565b6040518082815260200191505060405180910390f35b34801561156657600080fd5b506115a96004803603602081101561157d57600080fd5b81019080803573ffffffffffffffffffffffffffffffffffffffff1690602001909291905050506144c1565b6040518082815260200191505060405180910390f35b3480156115cb57600080fd5b506116a5600480360360408110156115e257600080fd5b81019080803590602001906401000000008111156115ff57600080fd5b82018360208201111561161157600080fd5b8035906020019184600183028401116401000000008311171561163357600080fd5b91908080601f016020809104026020016040519081016040528093929190818152602001838380828437600081840152601f19601f820116905080830192505050505050509192919290803573ffffffffffffffffffffffffffffffffffffffff169060200190929190505050614510565b604051808215151515815260200191505060405180910390f35b3480156116cb57600080fd5b506117a5600480360360408110156116e257600080fd5b81019080803590602001906401000000008111156116ff57600080fd5b82018360208201111561171157600080fd5b8035906020019184600183028401116401000000008311171561173357600080fd5b91908080601f016020809104026020016040519081016040528093929190818152602001838380828437600081840152601f19601f820116905080830192505050505050509192919290803573ffffffffffffffffffffffffffffffffffffffff1690602001909291905050506145d7565b604051808215151515815260200191505060405180910390f35b611a47600480360360a08110156117d557600080fd5b81019080803590602001906401000000008111156117f257600080fd5b82018360208201111561180457600080fd5b8035906020019184600183028401116401000000008311171561182657600080fd5b91908080601f016020809104026020016040519081016040528093929190818152602001838380828437600081840152601f19601f8201169050808301925050505050505091929192908035906020019064010000000081111561188957600080fd5b82018360208201111561189b57600080fd5b803590602001918460018302840111640100000000831117156118bd57600080fd5b91908080601f016020809104026020016040519081016040528093929190818152602001838380828437600081840152601f19601f820116905080830192505050505050509192919290803560ff1690602001909291908035906020019064010000000081111561192d57600080fd5b82018360208201111561193f57600080fd5b8035906020019184602083028401116401000000008311171561196157600080fd5b919080806020026020016040519081016040528093929190818152602001838360200280828437600081840152601f19601f820116905080830192505050505050509192919290803590602001906401000000008111156119c157600080fd5b8201836020820111156119d357600080fd5b803590602001918460018302840111640100000000831117156119f557600080fd5b91908080601f016020809104026020016040519081016040528093929190818152602001838380828437600081840152601f19601f8201169050808301925050505050505091929192905050506146b6565b005b348015611a5557600080fd5b50611b0f60048036036020811015611a6c57600080fd5b8101908080359060200190640100000000811115611a8957600080fd5b820183602082011115611a9b57600080fd5b80359060200191846001830284011164010000000083111715611abd57600080fd5b91908080601f016020809104026020016040519081016040528093929190818152602001838380828437600081840152601f19601f8201169050808301925050505050505091929192905050506149c7565b604051808215151515815260200191505060405180910390f35b348015611b3557600080fd5b50611b7860048036036020811015611b4c57600080fd5b81019080803573ffffffffffffffffffffffffffffffffffffffff169060200190929190505050614a42565b604051808215151515815260200191505060405180910390f35b348015611b9e57600080fd5b50611c7860048036036040811015611bb557600080fd5b8101908080359060200190640100000000811115611bd257600080fd5b820183602082011115611be457600080fd5b80359060200191846001830284011164010000000083111715611c0657600080fd5b91908080601f016020809104026020016040519081016040528093929190818152602001838380828437600081840152601f19601f820116905080830192505050505050509192919290803573ffffffffffffffffffffffffffffffffffffffff169060200190929190505050614a91565b60405180856004811115611c8857fe5b60ff1681526020018460ff1660ff1681526020018360ff1660ff16815260200180602001828103825283818151815260200191508051906020019080838360005b83811015611ce4578082015181840152602081019050611cc9565b50505050905090810190601f168015611d115780820380516001836020036101000a031916815260200191505b509550505050505060405180910390f35b348015611d2e57600080fd5b50611d5b60048036036020811015611d4557600080fd5b8101908080359060200190929190505050614dd9565b005b611e2360048036036040811015611d7357600080fd5b8101908080359060200190640100000000811115611d9057600080fd5b820183602082011115611da257600080fd5b80359060200191846001830284011164010000000083111715611dc457600080fd5b91908080601f016020809104026020016040519081016040528093929190818152602001838380828437600081840152601f19601f820116905080830192505050505050509192919290803560ff169060200190929190505050614e3e565b005b348015611e3157600080fd5b50611e7e60048036036040811015611e4857600080fd5b81019080803573ffffffffffffffffffffffffffffffffffffffff16906020019092919080359060200190929190505050615326565b6040518080602001828103825283818151815260200191508051906020019080838360005b83811015611ebe578082015181840152602081019050611ea3565b50505050905090810190601f168015611eeb5780820380516001836020036101000a031916815260200191505b509250505060405180910390f35b348015611f0557600080fd5b5061205660048036036040811015611f1c57600080fd5b8101908080359060200190640100000000811115611f3957600080fd5b820183602082011115611f4b57600080fd5b80359060200191846001830284011164010000000083111715611f6d57600080fd5b91908080601f016020809104026020016040519081016040528093929190818152602001838380828437600081840152601f19601f82011690508083019250505050505050919291929080359060200190640100000000811115611fd057600080fd5b820183602082011115611fe257600080fd5b8035906020019184600183028401116401000000008311171561200457600080fd5b91908080601f016020809104026020016040519081016040528093929190818152602001838380828437600081840152601f19601f820116905080830192505050505050509192919290505050615422565b005b34801561206457600080fd5b5061211e6004803603602081101561207b57600080fd5b810190808035906020019064010000000081111561209857600080fd5b8201836020820111156120aa57600080fd5b803590602001918460018302840111640100000000831117156120cc57600080fd5b91908080601f016020809104026020016040519081016040528093929190818152602001838380828437600081840152601f19601f82011690508083019250505050505050919291929050505061559b565b6040518082815260200191505060405180910390f35b34801561214057600080fd5b506121fa6004803603602081101561215757600080fd5b810190808035906020019064010000000081111561217457600080fd5b82018360208201111561218657600080fd5b803590602001918460018302840111640100000000831117156121a857600080fd5b91908080601f016020809104026020016040519081016040528093929190818152602001838380828437600081840152601f19601f820116905080830192505050505050509192919290505050615616565b005b34801561220857600080fd5b506122356004803603602081101561221f57600080fd5b8101908080359060200190929190505050615863565b604051808273ffffffffffffffffffffffffffffffffffffffff1673ffffffffffffffffffffffffffffffffffffffff16815260200191505060405180910390f35b34801561228357600080fd5b5061233d6004803603602081101561229a57600080fd5b81019080803590602001906401000000008111156122b757600080fd5b8201836020820111156122c957600080fd5b803590602001918460018302840111640100000000831117156122eb57600080fd5b91908080601f016020809104026020016040519081016040528093929190818152602001838380828437600081840152601f19601f8201169050808301925050505050505091929192905050506158a1565b005b34801561234b57600080fd5b5061249c6004803603604081101561236257600080fd5b810190808035906020019064010000000081111561237f57600080fd5b82018360208201111561239157600080fd5b803590602001918460018302840111640100000000831117156123b357600080fd5b91908080601f016020809104026020016040519081016040528093929190818152602001838380828437600081840152601f19601f8201169050808301925050505050505091929192908035906020019064010000000081111561241657600080fd5b82018360208201111561242857600080fd5b8035906020019184600183028401116401000000008311171561244a57600080fd5b91908080601f016020809104026020016040519081016040528093929190818152602001838380828437600081840152601f19601f820116905080830192505050505050509192919290505050615968565b005b6000600480549050905090565b6124b4826149c7565b80156124c657506124c58233614510565b5b80156124d857506124d782826145d7565b5b15156124e357600080fd5b60006003836040518082805190602001908083835b60208310151561251d57805182526020820191506020810190506020830392506124f8565b6001836020036101000a038019825116818451168082178552505050505050905001915050908152602001604051809103902060080160008373ffffffffffffffffffffffffffffffffffffffff1673ffffffffffffffffffffffffffffffffffffffff16815260200190815260200160002090508173ffffffffffffffffffffffffffffffffffffffff166108fc82600101549081150290604051600060405180830381858888f193505050501580156125dc573d6000803e3d6000fd5b506000816001018190555060006003846040518082805190602001908083835b60208310151561262157805182526020820191506020810190506020830392506125fc565b6001836020036101000a038019825116818451168082178552505050505050905001915050908152602001604051809103902060080160003373ffffffffffffffffffffffffffffffffffffffff1673ffffffffffffffffffffffffffffffffffffffff16815260200190815260200160002060000160019054906101000a900460ff16905060008160ff1611156126de5760048260000160006101000a81548160ff021916908360048111156126d457fe5b0217905550612705565b60028260000160006101000a81548160ff021916908360048111156126ff57fe5b02179055505b7f87deb0bf3260371a3845769d523869b17a51dab5e82dd1d7db896b489fe42f57826002016003866040518082805190602001908083835b602083101515612762578051825260208201915060208101905060208303925061273d565b6001836020036101000a03801982511681845116808217855250505050505090500191505090815260200160405180910390206000016000604051808060200180602001841515151581526020018381038352868181546001816001161561010002031660029004815260200191508054600181600116156101000203166002900480156128315780601f1061280657610100808354040283529160200191612831565b820191906000526020600020905b81548152906001019060200180831161281457829003601f168201915b50508381038252858181546001816001161561010002031660029004815260200191508054600181600116156101000203166002900480156128b45780601f10612889576101008083540402835291602001916128b4565b820191906000526020600020905b81548152906001019060200180831161289757829003601f168201915b50509550505050505060405180910390a150505050565b60015481565b6000809054906101000a900473ffffffffffffffffffffffffffffffffffffffff1673ffffffffffffffffffffffffffffffffffffffff163373ffffffffffffffffffffffffffffffffffffffff1614151561292c57600080fd5b6000809054906101000a900473ffffffffffffffffffffffffffffffffffffffff1673ffffffffffffffffffffffffffffffffffffffff166108fc3073ffffffffffffffffffffffffffffffffffffffff16319081150290604051600060405180830381858888f193505050501580156129aa573d6000803e3d6000fd5b50565b6129b6846149c7565b80156129cc57506129cb848460ff16336132dc565b5b15156129d757600080fd5b600060048111156129e457fe5b6003856040518082805190602001908083835b602083101515612a1c57805182526020820191506020810190506020830392506129f7565b6001836020036101000a038019825116818451168082178552505050505050905001915050908152602001604051809103902060080160003373ffffffffffffffffffffffffffffffffffffffff1673ffffffffffffffffffffffffffffffffffffffff16815260200190815260200160002060000160009054906101000a900460ff166004811115612aab57fe5b141515612ab757600080fd5b6000612ace612ac9868660ff16613249565b6137d7565b9050803410151515612adf57600080fd5b60006003866040518082805190602001908083835b602083101515612b195780518252602082019150602081019050602083039250612af4565b6001836020036101000a03801982511681845116808217855250505050505090500191505090815260200160405180910390209050806007013390806001815401808255809150509060018203906000526020600020016000909192909190916101000a81548173ffffffffffffffffffffffffffffffffffffffff021916908373ffffffffffffffffffffffffffffffffffffffff1602179055505060e06040519081016040528060016004811115612bcf57fe5b8152602001600060ff1681526020018660ff16815260200183815260200184815260200185815260200160206040519081016040528060008152508152508160080160003373ffffffffffffffffffffffffffffffffffffffff1673ffffffffffffffffffffffffffffffffffffffff16815260200190815260200160002060008201518160000160006101000a81548160ff02191690836004811115612c7257fe5b021790555060208201518160000160016101000a81548160ff021916908360ff16021790555060408201518160000160026101000a81548160ff021916908360ff160217905550606082015181600101556080820151816002019080519060200190612cdf9291906159e2565b5060a0820151816003019080519060200190612cfc9291906159e2565b5060c0820151816004019080519060200190612d199291906159e2565b509050507f7e558bb9898d8d17809158db6c967a8ea47d93a15a5d359a1186352a086cfb7c612d4787613665565b6003886040518082805190602001908083835b602083101515612d7f5780518252602082019150602081019050602083039250612d5a565b6001836020036101000a0380198251168184511680821785525050505050509050019150509081526020016040518091039020600001336040518080602001806020018473ffffffffffffffffffffffffffffffffffffffff1673ffffffffffffffffffffffffffffffffffffffff168152602001838103835286818151815260200191508051906020019080838360005b83811015612e2c578082015181840152602081019050612e11565b50505050905090810190601f168015612e595780820380516001836020036101000a031916815260200191505b50838103825285818154600181600116156101000203166002900481526020019150805460018160011615610100020316600290048015612edb5780601f10612eb057610100808354040283529160200191612edb565b820191906000526020600020905b815481529060010190602001808311612ebe57829003601f168201915b50509550505050505060405180910390a1505050505050565b612efd826149c7565b8015612f0f5750612f0e8233614510565b5b8015612f215750612f2082826145d7565b5b1515612f2c57600080fd5b60006003836040518082805190602001908083835b602083101515612f665780518252602082019150602081019050602083039250612f41565b6001836020036101000a038019825116818451168082178552505050505050905001915050908152602001604051809103902060080160008373ffffffffffffffffffffffffffffffffffffffff1673ffffffffffffffffffffffffffffffffffffffff16815260200190815260200160002090503373ffffffffffffffffffffffffffffffffffffffff166108fc82600101549081150290604051600060405180830381858888f19350505050158015613025573d6000803e3d6000fd5b506000816001018190555060048160000160006101000a81548160ff0219169083600481111561305157fe5b02179055508060000160029054906101000a900460ff168160000160016101000a81548160ff021916908360ff1602179055507f87deb0bf3260371a3845769d523869b17a51dab5e82dd1d7db896b489fe42f57816002016003856040518082805190602001908083835b6020831015156130e157805182526020820191506020810190506020830392506130bc565b6001836020036101000a03801982511681845116808217855250505050505090500191505090815260200160405180910390206000016001604051808060200180602001841515151581526020018381038352868181546001816001161561010002031660029004815260200191508054600181600116156101000203166002900480156131b05780601f10613185576101008083540402835291602001916131b0565b820191906000526020600020905b81548152906001019060200180831161319357829003601f168201915b50508381038252858181546001816001161561010002031660029004815260200191508054600181600116156101000203166002900480156132335780601f1061320857610100808354040283529160200191613233565b820191906000526020600020905b81548152906001019060200180831161321657829003601f168201915b50509550505050505060405180910390a1505050565b60006003836040518082805190602001908083835b602083101515613283578051825260208201915060208101905060208303925061325e565b6001836020036101000a0380198251168184511680821785525050505050509050019150509081526020016040518091039020600501600183038154811015156132c957fe5b9060005260206000200154905092915050565b60006003846040518082805190602001908083835b60208310151561331657805182526020820191506020810190506020830392506132f1565b6001836020036101000a038019825116818451168082178552505050505050905001915050908152602001604051809103902060060160009054906101000a900460ff1615801561336e575061336c84836145d7565b155b8015613381575061337f8483614510565b155b801561344a57506003846040518082805190602001908083835b6020831015156133c0578051825260208201915060208101905060208303925061339b565b6001836020036101000a038019825116818451168082178552505050505050905001915050908152602001604051809103902060080160003373ffffffffffffffffffffffffffffffffffffffff1673ffffffffffffffffffffffffffffffffffffffff16815260200190815260200160002060000160019054906101000a900460ff1660ff1683115b80156134d457506003846040518082805190602001908083835b6020831015156134895780518252602082019150602081019050602083039250613464565b6001836020036101000a038019825116818451168082178552505050505050905001915050908152602001604051809103902060040160009054906101000a900460ff1660ff168311155b90509392505050565b6134e78383612ef4565b60006003846040518082805190602001908083835b60208310151561352157805182526020820191506020810190506020830392506134fc565b6001836020036101000a038019825116818451168082178552505050505050905001915050908152602001604051809103902060080160008473ffffffffffffffffffffffffffffffffffffffff1673ffffffffffffffffffffffffffffffffffffffff1681526020019081526020016000209050818160040190805190602001906135ae929190615a62565b5050505050565b60006003836040518082805190602001908083835b6020831015156135ef57805182526020820191506020810190506020830392506135ca565b6001836020036101000a03801982511681845116808217855250505050505090500191505090815260200160405180910390206007018281548110151561363257fe5b9060005260206000200160009054906101000a900473ffffffffffffffffffffffffffffffffffffffff16905092915050565b6060600560006003846040518082805190602001908083835b6020831015156136a3578051825260208201915060208101905060208303925061367e565b6001836020036101000a038019825116818451168082178552505050505050905001915050908152602001604051809103902060010160009054906101000a900473ffffffffffffffffffffffffffffffffffffffff1673ffffffffffffffffffffffffffffffffffffffff1673ffffffffffffffffffffffffffffffffffffffff1681526020019081526020016000206001018054600181600116156101000203166002900480601f0160208091040260200160405190810160405280929190818152602001828054600181600116156101000203166002900480156137cb5780601f106137a0576101008083540402835291602001916137cb565b820191906000526020600020905b8154815290600101906020018083116137ae57829003601f168201915b50505050509050919050565b6000816064600660009054906101000a900473ffffffffffffffffffffffffffffffffffffffff1673ffffffffffffffffffffffffffffffffffffffff16630c560c6460006040518263ffffffff167c01000000000000000000000000000000000000000000000000000000000281526004018082815260200191505060206040518083038186803b15801561386c57600080fd5b505afa158015613880573d6000803e3d6000fd5b505050506040513d602081101561389657600080fd5b810190808051906020019092919050505002029050919050565b6138b9846149c7565b80156138cb57506138ca8433614510565b5b15156138d657600080fd5b60006003856040518082805190602001908083835b60208310151561391057805182526020820191506020810190506020830392506138eb565b6001836020036101000a038019825116818451168082178552505050505050905001915050908152602001604051809103902090508381600001908051906020019061395d929190615a62565b50828160040160006101000a81548160ff021916908360ff16021790555081816005019080519060200190613993929190615ae2565b505050505050565b6002818154811015156139aa57fe5b906000526020600020016000915090508054600181600116156101000203166002900480601f016020809104026020016040519081016040528092919081815260200182805460018160011615610100020316600290048015613a4e5780601f10613a2357610100808354040283529160200191613a4e565b820191906000526020600020905b815481529060010190602001808311613a3157829003601f168201915b505050505081565b606080613a61615b2f565b600560008573ffffffffffffffffffffffffffffffffffffffff1673ffffffffffffffffffffffffffffffffffffffff16815260200190815260200160002060806040519081016040529081600082018054600181600116156101000203166002900480601f016020809104026020016040519081016040528092919081815260200182805460018160011615610100020316600290048015613b455780601f10613b1a57610100808354040283529160200191613b45565b820191906000526020600020905b815481529060010190602001808311613b2857829003601f168201915b50505050508152602001600182018054600181600116156101000203166002900480601f016020809104026020016040519081016040528092919081815260200182805460018160011615610100020316600290048015613be75780601f10613bbc57610100808354040283529160200191613be7565b820191906000526020600020905b815481529060010190602001808311613bca57829003601f168201915b505050505081526020016002820154815260200160038201805480602002602001604051908101604052809291908181526020016000905b82821015613cdb578382906000526020600020018054600181600116156101000203166002900480601f016020809104026020016040519081016040528092919081815260200182805460018160011615610100020316600290048015613cc75780601f10613c9c57610100808354040283529160200191613cc7565b820191906000526020600020905b815481529060010190602001808311613caa57829003601f168201915b505050505081526020019060010190613c1f565b50505050815250509050806000015181602001518191508090509250925050915091565b60606000806060600060606000613d14615b58565b6003896040518082805190602001908083835b602083101515613d4c5780518252602082019150602081019050602083039250613d27565b6001836020036101000a03801982511681845116808217855250505050505090500191505090815260200160405180910390206101006040519081016040529081600082018054600181600116156101000203166002900480601f016020809104026020016040519081016040528092919081815260200182805460018160011615610100020316600290048015613e255780601f10613dfa57610100808354040283529160200191613e25565b820191906000526020600020905b815481529060010190602001808311613e0857829003601f168201915b505050505081526020016001820160009054906101000a900473ffffffffffffffffffffffffffffffffffffffff1673ffffffffffffffffffffffffffffffffffffffff1673ffffffffffffffffffffffffffffffffffffffff16815260200160028201548152602001600382018054600181600116156101000203166002900480601f016020809104026020016040519081016040528092919081815260200182805460018160011615610100020316600290048015613f275780601f10613efc57610100808354040283529160200191613f27565b820191906000526020600020905b815481529060010190602001808311613f0a57829003601f168201915b505050505081526020016004820160009054906101000a900460ff1660ff1660ff16815260200160058201805480602002602001604051908101604052809291908181526020018280548015613f9c57602002820191906000526020600020905b815481526020019060010190808311613f88575b505050505081526020016006820160009054906101000a900460ff161515151581526020016007820180548060200260200160405190810160405280929190818152602001828054801561404557602002820191906000526020600020905b8160009054906101000a900473ffffffffffffffffffffffffffffffffffffffff1673ffffffffffffffffffffffffffffffffffffffff1681526020019060010190808311613ffb575b5050505050815250509050806000015181602001518260400151836060015184608001518560a001518660c00151869650839350819150975097509750975097509750975050919395979092949650565b60606004808111156140a457fe5b6003836040518082805190602001908083835b6020831015156140dc57805182526020820191506020810190506020830392506140b7565b6001836020036101000a038019825116818451168082178552505050505050905001915050908152602001604051809103902060080160003373ffffffffffffffffffffffffffffffffffffffff1673ffffffffffffffffffffffffffffffffffffffff16815260200190815260200160002060000160009054906101000a900460ff16600481111561416b57fe5b14151561417757600080fd5b6003826040518082805190602001908083835b6020831015156141af578051825260208201915060208101905060208303925061418a565b6001836020036101000a038019825116818451168082178552505050505050905001915050908152602001604051809103902060080160003373ffffffffffffffffffffffffffffffffffffffff1673ffffffffffffffffffffffffffffffffffffffff1681526020019081526020016000206004018054600181600116156101000203166002900480601f0160208091040260200160405190810160405280929190818152602001828054600181600116156101000203166002900480156142b95780601f1061428e576101008083540402835291602001916142b9565b820191906000526020600020905b81548152906001019060200180831161429c57829003601f168201915b50505050509050919050565b6000809054906101000a900473ffffffffffffffffffffffffffffffffffffffff1673ffffffffffffffffffffffffffffffffffffffff163373ffffffffffffffffffffffffffffffffffffffff1614151561432057600080fd5b806000806101000a81548173ffffffffffffffffffffffffffffffffffffffff021916908373ffffffffffffffffffffffffffffffffffffffff16021790555050565b60606003836040518082805190602001908083835b60208310151561439d5780518252602082019150602081019050602083039250614378565b6001836020036101000a038019825116818451168082178552505050505050905001915050908152602001604051809103902060080160008373ffffffffffffffffffffffffffffffffffffffff1673ffffffffffffffffffffffffffffffffffffffff1681526020019081526020016000206003018054600181600116156101000203166002900480601f0160208091040260200160405190810160405280929190818152602001828054600181600116156101000203166002900480156144a75780601f1061447c576101008083540402835291602001916144a7565b820191906000526020600020905b81548152906001019060200180831161448a57829003601f168201915b5050505050905092915050565b6000600280549050905090565b6000600560008373ffffffffffffffffffffffffffffffffffffffff1673ffffffffffffffffffffffffffffffffffffffff168152602001908152602001600020600301805490509050919050565b60008173ffffffffffffffffffffffffffffffffffffffff166003846040518082805190602001908083835b602083101515614561578051825260208201915060208101905060208303925061453c565b6001836020036101000a038019825116818451168082178552505050505050905001915050908152602001604051809103902060010160009054906101000a900473ffffffffffffffffffffffffffffffffffffffff1673ffffffffffffffffffffffffffffffffffffffff1614905092915050565b6000600160048111156145e657fe5b6003846040518082805190602001908083835b60208310151561461e57805182526020820191506020810190506020830392506145f9565b6001836020036101000a038019825116818451168082178552505050505050905001915050908152602001604051809103902060080160008473ffffffffffffffffffffffffffffffffffffffff1673ffffffffffffffffffffffffffffffffffffffff16815260200190815260200160002060000160009054906101000a900460ff1660048111156146ad57fe5b14905092915050565b6146bf33614a42565b80156146d157506146cf846149c7565b155b80156146e757506146e36001546137d7565b3410155b80156146f657508260ff168251145b151561470157600080fd5b610100604051908101604052808681526020013373ffffffffffffffffffffffffffffffffffffffff1681526020014281526020018281526020018460ff16815260200183815260200160001515815260200160006040519080825280602002602001820160405280156147845781602001602082028038833980820191505090505b508152506003856040518082805190602001908083835b6020831015156147c0578051825260208201915060208101905060208303925061479b565b6001836020036101000a0380198251168184511680821785525050505050509050019150509081526020016040518091039020600082015181600001908051906020019061480f9291906159e2565b5060208201518160010160006101000a81548173ffffffffffffffffffffffffffffffffffffffff021916908373ffffffffffffffffffffffffffffffffffffffff16021790555060408201518160020155606082015181600301908051906020019061487d9291906159e2565b5060808201518160040160006101000a81548160ff021916908360ff16021790555060a08201518160050190805190602001906148bb929190615bb9565b5060c08201518160060160006101000a81548160ff02191690831515021790555060e08201518160070190805190602001906148f8929190615c06565b509050506002849080600181540180825580915050906001820390600052602060002001600090919290919091509080519060200190614939929190615a62565b50506000600560003373ffffffffffffffffffffffffffffffffffffffff1673ffffffffffffffffffffffffffffffffffffffff1681526020019081526020016000209050806003018590806001815401808255809150509060018203906000526020600020016000909192909190915090805190602001906149bd929190615a62565b5050505050505050565b6000806003836040518082805190602001908083835b602083101515614a0257805182526020820191506020810190506020830392506149dd565b6001836020036101000a03801982511681845116808217855250505050505090500191505090815260200160405180910390206002015414159050919050565b600080600560008473ffffffffffffffffffffffffffffffffffffffff1673ffffffffffffffffffffffffffffffffffffffff1681526020019081526020016000206002015414159050919050565b60008060006060614aa0615c90565b6003876040518082805190602001908083835b602083101515614ad85780518252602082019150602081019050602083039250614ab3565b6001836020036101000a038019825116818451168082178552505050505050905001915050908152602001604051809103902060080160008773ffffffffffffffffffffffffffffffffffffffff1673ffffffffffffffffffffffffffffffffffffffff16815260200190815260200160002060e060405190810160405290816000820160009054906101000a900460ff166004811115614b7557fe5b6004811115614b8057fe5b81526020016000820160019054906101000a900460ff1660ff1660ff1681526020016000820160029054906101000a900460ff1660ff1660ff16815260200160018201548152602001600282018054600181600116156101000203166002900480601f016020809104026020016040519081016040528092919081815260200182805460018160011615610100020316600290048015614c615780601f10614c3657610100808354040283529160200191614c61565b820191906000526020600020905b815481529060010190602001808311614c4457829003601f168201915b50505050508152602001600382018054600181600116156101000203166002900480601f016020809104026020016040519081016040528092919081815260200182805460018160011615610100020316600290048015614d035780601f10614cd857610100808354040283529160200191614d03565b820191906000526020600020905b815481529060010190602001808311614ce657829003601f168201915b50505050508152602001600482018054600181600116156101000203166002900480601f016020809104026020016040519081016040528092919081815260200182805460018160011615610100020316600290048015614da55780601f10614d7a57610100808354040283529160200191614da5565b820191906000526020600020905b815481529060010190602001808311614d8857829003601f168201915b5050505050815250509050806000015181602001518260400151836080015180905094509450945094505092959194509250565b6000809054906101000a900473ffffffffffffffffffffffffffffffffffffffff1673ffffffffffffffffffffffffffffffffffffffff163373ffffffffffffffffffffffffffffffffffffffff16141515614e3457600080fd5b8060018190555050565b614e47826149c7565b8015614e5d5750614e5c828260ff16336132dc565b5b1515614e6857600080fd5b60006004811115614e7557fe5b6003836040518082805190602001908083835b602083101515614ead5780518252602082019150602081019050602083039250614e88565b6001836020036101000a038019825116818451168082178552505050505050905001915050908152602001604051809103902060080160003373ffffffffffffffffffffffffffffffffffffffff1673ffffffffffffffffffffffffffffffffffffffff16815260200190815260200160002060000160009054906101000a900460ff166004811115614f3c57fe5b14151515614f4957600080fd5b6000614f58838360ff16613249565b905060006003846040518082805190602001908083835b602083101515614f945780518252602082019150602081019050602083039250614f6f565b6001836020036101000a038019825116818451168082178552505050505050905001915050908152602001604051809103902060080160003373ffffffffffffffffffffffffffffffffffffffff1673ffffffffffffffffffffffffffffffffffffffff16815260200190815260200160002060000160019054906101000a900460ff16905060008160ff16111561503857615033848260ff16613249565b820391505b6000615043836137d7565b905080341015151561505457600080fd5b60006003866040518082805190602001908083835b60208310151561508e5780518252602082019150602081019050602083039250615069565b6001836020036101000a038019825116818451168082178552505050505050905001915050908152602001604051809103902060080160003373ffffffffffffffffffffffffffffffffffffffff1673ffffffffffffffffffffffffffffffffffffffff168152602001908152602001600020905060018160000160006101000a81548160ff0219169083600481111561512457fe5b0217905550848160000160026101000a81548160ff021916908360ff1602179055508181600101819055507f7e558bb9898d8d17809158db6c967a8ea47d93a15a5d359a1186352a086cfb7c61517987613665565b6003886040518082805190602001908083835b6020831015156151b1578051825260208201915060208101905060208303925061518c565b6001836020036101000a0380198251168184511680821785525050505050509050019150509081526020016040518091039020600001336040518080602001806020018473ffffffffffffffffffffffffffffffffffffffff1673ffffffffffffffffffffffffffffffffffffffff168152602001838103835286818151815260200191508051906020019080838360005b8381101561525e578082015181840152602081019050615243565b50505050905090810190601f16801561528b5780820380516001836020036101000a031916815260200191505b5083810382528581815460018160011615610100020316600290048152602001915080546001816001161561010002031660029004801561530d5780601f106152e25761010080835404028352916020019161530d565b820191906000526020600020905b8154815290600101906020018083116152f057829003601f168201915b50509550505050505060405180910390a1505050505050565b6060600560008473ffffffffffffffffffffffffffffffffffffffff1673ffffffffffffffffffffffffffffffffffffffff1681526020019081526020016000206003018281548110151561537757fe5b906000526020600020018054600181600116156101000203166002900480601f0160208091040260200160405190810160405280929190818152602001828054600181600116156101000203166002900480156154155780601f106153ea57610100808354040283529160200191615415565b820191906000526020600020905b8154815290600101906020018083116153f857829003601f168201915b5050505050905092915050565b61542b33614a42565b15151561543757600080fd5b608060405190810160405280838152602001828152602001428152602001600060405190808252806020026020018201604052801561548a57816020015b60608152602001906001900390816154755790505b50815250600560003373ffffffffffffffffffffffffffffffffffffffff1673ffffffffffffffffffffffffffffffffffffffff16815260200190815260200160002060008201518160000190805190602001906154e99291906159e2565b5060208201518160010190805190602001906155069291906159e2565b5060408201518160020155606082015181600301908051906020019061552d929190615cdf565b5090505060043390806001815401808255809150509060018203906000526020600020016000909192909190916101000a81548173ffffffffffffffffffffffffffffffffffffffff021916908373ffffffffffffffffffffffffffffffffffffffff160217905550505050565b60006003826040518082805190602001908083835b6020831015156155d557805182526020820191506020810190506020830392506155b0565b6001836020036101000a0380198251168184511680821785525050505050509050019150509081526020016040518091039020600701805490509050919050565b61561f816149c7565b8015615631575061563081336145d7565b5b151561563c57600080fd5b60006003826040518082805190602001908083835b6020831015156156765780518252602082019150602081019050602083039250615651565b6001836020036101000a038019825116818451168082178552505050505050905001915050908152602001604051809103902060080160003373ffffffffffffffffffffffffffffffffffffffff1673ffffffffffffffffffffffffffffffffffffffff16815260200190815260200160002090503373ffffffffffffffffffffffffffffffffffffffff166108fc82600101549081150290604051600060405180830381858888f19350505050158015615735573d6000803e3d6000fd5b506000816001018190555060006003836040518082805190602001908083835b60208310151561577a5780518252602082019150602081019050602083039250615755565b6001836020036101000a038019825116818451168082178552505050505050905001915050908152602001604051809103902060080160003373ffffffffffffffffffffffffffffffffffffffff1673ffffffffffffffffffffffffffffffffffffffff16815260200190815260200160002060000160019054906101000a900460ff16905060008160ff1611156158375760048260000160006101000a81548160ff0219169083600481111561582d57fe5b021790555061585e565b60038260000160006101000a81548160ff0219169083600481111561585857fe5b02179055505b505050565b60048181548110151561587257fe5b906000526020600020016000915054906101000a900473ffffffffffffffffffffffffffffffffffffffff1681565b6158aa816149c7565b80156158bc57506158bb8133614510565b5b15156158c757600080fd5b60006003826040518082805190602001908083835b60208310151561590157805182526020820191506020810190506020830392506158dc565b6001836020036101000a038019825116818451168082178552505050505050905001915050908152602001604051809103902090508060060160009054906101000a900460ff16158160060160006101000a81548160ff0219169083151502179055505050565b6000600560003373ffffffffffffffffffffffffffffffffffffffff1673ffffffffffffffffffffffffffffffffffffffff1681526020019081526020016000209050828160000190805190602001906159c3929190615a62565b50818160010190805190602001906159dc929190615a62565b50505050565b828054600181600116156101000203166002900490600052602060002090601f016020900481019282601f10615a2357805160ff1916838001178555615a51565b82800160010185558215615a51579182015b82811115615a50578251825591602001919060010190615a35565b5b509050615a5e9190615d3f565b5090565b828054600181600116156101000203166002900490600052602060002090601f016020900481019282601f10615aa357805160ff1916838001178555615ad1565b82800160010185558215615ad1579182015b82811115615ad0578251825591602001919060010190615ab5565b5b509050615ade9190615d3f565b5090565b828054828255906000526020600020908101928215615b1e579160200282015b82811115615b1d578251825591602001919060010190615b02565b5b509050615b2b9190615d3f565b5090565b608060405190810160405280606081526020016060815260200160008152602001606081525090565b6101006040519081016040528060608152602001600073ffffffffffffffffffffffffffffffffffffffff1681526020016000815260200160608152602001600060ff16815260200160608152602001600015158152602001606081525090565b828054828255906000526020600020908101928215615bf5579160200282015b82811115615bf4578251825591602001919060010190615bd9565b5b509050615c029190615d3f565b5090565b828054828255906000526020600020908101928215615c7f579160200282015b82811115615c7e5782518260006101000a81548173ffffffffffffffffffffffffffffffffffffffff021916908373ffffffffffffffffffffffffffffffffffffffff16021790555091602001919060010190615c26565b5b509050615c8c9190615d64565b5090565b60e06040519081016040528060006004811115615ca957fe5b8152602001600060ff168152602001600060ff168152602001600081526020016060815260200160608152602001606081525090565b828054828255906000526020600020908101928215615d2e579160200282015b82811115615d2d578251829080519060200190615d1d9291906159e2565b5091602001919060010190615cff565b5b509050615d3b9190615da7565b5090565b615d6191905b80821115615d5d576000816000905550600101615d45565b5090565b90565b615da491905b80821115615da057600081816101000a81549073ffffffffffffffffffffffffffffffffffffffff021916905550600101615d6a565b5090565b90565b615dd091905b80821115615dcc5760008181615dc39190615dd3565b50600101615dad565b5090565b90565b50805460018160011615610100020316600290046000825580601f10615df95750615e18565b601f016020900490600052602060002090810190615e179190615d3f565b5b5056fea165627a7a723058207344610ab1400aef3fee871b1f8b26e36d93a47c52a1cb2493b40c2e26f80af10029",
  "source": "pragma solidity ^0.5.0;\n\nimport './AccessRestricted.sol';\nimport './FiatContract.sol';\n\ncontract Patenting is AccessRestricted {\n\n    // TODO: add text to require\n    // TODO: remove deposit in Request\n\n    uint public depositPrice;\n    // uint public newVersionPrice;\n\n    enum RequestStatus {NotRequested, Pending, Rejected, Cancelled, Accepted}\n\n    /* Struct for request */\n    struct Request {\n        RequestStatus status;\n        uint8 acceptedLicence;\n        uint8 requestedLicence;\n        uint deposit;\n        string email;\n        string encryptionKey;\n        string encryptedIpfsKey;\n    }\n\n    // mapping(address => string[]) requestedPatents; // address to requested patentIDs\n\n    /* Struct for patent */\n    struct Patent {\n        string name;\n        address owner;\n        // string parentHash;\n        uint timestamp; // uint64\n        string ipfs;\n        uint8 maxLicence;\n        uint[] licencePrices;\n        bool deleted;\n        address[] buyers;\n        mapping(address => Request) requests;\n        // mapping(address => bool) rates;\n    }\n\n    string[] public patentIDs; // patent hashes\n    mapping(string => Patent) private patents; // patent ID (hash) to Patents\n\n    /* Struct for user account */\n    struct User {\n        string name;\n        string email;\n        uint createdAt;\n        string[] ownedPatentIDs;\n    }\n\n    address[] public userIDs; // user addresses\n    mapping(address => User) private users; // user ID (address) to User\n\n    // TODO: add _patentID and licences in events\n\n    event NewRequest(\n        string _ownerMail,\n        string _patentName,\n        address _rentee\n    );\n\n    event RequestResponse(\n        string _requesterEmail,\n        string _patentName,\n        bool _accepted\n    );\n\n    FiatContract fiat;\n\n    /* Constructor of the contract\n    * {param} uint : The price for depositing a pattern in Wei\n    */\n    constructor(uint _depositPrice, address _fiatContract) public {\n        fiat = FiatContract(_fiatContract);\n        depositPrice = _depositPrice;\n    }\n\n    /*Allows the owner to withdraw the remaining funds*/\n    function withdrawFunds() public onlyOwner {\n        owner.transfer(address(this).balance);\n    }\n\n    /*Allows the owner to modify the price to deposit a new patent*/\n    function setDepositPrice(uint _newPrice) public onlyOwner {\n        depositPrice = _newPrice;\n    }\n\n    /*Allows the owner to modify the price to deposit a new patent*/\n    /*function setNewVersionPrice(uint _newPrice) public onlyOwner {\n        newVersionPrice = _newPrice;\n    }*/\n\n    /*Allows the owner to modify the price to deposit a new patent*/\n    /*function setFiatAddress(uint _newAddress) public onlyOwner {\n        fiat = FiatContract(_newAddress);\n    }*/\n\n    function getEthPrice(uint _dollars) public view returns (uint) {\n        return fiat.USD(0) * 100 * _dollars;\n        // return _dollars / 130;\n    }\n\n    /* ========================================= USER MANAGEMENT FUNCTIONS ======================================== */\n\n    /* Function to register a new user */\n    function registerAccount(string memory _name, string memory _email) public {\n        require(!hasAccount(msg.sender));\n        users[msg.sender] = User(_name, _email, now, new string[](0));\n        userIDs.push(msg.sender);\n        // emit newAccount\n    }\n\n    /* Function to modify the user information */\n    function modifyAccount(string memory _newName, string memory _newEmail) public {\n        // require(hasAccount(msg.sender) && (!equalStrings(_newName, users[msg.sender].name) || !equalStrings(_newEmail, users[msg.sender].email)));\n        User storage u = users[msg.sender];\n        u.name = _newName;\n        u.email = _newEmail;\n    }\n\n    /*function equalStrings(string memory a, string memory b) public pure returns (bool) {\n        return (keccak256(abi.encodePacked((a))) == keccak256(abi.encodePacked((b))) );\n    }*/\n\n    /* ======================================== PATENT MANAGEMENT FUNCTIONS ======================================= */\n\n    /* Function to deposit a patent\n    * {params} the patent parameters\n    * {costs} the price of a patent\n    */\n    function depositPatent(string memory _patentName, string memory _patentHash, uint8 _maxLicence, uint[] memory _licencePrices, string memory _ipfs) public payable {\n        require(hasAccount(msg.sender) && !isRegistered(_patentHash) && msg.value >= getEthPrice(depositPrice) && _licencePrices.length == _maxLicence);\n        patents[_patentHash] = Patent(_patentName, msg.sender, now, _ipfs, _maxLicence, _licencePrices, false, new address[](0));\n        patentIDs.push(_patentHash);\n        User storage u = users[msg.sender];\n        u.ownedPatentIDs.push(_patentHash);\n        // emit event\n    }\n\n    /* Function to modify the licences and prices of a patent */\n    function modifyPatent(string memory _patentID, string memory _newName, uint8 _newMaxLicence, uint[] memory _newLicencePrices) public {\n        require(isRegistered(_patentID) && isOwner(_patentID, msg.sender));\n        Patent storage p = patents[_patentID];\n        p.name = _newName;\n        p.maxLicence = _newMaxLicence;\n        p.licencePrices = _newLicencePrices;\n    }\n\n    /* delete or undelete a patent (i.e. set its visibility wrt other users) */\n    function setVisibility(string memory _patentID) public {\n        require(isRegistered(_patentID) && isOwner(_patentID, msg.sender));\n        Patent storage p = patents[_patentID];\n        p.deleted = !p.deleted;\n    }\n\n    /* ======================================== REQUEST MANAGEMENT FUNCTIONS ======================================= */\n\n    /* Function to request access to a patent\n    * {params} _patentName : name of patent\n    *          _requestedLicence : licence requested for the patent\n    *          _encryptionKey : key to encrypt AES key with (key exchange protocol)\n    * {costs} price of the patent : will be frozen until request is accepted, rejected, or cancelled\n    */\n    function requestAccess(string memory _patentID, uint8 _requestedLicence, string memory _encryptionKey, string memory _email) public payable {\n        require(isRegistered(_patentID) && canRequest(_patentID, _requestedLicence, msg.sender));\n        // require patent has not already been requested\n        require(patents[_patentID].requests[msg.sender].status == RequestStatus.NotRequested);\n        uint ethPrice = getEthPrice(getPrice(_patentID, _requestedLicence));\n        require(msg.value >= ethPrice);\n        // requestedPatents[msg.sender].push(_patentID);\n        Patent storage p = patents[_patentID];\n        p.buyers.push(msg.sender);\n        p.requests[msg.sender] = Request(RequestStatus.Pending, 0, _requestedLicence, ethPrice, _email, _encryptionKey, \"\");\n        emit NewRequest(getOwnerEmail(_patentID), patents[_patentID].name, msg.sender); // put licence in event\n    }\n\n    /* Resend a request for a patent (either to upgrade licence for an accepted request or\n    *  to request access for a previously rejected or cancelled request)\n    */\n    function resendRequest(string memory _patentID, uint8 _requestedLicence) public payable {\n        require(isRegistered(_patentID) && canRequest(_patentID, _requestedLicence, msg.sender));\n        // Ensure patent has already been requested\n        require(patents[_patentID].requests[msg.sender].status != RequestStatus.NotRequested);\n        uint price = getPrice(_patentID, _requestedLicence);\n        uint8 userLicence = patents[_patentID].requests[msg.sender].acceptedLicence;\n        if (userLicence > 0) {\n            // just pay the difference if the user has already access to a licence\n            price -= getPrice(_patentID, userLicence);\n        }\n        uint ethPrice = getEthPrice(price);\n        require(msg.value >= ethPrice);\n        Request storage r = patents[_patentID].requests[msg.sender];\n        r.status = RequestStatus.Pending;\n        r.requestedLicence = _requestedLicence;\n        r.deposit = ethPrice;\n        emit NewRequest(getOwnerEmail(_patentID), patents[_patentID].name, msg.sender); // put licence in event and parameter isNew ?\n    }\n\n    /* Function to accept a request\n    * {params} _patentID : id of patent\n    *          _user : user to give access to (must have requested)\n    *   Transfers the amount to the patent owner\n    */\n    function acceptRequest(string memory _patentID, address _user) public {\n        require(isRegistered(_patentID) && isOwner(_patentID, msg.sender) && isPending(_patentID, _user));\n        Request storage r = patents[_patentID].requests[_user];\n        // require(r.deposit >= 0);\n        msg.sender.transfer(r.deposit);\n        r.deposit = 0;\n        r.status = RequestStatus.Accepted;\n        r.acceptedLicence = r.requestedLicence;\n        emit RequestResponse(r.email, patents[_patentID].name, true); // put licence in event\n    }\n\n    /* Function to grant access to a user\n    * {params} _patentID : id of patent\n    *          _user : user to give access to (must have requested)\n    *          _encryptedIpfsKey : encrypted AES key to decrypt file on ipfs\n    *   accept the pending request and gives the key to the requester\n    */\n    function grantAccess(string memory _patentID, address _user, string memory _encryptedIpfsKey) public {\n        acceptRequest(_patentID, _user);\n        Request storage r = patents[_patentID].requests[_user];\n        r.encryptedIpfsKey = _encryptedIpfsKey;\n    }\n\n    /* Function to reject access to a patent or a licence upgrade\n    * {params} : Same as above\n    * Refunds the amount to the user\n    */\n    function rejectRequest(string memory _patentID, address payable _user) public {\n        require(isRegistered(_patentID) && isOwner(_patentID, msg.sender) && isPending(_patentID, _user));\n        Request storage r = patents[_patentID].requests[_user];\n        // require(r.deposit >= 0);\n        // Refund back to user\n        _user.transfer(r.deposit);\n        r.deposit = 0;\n        // if user already had access (i.e. asked for upgrade), just go back to previously accepted licence, otherwise reject\n        uint8 userLicence = patents[_patentID].requests[msg.sender].acceptedLicence;\n        if (userLicence > 0) {\n            r.status = RequestStatus.Accepted;\n        } else {\n            r.status = RequestStatus.Rejected;\n        }\n        emit RequestResponse(r.email, patents[_patentID].name, false); // Put licence in event\n    }\n\n    /* Function that cancels a request (can only be called by user)\n    * {params} : _patentName : name of patent\n    */\n    function cancelRequest(string memory _patentID) public {\n        require(isRegistered(_patentID) && isPending(_patentID, msg.sender));\n        Request storage r = patents[_patentID].requests[msg.sender];\n        // require(r.deposit >= 0);\n        // Refund back to user\n        msg.sender.transfer(r.deposit);\n        r.deposit = 0;\n        uint8 userLicence = patents[_patentID].requests[msg.sender].acceptedLicence;\n        if (userLicence > 0) {\n            r.status = RequestStatus.Accepted;\n        } else {\n            r.status = RequestStatus.Cancelled;\n        }\n    }\n\n    /* ============================== View functions that do not require transactions ============================== */\n\n\n    /*Returns number of deposited patents*/\n    function patentCount() public view returns (uint){\n        return patentIDs.length;\n    }\n\n    /*Returns number of registered users*/\n    function userCount() public view returns (uint){\n        return userIDs.length;\n    }\n\n    /*Returns true if the given account can request the given patent*/\n    function canRequest(string memory _patentID, uint _requestedLicence, address _user) public view returns (bool){\n        return !patents[_patentID].deleted && !isPending(_patentID, _user) && !isOwner(_patentID, _user)\n            && _requestedLicence > patents[_patentID].requests[msg.sender].acceptedLicence\n            && _requestedLicence <= patents[_patentID].maxLicence;\n    }\n\n    function getRequestInformation(string memory _patentID, address _user) public view returns (RequestStatus, uint8, uint8, string memory) {\n        Request memory r = patents[_patentID].requests[_user];\n        return (r.status, r.acceptedLicence, r.requestedLicence, r.email);\n    }\n\n    function getPatentInformation(string memory _patentID) public view returns (string memory, address, uint, string memory, uint8, uint[] memory, bool) {\n        Patent memory p = patents[_patentID];\n        return (p.name, p.owner, /*p.parentHash,*/ p.timestamp, p.ipfs, p.maxLicence, p.licencePrices, p.deleted);\n    }\n\n    function getUserInformation(address _userID) public view returns (string memory, string memory) {\n        User memory u = users[_userID];\n        return (u.name, u.email);\n    }\n\n    /*Returns true of the given account has a pending request on the given patent*/\n    function isPending(string memory _patentID, address _user) public view returns (bool){\n        return patents[_patentID].requests[_user].status == RequestStatus.Pending;\n    }\n\n    /*Returns true if account is owner of given patent*/\n    function isOwner(string memory _patentID, address _user) public view returns (bool){\n        return patents[_patentID].owner == _user;\n    }\n\n    /*Returns the price of a patent for a given licence*/\n    function getPrice(string memory _patentID, uint _licence) public view returns (uint) {\n        // index by licence-1 cause licence 0 price not stored in licence prices since free\n        return patents[_patentID].licencePrices[_licence-1];\n    }\n\n    /*Returns the number of requests for the given patent*/\n    function getNumRequests(string memory _patentID) public view returns (uint){\n        return patents[_patentID].buyers.length;\n    }\n\n    /*Returns the address of the buyer at _index  (Used for iterating)*/\n    function getBuyers(string memory _patentID, uint _index) public view returns (address){\n        return patents[_patentID].buyers[_index];\n    }\n\n    /*Returns the address of the buyer at _index  (Used for iterating)*/\n    /* function getNumRequestedPatents() public view returns (uint){\n        return requestedPatents[msg.sender].length;\n    } */\n\n    /*Returns the address of the buyer at _index  (Used for iterating)*/\n    /* function getRequestedPatents(uint _index) public view returns (string memory){\n        return requestedPatents[msg.sender][_index];\n    }*/\n\n    /*Returns the requester's public key*/\n    function getEncryptionKey(string memory _patentID, address _user) public view returns (string memory){\n        return patents[_patentID].requests[_user].encryptionKey;\n    }\n\n    /*Returns the encrypted IPFS AES key*/\n    function getEncryptedIpfsKey(string memory _patentID) public view returns (string memory){\n        require(patents[_patentID].requests[msg.sender].status == RequestStatus.Accepted);\n        return patents[_patentID].requests[msg.sender].encryptedIpfsKey;\n    }\n\n    /*Returns the email address of the _patentID's owner*/\n    function getOwnerEmail(string memory _patentID) public view returns (string memory) {\n        return users[patents[_patentID].owner].email;\n    }\n\n    /*Returns true if the given patent ID has already been registered*/\n    function isRegistered(string memory _patentID) public view returns (bool) {\n        return patents[_patentID].timestamp != 0;\n    }\n\n    /*Returns true if the given account has already been registered*/\n    function hasAccount(address _user) public view returns (bool) {\n        return users[_user].createdAt != 0;\n    }\n\n    /*Returns the number of patents owned by the user*/\n    function getNumPatents(address _user) public view returns (uint){\n        return users[_user].ownedPatentIDs.length;\n    }\n\n    /*Returns the patent of the _user at index i (Used for iterating)*/\n    function getOwnedPatentIDs(address _user, uint _index) public view returns (string memory){\n        return users[_user].ownedPatentIDs[_index];\n    }\n}\n",
  "sourcePath": "/Users/axel/Developer/DNAM/Web-Applications/react-app/contracts/Patenting.sol",
  "compiler": {
    "name": "solc",
    "version": "0.5.0+commit.1d4f565a.Emscripten.clang"
  },
  "schemaVersion": "3.0.2",
  "updatedAt": "2019-06-24T15:18:04.725Z",
  "devdoc": {
    "methods": {}
  },
  "userdoc": {
    "methods": {}
  }
}