{
  "contractName": "Requests",
  "abi": [
    {
      "constant": false,
      "inputs": [
        {
          "name": "_newOwner",
          "type": "address"
        }
      ],
      "name": "changeOwner",
      "outputs": [],
      "payable": false,
      "stateMutability": "nonpayable",
      "type": "function",
      "signature": "0xa6f9dae1"
    },
    {
      "inputs": [
        {
          "name": "_patentsAddress",
          "type": "address"
        }
      ],
      "payable": false,
      "stateMutability": "nonpayable",
      "type": "constructor",
      "signature": "constructor"
    },
    {
      "anonymous": false,
      "inputs": [
        {
          "indexed": false,
          "name": "_ownerMail",
          "type": "string"
        },
        {
          "indexed": false,
          "name": "_patentName",
          "type": "string"
        },
        {
          "indexed": false,
          "name": "_rentee",
          "type": "address"
        }
      ],
      "name": "NewRequest",
      "type": "event",
      "signature": "0x7e558bb9898d8d17809158db6c967a8ea47d93a15a5d359a1186352a086cfb7c"
    },
    {
      "anonymous": false,
      "inputs": [
        {
          "indexed": false,
          "name": "_requesterEmail",
          "type": "string"
        },
        {
          "indexed": false,
          "name": "_patentName",
          "type": "string"
        },
        {
          "indexed": false,
          "name": "_accepted",
          "type": "bool"
        }
      ],
      "name": "RequestResponse",
      "type": "event",
      "signature": "0x87deb0bf3260371a3845769d523869b17a51dab5e82dd1d7db896b489fe42f57"
    },
    {
      "constant": false,
      "inputs": [
        {
          "name": "_newAddress",
          "type": "uint256"
        }
      ],
      "name": "setPatentsAddress",
      "outputs": [],
      "payable": false,
      "stateMutability": "nonpayable",
      "type": "function",
      "signature": "0xffcd549b"
    },
    {
      "constant": false,
      "inputs": [
        {
          "name": "_patentID",
          "type": "string"
        },
        {
          "name": "_requestedLicence",
          "type": "uint8"
        },
        {
          "name": "_encryptionKey",
          "type": "string"
        },
        {
          "name": "_email",
          "type": "string"
        }
      ],
      "name": "requestAccess",
      "outputs": [],
      "payable": true,
      "stateMutability": "payable",
      "type": "function",
      "signature": "0x24880dcd"
    },
    {
      "constant": false,
      "inputs": [
        {
          "name": "_patentID",
          "type": "string"
        },
        {
          "name": "_requestedLicence",
          "type": "uint8"
        }
      ],
      "name": "resendRequest",
      "outputs": [],
      "payable": true,
      "stateMutability": "payable",
      "type": "function",
      "signature": "0xce975b72"
    },
    {
      "constant": false,
      "inputs": [
        {
          "name": "_patentID",
          "type": "string"
        },
        {
          "name": "_user",
          "type": "address"
        }
      ],
      "name": "acceptRequest",
      "outputs": [],
      "payable": false,
      "stateMutability": "nonpayable",
      "type": "function",
      "signature": "0x2bcb56f9"
    },
    {
      "constant": false,
      "inputs": [
        {
          "name": "_patentID",
          "type": "string"
        },
        {
          "name": "_user",
          "type": "address"
        },
        {
          "name": "_encryptedIpfsKey",
          "type": "string"
        }
      ],
      "name": "grantAccess",
      "outputs": [],
      "payable": false,
      "stateMutability": "nonpayable",
      "type": "function",
      "signature": "0x5d98dde8"
    },
    {
      "constant": false,
      "inputs": [
        {
          "name": "_patentID",
          "type": "string"
        },
        {
          "name": "_user",
          "type": "address"
        }
      ],
      "name": "rejectRequest",
      "outputs": [],
      "payable": false,
      "stateMutability": "nonpayable",
      "type": "function",
      "signature": "0x0e6549fa"
    },
    {
      "constant": false,
      "inputs": [
        {
          "name": "_patentID",
          "type": "string"
        }
      ],
      "name": "cancelRequest",
      "outputs": [],
      "payable": false,
      "stateMutability": "nonpayable",
      "type": "function",
      "signature": "0xe489445d"
    },
    {
      "constant": true,
      "inputs": [
        {
          "name": "_patentID",
          "type": "string"
        },
        {
          "name": "_requestedLicence",
          "type": "uint256"
        },
        {
          "name": "_userID",
          "type": "address"
        }
      ],
      "name": "canRequest",
      "outputs": [
        {
          "name": "",
          "type": "bool"
        }
      ],
      "payable": false,
      "stateMutability": "view",
      "type": "function",
      "signature": "0x2f35645a"
    },
    {
      "constant": true,
      "inputs": [
        {
          "name": "_userID",
          "type": "address"
        }
      ],
      "name": "getNumRequestedPatents",
      "outputs": [
        {
          "name": "",
          "type": "uint256"
        }
      ],
      "payable": false,
      "stateMutability": "view",
      "type": "function",
      "signature": "0xd0a16b83"
    },
    {
      "constant": true,
      "inputs": [
        {
          "name": "_userID",
          "type": "address"
        },
        {
          "name": "_index",
          "type": "uint256"
        }
      ],
      "name": "getRequestedPatents",
      "outputs": [
        {
          "name": "",
          "type": "string"
        }
      ],
      "payable": false,
      "stateMutability": "view",
      "type": "function",
      "signature": "0x8b07445f"
    },
    {
      "constant": true,
      "inputs": [
        {
          "name": "_patentID",
          "type": "string"
        },
        {
          "name": "_userID",
          "type": "address"
        }
      ],
      "name": "getRequestStatus",
      "outputs": [
        {
          "name": "",
          "type": "uint8"
        }
      ],
      "payable": false,
      "stateMutability": "view",
      "type": "function",
      "signature": "0xe2f99c7e"
    },
    {
      "constant": true,
      "inputs": [
        {
          "name": "_patentID",
          "type": "string"
        },
        {
          "name": "_userID",
          "type": "address"
        }
      ],
      "name": "isPending",
      "outputs": [
        {
          "name": "",
          "type": "bool"
        }
      ],
      "payable": false,
      "stateMutability": "view",
      "type": "function",
      "signature": "0xbe3e0722"
    },
    {
      "constant": true,
      "inputs": [
        {
          "name": "_patentID",
          "type": "string"
        },
        {
          "name": "_userID",
          "type": "address"
        }
      ],
      "name": "isAccepted",
      "outputs": [
        {
          "name": "",
          "type": "bool"
        }
      ],
      "payable": false,
      "stateMutability": "view",
      "type": "function",
      "signature": "0x65f8695e"
    },
    {
      "constant": true,
      "inputs": [
        {
          "name": "_patentID",
          "type": "string"
        },
        {
          "name": "_userID",
          "type": "address"
        }
      ],
      "name": "getAcceptedLicence",
      "outputs": [
        {
          "name": "",
          "type": "uint256"
        }
      ],
      "payable": false,
      "stateMutability": "view",
      "type": "function",
      "signature": "0x2760568d"
    },
    {
      "constant": true,
      "inputs": [
        {
          "name": "_patentID",
          "type": "string"
        },
        {
          "name": "_userID",
          "type": "address"
        }
      ],
      "name": "getRequestedLicence",
      "outputs": [
        {
          "name": "",
          "type": "uint256"
        }
      ],
      "payable": false,
      "stateMutability": "view",
      "type": "function",
      "signature": "0x356b7b08"
    },
    {
      "constant": true,
      "inputs": [
        {
          "name": "_patentID",
          "type": "string"
        },
        {
          "name": "_userID",
          "type": "address"
        }
      ],
      "name": "hasRequested",
      "outputs": [
        {
          "name": "",
          "type": "bool"
        }
      ],
      "payable": false,
      "stateMutability": "view",
      "type": "function",
      "signature": "0x2174c915"
    },
    {
      "constant": true,
      "inputs": [
        {
          "name": "_patentID",
          "type": "string"
        },
        {
          "name": "_userID",
          "type": "address"
        }
      ],
      "name": "getEncryptionKey",
      "outputs": [
        {
          "name": "",
          "type": "string"
        }
      ],
      "payable": false,
      "stateMutability": "view",
      "type": "function",
      "signature": "0xad8c9dd6"
    },
    {
      "constant": true,
      "inputs": [
        {
          "name": "_patentID",
          "type": "string"
        }
      ],
      "name": "getEncryptedIpfsKey",
      "outputs": [
        {
          "name": "",
          "type": "string"
        }
      ],
      "payable": false,
      "stateMutability": "view",
      "type": "function",
      "signature": "0xa302e8cd"
    }
  ],
  "bytecode": "0x6080604052336000806101000a81548173ffffffffffffffffffffffffffffffffffffffff021916908373ffffffffffffffffffffffffffffffffffffffff16021790555034801561005057600080fd5b5060405160208062004a5d8339810180604052602081101561007157600080fd5b810190808051906020019092919050505080600160006101000a81548173ffffffffffffffffffffffffffffffffffffffff021916908373ffffffffffffffffffffffffffffffffffffffff1602179055505061498980620000d46000396000f3fe608060405260043610610107576000357c0100000000000000000000000000000000000000000000000000000000900463ffffffff1680630e6549fa1461010c5780632174c915146101f457806324880dcd146102f45780632760568d146104ea5780632bcb56f9146105e65780632f35645a146106ce578063356b7b08146107d85780635d98dde8146108d457806365f8695e14610a535780638b07445f14610b53578063a302e8cd14610c27578063a6f9dae114610d68578063ad8c9dd614610db9578063be3e072214610f1a578063ce975b721461101a578063d0a16b83146110e2578063e2f99c7e14611147578063e489445d14611251578063ffcd549b14611319575b600080fd5b34801561011857600080fd5b506101f26004803603604081101561012f57600080fd5b810190808035906020019064010000000081111561014c57600080fd5b82018360208201111561015e57600080fd5b8035906020019184600183028401116401000000008311171561018057600080fd5b91908080601f016020809104026020016040519081016040528093929190818152602001838380828437600081840152601f19601f820116905080830192505050505050509192919290803573ffffffffffffffffffffffffffffffffffffffff169060200190929190505050611354565b005b34801561020057600080fd5b506102da6004803603604081101561021757600080fd5b810190808035906020019064010000000081111561023457600080fd5b82018360208201111561024657600080fd5b8035906020019184600183028401116401000000008311171561026857600080fd5b91908080601f016020809104026020016040519081016040528093929190818152602001838380828437600081840152601f19601f820116905080830192505050505050509192919290803573ffffffffffffffffffffffffffffffffffffffff169060200190929190505050611afb565b604051808215151515815260200191505060405180910390f35b6104e86004803603608081101561030a57600080fd5b810190808035906020019064010000000081111561032757600080fd5b82018360208201111561033957600080fd5b8035906020019184600183028401116401000000008311171561035b57600080fd5b91908080601f016020809104026020016040519081016040528093929190818152602001838380828437600081840152601f19601f820116905080830192505050505050509192919290803560ff169060200190929190803590602001906401000000008111156103cb57600080fd5b8201836020820111156103dd57600080fd5b803590602001918460018302840111640100000000831117156103ff57600080fd5b91908080601f016020809104026020016040519081016040528093929190818152602001838380828437600081840152601f19601f8201169050808301925050505050505091929192908035906020019064010000000081111561046257600080fd5b82018360208201111561047457600080fd5b8035906020019184600183028401116401000000008311171561049657600080fd5b91908080601f016020809104026020016040519081016040528093929190818152602001838380828437600081840152601f19601f820116905080830192505050505050509192919290505050611b28565b005b3480156104f657600080fd5b506105d06004803603604081101561050d57600080fd5b810190808035906020019064010000000081111561052a57600080fd5b82018360208201111561053c57600080fd5b8035906020019184600183028401116401000000008311171561055e57600080fd5b91908080601f016020809104026020016040519081016040528093929190818152602001838380828437600081840152601f19601f820116905080830192505050505050509192919290803573ffffffffffffffffffffffffffffffffffffffff16906020019092919050505061267c565b6040518082815260200191505060405180910390f35b3480156105f257600080fd5b506106cc6004803603604081101561060957600080fd5b810190808035906020019064010000000081111561062657600080fd5b82018360208201111561063857600080fd5b8035906020019184600183028401116401000000008311171561065a57600080fd5b91908080601f016020809104026020016040519081016040528093929190818152602001838380828437600081840152601f19601f820116905080830192505050505050509192919290803573ffffffffffffffffffffffffffffffffffffffff169060200190929190505050612742565b005b3480156106da57600080fd5b506107be600480360360608110156106f157600080fd5b810190808035906020019064010000000081111561070e57600080fd5b82018360208201111561072057600080fd5b8035906020019184600183028401116401000000008311171561074257600080fd5b91908080601f016020809104026020016040519081016040528093929190818152602001838380828437600081840152601f19601f82011690508083019250505050505050919291929080359060200190929190803573ffffffffffffffffffffffffffffffffffffffff169060200190929190505050612e0d565b604051808215151515815260200191505060405180910390f35b3480156107e457600080fd5b506108be600480360360408110156107fb57600080fd5b810190808035906020019064010000000081111561081857600080fd5b82018360208201111561082a57600080fd5b8035906020019184600183028401116401000000008311171561084c57600080fd5b91908080601f016020809104026020016040519081016040528093929190818152602001838380828437600081840152601f19601f820116905080830192505050505050509192919290803573ffffffffffffffffffffffffffffffffffffffff169060200190929190505050613215565b6040518082815260200191505060405180910390f35b3480156108e057600080fd5b50610a51600480360360608110156108f757600080fd5b810190808035906020019064010000000081111561091457600080fd5b82018360208201111561092657600080fd5b8035906020019184600183028401116401000000008311171561094857600080fd5b91908080601f016020809104026020016040519081016040528093929190818152602001838380828437600081840152601f19601f820116905080830192505050505050509192919290803573ffffffffffffffffffffffffffffffffffffffff169060200190929190803590602001906401000000008111156109cb57600080fd5b8201836020820111156109dd57600080fd5b803590602001918460018302840111640100000000831117156109ff57600080fd5b91908080601f016020809104026020016040519081016040528093929190818152602001838380828437600081840152601f19601f8201169050808301925050505050505091929192905050506132db565b005b348015610a5f57600080fd5b50610b3960048036036040811015610a7657600080fd5b8101908080359060200190640100000000811115610a9357600080fd5b820183602082011115610aa557600080fd5b80359060200191846001830284011164010000000083111715610ac757600080fd5b91908080601f016020809104026020016040519081016040528093929190818152602001838380828437600081840152601f19601f820116905080830192505050505050509192919290803573ffffffffffffffffffffffffffffffffffffffff1690602001909291905050506133b0565b604051808215151515815260200191505060405180910390f35b348015610b5f57600080fd5b50610bac60048036036040811015610b7657600080fd5b81019080803573ffffffffffffffffffffffffffffffffffffffff169060200190929190803590602001909291905050506133dd565b6040518080602001828103825283818151815260200191508051906020019080838360005b83811015610bec578082015181840152602081019050610bd1565b50505050905090810190601f168015610c195780820380516001836020036101000a031916815260200191505b509250505060405180910390f35b348015610c3357600080fd5b50610ced60048036036020811015610c4a57600080fd5b8101908080359060200190640100000000811115610c6757600080fd5b820183602082011115610c7957600080fd5b80359060200191846001830284011164010000000083111715610c9b57600080fd5b91908080601f016020809104026020016040519081016040528093929190818152602001838380828437600081840152601f19601f8201169050808301925050505050505091929192905050506134d6565b6040518080602001828103825283818151815260200191508051906020019080838360005b83811015610d2d578082015181840152602081019050610d12565b50505050905090810190601f168015610d5a5780820380516001836020036101000a031916815260200191505b509250505060405180910390f35b348015610d7457600080fd5b50610db760048036036020811015610d8b57600080fd5b81019080803573ffffffffffffffffffffffffffffffffffffffff169060200190929190505050613623565b005b348015610dc557600080fd5b50610e9f60048036036040811015610ddc57600080fd5b8101908080359060200190640100000000811115610df957600080fd5b820183602082011115610e0b57600080fd5b80359060200191846001830284011164010000000083111715610e2d57600080fd5b91908080601f016020809104026020016040519081016040528093929190818152602001838380828437600081840152601f19601f820116905080830192505050505050509192919290803573ffffffffffffffffffffffffffffffffffffffff1690602001909291905050506136c1565b6040518080602001828103825283818151815260200191508051906020019080838360005b83811015610edf578082015181840152602081019050610ec4565b50505050905090810190601f168015610f0c5780820380516001836020036101000a031916815260200191505b509250505060405180910390f35b348015610f2657600080fd5b5061100060048036036040811015610f3d57600080fd5b8101908080359060200190640100000000811115610f5a57600080fd5b820183602082011115610f6c57600080fd5b80359060200191846001830284011164010000000083111715610f8e57600080fd5b91908080601f016020809104026020016040519081016040528093929190818152602001838380828437600081840152601f19601f820116905080830192505050505050509192919290803573ffffffffffffffffffffffffffffffffffffffff16906020019092919050505061380f565b604051808215151515815260200191505060405180910390f35b6110e06004803603604081101561103057600080fd5b810190808035906020019064010000000081111561104d57600080fd5b82018360208201111561105f57600080fd5b8035906020019184600183028401116401000000008311171561108157600080fd5b91908080601f016020809104026020016040519081016040528093929190818152602001838380828437600081840152601f19601f820116905080830192505050505050509192919290803560ff16906020019092919050505061383c565b005b3480156110ee57600080fd5b506111316004803603602081101561110557600080fd5b81019080803573ffffffffffffffffffffffffffffffffffffffff169060200190929190505050614309565b6040518082815260200191505060405180910390f35b34801561115357600080fd5b5061122d6004803603604081101561116a57600080fd5b810190808035906020019064010000000081111561118757600080fd5b82018360208201111561119957600080fd5b803590602001918460018302840111640100000000831117156111bb57600080fd5b91908080601f016020809104026020016040519081016040528093929190818152602001838380828437600081840152601f19601f820116905080830192505050505050509192919290803573ffffffffffffffffffffffffffffffffffffffff169060200190929190505050614355565b6040518082600481111561123d57fe5b60ff16815260200191505060405180910390f35b34801561125d57600080fd5b506113176004803603602081101561127457600080fd5b810190808035906020019064010000000081111561129157600080fd5b8201836020820111156112a357600080fd5b803590602001918460018302840111640100000000831117156112c557600080fd5b91908080601f016020809104026020016040519081016040528093929190818152602001838380828437600081840152601f19601f820116905080830192505050505050509192919290505050614418565b005b34801561132557600080fd5b506113526004803603602081101561133c57600080fd5b8101908080359060200190929190505050614799565b005b600160009054906101000a900473ffffffffffffffffffffffffffffffffffffffff1673ffffffffffffffffffffffffffffffffffffffff1663c822d7f0836040518263ffffffff167c01000000000000000000000000000000000000000000000000000000000281526004018080602001828103825283818151815260200191508051906020019080838360005b838110156113fe5780820151818401526020810190506113e3565b50505050905090810190601f16801561142b5780820380516001836020036101000a031916815260200191505b509250505060206040518083038186803b15801561144857600080fd5b505afa15801561145c573d6000803e3d6000fd5b505050506040513d602081101561147257600080fd5b810190808051906020019092919050505080156115ee5750600160009054906101000a900473ffffffffffffffffffffffffffffffffffffffff1673ffffffffffffffffffffffffffffffffffffffff1663bde1eee783336040518363ffffffff167c010000000000000000000000000000000000000000000000000000000002815260040180806020018373ffffffffffffffffffffffffffffffffffffffff1673ffffffffffffffffffffffffffffffffffffffff168152602001828103825284818151815260200191508051906020019080838360005b8381101561156757808201518184015260208101905061154c565b50505050905090810190601f1680156115945780820380516001836020036101000a031916815260200191505b50935050505060206040518083038186803b1580156115b257600080fd5b505afa1580156115c6573d6000803e3d6000fd5b505050506040513d60208110156115dc57600080fd5b81019080805190602001909291905050505b801561160057506115ff828261380f565b5b151561160b57600080fd5b60006003836040518082805190602001908083835b6020831015156116455780518252602082019150602081019050602083039250611620565b6001836020036101000a038019825116818451168082178552505050505050905001915050908152602001604051809103902060008373ffffffffffffffffffffffffffffffffffffffff1673ffffffffffffffffffffffffffffffffffffffff168152602001908152602001600020905060008160010154101515156116cb57600080fd5b8173ffffffffffffffffffffffffffffffffffffffff166108fc82600101549081150290604051600060405180830381858888f19350505050158015611715573d6000803e3d6000fd5b506000816001018190555060006003846040518082805190602001908083835b60208310151561175a5780518252602082019150602081019050602083039250611735565b6001836020036101000a038019825116818451168082178552505050505050905001915050908152602001604051809103902060003373ffffffffffffffffffffffffffffffffffffffff1673ffffffffffffffffffffffffffffffffffffffff16815260200190815260200160002060000160019054906101000a900460ff16905060008160ff1611156118145760028260000160006101000a81548160ff0219169083600481111561180a57fe5b021790555061183b565b60038260000160006101000a81548160ff0219169083600481111561183557fe5b02179055505b7f87deb0bf3260371a3845769d523869b17a51dab5e82dd1d7db896b489fe42f5782600201600160009054906101000a900473ffffffffffffffffffffffffffffffffffffffff1673ffffffffffffffffffffffffffffffffffffffff1663e966b895876040518263ffffffff167c01000000000000000000000000000000000000000000000000000000000281526004018080602001828103825283818151815260200191508051906020019080838360005b8381101561190a5780820151818401526020810190506118ef565b50505050905090810190601f1680156119375780820380516001836020036101000a031916815260200191505b509250505060006040518083038186803b15801561195457600080fd5b505afa158015611968573d6000803e3d6000fd5b505050506040513d6000823e3d601f19601f82011682018060405250602081101561199257600080fd5b8101908080516401000000008111156119aa57600080fd5b828101905060208101848111156119c057600080fd5b81518560018202830111640100000000821117156119dd57600080fd5b5050929190505050600060405180806020018060200184151515158152602001838103835286818154600181600116156101000203166002900481526020019150805460018160011615610100020316600290048015611a7e5780601f10611a5357610100808354040283529160200191611a7e565b820191906000526020600020905b815481529060010190602001808311611a6157829003601f168201915b5050838103825285818151815260200191508051906020019080838360005b83811015611ab8578082015181840152602081019050611a9d565b50505050905090810190601f168015611ae55780820380516001836020036101000a031916815260200191505b509550505050505060405180910390a150505050565b6000806004811115611b0957fe5b611b138484614355565b6004811115611b1e57fe5b1415905092915050565b600160009054906101000a900473ffffffffffffffffffffffffffffffffffffffff1673ffffffffffffffffffffffffffffffffffffffff1663c822d7f0856040518263ffffffff167c01000000000000000000000000000000000000000000000000000000000281526004018080602001828103825283818151815260200191508051906020019080838360005b83811015611bd2578082015181840152602081019050611bb7565b50505050905090810190601f168015611bff5780820380516001836020036101000a031916815260200191505b509250505060206040518083038186803b158015611c1c57600080fd5b505afa158015611c30573d6000803e3d6000fd5b505050506040513d6020811015611c4657600080fd5b81019080805190602001909291905050508015611c6d5750611c6c848460ff1633612e0d565b5b1515611c7857600080fd5b611c828433611afb565b151515611c8e57600080fd5b6000600160009054906101000a900473ffffffffffffffffffffffffffffffffffffffff1673ffffffffffffffffffffffffffffffffffffffff1663870d365d600160009054906101000a900473ffffffffffffffffffffffffffffffffffffffff1673ffffffffffffffffffffffffffffffffffffffff16632ef3accc88886040518363ffffffff167c010000000000000000000000000000000000000000000000000000000002815260040180806020018360ff168152602001828103825284818151815260200191508051906020019080838360005b83811015611d82578082015181840152602081019050611d67565b50505050905090810190601f168015611daf5780820380516001836020036101000a031916815260200191505b50935050505060206040518083038186803b158015611dcd57600080fd5b505afa158015611de1573d6000803e3d6000fd5b505050506040513d6020811015611df757600080fd5b81019080805190602001909291905050506040518263ffffffff167c01000000000000000000000000000000000000000000000000000000000281526004018082815260200191505060206040518083038186803b158015611e5857600080fd5b505afa158015611e6c573d6000803e3d6000fd5b505050506040513d6020811015611e8257600080fd5b81019080805190602001909291905050509050803410151515611ea457600080fd5b600260003373ffffffffffffffffffffffffffffffffffffffff1673ffffffffffffffffffffffffffffffffffffffff168152602001908152602001600020859080600181540180825580915050906001820390600052602060002001600090919290919091509080519060200190611f1e929190614838565b505060e06040519081016040528060016004811115611f3957fe5b8152602001600060ff1681526020018560ff16815260200182815260200183815260200184815260200160206040519081016040528060008152508152506003866040518082805190602001908083835b602083101515611faf5780518252602082019150602081019050602083039250611f8a565b6001836020036101000a038019825116818451168082178552505050505050905001915050908152602001604051809103902060003373ffffffffffffffffffffffffffffffffffffffff1673ffffffffffffffffffffffffffffffffffffffff16815260200190815260200160002060008201518160000160006101000a81548160ff0219169083600481111561204357fe5b021790555060208201518160000160016101000a81548160ff021916908360ff16021790555060408201518160000160026101000a81548160ff021916908360ff1602179055506060820151816001015560808201518160020190805190602001906120b09291906148b8565b5060a08201518160030190805190602001906120cd9291906148b8565b5060c08201518160040190805190602001906120ea9291906148b8565b50905050600160009054906101000a900473ffffffffffffffffffffffffffffffffffffffff1673ffffffffffffffffffffffffffffffffffffffff16630da3610386336040518363ffffffff167c010000000000000000000000000000000000000000000000000000000002815260040180806020018373ffffffffffffffffffffffffffffffffffffffff1673ffffffffffffffffffffffffffffffffffffffff168152602001828103825284818151815260200191508051906020019080838360005b838110156121cb5780820151818401526020810190506121b0565b50505050905090810190601f1680156121f85780820380516001836020036101000a031916815260200191505b509350505050600060405180830381600087803b15801561221857600080fd5b505af115801561222c573d6000803e3d6000fd5b505050507f7e558bb9898d8d17809158db6c967a8ea47d93a15a5d359a1186352a086cfb7c600160009054906101000a900473ffffffffffffffffffffffffffffffffffffffff1673ffffffffffffffffffffffffffffffffffffffff166368b2210d876040518263ffffffff167c01000000000000000000000000000000000000000000000000000000000281526004018080602001828103825283818151815260200191508051906020019080838360005b838110156122fb5780820151818401526020810190506122e0565b50505050905090810190601f1680156123285780820380516001836020036101000a031916815260200191505b509250505060006040518083038186803b15801561234557600080fd5b505afa158015612359573d6000803e3d6000fd5b505050506040513d6000823e3d601f19601f82011682018060405250602081101561238357600080fd5b81019080805164010000000081111561239b57600080fd5b828101905060208101848111156123b157600080fd5b81518560018202830111640100000000821117156123ce57600080fd5b5050929190505050600160009054906101000a900473ffffffffffffffffffffffffffffffffffffffff1673ffffffffffffffffffffffffffffffffffffffff1663e966b895886040518263ffffffff167c01000000000000000000000000000000000000000000000000000000000281526004018080602001828103825283818151815260200191508051906020019080838360005b83811015612480578082015181840152602081019050612465565b50505050905090810190601f1680156124ad5780820380516001836020036101000a031916815260200191505b509250505060006040518083038186803b1580156124ca57600080fd5b505afa1580156124de573d6000803e3d6000fd5b505050506040513d6000823e3d601f19601f82011682018060405250602081101561250857600080fd5b81019080805164010000000081111561252057600080fd5b8281019050602081018481111561253657600080fd5b815185600182028301116401000000008211171561255357600080fd5b5050929190505050336040518080602001806020018473ffffffffffffffffffffffffffffffffffffffff1673ffffffffffffffffffffffffffffffffffffffff168152602001838103835286818151815260200191508051906020019080838360005b838110156125d25780820151818401526020810190506125b7565b50505050905090810190601f1680156125ff5780820380516001836020036101000a031916815260200191505b50838103825285818151815260200191508051906020019080838360005b8381101561263857808201518184015260208101905061261d565b50505050905090810190601f1680156126655780820380516001836020036101000a031916815260200191505b509550505050505060405180910390a15050505050565b60006003836040518082805190602001908083835b6020831015156126b65780518252602082019150602081019050602083039250612691565b6001836020036101000a038019825116818451168082178552505050505050905001915050908152602001604051809103902060008373ffffffffffffffffffffffffffffffffffffffff1673ffffffffffffffffffffffffffffffffffffffff16815260200190815260200160002060000160019054906101000a900460ff1660ff16905092915050565b600160009054906101000a900473ffffffffffffffffffffffffffffffffffffffff1673ffffffffffffffffffffffffffffffffffffffff1663c822d7f0836040518263ffffffff167c01000000000000000000000000000000000000000000000000000000000281526004018080602001828103825283818151815260200191508051906020019080838360005b838110156127ec5780820151818401526020810190506127d1565b50505050905090810190601f1680156128195780820380516001836020036101000a031916815260200191505b509250505060206040518083038186803b15801561283657600080fd5b505afa15801561284a573d6000803e3d6000fd5b505050506040513d602081101561286057600080fd5b810190808051906020019092919050505080156129dc5750600160009054906101000a900473ffffffffffffffffffffffffffffffffffffffff1673ffffffffffffffffffffffffffffffffffffffff1663bde1eee783336040518363ffffffff167c010000000000000000000000000000000000000000000000000000000002815260040180806020018373ffffffffffffffffffffffffffffffffffffffff1673ffffffffffffffffffffffffffffffffffffffff168152602001828103825284818151815260200191508051906020019080838360005b8381101561295557808201518184015260208101905061293a565b50505050905090810190601f1680156129825780820380516001836020036101000a031916815260200191505b50935050505060206040518083038186803b1580156129a057600080fd5b505afa1580156129b4573d6000803e3d6000fd5b505050506040513d60208110156129ca57600080fd5b81019080805190602001909291905050505b80156129ee57506129ed828261380f565b5b15156129f957600080fd5b60006003836040518082805190602001908083835b602083101515612a335780518252602082019150602081019050602083039250612a0e565b6001836020036101000a038019825116818451168082178552505050505050905001915050908152602001604051809103902060008373ffffffffffffffffffffffffffffffffffffffff1673ffffffffffffffffffffffffffffffffffffffff16815260200190815260200160002090503373ffffffffffffffffffffffffffffffffffffffff166108fc82600101549081150290604051600060405180830381858888f19350505050158015612aef573d6000803e3d6000fd5b506000816001018190555060028160000160006101000a81548160ff02191690836004811115612b1b57fe5b02179055508060000160029054906101000a900460ff168160000160016101000a81548160ff021916908360ff1602179055507f87deb0bf3260371a3845769d523869b17a51dab5e82dd1d7db896b489fe42f5781600201600160009054906101000a900473ffffffffffffffffffffffffffffffffffffffff1673ffffffffffffffffffffffffffffffffffffffff1663e966b895866040518263ffffffff167c01000000000000000000000000000000000000000000000000000000000281526004018080602001828103825283818151815260200191508051906020019080838360005b83811015612c1d578082015181840152602081019050612c02565b50505050905090810190601f168015612c4a5780820380516001836020036101000a031916815260200191505b509250505060006040518083038186803b158015612c6757600080fd5b505afa158015612c7b573d6000803e3d6000fd5b505050506040513d6000823e3d601f19601f820116820180604052506020811015612ca557600080fd5b810190808051640100000000811115612cbd57600080fd5b82810190506020810184811115612cd357600080fd5b8151856001820283011164010000000082111715612cf057600080fd5b5050929190505050600160405180806020018060200184151515158152602001838103835286818154600181600116156101000203166002900481526020019150805460018160011615610100020316600290048015612d915780601f10612d6657610100808354040283529160200191612d91565b820191906000526020600020905b815481529060010190602001808311612d7457829003601f168201915b5050838103825285818151815260200191508051906020019080838360005b83811015612dcb578082015181840152602081019050612db0565b50505050905090810190601f168015612df85780820380516001836020036101000a031916815260200191505b509550505050505060405180910390a1505050565b6000600160009054906101000a900473ffffffffffffffffffffffffffffffffffffffff1673ffffffffffffffffffffffffffffffffffffffff16636c9c088c856040518263ffffffff167c01000000000000000000000000000000000000000000000000000000000281526004018080602001828103825283818151815260200191508051906020019080838360005b83811015612eb9578082015181840152602081019050612e9e565b50505050905090810190601f168015612ee65780820380516001836020036101000a031916815260200191505b509250505060206040518083038186803b158015612f0357600080fd5b505afa158015612f17573d6000803e3d6000fd5b505050506040513d6020811015612f2d57600080fd5b8101908080519060200190929190505050158015612f525750612f50848361380f565b155b80156130be5750600160009054906101000a900473ffffffffffffffffffffffffffffffffffffffff1673ffffffffffffffffffffffffffffffffffffffff1663bde1eee785846040518363ffffffff167c010000000000000000000000000000000000000000000000000000000002815260040180806020018373ffffffffffffffffffffffffffffffffffffffff1673ffffffffffffffffffffffffffffffffffffffff168152602001828103825284818151815260200191508051906020019080838360005b8381101561303657808201518184015260208101905061301b565b50505050905090810190601f1680156130635780820380516001836020036101000a031916815260200191505b50935050505060206040518083038186803b15801561308157600080fd5b505afa158015613095573d6000803e3d6000fd5b505050506040513d60208110156130ab57600080fd5b8101908080519060200190929190505050155b80156130d257506130cf848361267c565b83115b801561320c5750600160009054906101000a900473ffffffffffffffffffffffffffffffffffffffff1673ffffffffffffffffffffffffffffffffffffffff16631cc58aa9856040518263ffffffff167c01000000000000000000000000000000000000000000000000000000000281526004018080602001828103825283818151815260200191508051906020019080838360005b83811015613183578082015181840152602081019050613168565b50505050905090810190601f1680156131b05780820380516001836020036101000a031916815260200191505b509250505060206040518083038186803b1580156131cd57600080fd5b505afa1580156131e1573d6000803e3d6000fd5b505050506040513d60208110156131f757600080fd5b81019080805190602001909291905050508311155b90509392505050565b60006003836040518082805190602001908083835b60208310151561324f578051825260208201915060208101905060208303925061322a565b6001836020036101000a038019825116818451168082178552505050505050905001915050908152602001604051809103902060008373ffffffffffffffffffffffffffffffffffffffff1673ffffffffffffffffffffffffffffffffffffffff16815260200190815260200160002060000160029054906101000a900460ff1660ff16905092915050565b6132e58383612742565b60006003846040518082805190602001908083835b60208310151561331f57805182526020820191506020810190506020830392506132fa565b6001836020036101000a038019825116818451168082178552505050505050905001915050908152602001604051809103902060008473ffffffffffffffffffffffffffffffffffffffff1673ffffffffffffffffffffffffffffffffffffffff1681526020019081526020016000209050818160040190805190602001906133a9929190614838565b5050505050565b6000600260048111156133bf57fe5b6133c98484614355565b60048111156133d457fe5b14905092915050565b6060600260008473ffffffffffffffffffffffffffffffffffffffff1673ffffffffffffffffffffffffffffffffffffffff1681526020019081526020016000208281548110151561342b57fe5b906000526020600020018054600181600116156101000203166002900480601f0160208091040260200160405190810160405280929190818152602001828054600181600116156101000203166002900480156134c95780601f1061349e576101008083540402835291602001916134c9565b820191906000526020600020905b8154815290600101906020018083116134ac57829003601f168201915b5050505050905092915050565b60606003826040518082805190602001908083835b60208310151561351057805182526020820191506020810190506020830392506134eb565b6001836020036101000a038019825116818451168082178552505050505050905001915050908152602001604051809103902060003373ffffffffffffffffffffffffffffffffffffffff1673ffffffffffffffffffffffffffffffffffffffff1681526020019081526020016000206004018054600181600116156101000203166002900480601f0160208091040260200160405190810160405280929190818152602001828054600181600116156101000203166002900480156136175780601f106135ec57610100808354040283529160200191613617565b820191906000526020600020905b8154815290600101906020018083116135fa57829003601f168201915b50505050509050919050565b6000809054906101000a900473ffffffffffffffffffffffffffffffffffffffff1673ffffffffffffffffffffffffffffffffffffffff163373ffffffffffffffffffffffffffffffffffffffff1614151561367e57600080fd5b806000806101000a81548173ffffffffffffffffffffffffffffffffffffffff021916908373ffffffffffffffffffffffffffffffffffffffff16021790555050565b60606003836040518082805190602001908083835b6020831015156136fb57805182526020820191506020810190506020830392506136d6565b6001836020036101000a038019825116818451168082178552505050505050905001915050908152602001604051809103902060008373ffffffffffffffffffffffffffffffffffffffff1673ffffffffffffffffffffffffffffffffffffffff1681526020019081526020016000206003018054600181600116156101000203166002900480601f0160208091040260200160405190810160405280929190818152602001828054600181600116156101000203166002900480156138025780601f106137d757610100808354040283529160200191613802565b820191906000526020600020905b8154815290600101906020018083116137e557829003601f168201915b5050505050905092915050565b60006001600481111561381e57fe5b6138288484614355565b600481111561383357fe5b14905092915050565b600160009054906101000a900473ffffffffffffffffffffffffffffffffffffffff1673ffffffffffffffffffffffffffffffffffffffff1663c822d7f0836040518263ffffffff167c01000000000000000000000000000000000000000000000000000000000281526004018080602001828103825283818151815260200191508051906020019080838360005b838110156138e65780820151818401526020810190506138cb565b50505050905090810190601f1680156139135780820380516001836020036101000a031916815260200191505b509250505060206040518083038186803b15801561393057600080fd5b505afa158015613944573d6000803e3d6000fd5b505050506040513d602081101561395a57600080fd5b810190808051906020019092919050505080156139815750613980828260ff1633612e0d565b5b151561398c57600080fd5b6139968233611afb565b15156139a157600080fd5b6000600160009054906101000a900473ffffffffffffffffffffffffffffffffffffffff1673ffffffffffffffffffffffffffffffffffffffff16632ef3accc84846040518363ffffffff167c010000000000000000000000000000000000000000000000000000000002815260040180806020018360ff168152602001828103825284818151815260200191508051906020019080838360005b83811015613a57578082015181840152602081019050613a3c565b50505050905090810190601f168015613a845780820380516001836020036101000a031916815260200191505b50935050505060206040518083038186803b158015613aa257600080fd5b505afa158015613ab6573d6000803e3d6000fd5b505050506040513d6020811015613acc57600080fd5b8101908080519060200190929190505050905060006003846040518082805190602001908083835b602083101515613b195780518252602082019150602081019050602083039250613af4565b6001836020036101000a038019825116818451168082178552505050505050905001915050908152602001604051809103902060003373ffffffffffffffffffffffffffffffffffffffff1673ffffffffffffffffffffffffffffffffffffffff16815260200190815260200160002060000160019054906101000a900460ff16905060008160ff161115613ce757600160009054906101000a900473ffffffffffffffffffffffffffffffffffffffff1673ffffffffffffffffffffffffffffffffffffffff16632ef3accc85836040518363ffffffff167c010000000000000000000000000000000000000000000000000000000002815260040180806020018360ff168152602001828103825284818151815260200191508051906020019080838360005b83811015613c5c578082015181840152602081019050613c41565b50505050905090810190601f168015613c895780820380516001836020036101000a031916815260200191505b50935050505060206040518083038186803b158015613ca757600080fd5b505afa158015613cbb573d6000803e3d6000fd5b505050506040513d6020811015613cd157600080fd5b8101908080519060200190929190505050820391505b6000600160009054906101000a900473ffffffffffffffffffffffffffffffffffffffff1673ffffffffffffffffffffffffffffffffffffffff1663870d365d846040518263ffffffff167c01000000000000000000000000000000000000000000000000000000000281526004018082815260200191505060206040518083038186803b158015613d7857600080fd5b505afa158015613d8c573d6000803e3d6000fd5b505050506040513d6020811015613da257600080fd5b81019080805190602001909291905050509050803410151515613dc457600080fd5b60006003866040518082805190602001908083835b602083101515613dfe5780518252602082019150602081019050602083039250613dd9565b6001836020036101000a038019825116818451168082178552505050505050905001915050908152602001604051809103902060003373ffffffffffffffffffffffffffffffffffffffff1673ffffffffffffffffffffffffffffffffffffffff168152602001908152602001600020905060018160000160006101000a81548160ff02191690836004811115613e9157fe5b0217905550848160000160026101000a81548160ff021916908360ff1602179055508181600101819055507f7e558bb9898d8d17809158db6c967a8ea47d93a15a5d359a1186352a086cfb7c600160009054906101000a900473ffffffffffffffffffffffffffffffffffffffff1673ffffffffffffffffffffffffffffffffffffffff166368b2210d886040518263ffffffff167c01000000000000000000000000000000000000000000000000000000000281526004018080602001828103825283818151815260200191508051906020019080838360005b83811015613f87578082015181840152602081019050613f6c565b50505050905090810190601f168015613fb45780820380516001836020036101000a031916815260200191505b509250505060006040518083038186803b158015613fd157600080fd5b505afa158015613fe5573d6000803e3d6000fd5b505050506040513d6000823e3d601f19601f82011682018060405250602081101561400f57600080fd5b81019080805164010000000081111561402757600080fd5b8281019050602081018481111561403d57600080fd5b815185600182028301116401000000008211171561405a57600080fd5b5050929190505050600160009054906101000a900473ffffffffffffffffffffffffffffffffffffffff1673ffffffffffffffffffffffffffffffffffffffff1663e966b895896040518263ffffffff167c01000000000000000000000000000000000000000000000000000000000281526004018080602001828103825283818151815260200191508051906020019080838360005b8381101561410c5780820151818401526020810190506140f1565b50505050905090810190601f1680156141395780820380516001836020036101000a031916815260200191505b509250505060006040518083038186803b15801561415657600080fd5b505afa15801561416a573d6000803e3d6000fd5b505050506040513d6000823e3d601f19601f82011682018060405250602081101561419457600080fd5b8101908080516401000000008111156141ac57600080fd5b828101905060208101848111156141c257600080fd5b81518560018202830111640100000000821117156141df57600080fd5b5050929190505050336040518080602001806020018473ffffffffffffffffffffffffffffffffffffffff1673ffffffffffffffffffffffffffffffffffffffff168152602001838103835286818151815260200191508051906020019080838360005b8381101561425e578082015181840152602081019050614243565b50505050905090810190601f16801561428b5780820380516001836020036101000a031916815260200191505b50838103825285818151815260200191508051906020019080838360005b838110156142c45780820151818401526020810190506142a9565b50505050905090810190601f1680156142f15780820380516001836020036101000a031916815260200191505b509550505050505060405180910390a1505050505050565b6000600260008373ffffffffffffffffffffffffffffffffffffffff1673ffffffffffffffffffffffffffffffffffffffff168152602001908152602001600020805490509050919050565b60006003836040518082805190602001908083835b60208310151561438f578051825260208201915060208101905060208303925061436a565b6001836020036101000a038019825116818451168082178552505050505050905001915050908152602001604051809103902060008373ffffffffffffffffffffffffffffffffffffffff1673ffffffffffffffffffffffffffffffffffffffff16815260200190815260200160002060000160009054906101000a900460ff16905092915050565b600160009054906101000a900473ffffffffffffffffffffffffffffffffffffffff1673ffffffffffffffffffffffffffffffffffffffff1663c822d7f0826040518263ffffffff167c01000000000000000000000000000000000000000000000000000000000281526004018080602001828103825283818151815260200191508051906020019080838360005b838110156144c25780820151818401526020810190506144a7565b50505050905090810190601f1680156144ef5780820380516001836020036101000a031916815260200191505b509250505060206040518083038186803b15801561450c57600080fd5b505afa158015614520573d6000803e3d6000fd5b505050506040513d602081101561453657600080fd5b810190808051906020019092919050505080156145595750614558813361380f565b5b151561456457600080fd5b60006003826040518082805190602001908083835b60208310151561459e5780518252602082019150602081019050602083039250614579565b6001836020036101000a038019825116818451168082178552505050505050905001915050908152602001604051809103902060003373ffffffffffffffffffffffffffffffffffffffff1673ffffffffffffffffffffffffffffffffffffffff1681526020019081526020016000209050600081600101541015151561462457600080fd5b3373ffffffffffffffffffffffffffffffffffffffff166108fc82600101549081150290604051600060405180830381858888f1935050505015801561466e573d6000803e3d6000fd5b506000816001018190555060006003836040518082805190602001908083835b6020831015156146b3578051825260208201915060208101905060208303925061468e565b6001836020036101000a038019825116818451168082178552505050505050905001915050908152602001604051809103902060003373ffffffffffffffffffffffffffffffffffffffff1673ffffffffffffffffffffffffffffffffffffffff16815260200190815260200160002060000160019054906101000a900460ff16905060008160ff16111561476d5760028260000160006101000a81548160ff0219169083600481111561476357fe5b0217905550614794565b60048260000160006101000a81548160ff0219169083600481111561478e57fe5b02179055505b505050565b6000809054906101000a900473ffffffffffffffffffffffffffffffffffffffff1673ffffffffffffffffffffffffffffffffffffffff163373ffffffffffffffffffffffffffffffffffffffff161415156147f457600080fd5b80600160006101000a81548173ffffffffffffffffffffffffffffffffffffffff021916908373ffffffffffffffffffffffffffffffffffffffff16021790555050565b828054600181600116156101000203166002900490600052602060002090601f016020900481019282601f1061487957805160ff19168380011785556148a7565b828001600101855582156148a7579182015b828111156148a657825182559160200191906001019061488b565b5b5090506148b49190614938565b5090565b828054600181600116156101000203166002900490600052602060002090601f016020900481019282601f106148f957805160ff1916838001178555614927565b82800160010185558215614927579182015b8281111561492657825182559160200191906001019061490b565b5b5090506149349190614938565b5090565b61495a91905b8082111561495657600081600090555060010161493e565b5090565b9056fea165627a7a7230582041926bdfd0f114f8e3a15c14347eafe6fe95862cfb0d9a1c4dda135e2f12ccd90029",
  "source": "pragma solidity ^0.5.0;\n\nimport './AccessRestricted.sol';\nimport './Patents.sol';\n\ncontract Requests is AccessRestricted {\n\n    // TODO: remove deposit ?\n    // TODO: add text to require\n\n    Patents patents;\n\n    enum RequestStatus {NotRequested, Pending, Accepted, Rejected, Cancelled}\n\n    /* Struct for request */\n    struct Request {\n        RequestStatus status;\n        uint8 acceptedLicence;\n        uint8 requestedLicence;\n        uint deposit;\n        string email;\n        string encryptionKey;\n        string encryptedIpfsKey;\n    }\n\n    // force requesters to also register and put in Users struct ?\n    mapping(address => string[]) requestedPatentIDs; // requester to its requested patent IDs\n    mapping(string => mapping(address => Request)) requests; // patentID to (userID => Request)\n\n    event NewRequest(\n        string _ownerMail,\n        string _patentName,\n        address _rentee\n    );\n\n    event RequestResponse(\n        string _requesterEmail,\n        string _patentName,\n        bool _accepted\n    );\n\n    // ========================================= CONSTRUCTOR AND SETTERS ============================================\n\n    /* Constructor of the contract\n    * {param} uint : The price for depositing a pattern in Wei\n    */\n    constructor(address payable _patentsAddress) public {\n        patents = Patents(_patentsAddress);\n        // patents.setRequestsAddress(address(this));\n    }\n\n    /*Allows the contract owner to modify the address of the Patents Contract in case it would change*/\n    function setPatentsAddress(uint _newAddress) public onlyOwner {\n        patents = Patents(_newAddress);\n    }\n\n    // ========================================= REQUESTING FUNCTIONS ============================================\n\n    /* Function to request access to a patent\n    * {params} _patentName : name of patent\n    *          _requestedLicence : licence requested for the patent\n    *          _encryptionKey : key to encrypt AES key with (key exchange protocol)\n    * {costs} price of the patent : will be frozen until request is accepted, rejected, or cancelled\n    */\n    function requestAccess(string memory _patentID, uint8 _requestedLicence, string memory _encryptionKey, string memory _email) public payable {\n        require(patents.isRegistered(_patentID) && canRequest(_patentID, _requestedLicence, msg.sender));\n        require(!hasRequested(_patentID, msg.sender));\n        uint ethPrice = patents.getEthPrice(patents.getPrice(_patentID, _requestedLicence));\n        require(msg.value >= ethPrice);\n        requestedPatentIDs[msg.sender].push(_patentID);\n        requests[_patentID][msg.sender] = Request(RequestStatus.Pending, 0, _requestedLicence, ethPrice, _email, _encryptionKey, \"\");\n        patents.addBuyer(_patentID, msg.sender);\n        emit NewRequest(patents.getOwnerEmail(_patentID), patents.getPatentName(_patentID), msg.sender); // put licence in event\n    }\n\n    /* Resend a request for a patent (either to upgrade licence for an accepted request or\n    *  to request access for a previously rejected or cancelled request)\n    */\n    function resendRequest(string memory _patentID, uint8 _requestedLicence) public payable {\n        require(patents.isRegistered(_patentID) && canRequest(_patentID, _requestedLicence, msg.sender));\n        require(hasRequested(_patentID, msg.sender));\n        uint price = patents.getPrice(_patentID, _requestedLicence);\n        uint8 userLicence = requests[_patentID][msg.sender].acceptedLicence;\n        if (userLicence > 0) {\n            // just pay the difference if the user has already access to a licence\n            price -= patents.getPrice(_patentID, userLicence);\n        }\n        uint ethPrice = patents.getEthPrice(price);\n        require(msg.value >= ethPrice);\n        Request storage r = requests[_patentID][msg.sender];\n        r.status = RequestStatus.Pending;\n        r.requestedLicence = _requestedLicence;\n        r.deposit = ethPrice;\n        emit NewRequest(patents.getOwnerEmail(_patentID), patents.getPatentName(_patentID), msg.sender); // put licence, owner name, in event and parameter isNew ?\n    }\n\n    /* Function to accept a request\n    * {params} _patentID : id of patent\n    *          _user : user to give access to (must have requested)\n    *   Transfers the amount to the patent owner\n    */\n    function acceptRequest(string memory _patentID, address _user) public {\n        require(patents.isRegistered(_patentID) && patents.isOwner(_patentID, msg.sender) && isPending(_patentID, _user));\n        Request storage r = requests[_patentID][_user];\n        // require(r.deposit >= 0);\n        msg.sender.transfer(r.deposit);\n        r.deposit = 0;\n        r.status = RequestStatus.Accepted;\n        r.acceptedLicence = r.requestedLicence;\n        emit RequestResponse(r.email, patents.getPatentName(_patentID), true); // put licence in event\n    }\n\n    /* Function to grant access to a user\n    * {params} _patentID : id of patent\n    *          _user : user to give access to (must have requested)\n    *          _encryptedIpfsKey : encrypted AES key to decrypt file on ipfs\n    *   accept the pending request and gives the key to the requester\n    */\n    function grantAccess(string memory _patentID, address _user, string memory _encryptedIpfsKey) public {\n        acceptRequest(_patentID, _user);\n        Request storage r = requests[_patentID][_user];\n        r.encryptedIpfsKey = _encryptedIpfsKey;\n    }\n\n    /* Function to reject access to a patent or a licence upgrade\n    * {params} : Same as above\n    * Refunds the amount to the user\n    */\n    function rejectRequest(string memory _patentID, address payable _user) public {\n        require(patents.isRegistered(_patentID) && patents.isOwner(_patentID, msg.sender) && isPending(_patentID, _user));\n        Request storage r = requests[_patentID][_user];\n        require(r.deposit >= 0);\n        // Refund back to user\n        _user.transfer(r.deposit);\n        r.deposit = 0;\n        // if user already had access (i.e. asked for upgrade), just go back to previously accepted licence, otherwise reject\n        uint8 userLicence = requests[_patentID][msg.sender].acceptedLicence;\n        if (userLicence > 0) {\n            r.status = RequestStatus.Accepted;\n        } else {\n            r.status = RequestStatus.Rejected;\n        }\n        emit RequestResponse(r.email, patents.getPatentName(_patentID), false); // Put licence in event\n    }\n\n    /* Function that cancels a request (can only be called by user)\n    * {params} : _patentName : name of patent\n    */\n    function cancelRequest(string memory _patentID) public {\n        require(patents.isRegistered(_patentID) && isPending(_patentID, msg.sender));\n        Request storage r = requests[_patentID][msg.sender];\n        require(r.deposit >= 0);\n        // Refund back to user\n        msg.sender.transfer(r.deposit);\n        r.deposit = 0;\n        uint8 userLicence = requests[_patentID][msg.sender].acceptedLicence;\n        if (userLicence > 0) {\n            r.status = RequestStatus.Accepted;\n        } else {\n            r.status = RequestStatus.Cancelled;\n        }\n    }\n\n    /* ============================== View functions that do not require transactions ============================== */\n\n    /*Returns true if the given account can request the given patent*/\n    function canRequest(string memory _patentID, uint _requestedLicence, address _userID) public view returns (bool){\n        return !patents.isDeleted(_patentID) && !isPending(_patentID, _userID) && !patents.isOwner(_patentID, _userID)\n        && _requestedLicence > getAcceptedLicence(_patentID, _userID) && _requestedLicence <= patents.getMaxLicence(_patentID);\n    }\n\n    /*Returns the address of the buyer at _index  (Used for iterating)*/\n    function getNumRequestedPatents(address _userID) public view returns (uint){\n        return requestedPatentIDs[_userID].length;\n    }\n\n    /*Returns the requested patent ID of the _user at _index*/\n    function getRequestedPatents(address _userID, uint _index) public view returns (string memory){\n        return requestedPatentIDs[_userID][_index];\n    }\n\n    /*Returns the requested patent ID of the _user at _index*/\n    function getRequestStatus(string memory _patentID, address _userID) public view returns (RequestStatus){\n        return requests[_patentID][_userID].status;\n    }\n\n    /*Returns true of the given account has a pending request on the given patent*/\n    function isPending(string memory _patentID, address _userID) public view returns (bool){\n        return getRequestStatus(_patentID, _userID) == RequestStatus.Pending;\n    }\n\n    /*Returns true of the given account has a pending request on the given patent*/\n    function isAccepted(string memory _patentID, address _userID) public view returns (bool){\n        return getRequestStatus(_patentID, _userID) == RequestStatus.Accepted;\n    }\n\n    /* Returns the accepted licence of the given patent for the given account */\n    function getAcceptedLicence(string memory _patentID, address _userID) public view returns (uint){\n        return requests[_patentID][_userID].acceptedLicence;\n    }\n\n    /* Returns the accepted licence of the given patent for the given account */\n    function getRequestedLicence(string memory _patentID, address _userID) public view returns (uint){\n        return requests[_patentID][_userID].requestedLicence;\n    }\n\n    function hasRequested(string memory _patentID, address _userID) public view returns (bool) {\n        return getRequestStatus(_patentID, _userID) != RequestStatus.NotRequested;\n    }\n\n    /*Returns the requester's public key*/\n    function getEncryptionKey(string memory _patentID, address _userID) public view returns (string memory){\n        return requests[_patentID][_userID].encryptionKey;\n    }\n\n    /*Returns the encrypted IPFS AES key*/\n    function getEncryptedIpfsKey(string memory _patentID) public view returns (string memory){\n        // require(getAcceptedLicence(_patentID, msg.sender) > 0);\n        return requests[_patentID][msg.sender].encryptedIpfsKey;\n    }\n}\n",
  "sourcePath": "/Users/axel/Developer/DNAM/Web-Applications/react-app/contracts/Requests.sol",
  "compiler": {
    "name": "solc",
    "version": "0.5.0+commit.1d4f565a.Emscripten.clang"
  },
  "schemaVersion": "3.0.2",
  "updatedAt": "2019-07-07T13:12:28.526Z",
  "devdoc": {
    "methods": {}
  },
  "userdoc": {
    "methods": {}
  }
}