{
  "contractName": "TimeStamping",
  "abi": [
    {
      "constant": true,
      "inputs": [],
      "name": "stampCount",
      "outputs": [
        {
          "name": "",
          "type": "uint256"
        }
      ],
      "payable": false,
      "stateMutability": "view",
      "type": "function",
      "signature": "0x3974428f"
    },
    {
      "constant": true,
      "inputs": [],
      "name": "owner",
      "outputs": [
        {
          "name": "",
          "type": "address"
        }
      ],
      "payable": false,
      "stateMutability": "view",
      "type": "function",
      "signature": "0x8da5cb5b"
    },
    {
      "constant": true,
      "inputs": [],
      "name": "price",
      "outputs": [
        {
          "name": "",
          "type": "uint256"
        }
      ],
      "payable": false,
      "stateMutability": "view",
      "type": "function",
      "signature": "0xa035b1fe"
    },
    {
      "constant": false,
      "inputs": [
        {
          "name": "_newOwner",
          "type": "address"
        }
      ],
      "name": "changeOwner",
      "outputs": [],
      "payable": false,
      "stateMutability": "nonpayable",
      "type": "function",
      "signature": "0xa6f9dae1"
    },
    {
      "inputs": [
        {
          "name": "_price",
          "type": "uint256"
        },
        {
          "name": "_fiatContract",
          "type": "address"
        }
      ],
      "payable": false,
      "stateMutability": "nonpayable",
      "type": "constructor",
      "signature": "constructor"
    },
    {
      "payable": true,
      "stateMutability": "payable",
      "type": "fallback"
    },
    {
      "constant": false,
      "inputs": [],
      "name": "withdrawFunds",
      "outputs": [],
      "payable": false,
      "stateMutability": "nonpayable",
      "type": "function",
      "signature": "0x24600fc3"
    },
    {
      "constant": true,
      "inputs": [],
      "name": "getEthPrice",
      "outputs": [
        {
          "name": "",
          "type": "uint256"
        }
      ],
      "payable": false,
      "stateMutability": "view",
      "type": "function",
      "signature": "0x67c9b017"
    },
    {
      "constant": false,
      "inputs": [
        {
          "name": "_hash",
          "type": "string"
        }
      ],
      "name": "stamp",
      "outputs": [],
      "payable": true,
      "stateMutability": "payable",
      "type": "function",
      "signature": "0xf63c82fb"
    },
    {
      "constant": false,
      "inputs": [
        {
          "name": "_hash",
          "type": "string"
        }
      ],
      "name": "ownerStamp",
      "outputs": [],
      "payable": true,
      "stateMutability": "payable",
      "type": "function",
      "signature": "0xcaa2d01a"
    },
    {
      "constant": true,
      "inputs": [
        {
          "name": "_hash",
          "type": "string"
        }
      ],
      "name": "getTimestamp",
      "outputs": [
        {
          "name": "",
          "type": "uint256"
        }
      ],
      "payable": false,
      "stateMutability": "view",
      "type": "function",
      "signature": "0x32e5e595"
    },
    {
      "constant": true,
      "inputs": [
        {
          "name": "_hash",
          "type": "string"
        }
      ],
      "name": "getUser",
      "outputs": [
        {
          "name": "",
          "type": "address"
        }
      ],
      "payable": false,
      "stateMutability": "view",
      "type": "function",
      "signature": "0x31feb671"
    }
  ],
  "bytecode": "0x6080604052336000806101000a81548173ffffffffffffffffffffffffffffffffffffffff021916908373ffffffffffffffffffffffffffffffffffffffff16021790555034801561005057600080fd5b50604051604080610b498339810180604052604081101561007057600080fd5b8101908080519060200190929190805190602001909291905050508160028190555060006003819055505050610a9e806100ab6000396000f3fe6080604052600436106100a4576000357c0100000000000000000000000000000000000000000000000000000000900463ffffffff16806324600fc3146100a657806331feb671146100bd57806332e5e595146101c55780633974428f146102a157806367c9b017146102cc5780638da5cb5b146102f7578063a035b1fe1461034e578063a6f9dae114610379578063caa2d01a146103ca578063f63c82fb14610485575b005b3480156100b257600080fd5b506100bb610540565b005b3480156100c957600080fd5b50610183600480360360208110156100e057600080fd5b81019080803590602001906401000000008111156100fd57600080fd5b82018360208201111561010f57600080fd5b8035906020019184600183028401116401000000008311171561013157600080fd5b91908080601f016020809104026020016040519081016040528093929190818152602001838380828437600081840152601f19601f82011690508083019250505050505050919291929050505061061c565b604051808273ffffffffffffffffffffffffffffffffffffffff1673ffffffffffffffffffffffffffffffffffffffff16815260200191505060405180910390f35b3480156101d157600080fd5b5061028b600480360360208110156101e857600080fd5b810190808035906020019064010000000081111561020557600080fd5b82018360208201111561021757600080fd5b8035906020019184600183028401116401000000008311171561023957600080fd5b91908080601f016020809104026020016040519081016040528093929190818152602001838380828437600081840152601f19601f8201169050808301925050505050505091929192905050506106b4565b6040518082815260200191505060405180910390f35b3480156102ad57600080fd5b506102b661072c565b6040518082815260200191505060405180910390f35b3480156102d857600080fd5b506102e1610732565b6040518082815260200191505060405180910390f35b34801561030357600080fd5b5061030c610748565b604051808273ffffffffffffffffffffffffffffffffffffffff1673ffffffffffffffffffffffffffffffffffffffff16815260200191505060405180910390f35b34801561035a57600080fd5b5061036361076d565b6040518082815260200191505060405180910390f35b34801561038557600080fd5b506103c86004803603602081101561039c57600080fd5b81019080803573ffffffffffffffffffffffffffffffffffffffff169060200190929190505050610773565b005b610483600480360360208110156103e057600080fd5b81019080803590602001906401000000008111156103fd57600080fd5b82018360208201111561040f57600080fd5b8035906020019184600183028401116401000000008311171561043157600080fd5b91908080601f016020809104026020016040519081016040528093929190818152602001838380828437600081840152601f19601f820116905080830192505050505050509192919290505050610811565b005b61053e6004803603602081101561049b57600080fd5b81019080803590602001906401000000008111156104b857600080fd5b8201836020820111156104ca57600080fd5b803590602001918460018302840111640100000000831117156104ec57600080fd5b91908080601f016020809104026020016040519081016040528093929190818152602001838380828437600081840152601f19601f820116905080830192505050505050509192919290505050610879565b005b6000809054906101000a900473ffffffffffffffffffffffffffffffffffffffff1673ffffffffffffffffffffffffffffffffffffffff163373ffffffffffffffffffffffffffffffffffffffff1614151561059b57600080fd5b6000809054906101000a900473ffffffffffffffffffffffffffffffffffffffff1673ffffffffffffffffffffffffffffffffffffffff166108fc3073ffffffffffffffffffffffffffffffffffffffff16319081150290604051600060405180830381858888f19350505050158015610619573d6000803e3d6000fd5b50565b60006001826040518082805190602001908083835b6020831015156106565780518252602082019150602081019050602083039250610631565b6001836020036101000a038019825116818451168082178552505050505050905001915050908152602001604051809103902060000160009054906101000a900473ffffffffffffffffffffffffffffffffffffffff169050919050565b60006001826040518082805190602001908083835b6020831015156106ee57805182526020820191506020810190506020830392506106c9565b6001836020036101000a0380198251168184511680821785525050505050509050019150509081526020016040518091039020600101549050919050565b60035481565b6000608260025481151561074257fe5b04905090565b6000809054906101000a900473ffffffffffffffffffffffffffffffffffffffff1681565b60025481565b6000809054906101000a900473ffffffffffffffffffffffffffffffffffffffff1673ffffffffffffffffffffffffffffffffffffffff163373ffffffffffffffffffffffffffffffffffffffff161415156107ce57600080fd5b806000806101000a81548173ffffffffffffffffffffffffffffffffffffffff021916908373ffffffffffffffffffffffffffffffffffffffff16021790555050565b6000809054906101000a900473ffffffffffffffffffffffffffffffffffffffff1673ffffffffffffffffffffffffffffffffffffffff163373ffffffffffffffffffffffffffffffffffffffff1614151561086c57600080fd5b61087681336108f5565b50565b6000809054906101000a900473ffffffffffffffffffffffffffffffffffffffff1673ffffffffffffffffffffffffffffffffffffffff163373ffffffffffffffffffffffffffffffffffffffff16141580156108dd57506108d9610732565b3410155b15156108e857600080fd5b6108f281336108f5565b50565b60006001836040518082805190602001908083835b60208310151561092f578051825260208201915060208101905060208303925061090a565b6001836020036101000a03801982511681845116808217855250505050505090500191505090815260200160405180910390206001015414151561097257600080fd5b60408051908101604052808273ffffffffffffffffffffffffffffffffffffffff168152602001428152506001836040518082805190602001908083835b6020831015156109d557805182526020820191506020810190506020830392506109b0565b6001836020036101000a038019825116818451168082178552505050505050905001915050908152602001604051809103902060008201518160000160006101000a81548173ffffffffffffffffffffffffffffffffffffffff021916908373ffffffffffffffffffffffffffffffffffffffff16021790555060208201518160010155905050600360008154809291906001019190505550505056fea165627a7a723058209d724afc71175ce234ca2d5dde8fb3365c8f3296dccdc30911132d641629b8d40029",
  "source": "pragma solidity ^0.5.0;\n\nimport './AccessRestricted.sol';\nimport './FiatContract.sol';\n\ncontract TimeStamping is AccessRestricted {\n\n    struct Stamp {\n        address user;\n        uint timestamp;\n    }\n\n    mapping(string => Stamp) timestamps;\n    uint public price;\n\n    uint public stampCount;\n\n    // FiatContract public fiat;\n\n    constructor(uint _price, address _fiatContract) public {\n        price = _price;\n        // fiat = FiatContract(_fiatContract);\n        stampCount = 0;\n    }\n\n    //Withdraw funds only by owner\n    function withdrawFunds() public onlyOwner {\n        owner.transfer(address(this).balance);\n    }\n\n    //For simple donations\n    function () external payable {\n\n    }\n\n    /*Returns price */\n    function getEthPrice() public view returns (uint){\n        // return fiat.USD(0) * 100 * price;\n        return price / 130;\n    }\n\n    //Stamp a hash, costs a certain amount (for precise time stamping)\n    function stamp(string memory _hash) public payable{\n        require(msg.sender != owner && msg.value >= getEthPrice());\n        stampHash(_hash, msg.sender);\n    }\n\n    //Owner stamp, usually used to timestamp the root of a merkle tree\n    function ownerStamp(string memory _hash) public payable onlyOwner {\n        stampHash(_hash, msg.sender);\n    }\n\n    //Helper function to stamp hash for a certain user\n    function stampHash(string memory _hash, address user) private {\n        require(timestamps[_hash].timestamp == 0);\n        timestamps[_hash] = Stamp(user, now);\n        stampCount++;\n    }\n\n    //Return the timestamp of a given hash or 0 if non existent\n    function getTimestamp(string memory _hash) public view returns (uint){\n        return timestamps[_hash].timestamp;\n    }\n\n    //Get the user linked to a hash or 0 if non existent\n    function getUser(string memory _hash) public view returns (address){\n        return timestamps[_hash].user;\n    }\n}\n",
  "sourcePath": "/Users/axel/Developer/DNAM/Web-Applications/react-app/contracts/TimeStamping.sol",
  "compiler": {
    "name": "solc",
    "version": "0.5.0+commit.1d4f565a.Emscripten.clang"
  },
  "schemaVersion": "3.0.2",
  "updatedAt": "2019-03-21T17:22:38.875Z",
  "devdoc": {
    "methods": {}
  },
  "userdoc": {
    "methods": {}
  }
}