{
  "contractName": "Users",
  "abi": [
    {
      "constant": true,
      "inputs": [
        {
          "name": "",
          "type": "uint256"
        }
      ],
      "name": "userIDs",
      "outputs": [
        {
          "name": "",
          "type": "address"
        }
      ],
      "payable": false,
      "stateMutability": "view",
      "type": "function",
      "signature": "0xedfec35e"
    },
    {
      "constant": false,
      "inputs": [
        {
          "name": "_name",
          "type": "string"
        },
        {
          "name": "_email",
          "type": "string"
        }
      ],
      "name": "registerAccount",
      "outputs": [],
      "payable": false,
      "stateMutability": "nonpayable",
      "type": "function",
      "signature": "0xddc7b6a7"
    },
    {
      "constant": false,
      "inputs": [
        {
          "name": "_newName",
          "type": "string"
        },
        {
          "name": "_newEmail",
          "type": "string"
        }
      ],
      "name": "modifyAccount",
      "outputs": [],
      "payable": false,
      "stateMutability": "nonpayable",
      "type": "function",
      "signature": "0xf4769e86"
    },
    {
      "constant": false,
      "inputs": [
        {
          "name": "_userID",
          "type": "address"
        },
        {
          "name": "_patentID",
          "type": "string"
        }
      ],
      "name": "addPatent",
      "outputs": [],
      "payable": false,
      "stateMutability": "nonpayable",
      "type": "function",
      "signature": "0xd5e811e8"
    },
    {
      "constant": false,
      "inputs": [
        {
          "name": "_userID",
          "type": "address"
        },
        {
          "name": "_folderID",
          "type": "string"
        }
      ],
      "name": "addFolder",
      "outputs": [],
      "payable": false,
      "stateMutability": "nonpayable",
      "type": "function",
      "signature": "0x7746d739"
    },
    {
      "constant": true,
      "inputs": [
        {
          "name": "_userID",
          "type": "address"
        }
      ],
      "name": "getName",
      "outputs": [
        {
          "name": "",
          "type": "string"
        }
      ],
      "payable": false,
      "stateMutability": "view",
      "type": "function",
      "signature": "0x5fd4b08a"
    },
    {
      "constant": true,
      "inputs": [
        {
          "name": "_userID",
          "type": "address"
        }
      ],
      "name": "getEmail",
      "outputs": [
        {
          "name": "",
          "type": "string"
        }
      ],
      "payable": false,
      "stateMutability": "view",
      "type": "function",
      "signature": "0x4fa7353c"
    },
    {
      "constant": true,
      "inputs": [
        {
          "name": "_userID",
          "type": "address"
        }
      ],
      "name": "isRegistered",
      "outputs": [
        {
          "name": "",
          "type": "bool"
        }
      ],
      "payable": false,
      "stateMutability": "view",
      "type": "function",
      "signature": "0xc3c5a547"
    },
    {
      "constant": true,
      "inputs": [
        {
          "name": "_userID",
          "type": "address"
        }
      ],
      "name": "getNumPatents",
      "outputs": [
        {
          "name": "",
          "type": "uint256"
        }
      ],
      "payable": false,
      "stateMutability": "view",
      "type": "function",
      "signature": "0xb110660a"
    },
    {
      "constant": true,
      "inputs": [
        {
          "name": "_userID",
          "type": "address"
        },
        {
          "name": "_index",
          "type": "uint256"
        }
      ],
      "name": "getOwnedPatentIDs",
      "outputs": [
        {
          "name": "",
          "type": "string"
        }
      ],
      "payable": false,
      "stateMutability": "view",
      "type": "function",
      "signature": "0xdcb06c59"
    },
    {
      "constant": true,
      "inputs": [
        {
          "name": "_userID",
          "type": "address"
        }
      ],
      "name": "getNumFolders",
      "outputs": [
        {
          "name": "",
          "type": "uint256"
        }
      ],
      "payable": false,
      "stateMutability": "view",
      "type": "function",
      "signature": "0x30e903a3"
    },
    {
      "constant": true,
      "inputs": [
        {
          "name": "_userID",
          "type": "address"
        },
        {
          "name": "_index",
          "type": "uint256"
        }
      ],
      "name": "getOwnedFolderIDs",
      "outputs": [
        {
          "name": "",
          "type": "string"
        }
      ],
      "payable": false,
      "stateMutability": "view",
      "type": "function",
      "signature": "0xb1485ae2"
    },
    {
      "constant": true,
      "inputs": [
        {
          "name": "a",
          "type": "string"
        },
        {
          "name": "b",
          "type": "string"
        }
      ],
      "name": "equalStrings",
      "outputs": [
        {
          "name": "",
          "type": "bool"
        }
      ],
      "payable": false,
      "stateMutability": "pure",
      "type": "function",
      "signature": "0x791f0333"
    }
  ],
  "bytecode": "0x608060405234801561001057600080fd5b50611906806100206000396000f3fe6080604052600436106100c5576000357c0100000000000000000000000000000000000000000000000000000000900463ffffffff16806330e903a3146100ca5780634fa7353c1461012f5780635fd4b08a146101f95780637746d739146102c3578063791f0333146103ab578063b110660a14610522578063b1485ae214610587578063c3c5a5471461065b578063d5e811e8146106c4578063dcb06c59146107ac578063ddc7b6a714610880578063edfec35e146109df578063f4769e8614610a5a575b600080fd5b3480156100d657600080fd5b50610119600480360360208110156100ed57600080fd5b81019080803573ffffffffffffffffffffffffffffffffffffffff169060200190929190505050610bb9565b6040518082815260200191505060405180910390f35b34801561013b57600080fd5b5061017e6004803603602081101561015257600080fd5b81019080803573ffffffffffffffffffffffffffffffffffffffff169060200190929190505050610c08565b6040518080602001828103825283818151815260200191508051906020019080838360005b838110156101be5780820151818401526020810190506101a3565b50505050905090810190601f1680156101eb5780820380516001836020036101000a031916815260200191505b509250505060405180910390f35b34801561020557600080fd5b506102486004803603602081101561021c57600080fd5b81019080803573ffffffffffffffffffffffffffffffffffffffff169060200190929190505050610cec565b6040518080602001828103825283818151815260200191508051906020019080838360005b8381101561028857808201518184015260208101905061026d565b50505050905090810190601f1680156102b55780820380516001836020036101000a031916815260200191505b509250505060405180910390f35b3480156102cf57600080fd5b506103a9600480360360408110156102e657600080fd5b81019080803573ffffffffffffffffffffffffffffffffffffffff1690602001909291908035906020019064010000000081111561032357600080fd5b82018360208201111561033557600080fd5b8035906020019184600183028401116401000000008311171561035757600080fd5b91908080601f016020809104026020016040519081016040528093929190818152602001838380828437600081840152601f19601f820116905080830192505050505050509192919290505050610dd0565b005b3480156103b757600080fd5b50610508600480360360408110156103ce57600080fd5b81019080803590602001906401000000008111156103eb57600080fd5b8201836020820111156103fd57600080fd5b8035906020019184600183028401116401000000008311171561041f57600080fd5b91908080601f016020809104026020016040519081016040528093929190818152602001838380828437600081840152601f19601f8201169050808301925050505050505091929192908035906020019064010000000081111561048257600080fd5b82018360208201111561049457600080fd5b803590602001918460018302840111640100000000831117156104b657600080fd5b91908080601f016020809104026020016040519081016040528093929190818152602001838380828437600081840152601f19601f820116905080830192505050505050509192919290505050610e59565b604051808215151515815260200191505060405180910390f35b34801561052e57600080fd5b506105716004803603602081101561054557600080fd5b81019080803573ffffffffffffffffffffffffffffffffffffffff169060200190929190505050610f4c565b6040518082815260200191505060405180910390f35b34801561059357600080fd5b506105e0600480360360408110156105aa57600080fd5b81019080803573ffffffffffffffffffffffffffffffffffffffff16906020019092919080359060200190929190505050610f9b565b6040518080602001828103825283818151815260200191508051906020019080838360005b83811015610620578082015181840152602081019050610605565b50505050905090810190601f16801561064d5780820380516001836020036101000a031916815260200191505b509250505060405180910390f35b34801561066757600080fd5b506106aa6004803603602081101561067e57600080fd5b81019080803573ffffffffffffffffffffffffffffffffffffffff169060200190929190505050611097565b604051808215151515815260200191505060405180910390f35b3480156106d057600080fd5b506107aa600480360360408110156106e757600080fd5b81019080803573ffffffffffffffffffffffffffffffffffffffff1690602001909291908035906020019064010000000081111561072457600080fd5b82018360208201111561073657600080fd5b8035906020019184600183028401116401000000008311171561075857600080fd5b91908080601f016020809104026020016040519081016040528093929190818152602001838380828437600081840152601f19601f8201169050808301925050505050505091929192905050506110e6565b005b3480156107b857600080fd5b50610805600480360360408110156107cf57600080fd5b81019080803573ffffffffffffffffffffffffffffffffffffffff1690602001909291908035906020019092919050505061116f565b6040518080602001828103825283818151815260200191508051906020019080838360005b8381101561084557808201518184015260208101905061082a565b50505050905090810190601f1680156108725780820380516001836020036101000a031916815260200191505b509250505060405180910390f35b34801561088c57600080fd5b506109dd600480360360408110156108a357600080fd5b81019080803590602001906401000000008111156108c057600080fd5b8201836020820111156108d257600080fd5b803590602001918460018302840111640100000000831117156108f457600080fd5b91908080601f016020809104026020016040519081016040528093929190818152602001838380828437600081840152601f19601f8201169050808301925050505050505091929192908035906020019064010000000081111561095757600080fd5b82018360208201111561096957600080fd5b8035906020019184600183028401116401000000008311171561098b57600080fd5b91908080601f016020809104026020016040519081016040528093929190818152602001838380828437600081840152601f19601f82011690508083019250505050505050919291929050505061126b565b005b3480156109eb57600080fd5b50610a1860048036036020811015610a0257600080fd5b810190808035906020019092919050505061143c565b604051808273ffffffffffffffffffffffffffffffffffffffff1673ffffffffffffffffffffffffffffffffffffffff16815260200191505060405180910390f35b348015610a6657600080fd5b50610bb760048036036040811015610a7d57600080fd5b8101908080359060200190640100000000811115610a9a57600080fd5b820183602082011115610aac57600080fd5b80359060200191846001830284011164010000000083111715610ace57600080fd5b91908080601f016020809104026020016040519081016040528093929190818152602001838380828437600081840152601f19601f82011690508083019250505050505050919291929080359060200190640100000000811115610b3157600080fd5b820183602082011115610b4357600080fd5b80359060200191846001830284011164010000000083111715610b6557600080fd5b91908080601f016020809104026020016040519081016040528093929190818152602001838380828437600081840152601f19601f82011690508083019250505050505050919291929050505061147a565b005b6000600160008373ffffffffffffffffffffffffffffffffffffffff1673ffffffffffffffffffffffffffffffffffffffff168152602001908152602001600020600401805490509050919050565b6060600160008373ffffffffffffffffffffffffffffffffffffffff1673ffffffffffffffffffffffffffffffffffffffff1681526020019081526020016000206001018054600181600116156101000203166002900480601f016020809104026020016040519081016040528092919081815260200182805460018160011615610100020316600290048015610ce05780601f10610cb557610100808354040283529160200191610ce0565b820191906000526020600020905b815481529060010190602001808311610cc357829003601f168201915b50505050509050919050565b6060600160008373ffffffffffffffffffffffffffffffffffffffff1673ffffffffffffffffffffffffffffffffffffffff1681526020019081526020016000206000018054600181600116156101000203166002900480601f016020809104026020016040519081016040528092919081815260200182805460018160011615610100020316600290048015610dc45780601f10610d9957610100808354040283529160200191610dc4565b820191906000526020600020905b815481529060010190602001808311610da757829003601f168201915b50505050509050919050565b6000600160008473ffffffffffffffffffffffffffffffffffffffff1673ffffffffffffffffffffffffffffffffffffffff168152602001908152602001600020905080600401829080600181540180825580915050906001820390600052602060002001600090919290919091509080519060200190610e529291906116e1565b5050505050565b6000816040516020018082805190602001908083835b602083101515610e945780518252602082019150602081019050602083039250610e6f565b6001836020036101000a03801982511681845116808217855250505050505090500191505060405160208183030381529060405280519060200120836040516020018082805190602001908083835b602083101515610f085780518252602082019150602081019050602083039250610ee3565b6001836020036101000a0380198251168184511680821785525050505050509050019150506040516020818303038152906040528051906020012014905092915050565b6000600160008373ffffffffffffffffffffffffffffffffffffffff1673ffffffffffffffffffffffffffffffffffffffff168152602001908152602001600020600301805490509050919050565b6060600160008473ffffffffffffffffffffffffffffffffffffffff1673ffffffffffffffffffffffffffffffffffffffff16815260200190815260200160002060040182815481101515610fec57fe5b906000526020600020018054600181600116156101000203166002900480601f01602080910402602001604051908101604052809291908181526020018280546001816001161561010002031660029004801561108a5780601f1061105f5761010080835404028352916020019161108a565b820191906000526020600020905b81548152906001019060200180831161106d57829003601f168201915b5050505050905092915050565b600080600160008473ffffffffffffffffffffffffffffffffffffffff1673ffffffffffffffffffffffffffffffffffffffff1681526020019081526020016000206002015414159050919050565b6000600160008473ffffffffffffffffffffffffffffffffffffffff1673ffffffffffffffffffffffffffffffffffffffff1681526020019081526020016000209050806003018290806001815401808255809150509060018203906000526020600020016000909192909190915090805190602001906111689291906116e1565b5050505050565b6060600160008473ffffffffffffffffffffffffffffffffffffffff1673ffffffffffffffffffffffffffffffffffffffff168152602001908152602001600020600301828154811015156111c057fe5b906000526020600020018054600181600116156101000203166002900480601f01602080910402602001604051908101604052809291908181526020018280546001816001161561010002031660029004801561125e5780601f106112335761010080835404028352916020019161125e565b820191906000526020600020905b81548152906001019060200180831161124157829003601f168201915b5050505050905092915050565b61127433611097565b15151561128057600080fd5b60a06040519081016040528083815260200182815260200142815260200160006040519080825280602002602001820160405280156112d357816020015b60608152602001906001900390816112be5790505b508152602001600060405190808252806020026020018201604052801561130e57816020015b60608152602001906001900390816112f95790505b50815250600160003373ffffffffffffffffffffffffffffffffffffffff1673ffffffffffffffffffffffffffffffffffffffff168152602001908152602001600020600082015181600001908051906020019061136d929190611761565b50602082015181600101908051906020019061138a929190611761565b506040820151816002015560608201518160030190805190602001906113b19291906117e1565b5060808201518160040190805190602001906113ce9291906117e1565b5090505060003390806001815401808255809150509060018203906000526020600020016000909192909190916101000a81548173ffffffffffffffffffffffffffffffffffffffff021916908373ffffffffffffffffffffffffffffffffffffffff160217905550505050565b60008181548110151561144b57fe5b906000526020600020016000915054906101000a900473ffffffffffffffffffffffffffffffffffffffff1681565b61148333611097565b801561165c575061156e82600160003373ffffffffffffffffffffffffffffffffffffffff1673ffffffffffffffffffffffffffffffffffffffff1681526020019081526020016000206000018054600181600116156101000203166002900480601f0160208091040260200160405190810160405280929190818152602001828054600181600116156101000203166002900480156115645780601f1061153957610100808354040283529160200191611564565b820191906000526020600020905b81548152906001019060200180831161154757829003601f168201915b5050505050610e59565b158061165b575061165981600160003373ffffffffffffffffffffffffffffffffffffffff1673ffffffffffffffffffffffffffffffffffffffff1681526020019081526020016000206001018054600181600116156101000203166002900480601f01602080910402602001604051908101604052809291908181526020018280546001816001161561010002031660029004801561164f5780601f106116245761010080835404028352916020019161164f565b820191906000526020600020905b81548152906001019060200180831161163257829003601f168201915b5050505050610e59565b155b5b151561166757600080fd5b6000600160003373ffffffffffffffffffffffffffffffffffffffff1673ffffffffffffffffffffffffffffffffffffffff1681526020019081526020016000209050828160000190805190602001906116c29291906116e1565b50818160010190805190602001906116db9291906116e1565b50505050565b828054600181600116156101000203166002900490600052602060002090601f016020900481019282601f1061172257805160ff1916838001178555611750565b82800160010185558215611750579182015b8281111561174f578251825591602001919060010190611734565b5b50905061175d9190611841565b5090565b828054600181600116156101000203166002900490600052602060002090601f016020900481019282601f106117a257805160ff19168380011785556117d0565b828001600101855582156117d0579182015b828111156117cf5782518255916020019190600101906117b4565b5b5090506117dd9190611841565b5090565b828054828255906000526020600020908101928215611830579160200282015b8281111561182f57825182908051906020019061181f929190611761565b5091602001919060010190611801565b5b50905061183d9190611866565b5090565b61186391905b8082111561185f576000816000905550600101611847565b5090565b90565b61188f91905b8082111561188b57600081816118829190611892565b5060010161186c565b5090565b90565b50805460018160011615610100020316600290046000825580601f106118b857506118d7565b601f0160209004906000526020600020908101906118d69190611841565b5b5056fea165627a7a7230582079c7f8cd8e8ee43f45ff9f4cc6c22e8745318dff6ff0d6f884ae197cecc4a9150029",
  "source": "pragma solidity ^0.5.0;\n\ncontract Users {\n\n    // TODO: add text to require\n\n    /* Struct for user account */\n    struct User {\n        string name;\n        string email;\n        uint createdAt;\n        string[] ownedPatentIDs;\n        string[] ownedFolderIDs;\n    }\n\n    address[] public userIDs; // user addresses\n    mapping(address => User) private users; // user ID (address) to User\n\n    /* Function to register a new user */\n    function registerAccount(string memory _name, string memory _email) public {\n        require(!isRegistered(msg.sender));\n        users[msg.sender] = User(_name, _email, now, new string[](0), new string[](0));\n        userIDs.push(msg.sender);\n        // emit newAccount\n    }\n\n    /* Function to modify the user information */\n    function modifyAccount(string memory _newName, string memory _newEmail) public {\n        require(isRegistered(msg.sender) && (!equalStrings(_newName, users[msg.sender].name) || !equalStrings(_newEmail, users[msg.sender].email)));\n        User storage u = users[msg.sender];\n        u.name = _newName;\n        u.email = _newEmail;\n    }\n\n    function addPatent(address _userID, string memory _patentID) public {\n        User storage u = users[_userID];\n        u.ownedPatentIDs.push(_patentID);\n    }\n\n    function addFolder(address _userID, string memory _folderID) public {\n        User storage u = users[_userID];\n        u.ownedFolderIDs.push(_folderID);\n    }\n\n    /*Returns the name of the _userID*/\n    function getName(address _userID) public view returns (string memory) {\n        return users[_userID].name;\n    }\n\n    /*Returns the email address of the _userID*/\n    function getEmail(address _userID) public view returns (string memory) {\n        return users[_userID].email;\n    }\n\n    /*Returns true if the given account has already been registered*/\n    function isRegistered(address _userID) public view returns (bool) {\n        return users[_userID].createdAt != 0;\n    }\n\n    /*Returns the number of patents owned by the user*/\n    function getNumPatents(address _userID) public view returns (uint){\n        return users[_userID].ownedPatentIDs.length;\n    }\n\n    /*Returns the patent of the _user at index i (Used for iterating)*/\n    function getOwnedPatentIDs(address _userID, uint _index) public view returns (string memory){\n        return users[_userID].ownedPatentIDs[_index];\n    }\n\n    /*Returns the number of folders owned by the user*/\n    function getNumFolders(address _userID) public view returns (uint){\n        return users[_userID].ownedFolderIDs.length;\n    }\n\n    /*Returns the folder of the _user at index i (Used for iterating)*/\n    function getOwnedFolderIDs(address _userID, uint _index) public view returns (string memory){\n        return users[_userID].ownedFolderIDs[_index];\n    }\n\n    function equalStrings(string memory a, string memory b) public pure returns (bool) {\n        return (keccak256(abi.encodePacked((a))) == keccak256(abi.encodePacked((b))) );\n    }\n}\n",
  "sourcePath": "/Users/axel/Developer/DNAM/Web-Applications/react-app/contracts/Users.sol",
  "compiler": {
    "name": "solc",
    "version": "0.5.0+commit.1d4f565a.Emscripten.clang"
  },
  "schemaVersion": "3.0.2",
  "updatedAt": "2019-07-07T13:12:28.508Z",
  "devdoc": {
    "methods": {}
  },
  "userdoc": {
    "methods": {}
  }
}